{
	"contracts/UniswapV3SingleHopSwap.sol": {
		"UniswapV3SingleHopSwap": {
			"abi": [
				{
					"inputs": [
						{
							"internalType": "contract ISwapRouter",
							"name": "_swapRouter",
							"type": "address"
						}
					],
					"stateMutability": "nonpayable",
					"type": "constructor"
				},
				{
					"inputs": [],
					"name": "poolFee",
					"outputs": [
						{
							"internalType": "uint24",
							"name": "",
							"type": "uint24"
						}
					],
					"stateMutability": "view",
					"type": "function"
				},
				{
					"inputs": [
						{
							"internalType": "uint256",
							"name": "amountIn",
							"type": "uint256"
						}
					],
					"name": "swapExactInputSingle",
					"outputs": [
						{
							"internalType": "uint256",
							"name": "amountOut",
							"type": "uint256"
						}
					],
					"stateMutability": "nonpayable",
					"type": "function"
				},
				{
					"inputs": [
						{
							"internalType": "uint256",
							"name": "amountOut",
							"type": "uint256"
						},
						{
							"internalType": "uint256",
							"name": "amountInMaximum",
							"type": "uint256"
						}
					],
					"name": "swapExactOutputSingle",
					"outputs": [
						{
							"internalType": "uint256",
							"name": "amountIn",
							"type": "uint256"
						}
					],
					"stateMutability": "nonpayable",
					"type": "function"
				},
				{
					"inputs": [],
					"name": "swapRouter",
					"outputs": [
						{
							"internalType": "contract ISwapRouter",
							"name": "",
							"type": "address"
						}
					],
					"stateMutability": "view",
					"type": "function"
				}
			],
			"devdoc": {
				"kind": "dev",
				"methods": {
					"swapExactInputSingle(uint256)": {
						"details": "The calling address must approve this contract to spend at least `amountIn` worth of its DAI for this function to succeed.",
						"params": {
							"amountIn": "The exact amount of DAI that will be swapped for WETH9."
						},
						"returns": {
							"amountOut": "The amount of WETH9 received."
						}
					},
					"swapExactOutputSingle(uint256,uint256)": {
						"details": "The calling address must approve this contract to spend its DAI for this function to succeed. As the amount of input DAI is variable, the calling address will need to approve for a slightly higher amount, anticipating some variance.",
						"params": {
							"amountInMaximum": "The amount of DAI we are willing to spend to receive the specified amount of WETH9.",
							"amountOut": "The exact amount of WETH9 to receive from the swap."
						},
						"returns": {
							"amountIn": "The amount of DAI actually spent in the swap."
						}
					}
				},
				"version": 1
			},
			"evm": {
				"assembly": "    /* \"contracts/UniswapV3SingleHopSwap.sol\":201:4590  contract UniswapV3SingleHopSwap {... */\n  mstore(0x40, 0xa0)\n    /* \"contracts/UniswapV3SingleHopSwap.sol\":622:700  constructor (ISwapRouter _swapRouter){... */\n  callvalue\n  dup1\n  iszero\n  tag_1\n  jumpi\n  0x00\n  dup1\n  revert\ntag_1:\n  pop\n  mload(0x40)\n  sub(codesize, bytecodeSize)\n  dup1\n  bytecodeSize\n  dup4\n  codecopy\n  dup2\n  dup2\n  add\n  0x40\n  mstore\n  dup2\n  add\n  swap1\n  tag_2\n  swap2\n  swap1\n  tag_3\n  jump\t// in\ntag_2:\n    /* \"contracts/UniswapV3SingleHopSwap.sol\":682:693  _swapRouter */\n  dup1\n    /* \"contracts/UniswapV3SingleHopSwap.sol\":669:693  swapRouter = _swapRouter */\n  0xffffffffffffffffffffffffffffffffffffffff\n  and\n  0x80\n  dup2\n  0xffffffffffffffffffffffffffffffffffffffff\n  and\n  dup2\n  mstore\n  pop\n  pop\n    /* \"contracts/UniswapV3SingleHopSwap.sol\":622:700  constructor (ISwapRouter _swapRouter){... */\n  pop\n    /* \"contracts/UniswapV3SingleHopSwap.sol\":201:4590  contract UniswapV3SingleHopSwap {... */\n  jump(tag_6)\n    /* \"#utility.yul\":88:205   */\ntag_8:\n    /* \"#utility.yul\":197:198   */\n  0x00\n    /* \"#utility.yul\":194:195   */\n  dup1\n    /* \"#utility.yul\":187:199   */\n  revert\n    /* \"#utility.yul\":334:460   */\ntag_10:\n    /* \"#utility.yul\":371:378   */\n  0x00\n    /* \"#utility.yul\":411:453   */\n  0xffffffffffffffffffffffffffffffffffffffff\n    /* \"#utility.yul\":404:409   */\n  dup3\n    /* \"#utility.yul\":400:454   */\n  and\n    /* \"#utility.yul\":389:454   */\n  swap1\n  pop\n    /* \"#utility.yul\":334:460   */\n  swap2\n  swap1\n  pop\n  jump\t// out\n    /* \"#utility.yul\":466:562   */\ntag_11:\n    /* \"#utility.yul\":503:510   */\n  0x00\n    /* \"#utility.yul\":532:556   */\n  tag_21\n    /* \"#utility.yul\":550:555   */\n  dup3\n    /* \"#utility.yul\":532:556   */\n  tag_10\n  jump\t// in\ntag_21:\n    /* \"#utility.yul\":521:556   */\n  swap1\n  pop\n    /* \"#utility.yul\":466:562   */\n  swap2\n  swap1\n  pop\n  jump\t// out\n    /* \"#utility.yul\":568:683   */\ntag_12:\n    /* \"#utility.yul\":624:631   */\n  0x00\n    /* \"#utility.yul\":653:677   */\n  tag_23\n    /* \"#utility.yul\":671:676   */\n  dup3\n    /* \"#utility.yul\":653:677   */\n  tag_11\n  jump\t// in\ntag_23:\n    /* \"#utility.yul\":642:677   */\n  swap1\n  pop\n    /* \"#utility.yul\":568:683   */\n  swap2\n  swap1\n  pop\n  jump\t// out\n    /* \"#utility.yul\":689:849   */\ntag_13:\n    /* \"#utility.yul\":781:824   */\n  tag_25\n    /* \"#utility.yul\":818:823   */\n  dup2\n    /* \"#utility.yul\":781:824   */\n  tag_12\n  jump\t// in\ntag_25:\n    /* \"#utility.yul\":774:779   */\n  dup2\n    /* \"#utility.yul\":771:825   */\n  eq\n    /* \"#utility.yul\":761:843   */\n  tag_26\n  jumpi\n    /* \"#utility.yul\":839:840   */\n  0x00\n    /* \"#utility.yul\":836:837   */\n  dup1\n    /* \"#utility.yul\":829:841   */\n  revert\n    /* \"#utility.yul\":761:843   */\ntag_26:\n    /* \"#utility.yul\":689:849   */\n  pop\n  jump\t// out\n    /* \"#utility.yul\":855:1036   */\ntag_14:\n    /* \"#utility.yul\":931:936   */\n  0x00\n    /* \"#utility.yul\":962:968   */\n  dup2\n    /* \"#utility.yul\":956:969   */\n  mload\n    /* \"#utility.yul\":947:969   */\n  swap1\n  pop\n    /* \"#utility.yul\":978:1030   */\n  tag_28\n    /* \"#utility.yul\":1024:1029   */\n  dup2\n    /* \"#utility.yul\":978:1030   */\n  tag_13\n  jump\t// in\ntag_28:\n    /* \"#utility.yul\":855:1036   */\n  swap3\n  swap2\n  pop\n  pop\n  jump\t// out\n    /* \"#utility.yul\":1042:1431   */\ntag_3:\n    /* \"#utility.yul\":1131:1137   */\n  0x00\n    /* \"#utility.yul\":1180:1182   */\n  0x20\n    /* \"#utility.yul\":1168:1177   */\n  dup3\n    /* \"#utility.yul\":1159:1166   */\n  dup5\n    /* \"#utility.yul\":1155:1178   */\n  sub\n    /* \"#utility.yul\":1151:1183   */\n  slt\n    /* \"#utility.yul\":1148:1267   */\n  iszero\n  tag_30\n  jumpi\n    /* \"#utility.yul\":1186:1265   */\n  tag_31\n  tag_8\n  jump\t// in\ntag_31:\n    /* \"#utility.yul\":1148:1267   */\ntag_30:\n    /* \"#utility.yul\":1306:1307   */\n  0x00\n    /* \"#utility.yul\":1331:1414   */\n  tag_32\n    /* \"#utility.yul\":1406:1413   */\n  dup5\n    /* \"#utility.yul\":1397:1403   */\n  dup3\n    /* \"#utility.yul\":1386:1395   */\n  dup6\n    /* \"#utility.yul\":1382:1404   */\n  add\n    /* \"#utility.yul\":1331:1414   */\n  tag_14\n  jump\t// in\ntag_32:\n    /* \"#utility.yul\":1321:1414   */\n  swap2\n  pop\n    /* \"#utility.yul\":1277:1424   */\n  pop\n    /* \"#utility.yul\":1042:1431   */\n  swap3\n  swap2\n  pop\n  pop\n  jump\t// out\n    /* \"contracts/UniswapV3SingleHopSwap.sol\":201:4590  contract UniswapV3SingleHopSwap {... */\ntag_6:\n  mload(0x80)\n  codecopy(0x00, dataOffset(sub_0), dataSize(sub_0))\n  0x00\n  assignImmutable(\"0x6bee8a6b07414df6f08314df38bdc731f007a634b960783bee7b774fa18ce7ee\")\n  return(0x00, dataSize(sub_0))\nstop\n\nsub_0: assembly {\n        /* \"contracts/UniswapV3SingleHopSwap.sol\":201:4590  contract UniswapV3SingleHopSwap {... */\n      mstore(0x40, 0x80)\n      callvalue\n      dup1\n      iszero\n      tag_1\n      jumpi\n      0x00\n      dup1\n      revert\n    tag_1:\n      pop\n      jumpi(tag_2, lt(calldatasize, 0x04))\n      shr(0xe0, calldataload(0x00))\n      dup1\n      0x089fe6aa\n      eq\n      tag_3\n      jumpi\n      dup1\n      0x73bd43ad\n      eq\n      tag_4\n      jumpi\n      dup1\n      0xc31c9c07\n      eq\n      tag_5\n      jumpi\n      dup1\n      0xc4b69a18\n      eq\n      tag_6\n      jumpi\n    tag_2:\n      0x00\n      dup1\n      revert\n        /* \"contracts/UniswapV3SingleHopSwap.sol\":498:535  uint24 public constant poolFee = 3000 */\n    tag_3:\n      tag_7\n      tag_8\n      jump\t// in\n    tag_7:\n      mload(0x40)\n      tag_9\n      swap2\n      swap1\n      tag_10\n      jump\t// in\n    tag_9:\n      mload(0x40)\n      dup1\n      swap2\n      sub\n      swap1\n      return\n        /* \"contracts/UniswapV3SingleHopSwap.sol\":1174:2350  function swapExactInputSingle(uint256 amountIn) external returns (uint256 amountOut) {... */\n    tag_4:\n      tag_11\n      0x04\n      dup1\n      calldatasize\n      sub\n      dup2\n      add\n      swap1\n      tag_12\n      swap2\n      swap1\n      tag_13\n      jump\t// in\n    tag_12:\n      tag_14\n      jump\t// in\n    tag_11:\n      mload(0x40)\n      tag_15\n      swap2\n      swap1\n      tag_16\n      jump\t// in\n    tag_15:\n      mload(0x40)\n      dup1\n      swap2\n      sub\n      swap1\n      return\n        /* \"contracts/UniswapV3SingleHopSwap.sol\":394:433  ISwapRouter public immutable swapRouter */\n    tag_5:\n      tag_17\n      tag_18\n      jump\t// in\n    tag_17:\n      mload(0x40)\n      tag_19\n      swap2\n      swap1\n      tag_20\n      jump\t// in\n    tag_19:\n      mload(0x40)\n      dup1\n      swap2\n      sub\n      swap1\n      return\n        /* \"contracts/UniswapV3SingleHopSwap.sol\":2974:4587  function swapExactOutputSingle(uint256 amountOut, uint256 amountInMaximum) external returns (uint256 amountIn) {... */\n    tag_6:\n      tag_21\n      0x04\n      dup1\n      calldatasize\n      sub\n      dup2\n      add\n      swap1\n      tag_22\n      swap2\n      swap1\n      tag_23\n      jump\t// in\n    tag_22:\n      tag_24\n      jump\t// in\n    tag_21:\n      mload(0x40)\n      tag_25\n      swap2\n      swap1\n      tag_16\n      jump\t// in\n    tag_25:\n      mload(0x40)\n      dup1\n      swap2\n      sub\n      swap1\n      return\n        /* \"contracts/UniswapV3SingleHopSwap.sol\":498:535  uint24 public constant poolFee = 3000 */\n    tag_8:\n        /* \"contracts/UniswapV3SingleHopSwap.sol\":531:535  3000 */\n      0x0bb8\n        /* \"contracts/UniswapV3SingleHopSwap.sol\":498:535  uint24 public constant poolFee = 3000 */\n      dup2\n      jump\t// out\n        /* \"contracts/UniswapV3SingleHopSwap.sol\":1174:2350  function swapExactInputSingle(uint256 amountIn) external returns (uint256 amountOut) {... */\n    tag_14:\n        /* \"contracts/UniswapV3SingleHopSwap.sol\":1240:1257  uint256 amountOut */\n      0x00\n        /* \"contracts/UniswapV3SingleHopSwap.sol\":1385:1459  TransferHelper.safeTransferFrom(USDC, msg.sender, address(this), amountIn) */\n      tag_27\n        /* \"contracts/UniswapV3SingleHopSwap.sol\":344:386  0x1c7D4B196Cb0C7B01d743Fbc6116a902379C7238 */\n      0x1c7d4b196cb0c7b01d743fbc6116a902379c7238\n        /* \"contracts/UniswapV3SingleHopSwap.sol\":1423:1433  msg.sender */\n      caller\n        /* \"contracts/UniswapV3SingleHopSwap.sol\":1443:1447  this */\n      address\n        /* \"contracts/UniswapV3SingleHopSwap.sol\":1450:1458  amountIn */\n      dup6\n        /* \"contracts/UniswapV3SingleHopSwap.sol\":1385:1416  TransferHelper.safeTransferFrom */\n      tag_28\n        /* \"contracts/UniswapV3SingleHopSwap.sol\":1385:1459  TransferHelper.safeTransferFrom(USDC, msg.sender, address(this), amountIn) */\n      jump\t// in\n    tag_27:\n        /* \"contracts/UniswapV3SingleHopSwap.sol\":1514:1577  TransferHelper.safeApprove(USDC, address(swapRouter), amountIn) */\n      tag_29\n        /* \"contracts/UniswapV3SingleHopSwap.sol\":344:386  0x1c7D4B196Cb0C7B01d743Fbc6116a902379C7238 */\n      0x1c7d4b196cb0c7b01d743fbc6116a902379c7238\n        /* \"contracts/UniswapV3SingleHopSwap.sol\":1555:1565  swapRouter */\n      immutable(\"0x6bee8a6b07414df6f08314df38bdc731f007a634b960783bee7b774fa18ce7ee\")\n        /* \"contracts/UniswapV3SingleHopSwap.sol\":1568:1576  amountIn */\n      dup5\n        /* \"contracts/UniswapV3SingleHopSwap.sol\":1514:1540  TransferHelper.safeApprove */\n      tag_30\n        /* \"contracts/UniswapV3SingleHopSwap.sol\":1514:1577  TransferHelper.safeApprove(USDC, address(swapRouter), amountIn) */\n      jump\t// in\n    tag_29:\n        /* \"contracts/UniswapV3SingleHopSwap.sol\":1825:1873  ISwapRouter.ExactInputSingleParams memory params */\n      0x00\n        /* \"contracts/UniswapV3SingleHopSwap.sol\":1888:2224  ISwapRouter.ExactInputSingleParams({... */\n      mload(0x40)\n      dup1\n      0x0100\n      add\n      0x40\n      mstore\n      dup1\n        /* \"contracts/UniswapV3SingleHopSwap.sol\":344:386  0x1c7D4B196Cb0C7B01d743Fbc6116a902379C7238 */\n      0x1c7d4b196cb0c7b01d743fbc6116a902379c7238\n        /* \"contracts/UniswapV3SingleHopSwap.sol\":1888:2224  ISwapRouter.ExactInputSingleParams({... */\n      0xffffffffffffffffffffffffffffffffffffffff\n      and\n      dup2\n      mstore\n      0x20\n      add\n        /* \"contracts/UniswapV3SingleHopSwap.sol\":272:314  0xfFf9976782d46CC05630D1f6eBAb18b2324d6B14 */\n      0xfff9976782d46cc05630d1f6ebab18b2324d6b14\n        /* \"contracts/UniswapV3SingleHopSwap.sol\":1888:2224  ISwapRouter.ExactInputSingleParams({... */\n      0xffffffffffffffffffffffffffffffffffffffff\n      and\n      dup2\n      mstore\n      0x20\n      add\n        /* \"contracts/UniswapV3SingleHopSwap.sol\":531:535  3000 */\n      0x0bb8\n        /* \"contracts/UniswapV3SingleHopSwap.sol\":1888:2224  ISwapRouter.ExactInputSingleParams({... */\n      0xffffff\n      and\n      dup2\n      mstore\n      0x20\n      add\n        /* \"contracts/UniswapV3SingleHopSwap.sol\":2045:2055  msg.sender */\n      caller\n        /* \"contracts/UniswapV3SingleHopSwap.sol\":1888:2224  ISwapRouter.ExactInputSingleParams({... */\n      0xffffffffffffffffffffffffffffffffffffffff\n      and\n      dup2\n      mstore\n      0x20\n      add\n        /* \"contracts/UniswapV3SingleHopSwap.sol\":2083:2098  block.timestamp */\n      timestamp\n        /* \"contracts/UniswapV3SingleHopSwap.sol\":1888:2224  ISwapRouter.ExactInputSingleParams({... */\n      dup2\n      mstore\n      0x20\n      add\n        /* \"contracts/UniswapV3SingleHopSwap.sol\":2126:2134  amountIn */\n      dup5\n        /* \"contracts/UniswapV3SingleHopSwap.sol\":1888:2224  ISwapRouter.ExactInputSingleParams({... */\n      dup2\n      mstore\n      0x20\n      add\n        /* \"contracts/UniswapV3SingleHopSwap.sol\":2170:2171  0 */\n      0x00\n        /* \"contracts/UniswapV3SingleHopSwap.sol\":1888:2224  ISwapRouter.ExactInputSingleParams({... */\n      dup2\n      mstore\n      0x20\n      add\n        /* \"contracts/UniswapV3SingleHopSwap.sol\":2208:2209  0 */\n      0x00\n        /* \"contracts/UniswapV3SingleHopSwap.sol\":1888:2224  ISwapRouter.ExactInputSingleParams({... */\n      0xffffffffffffffffffffffffffffffffffffffff\n      and\n      dup2\n      mstore\n      pop\n        /* \"contracts/UniswapV3SingleHopSwap.sol\":1825:2224  ISwapRouter.ExactInputSingleParams memory params =... */\n      swap1\n      pop\n        /* \"contracts/UniswapV3SingleHopSwap.sol\":2308:2318  swapRouter */\n      immutable(\"0x6bee8a6b07414df6f08314df38bdc731f007a634b960783bee7b774fa18ce7ee\")\n        /* \"contracts/UniswapV3SingleHopSwap.sol\":2308:2335  swapRouter.exactInputSingle */\n      0xffffffffffffffffffffffffffffffffffffffff\n      and\n      0x414bf389\n        /* \"contracts/UniswapV3SingleHopSwap.sol\":2336:2342  params */\n      dup3\n        /* \"contracts/UniswapV3SingleHopSwap.sol\":2308:2343  swapRouter.exactInputSingle(params) */\n      mload(0x40)\n      dup3\n      0xffffffff\n      and\n      0xe0\n      shl\n      dup2\n      mstore\n      0x04\n      add\n      tag_31\n      swap2\n      swap1\n      tag_32\n      jump\t// in\n    tag_31:\n      0x20\n      mload(0x40)\n      dup1\n      dup4\n      sub\n      dup2\n      0x00\n      dup8\n      gas\n      call\n      iszero\n      dup1\n      iszero\n      tag_34\n      jumpi\n      returndatasize\n      0x00\n      dup1\n      returndatacopy\n      revert(0x00, returndatasize)\n    tag_34:\n      pop\n      pop\n      pop\n      pop\n      mload(0x40)\n      returndatasize\n      not(0x1f)\n      0x1f\n      dup3\n      add\n      and\n      dup3\n      add\n      dup1\n      0x40\n      mstore\n      pop\n      dup2\n      add\n      swap1\n      tag_35\n      swap2\n      swap1\n      tag_36\n      jump\t// in\n    tag_35:\n        /* \"contracts/UniswapV3SingleHopSwap.sol\":2296:2343  amountOut = swapRouter.exactInputSingle(params) */\n      swap2\n      pop\n        /* \"contracts/UniswapV3SingleHopSwap.sol\":1259:2350  {... */\n      pop\n        /* \"contracts/UniswapV3SingleHopSwap.sol\":1174:2350  function swapExactInputSingle(uint256 amountIn) external returns (uint256 amountOut) {... */\n      swap2\n      swap1\n      pop\n      jump\t// out\n        /* \"contracts/UniswapV3SingleHopSwap.sol\":394:433  ISwapRouter public immutable swapRouter */\n    tag_18:\n      immutable(\"0x6bee8a6b07414df6f08314df38bdc731f007a634b960783bee7b774fa18ce7ee\")\n      dup2\n      jump\t// out\n        /* \"contracts/UniswapV3SingleHopSwap.sol\":2974:4587  function swapExactOutputSingle(uint256 amountOut, uint256 amountInMaximum) external returns (uint256 amountIn) {... */\n    tag_24:\n        /* \"contracts/UniswapV3SingleHopSwap.sol\":3067:3083  uint256 amountIn */\n      0x00\n        /* \"contracts/UniswapV3SingleHopSwap.sol\":3161:3242  TransferHelper.safeTransferFrom(USDC, msg.sender, address(this), amountInMaximum) */\n      tag_38\n        /* \"contracts/UniswapV3SingleHopSwap.sol\":344:386  0x1c7D4B196Cb0C7B01d743Fbc6116a902379C7238 */\n      0x1c7d4b196cb0c7b01d743fbc6116a902379c7238\n        /* \"contracts/UniswapV3SingleHopSwap.sol\":3199:3209  msg.sender */\n      caller\n        /* \"contracts/UniswapV3SingleHopSwap.sol\":3219:3223  this */\n      address\n        /* \"contracts/UniswapV3SingleHopSwap.sol\":3226:3241  amountInMaximum */\n      dup6\n        /* \"contracts/UniswapV3SingleHopSwap.sol\":3161:3192  TransferHelper.safeTransferFrom */\n      tag_28\n        /* \"contracts/UniswapV3SingleHopSwap.sol\":3161:3242  TransferHelper.safeTransferFrom(USDC, msg.sender, address(this), amountInMaximum) */\n      jump\t// in\n    tag_38:\n        /* \"contracts/UniswapV3SingleHopSwap.sol\":3468:3538  TransferHelper.safeApprove(USDC, address(swapRouter), amountInMaximum) */\n      tag_39\n        /* \"contracts/UniswapV3SingleHopSwap.sol\":344:386  0x1c7D4B196Cb0C7B01d743Fbc6116a902379C7238 */\n      0x1c7d4b196cb0c7b01d743fbc6116a902379c7238\n        /* \"contracts/UniswapV3SingleHopSwap.sol\":3509:3519  swapRouter */\n      immutable(\"0x6bee8a6b07414df6f08314df38bdc731f007a634b960783bee7b774fa18ce7ee\")\n        /* \"contracts/UniswapV3SingleHopSwap.sol\":3522:3537  amountInMaximum */\n      dup5\n        /* \"contracts/UniswapV3SingleHopSwap.sol\":3468:3494  TransferHelper.safeApprove */\n      tag_30\n        /* \"contracts/UniswapV3SingleHopSwap.sol\":3468:3538  TransferHelper.safeApprove(USDC, address(swapRouter), amountInMaximum) */\n      jump\t// in\n    tag_39:\n        /* \"contracts/UniswapV3SingleHopSwap.sol\":3549:3598  ISwapRouter.ExactOutputSingleParams memory params */\n      0x00\n        /* \"contracts/UniswapV3SingleHopSwap.sol\":3613:3965  ISwapRouter.ExactOutputSingleParams({... */\n      mload(0x40)\n      dup1\n      0x0100\n      add\n      0x40\n      mstore\n      dup1\n        /* \"contracts/UniswapV3SingleHopSwap.sol\":344:386  0x1c7D4B196Cb0C7B01d743Fbc6116a902379C7238 */\n      0x1c7d4b196cb0c7b01d743fbc6116a902379c7238\n        /* \"contracts/UniswapV3SingleHopSwap.sol\":3613:3965  ISwapRouter.ExactOutputSingleParams({... */\n      0xffffffffffffffffffffffffffffffffffffffff\n      and\n      dup2\n      mstore\n      0x20\n      add\n        /* \"contracts/UniswapV3SingleHopSwap.sol\":272:314  0xfFf9976782d46CC05630D1f6eBAb18b2324d6B14 */\n      0xfff9976782d46cc05630d1f6ebab18b2324d6b14\n        /* \"contracts/UniswapV3SingleHopSwap.sol\":3613:3965  ISwapRouter.ExactOutputSingleParams({... */\n      0xffffffffffffffffffffffffffffffffffffffff\n      and\n      dup2\n      mstore\n      0x20\n      add\n        /* \"contracts/UniswapV3SingleHopSwap.sol\":531:535  3000 */\n      0x0bb8\n        /* \"contracts/UniswapV3SingleHopSwap.sol\":3613:3965  ISwapRouter.ExactOutputSingleParams({... */\n      0xffffff\n      and\n      dup2\n      mstore\n      0x20\n      add\n        /* \"contracts/UniswapV3SingleHopSwap.sol\":3771:3781  msg.sender */\n      caller\n        /* \"contracts/UniswapV3SingleHopSwap.sol\":3613:3965  ISwapRouter.ExactOutputSingleParams({... */\n      0xffffffffffffffffffffffffffffffffffffffff\n      and\n      dup2\n      mstore\n      0x20\n      add\n        /* \"contracts/UniswapV3SingleHopSwap.sol\":3809:3824  block.timestamp */\n      timestamp\n        /* \"contracts/UniswapV3SingleHopSwap.sol\":3613:3965  ISwapRouter.ExactOutputSingleParams({... */\n      dup2\n      mstore\n      0x20\n      add\n        /* \"contracts/UniswapV3SingleHopSwap.sol\":3853:3862  amountOut */\n      dup6\n        /* \"contracts/UniswapV3SingleHopSwap.sol\":3613:3965  ISwapRouter.ExactOutputSingleParams({... */\n      dup2\n      mstore\n      0x20\n      add\n        /* \"contracts/UniswapV3SingleHopSwap.sol\":3897:3912  amountInMaximum */\n      dup5\n        /* \"contracts/UniswapV3SingleHopSwap.sol\":3613:3965  ISwapRouter.ExactOutputSingleParams({... */\n      dup2\n      mstore\n      0x20\n      add\n        /* \"contracts/UniswapV3SingleHopSwap.sol\":3949:3950  0 */\n      0x00\n        /* \"contracts/UniswapV3SingleHopSwap.sol\":3613:3965  ISwapRouter.ExactOutputSingleParams({... */\n      0xffffffffffffffffffffffffffffffffffffffff\n      and\n      dup2\n      mstore\n      pop\n        /* \"contracts/UniswapV3SingleHopSwap.sol\":3549:3965  ISwapRouter.ExactOutputSingleParams memory params =... */\n      swap1\n      pop\n        /* \"contracts/UniswapV3SingleHopSwap.sol\":4089:4099  swapRouter */\n      immutable(\"0x6bee8a6b07414df6f08314df38bdc731f007a634b960783bee7b774fa18ce7ee\")\n        /* \"contracts/UniswapV3SingleHopSwap.sol\":4089:4117  swapRouter.exactOutputSingle */\n      0xffffffffffffffffffffffffffffffffffffffff\n      and\n      0xdb3e2198\n        /* \"contracts/UniswapV3SingleHopSwap.sol\":4118:4124  params */\n      dup3\n        /* \"contracts/UniswapV3SingleHopSwap.sol\":4089:4125  swapRouter.exactOutputSingle(params) */\n      mload(0x40)\n      dup3\n      0xffffffff\n      and\n      0xe0\n      shl\n      dup2\n      mstore\n      0x04\n      add\n      tag_40\n      swap2\n      swap1\n      tag_41\n      jump\t// in\n    tag_40:\n      0x20\n      mload(0x40)\n      dup1\n      dup4\n      sub\n      dup2\n      0x00\n      dup8\n      gas\n      call\n      iszero\n      dup1\n      iszero\n      tag_43\n      jumpi\n      returndatasize\n      0x00\n      dup1\n      returndatacopy\n      revert(0x00, returndatasize)\n    tag_43:\n      pop\n      pop\n      pop\n      pop\n      mload(0x40)\n      returndatasize\n      not(0x1f)\n      0x1f\n      dup3\n      add\n      and\n      dup3\n      add\n      dup1\n      0x40\n      mstore\n      pop\n      dup2\n      add\n      swap1\n      tag_44\n      swap2\n      swap1\n      tag_36\n      jump\t// in\n    tag_44:\n        /* \"contracts/UniswapV3SingleHopSwap.sol\":4078:4125  amountIn = swapRouter.exactOutputSingle(params) */\n      swap2\n      pop\n        /* \"contracts/UniswapV3SingleHopSwap.sol\":4396:4411  amountInMaximum */\n      dup3\n        /* \"contracts/UniswapV3SingleHopSwap.sol\":4385:4393  amountIn */\n      dup3\n        /* \"contracts/UniswapV3SingleHopSwap.sol\":4385:4411  amountIn < amountInMaximum */\n      lt\n        /* \"contracts/UniswapV3SingleHopSwap.sol\":4381:4581  if (amountIn < amountInMaximum) {... */\n      iszero\n      tag_45\n      jumpi\n        /* \"contracts/UniswapV3SingleHopSwap.sol\":4427:4483  TransferHelper.safeApprove(USDC, address(swapRouter), 0) */\n      tag_46\n        /* \"contracts/UniswapV3SingleHopSwap.sol\":344:386  0x1c7D4B196Cb0C7B01d743Fbc6116a902379C7238 */\n      0x1c7d4b196cb0c7b01d743fbc6116a902379c7238\n        /* \"contracts/UniswapV3SingleHopSwap.sol\":4468:4478  swapRouter */\n      immutable(\"0x6bee8a6b07414df6f08314df38bdc731f007a634b960783bee7b774fa18ce7ee\")\n        /* \"contracts/UniswapV3SingleHopSwap.sol\":4481:4482  0 */\n      0x00\n        /* \"contracts/UniswapV3SingleHopSwap.sol\":4427:4453  TransferHelper.safeApprove */\n      tag_30\n        /* \"contracts/UniswapV3SingleHopSwap.sol\":4427:4483  TransferHelper.safeApprove(USDC, address(swapRouter), 0) */\n      jump\t// in\n    tag_46:\n        /* \"contracts/UniswapV3SingleHopSwap.sol\":4497:4570  TransferHelper.safeTransfer(USDC, msg.sender, amountInMaximum - amountIn) */\n      tag_47\n        /* \"contracts/UniswapV3SingleHopSwap.sol\":344:386  0x1c7D4B196Cb0C7B01d743Fbc6116a902379C7238 */\n      0x1c7d4b196cb0c7b01d743fbc6116a902379c7238\n        /* \"contracts/UniswapV3SingleHopSwap.sol\":4531:4541  msg.sender */\n      caller\n        /* \"contracts/UniswapV3SingleHopSwap.sol\":4561:4569  amountIn */\n      dup5\n        /* \"contracts/UniswapV3SingleHopSwap.sol\":4543:4558  amountInMaximum */\n      dup7\n        /* \"contracts/UniswapV3SingleHopSwap.sol\":4543:4569  amountInMaximum - amountIn */\n      tag_48\n      swap2\n      swap1\n      tag_49\n      jump\t// in\n    tag_48:\n        /* \"contracts/UniswapV3SingleHopSwap.sol\":4497:4524  TransferHelper.safeTransfer */\n      tag_50\n        /* \"contracts/UniswapV3SingleHopSwap.sol\":4497:4570  TransferHelper.safeTransfer(USDC, msg.sender, amountInMaximum - amountIn) */\n      jump\t// in\n    tag_47:\n        /* \"contracts/UniswapV3SingleHopSwap.sol\":4381:4581  if (amountIn < amountInMaximum) {... */\n    tag_45:\n        /* \"contracts/UniswapV3SingleHopSwap.sol\":3085:4587  {... */\n      pop\n        /* \"contracts/UniswapV3SingleHopSwap.sol\":2974:4587  function swapExactOutputSingle(uint256 amountOut, uint256 amountInMaximum) external returns (uint256 amountIn) {... */\n      swap3\n      swap2\n      pop\n      pop\n      jump\t// out\n        /* \"@uniswap/v3-periphery/contracts/libraries/TransferHelper.sol\":561:919  function safeTransferFrom(... */\n    tag_28:\n        /* \"@uniswap/v3-periphery/contracts/libraries/TransferHelper.sol\":701:713  bool success */\n      0x00\n        /* \"@uniswap/v3-periphery/contracts/libraries/TransferHelper.sol\":715:732  bytes memory data */\n      dup1\n        /* \"@uniswap/v3-periphery/contracts/libraries/TransferHelper.sol\":748:753  token */\n      dup6\n        /* \"@uniswap/v3-periphery/contracts/libraries/TransferHelper.sol\":748:758  token.call */\n      0xffffffffffffffffffffffffffffffffffffffff\n      and\n        /* \"@uniswap/v3-periphery/contracts/libraries/TransferHelper.sol\":782:810  IERC20.transferFrom.selector */\n      shl(0xe0, 0x23b872dd)\n        /* \"@uniswap/v3-periphery/contracts/libraries/TransferHelper.sol\":812:816  from */\n      dup7\n        /* \"@uniswap/v3-periphery/contracts/libraries/TransferHelper.sol\":818:820  to */\n      dup7\n        /* \"@uniswap/v3-periphery/contracts/libraries/TransferHelper.sol\":822:827  value */\n      dup7\n        /* \"@uniswap/v3-periphery/contracts/libraries/TransferHelper.sol\":759:828  abi.encodeWithSelector(IERC20.transferFrom.selector, from, to, value) */\n      add(0x24, mload(0x40))\n      tag_52\n      swap4\n      swap3\n      swap2\n      swap1\n      tag_53\n      jump\t// in\n    tag_52:\n      mload(0x40)\n      0x20\n      dup2\n      dup4\n      sub\n      sub\n      dup2\n      mstore\n      swap1\n      0x40\n      mstore\n      swap1\n      not(0xffffffffffffffffffffffffffffffffffffffffffffffffffffffff)\n      and\n      0x20\n      dup3\n      add\n      dup1\n      mload\n      0xffffffffffffffffffffffffffffffffffffffffffffffffffffffff\n      dup4\n      dup2\n      dup4\n      and\n      or\n      dup4\n      mstore\n      pop\n      pop\n      pop\n      pop\n        /* \"@uniswap/v3-periphery/contracts/libraries/TransferHelper.sol\":748:829  token.call(abi.encodeWithSelector(IERC20.transferFrom.selector, from, to, value)) */\n      mload(0x40)\n      tag_54\n      swap2\n      swap1\n      tag_55\n      jump\t// in\n    tag_54:\n      0x00\n      mload(0x40)\n      dup1\n      dup4\n      sub\n      dup2\n      0x00\n      dup7\n      gas\n      call\n      swap2\n      pop\n      pop\n      returndatasize\n      dup1\n      0x00\n      dup2\n      eq\n      tag_58\n      jumpi\n      mload(0x40)\n      swap2\n      pop\n      and(add(returndatasize, 0x3f), not(0x1f))\n      dup3\n      add\n      0x40\n      mstore\n      returndatasize\n      dup3\n      mstore\n      returndatasize\n      0x00\n      0x20\n      dup5\n      add\n      returndatacopy\n      jump(tag_57)\n    tag_58:\n      0x60\n      swap2\n      pop\n    tag_57:\n      pop\n        /* \"@uniswap/v3-periphery/contracts/libraries/TransferHelper.sol\":700:829  (bool success, bytes memory data) =... */\n      swap2\n      pop\n      swap2\n      pop\n        /* \"@uniswap/v3-periphery/contracts/libraries/TransferHelper.sol\":847:854  success */\n      dup2\n        /* \"@uniswap/v3-periphery/contracts/libraries/TransferHelper.sol\":847:904  success && (data.length == 0 || abi.decode(data, (bool))) */\n      dup1\n      iszero\n      tag_59\n      jumpi\n      pop\n        /* \"@uniswap/v3-periphery/contracts/libraries/TransferHelper.sol\":874:875  0 */\n      0x00\n        /* \"@uniswap/v3-periphery/contracts/libraries/TransferHelper.sol\":859:863  data */\n      dup2\n        /* \"@uniswap/v3-periphery/contracts/libraries/TransferHelper.sol\":859:870  data.length */\n      mload\n        /* \"@uniswap/v3-periphery/contracts/libraries/TransferHelper.sol\":859:875  data.length == 0 */\n      eq\n        /* \"@uniswap/v3-periphery/contracts/libraries/TransferHelper.sol\":859:903  data.length == 0 || abi.decode(data, (bool)) */\n      dup1\n      tag_60\n      jumpi\n      pop\n        /* \"@uniswap/v3-periphery/contracts/libraries/TransferHelper.sol\":890:894  data */\n      dup1\n        /* \"@uniswap/v3-periphery/contracts/libraries/TransferHelper.sol\":879:903  abi.decode(data, (bool)) */\n      dup1\n      0x20\n      add\n      swap1\n      mload\n      dup2\n      add\n      swap1\n      tag_61\n      swap2\n      swap1\n      tag_62\n      jump\t// in\n    tag_61:\n        /* \"@uniswap/v3-periphery/contracts/libraries/TransferHelper.sol\":859:903  data.length == 0 || abi.decode(data, (bool)) */\n    tag_60:\n        /* \"@uniswap/v3-periphery/contracts/libraries/TransferHelper.sol\":847:904  success && (data.length == 0 || abi.decode(data, (bool))) */\n    tag_59:\n        /* \"@uniswap/v3-periphery/contracts/libraries/TransferHelper.sol\":839:912  require(success && (data.length == 0 || abi.decode(data, (bool))), 'STF') */\n      tag_63\n      jumpi\n      mload(0x40)\n      0x08c379a000000000000000000000000000000000000000000000000000000000\n      dup2\n      mstore\n      0x04\n      add\n      tag_64\n      swap1\n      tag_65\n      jump\t// in\n    tag_64:\n      mload(0x40)\n      dup1\n      swap2\n      sub\n      swap1\n      revert\n    tag_63:\n        /* \"@uniswap/v3-periphery/contracts/libraries/TransferHelper.sol\":690:919  {... */\n      pop\n      pop\n        /* \"@uniswap/v3-periphery/contracts/libraries/TransferHelper.sol\":561:919  function safeTransferFrom(... */\n      pop\n      pop\n      pop\n      pop\n      jump\t// out\n        /* \"@uniswap/v3-periphery/contracts/libraries/TransferHelper.sol\":1873:2180  function safeApprove(... */\n    tag_30:\n        /* \"@uniswap/v3-periphery/contracts/libraries/TransferHelper.sol\":1986:1998  bool success */\n      0x00\n        /* \"@uniswap/v3-periphery/contracts/libraries/TransferHelper.sol\":2000:2017  bytes memory data */\n      dup1\n        /* \"@uniswap/v3-periphery/contracts/libraries/TransferHelper.sol\":2021:2026  token */\n      dup5\n        /* \"@uniswap/v3-periphery/contracts/libraries/TransferHelper.sol\":2021:2031  token.call */\n      0xffffffffffffffffffffffffffffffffffffffff\n      and\n        /* \"@uniswap/v3-periphery/contracts/libraries/TransferHelper.sol\":2055:2078  IERC20.approve.selector */\n      shl(0xe0, 0x095ea7b3)\n        /* \"@uniswap/v3-periphery/contracts/libraries/TransferHelper.sol\":2080:2082  to */\n      dup6\n        /* \"@uniswap/v3-periphery/contracts/libraries/TransferHelper.sol\":2084:2089  value */\n      dup6\n        /* \"@uniswap/v3-periphery/contracts/libraries/TransferHelper.sol\":2032:2090  abi.encodeWithSelector(IERC20.approve.selector, to, value) */\n      add(0x24, mload(0x40))\n      tag_67\n      swap3\n      swap2\n      swap1\n      tag_68\n      jump\t// in\n    tag_67:\n      mload(0x40)\n      0x20\n      dup2\n      dup4\n      sub\n      sub\n      dup2\n      mstore\n      swap1\n      0x40\n      mstore\n      swap1\n      not(0xffffffffffffffffffffffffffffffffffffffffffffffffffffffff)\n      and\n      0x20\n      dup3\n      add\n      dup1\n      mload\n      0xffffffffffffffffffffffffffffffffffffffffffffffffffffffff\n      dup4\n      dup2\n      dup4\n      and\n      or\n      dup4\n      mstore\n      pop\n      pop\n      pop\n      pop\n        /* \"@uniswap/v3-periphery/contracts/libraries/TransferHelper.sol\":2021:2091  token.call(abi.encodeWithSelector(IERC20.approve.selector, to, value)) */\n      mload(0x40)\n      tag_69\n      swap2\n      swap1\n      tag_55\n      jump\t// in\n    tag_69:\n      0x00\n      mload(0x40)\n      dup1\n      dup4\n      sub\n      dup2\n      0x00\n      dup7\n      gas\n      call\n      swap2\n      pop\n      pop\n      returndatasize\n      dup1\n      0x00\n      dup2\n      eq\n      tag_72\n      jumpi\n      mload(0x40)\n      swap2\n      pop\n      and(add(returndatasize, 0x3f), not(0x1f))\n      dup3\n      add\n      0x40\n      mstore\n      returndatasize\n      dup3\n      mstore\n      returndatasize\n      0x00\n      0x20\n      dup5\n      add\n      returndatacopy\n      jump(tag_71)\n    tag_72:\n      0x60\n      swap2\n      pop\n    tag_71:\n      pop\n        /* \"@uniswap/v3-periphery/contracts/libraries/TransferHelper.sol\":1985:2091  (bool success, bytes memory data) = token.call(abi.encodeWithSelector(IERC20.approve.selector, to, value)) */\n      swap2\n      pop\n      swap2\n      pop\n        /* \"@uniswap/v3-periphery/contracts/libraries/TransferHelper.sol\":2109:2116  success */\n      dup2\n        /* \"@uniswap/v3-periphery/contracts/libraries/TransferHelper.sol\":2109:2166  success && (data.length == 0 || abi.decode(data, (bool))) */\n      dup1\n      iszero\n      tag_73\n      jumpi\n      pop\n        /* \"@uniswap/v3-periphery/contracts/libraries/TransferHelper.sol\":2136:2137  0 */\n      0x00\n        /* \"@uniswap/v3-periphery/contracts/libraries/TransferHelper.sol\":2121:2125  data */\n      dup2\n        /* \"@uniswap/v3-periphery/contracts/libraries/TransferHelper.sol\":2121:2132  data.length */\n      mload\n        /* \"@uniswap/v3-periphery/contracts/libraries/TransferHelper.sol\":2121:2137  data.length == 0 */\n      eq\n        /* \"@uniswap/v3-periphery/contracts/libraries/TransferHelper.sol\":2121:2165  data.length == 0 || abi.decode(data, (bool)) */\n      dup1\n      tag_74\n      jumpi\n      pop\n        /* \"@uniswap/v3-periphery/contracts/libraries/TransferHelper.sol\":2152:2156  data */\n      dup1\n        /* \"@uniswap/v3-periphery/contracts/libraries/TransferHelper.sol\":2141:2165  abi.decode(data, (bool)) */\n      dup1\n      0x20\n      add\n      swap1\n      mload\n      dup2\n      add\n      swap1\n      tag_75\n      swap2\n      swap1\n      tag_62\n      jump\t// in\n    tag_75:\n        /* \"@uniswap/v3-periphery/contracts/libraries/TransferHelper.sol\":2121:2165  data.length == 0 || abi.decode(data, (bool)) */\n    tag_74:\n        /* \"@uniswap/v3-periphery/contracts/libraries/TransferHelper.sol\":2109:2166  success && (data.length == 0 || abi.decode(data, (bool))) */\n    tag_73:\n        /* \"@uniswap/v3-periphery/contracts/libraries/TransferHelper.sol\":2101:2173  require(success && (data.length == 0 || abi.decode(data, (bool))), 'SA') */\n      tag_76\n      jumpi\n      mload(0x40)\n      0x08c379a000000000000000000000000000000000000000000000000000000000\n      dup2\n      mstore\n      0x04\n      add\n      tag_77\n      swap1\n      tag_78\n      jump\t// in\n    tag_77:\n      mload(0x40)\n      dup1\n      swap2\n      sub\n      swap1\n      revert\n    tag_76:\n        /* \"@uniswap/v3-periphery/contracts/libraries/TransferHelper.sol\":1975:2180  {... */\n      pop\n      pop\n        /* \"@uniswap/v3-periphery/contracts/libraries/TransferHelper.sol\":1873:2180  function safeApprove(... */\n      pop\n      pop\n      pop\n      jump\t// out\n        /* \"@uniswap/v3-periphery/contracts/libraries/TransferHelper.sol\":1211:1520  function safeTransfer(... */\n    tag_50:\n        /* \"@uniswap/v3-periphery/contracts/libraries/TransferHelper.sol\":1325:1337  bool success */\n      0x00\n        /* \"@uniswap/v3-periphery/contracts/libraries/TransferHelper.sol\":1339:1356  bytes memory data */\n      dup1\n        /* \"@uniswap/v3-periphery/contracts/libraries/TransferHelper.sol\":1360:1365  token */\n      dup5\n        /* \"@uniswap/v3-periphery/contracts/libraries/TransferHelper.sol\":1360:1370  token.call */\n      0xffffffffffffffffffffffffffffffffffffffff\n      and\n        /* \"@uniswap/v3-periphery/contracts/libraries/TransferHelper.sol\":1394:1418  IERC20.transfer.selector */\n      shl(0xe0, 0xa9059cbb)\n        /* \"@uniswap/v3-periphery/contracts/libraries/TransferHelper.sol\":1420:1422  to */\n      dup6\n        /* \"@uniswap/v3-periphery/contracts/libraries/TransferHelper.sol\":1424:1429  value */\n      dup6\n        /* \"@uniswap/v3-periphery/contracts/libraries/TransferHelper.sol\":1371:1430  abi.encodeWithSelector(IERC20.transfer.selector, to, value) */\n      add(0x24, mload(0x40))\n      tag_80\n      swap3\n      swap2\n      swap1\n      tag_68\n      jump\t// in\n    tag_80:\n      mload(0x40)\n      0x20\n      dup2\n      dup4\n      sub\n      sub\n      dup2\n      mstore\n      swap1\n      0x40\n      mstore\n      swap1\n      not(0xffffffffffffffffffffffffffffffffffffffffffffffffffffffff)\n      and\n      0x20\n      dup3\n      add\n      dup1\n      mload\n      0xffffffffffffffffffffffffffffffffffffffffffffffffffffffff\n      dup4\n      dup2\n      dup4\n      and\n      or\n      dup4\n      mstore\n      pop\n      pop\n      pop\n      pop\n        /* \"@uniswap/v3-periphery/contracts/libraries/TransferHelper.sol\":1360:1431  token.call(abi.encodeWithSelector(IERC20.transfer.selector, to, value)) */\n      mload(0x40)\n      tag_81\n      swap2\n      swap1\n      tag_55\n      jump\t// in\n    tag_81:\n      0x00\n      mload(0x40)\n      dup1\n      dup4\n      sub\n      dup2\n      0x00\n      dup7\n      gas\n      call\n      swap2\n      pop\n      pop\n      returndatasize\n      dup1\n      0x00\n      dup2\n      eq\n      tag_84\n      jumpi\n      mload(0x40)\n      swap2\n      pop\n      and(add(returndatasize, 0x3f), not(0x1f))\n      dup3\n      add\n      0x40\n      mstore\n      returndatasize\n      dup3\n      mstore\n      returndatasize\n      0x00\n      0x20\n      dup5\n      add\n      returndatacopy\n      jump(tag_83)\n    tag_84:\n      0x60\n      swap2\n      pop\n    tag_83:\n      pop\n        /* \"@uniswap/v3-periphery/contracts/libraries/TransferHelper.sol\":1324:1431  (bool success, bytes memory data) = token.call(abi.encodeWithSelector(IERC20.transfer.selector, to, value)) */\n      swap2\n      pop\n      swap2\n      pop\n        /* \"@uniswap/v3-periphery/contracts/libraries/TransferHelper.sol\":1449:1456  success */\n      dup2\n        /* \"@uniswap/v3-periphery/contracts/libraries/TransferHelper.sol\":1449:1506  success && (data.length == 0 || abi.decode(data, (bool))) */\n      dup1\n      iszero\n      tag_85\n      jumpi\n      pop\n        /* \"@uniswap/v3-periphery/contracts/libraries/TransferHelper.sol\":1476:1477  0 */\n      0x00\n        /* \"@uniswap/v3-periphery/contracts/libraries/TransferHelper.sol\":1461:1465  data */\n      dup2\n        /* \"@uniswap/v3-periphery/contracts/libraries/TransferHelper.sol\":1461:1472  data.length */\n      mload\n        /* \"@uniswap/v3-periphery/contracts/libraries/TransferHelper.sol\":1461:1477  data.length == 0 */\n      eq\n        /* \"@uniswap/v3-periphery/contracts/libraries/TransferHelper.sol\":1461:1505  data.length == 0 || abi.decode(data, (bool)) */\n      dup1\n      tag_86\n      jumpi\n      pop\n        /* \"@uniswap/v3-periphery/contracts/libraries/TransferHelper.sol\":1492:1496  data */\n      dup1\n        /* \"@uniswap/v3-periphery/contracts/libraries/TransferHelper.sol\":1481:1505  abi.decode(data, (bool)) */\n      dup1\n      0x20\n      add\n      swap1\n      mload\n      dup2\n      add\n      swap1\n      tag_87\n      swap2\n      swap1\n      tag_62\n      jump\t// in\n    tag_87:\n        /* \"@uniswap/v3-periphery/contracts/libraries/TransferHelper.sol\":1461:1505  data.length == 0 || abi.decode(data, (bool)) */\n    tag_86:\n        /* \"@uniswap/v3-periphery/contracts/libraries/TransferHelper.sol\":1449:1506  success && (data.length == 0 || abi.decode(data, (bool))) */\n    tag_85:\n        /* \"@uniswap/v3-periphery/contracts/libraries/TransferHelper.sol\":1441:1513  require(success && (data.length == 0 || abi.decode(data, (bool))), 'ST') */\n      tag_88\n      jumpi\n      mload(0x40)\n      0x08c379a000000000000000000000000000000000000000000000000000000000\n      dup2\n      mstore\n      0x04\n      add\n      tag_89\n      swap1\n      tag_90\n      jump\t// in\n    tag_89:\n      mload(0x40)\n      dup1\n      swap2\n      sub\n      swap1\n      revert\n    tag_88:\n        /* \"@uniswap/v3-periphery/contracts/libraries/TransferHelper.sol\":1314:1520  {... */\n      pop\n      pop\n        /* \"@uniswap/v3-periphery/contracts/libraries/TransferHelper.sol\":1211:1520  function safeTransfer(... */\n      pop\n      pop\n      pop\n      jump\t// out\n        /* \"#utility.yul\":7:98   */\n    tag_91:\n        /* \"#utility.yul\":43:50   */\n      0x00\n        /* \"#utility.yul\":83:91   */\n      0xffffff\n        /* \"#utility.yul\":76:81   */\n      dup3\n        /* \"#utility.yul\":72:92   */\n      and\n        /* \"#utility.yul\":61:92   */\n      swap1\n      pop\n        /* \"#utility.yul\":7:98   */\n      swap2\n      swap1\n      pop\n      jump\t// out\n        /* \"#utility.yul\":104:219   */\n    tag_92:\n        /* \"#utility.yul\":189:212   */\n      tag_133\n        /* \"#utility.yul\":206:211   */\n      dup2\n        /* \"#utility.yul\":189:212   */\n      tag_91\n      jump\t// in\n    tag_133:\n        /* \"#utility.yul\":184:187   */\n      dup3\n        /* \"#utility.yul\":177:213   */\n      mstore\n        /* \"#utility.yul\":104:219   */\n      pop\n      pop\n      jump\t// out\n        /* \"#utility.yul\":225:443   */\n    tag_10:\n        /* \"#utility.yul\":316:320   */\n      0x00\n        /* \"#utility.yul\":354:356   */\n      0x20\n        /* \"#utility.yul\":343:352   */\n      dup3\n        /* \"#utility.yul\":339:357   */\n      add\n        /* \"#utility.yul\":331:357   */\n      swap1\n      pop\n        /* \"#utility.yul\":367:436   */\n      tag_135\n        /* \"#utility.yul\":433:434   */\n      0x00\n        /* \"#utility.yul\":422:431   */\n      dup4\n        /* \"#utility.yul\":418:435   */\n      add\n        /* \"#utility.yul\":409:415   */\n      dup5\n        /* \"#utility.yul\":367:436   */\n      tag_92\n      jump\t// in\n    tag_135:\n        /* \"#utility.yul\":225:443   */\n      swap3\n      swap2\n      pop\n      pop\n      jump\t// out\n        /* \"#utility.yul\":530:647   */\n    tag_94:\n        /* \"#utility.yul\":639:640   */\n      0x00\n        /* \"#utility.yul\":636:637   */\n      dup1\n        /* \"#utility.yul\":629:641   */\n      revert\n        /* \"#utility.yul\":776:853   */\n    tag_96:\n        /* \"#utility.yul\":813:820   */\n      0x00\n        /* \"#utility.yul\":842:847   */\n      dup2\n        /* \"#utility.yul\":831:847   */\n      swap1\n      pop\n        /* \"#utility.yul\":776:853   */\n      swap2\n      swap1\n      pop\n      jump\t// out\n        /* \"#utility.yul\":859:981   */\n    tag_97:\n        /* \"#utility.yul\":932:956   */\n      tag_141\n        /* \"#utility.yul\":950:955   */\n      dup2\n        /* \"#utility.yul\":932:956   */\n      tag_96\n      jump\t// in\n    tag_141:\n        /* \"#utility.yul\":925:930   */\n      dup2\n        /* \"#utility.yul\":922:957   */\n      eq\n        /* \"#utility.yul\":912:975   */\n      tag_142\n      jumpi\n        /* \"#utility.yul\":971:972   */\n      0x00\n        /* \"#utility.yul\":968:969   */\n      dup1\n        /* \"#utility.yul\":961:973   */\n      revert\n        /* \"#utility.yul\":912:975   */\n    tag_142:\n        /* \"#utility.yul\":859:981   */\n      pop\n      jump\t// out\n        /* \"#utility.yul\":987:1126   */\n    tag_98:\n        /* \"#utility.yul\":1033:1038   */\n      0x00\n        /* \"#utility.yul\":1071:1077   */\n      dup2\n        /* \"#utility.yul\":1058:1078   */\n      calldataload\n        /* \"#utility.yul\":1049:1078   */\n      swap1\n      pop\n        /* \"#utility.yul\":1087:1120   */\n      tag_144\n        /* \"#utility.yul\":1114:1119   */\n      dup2\n        /* \"#utility.yul\":1087:1120   */\n      tag_97\n      jump\t// in\n    tag_144:\n        /* \"#utility.yul\":987:1126   */\n      swap3\n      swap2\n      pop\n      pop\n      jump\t// out\n        /* \"#utility.yul\":1132:1461   */\n    tag_13:\n        /* \"#utility.yul\":1191:1197   */\n      0x00\n        /* \"#utility.yul\":1240:1242   */\n      0x20\n        /* \"#utility.yul\":1228:1237   */\n      dup3\n        /* \"#utility.yul\":1219:1226   */\n      dup5\n        /* \"#utility.yul\":1215:1238   */\n      sub\n        /* \"#utility.yul\":1211:1243   */\n      slt\n        /* \"#utility.yul\":1208:1327   */\n      iszero\n      tag_146\n      jumpi\n        /* \"#utility.yul\":1246:1325   */\n      tag_147\n      tag_94\n      jump\t// in\n    tag_147:\n        /* \"#utility.yul\":1208:1327   */\n    tag_146:\n        /* \"#utility.yul\":1366:1367   */\n      0x00\n        /* \"#utility.yul\":1391:1444   */\n      tag_148\n        /* \"#utility.yul\":1436:1443   */\n      dup5\n        /* \"#utility.yul\":1427:1433   */\n      dup3\n        /* \"#utility.yul\":1416:1425   */\n      dup6\n        /* \"#utility.yul\":1412:1434   */\n      add\n        /* \"#utility.yul\":1391:1444   */\n      tag_98\n      jump\t// in\n    tag_148:\n        /* \"#utility.yul\":1381:1444   */\n      swap2\n      pop\n        /* \"#utility.yul\":1337:1454   */\n      pop\n        /* \"#utility.yul\":1132:1461   */\n      swap3\n      swap2\n      pop\n      pop\n      jump\t// out\n        /* \"#utility.yul\":1467:1585   */\n    tag_99:\n        /* \"#utility.yul\":1554:1578   */\n      tag_150\n        /* \"#utility.yul\":1572:1577   */\n      dup2\n        /* \"#utility.yul\":1554:1578   */\n      tag_96\n      jump\t// in\n    tag_150:\n        /* \"#utility.yul\":1549:1552   */\n      dup3\n        /* \"#utility.yul\":1542:1579   */\n      mstore\n        /* \"#utility.yul\":1467:1585   */\n      pop\n      pop\n      jump\t// out\n        /* \"#utility.yul\":1591:1813   */\n    tag_16:\n        /* \"#utility.yul\":1684:1688   */\n      0x00\n        /* \"#utility.yul\":1722:1724   */\n      0x20\n        /* \"#utility.yul\":1711:1720   */\n      dup3\n        /* \"#utility.yul\":1707:1725   */\n      add\n        /* \"#utility.yul\":1699:1725   */\n      swap1\n      pop\n        /* \"#utility.yul\":1735:1806   */\n      tag_152\n        /* \"#utility.yul\":1803:1804   */\n      0x00\n        /* \"#utility.yul\":1792:1801   */\n      dup4\n        /* \"#utility.yul\":1788:1805   */\n      add\n        /* \"#utility.yul\":1779:1785   */\n      dup5\n        /* \"#utility.yul\":1735:1806   */\n      tag_99\n      jump\t// in\n    tag_152:\n        /* \"#utility.yul\":1591:1813   */\n      swap3\n      swap2\n      pop\n      pop\n      jump\t// out\n        /* \"#utility.yul\":1819:1945   */\n    tag_100:\n        /* \"#utility.yul\":1856:1863   */\n      0x00\n        /* \"#utility.yul\":1896:1938   */\n      0xffffffffffffffffffffffffffffffffffffffff\n        /* \"#utility.yul\":1889:1894   */\n      dup3\n        /* \"#utility.yul\":1885:1939   */\n      and\n        /* \"#utility.yul\":1874:1939   */\n      swap1\n      pop\n        /* \"#utility.yul\":1819:1945   */\n      swap2\n      swap1\n      pop\n      jump\t// out\n        /* \"#utility.yul\":1951:2011   */\n    tag_101:\n        /* \"#utility.yul\":1979:1982   */\n      0x00\n        /* \"#utility.yul\":2000:2005   */\n      dup2\n        /* \"#utility.yul\":1993:2005   */\n      swap1\n      pop\n        /* \"#utility.yul\":1951:2011   */\n      swap2\n      swap1\n      pop\n      jump\t// out\n        /* \"#utility.yul\":2017:2159   */\n    tag_102:\n        /* \"#utility.yul\":2067:2076   */\n      0x00\n        /* \"#utility.yul\":2100:2153   */\n      tag_156\n        /* \"#utility.yul\":2118:2152   */\n      tag_157\n        /* \"#utility.yul\":2127:2151   */\n      tag_158\n        /* \"#utility.yul\":2145:2150   */\n      dup5\n        /* \"#utility.yul\":2127:2151   */\n      tag_100\n      jump\t// in\n    tag_158:\n        /* \"#utility.yul\":2118:2152   */\n      tag_101\n      jump\t// in\n    tag_157:\n        /* \"#utility.yul\":2100:2153   */\n      tag_100\n      jump\t// in\n    tag_156:\n        /* \"#utility.yul\":2087:2153   */\n      swap1\n      pop\n        /* \"#utility.yul\":2017:2159   */\n      swap2\n      swap1\n      pop\n      jump\t// out\n        /* \"#utility.yul\":2165:2291   */\n    tag_103:\n        /* \"#utility.yul\":2215:2224   */\n      0x00\n        /* \"#utility.yul\":2248:2285   */\n      tag_160\n        /* \"#utility.yul\":2279:2284   */\n      dup3\n        /* \"#utility.yul\":2248:2285   */\n      tag_102\n      jump\t// in\n    tag_160:\n        /* \"#utility.yul\":2235:2285   */\n      swap1\n      pop\n        /* \"#utility.yul\":2165:2291   */\n      swap2\n      swap1\n      pop\n      jump\t// out\n        /* \"#utility.yul\":2297:2442   */\n    tag_104:\n        /* \"#utility.yul\":2366:2375   */\n      0x00\n        /* \"#utility.yul\":2399:2436   */\n      tag_162\n        /* \"#utility.yul\":2430:2435   */\n      dup3\n        /* \"#utility.yul\":2399:2436   */\n      tag_103\n      jump\t// in\n    tag_162:\n        /* \"#utility.yul\":2386:2436   */\n      swap1\n      pop\n        /* \"#utility.yul\":2297:2442   */\n      swap2\n      swap1\n      pop\n      jump\t// out\n        /* \"#utility.yul\":2448:2617   */\n    tag_105:\n        /* \"#utility.yul\":2554:2610   */\n      tag_164\n        /* \"#utility.yul\":2604:2609   */\n      dup2\n        /* \"#utility.yul\":2554:2610   */\n      tag_104\n      jump\t// in\n    tag_164:\n        /* \"#utility.yul\":2549:2552   */\n      dup3\n        /* \"#utility.yul\":2542:2611   */\n      mstore\n        /* \"#utility.yul\":2448:2617   */\n      pop\n      pop\n      jump\t// out\n        /* \"#utility.yul\":2623:2883   */\n    tag_20:\n        /* \"#utility.yul\":2735:2739   */\n      0x00\n        /* \"#utility.yul\":2773:2775   */\n      0x20\n        /* \"#utility.yul\":2762:2771   */\n      dup3\n        /* \"#utility.yul\":2758:2776   */\n      add\n        /* \"#utility.yul\":2750:2776   */\n      swap1\n      pop\n        /* \"#utility.yul\":2786:2876   */\n      tag_166\n        /* \"#utility.yul\":2873:2874   */\n      0x00\n        /* \"#utility.yul\":2862:2871   */\n      dup4\n        /* \"#utility.yul\":2858:2875   */\n      add\n        /* \"#utility.yul\":2849:2855   */\n      dup5\n        /* \"#utility.yul\":2786:2876   */\n      tag_105\n      jump\t// in\n    tag_166:\n        /* \"#utility.yul\":2623:2883   */\n      swap3\n      swap2\n      pop\n      pop\n      jump\t// out\n        /* \"#utility.yul\":2889:3363   */\n    tag_23:\n        /* \"#utility.yul\":2957:2963   */\n      0x00\n        /* \"#utility.yul\":2965:2971   */\n      dup1\n        /* \"#utility.yul\":3014:3016   */\n      0x40\n        /* \"#utility.yul\":3002:3011   */\n      dup4\n        /* \"#utility.yul\":2993:3000   */\n      dup6\n        /* \"#utility.yul\":2989:3012   */\n      sub\n        /* \"#utility.yul\":2985:3017   */\n      slt\n        /* \"#utility.yul\":2982:3101   */\n      iszero\n      tag_168\n      jumpi\n        /* \"#utility.yul\":3020:3099   */\n      tag_169\n      tag_94\n      jump\t// in\n    tag_169:\n        /* \"#utility.yul\":2982:3101   */\n    tag_168:\n        /* \"#utility.yul\":3140:3141   */\n      0x00\n        /* \"#utility.yul\":3165:3218   */\n      tag_170\n        /* \"#utility.yul\":3210:3217   */\n      dup6\n        /* \"#utility.yul\":3201:3207   */\n      dup3\n        /* \"#utility.yul\":3190:3199   */\n      dup7\n        /* \"#utility.yul\":3186:3208   */\n      add\n        /* \"#utility.yul\":3165:3218   */\n      tag_98\n      jump\t// in\n    tag_170:\n        /* \"#utility.yul\":3155:3218   */\n      swap3\n      pop\n        /* \"#utility.yul\":3111:3228   */\n      pop\n        /* \"#utility.yul\":3267:3269   */\n      0x20\n        /* \"#utility.yul\":3293:3346   */\n      tag_171\n        /* \"#utility.yul\":3338:3345   */\n      dup6\n        /* \"#utility.yul\":3329:3335   */\n      dup3\n        /* \"#utility.yul\":3318:3327   */\n      dup7\n        /* \"#utility.yul\":3314:3336   */\n      add\n        /* \"#utility.yul\":3293:3346   */\n      tag_98\n      jump\t// in\n    tag_171:\n        /* \"#utility.yul\":3283:3346   */\n      swap2\n      pop\n        /* \"#utility.yul\":3238:3356   */\n      pop\n        /* \"#utility.yul\":2889:3363   */\n      swap3\n      pop\n      swap3\n      swap1\n      pop\n      jump\t// out\n        /* \"#utility.yul\":3369:3465   */\n    tag_106:\n        /* \"#utility.yul\":3406:3413   */\n      0x00\n        /* \"#utility.yul\":3435:3459   */\n      tag_173\n        /* \"#utility.yul\":3453:3458   */\n      dup3\n        /* \"#utility.yul\":3435:3459   */\n      tag_100\n      jump\t// in\n    tag_173:\n        /* \"#utility.yul\":3424:3459   */\n      swap1\n      pop\n        /* \"#utility.yul\":3369:3465   */\n      swap2\n      swap1\n      pop\n      jump\t// out\n        /* \"#utility.yul\":3471:3579   */\n    tag_107:\n        /* \"#utility.yul\":3548:3572   */\n      tag_175\n        /* \"#utility.yul\":3566:3571   */\n      dup2\n        /* \"#utility.yul\":3548:3572   */\n      tag_106\n      jump\t// in\n    tag_175:\n        /* \"#utility.yul\":3543:3546   */\n      dup3\n        /* \"#utility.yul\":3536:3573   */\n      mstore\n        /* \"#utility.yul\":3471:3579   */\n      pop\n      pop\n      jump\t// out\n        /* \"#utility.yul\":3585:3690   */\n    tag_108:\n        /* \"#utility.yul\":3660:3683   */\n      tag_177\n        /* \"#utility.yul\":3677:3682   */\n      dup2\n        /* \"#utility.yul\":3660:3683   */\n      tag_91\n      jump\t// in\n    tag_177:\n        /* \"#utility.yul\":3655:3658   */\n      dup3\n        /* \"#utility.yul\":3648:3684   */\n      mstore\n        /* \"#utility.yul\":3585:3690   */\n      pop\n      pop\n      jump\t// out\n        /* \"#utility.yul\":3696:3804   */\n    tag_109:\n        /* \"#utility.yul\":3773:3797   */\n      tag_179\n        /* \"#utility.yul\":3791:3796   */\n      dup2\n        /* \"#utility.yul\":3773:3797   */\n      tag_96\n      jump\t// in\n    tag_179:\n        /* \"#utility.yul\":3768:3771   */\n      dup3\n        /* \"#utility.yul\":3761:3798   */\n      mstore\n        /* \"#utility.yul\":3696:3804   */\n      pop\n      pop\n      jump\t// out\n        /* \"#utility.yul\":3810:3918   */\n    tag_110:\n        /* \"#utility.yul\":3887:3911   */\n      tag_181\n        /* \"#utility.yul\":3905:3910   */\n      dup2\n        /* \"#utility.yul\":3887:3911   */\n      tag_100\n      jump\t// in\n    tag_181:\n        /* \"#utility.yul\":3882:3885   */\n      dup3\n        /* \"#utility.yul\":3875:3912   */\n      mstore\n        /* \"#utility.yul\":3810:3918   */\n      pop\n      pop\n      jump\t// out\n        /* \"#utility.yul\":4018:5641   */\n    tag_111:\n        /* \"#utility.yul\":4193:4199   */\n      0x0100\n        /* \"#utility.yul\":4188:4191   */\n      dup3\n        /* \"#utility.yul\":4184:4200   */\n      add\n        /* \"#utility.yul\":4285:4289   */\n      0x00\n        /* \"#utility.yul\":4278:4283   */\n      dup3\n        /* \"#utility.yul\":4274:4290   */\n      add\n        /* \"#utility.yul\":4268:4291   */\n      mload\n        /* \"#utility.yul\":4304:4367   */\n      tag_183\n        /* \"#utility.yul\":4361:4365   */\n      0x00\n        /* \"#utility.yul\":4356:4359   */\n      dup6\n        /* \"#utility.yul\":4352:4366   */\n      add\n        /* \"#utility.yul\":4338:4350   */\n      dup3\n        /* \"#utility.yul\":4304:4367   */\n      tag_107\n      jump\t// in\n    tag_183:\n        /* \"#utility.yul\":4210:4377   */\n      pop\n        /* \"#utility.yul\":4463:4467   */\n      0x20\n        /* \"#utility.yul\":4456:4461   */\n      dup3\n        /* \"#utility.yul\":4452:4468   */\n      add\n        /* \"#utility.yul\":4446:4469   */\n      mload\n        /* \"#utility.yul\":4482:4545   */\n      tag_184\n        /* \"#utility.yul\":4539:4543   */\n      0x20\n        /* \"#utility.yul\":4534:4537   */\n      dup6\n        /* \"#utility.yul\":4530:4544   */\n      add\n        /* \"#utility.yul\":4516:4528   */\n      dup3\n        /* \"#utility.yul\":4482:4545   */\n      tag_107\n      jump\t// in\n    tag_184:\n        /* \"#utility.yul\":4387:4555   */\n      pop\n        /* \"#utility.yul\":4636:4640   */\n      0x40\n        /* \"#utility.yul\":4629:4634   */\n      dup3\n        /* \"#utility.yul\":4625:4641   */\n      add\n        /* \"#utility.yul\":4619:4642   */\n      mload\n        /* \"#utility.yul\":4655:4716   */\n      tag_185\n        /* \"#utility.yul\":4710:4714   */\n      0x40\n        /* \"#utility.yul\":4705:4708   */\n      dup6\n        /* \"#utility.yul\":4701:4715   */\n      add\n        /* \"#utility.yul\":4687:4699   */\n      dup3\n        /* \"#utility.yul\":4655:4716   */\n      tag_108\n      jump\t// in\n    tag_185:\n        /* \"#utility.yul\":4565:4726   */\n      pop\n        /* \"#utility.yul\":4813:4817   */\n      0x60\n        /* \"#utility.yul\":4806:4811   */\n      dup3\n        /* \"#utility.yul\":4802:4818   */\n      add\n        /* \"#utility.yul\":4796:4819   */\n      mload\n        /* \"#utility.yul\":4832:4895   */\n      tag_186\n        /* \"#utility.yul\":4889:4893   */\n      0x60\n        /* \"#utility.yul\":4884:4887   */\n      dup6\n        /* \"#utility.yul\":4880:4894   */\n      add\n        /* \"#utility.yul\":4866:4878   */\n      dup3\n        /* \"#utility.yul\":4832:4895   */\n      tag_107\n      jump\t// in\n    tag_186:\n        /* \"#utility.yul\":4736:4905   */\n      pop\n        /* \"#utility.yul\":4991:4995   */\n      0x80\n        /* \"#utility.yul\":4984:4989   */\n      dup3\n        /* \"#utility.yul\":4980:4996   */\n      add\n        /* \"#utility.yul\":4974:4997   */\n      mload\n        /* \"#utility.yul\":5010:5073   */\n      tag_187\n        /* \"#utility.yul\":5067:5071   */\n      0x80\n        /* \"#utility.yul\":5062:5065   */\n      dup6\n        /* \"#utility.yul\":5058:5072   */\n      add\n        /* \"#utility.yul\":5044:5056   */\n      dup3\n        /* \"#utility.yul\":5010:5073   */\n      tag_109\n      jump\t// in\n    tag_187:\n        /* \"#utility.yul\":4915:5083   */\n      pop\n        /* \"#utility.yul\":5169:5173   */\n      0xa0\n        /* \"#utility.yul\":5162:5167   */\n      dup3\n        /* \"#utility.yul\":5158:5174   */\n      add\n        /* \"#utility.yul\":5152:5175   */\n      mload\n        /* \"#utility.yul\":5188:5251   */\n      tag_188\n        /* \"#utility.yul\":5245:5249   */\n      0xa0\n        /* \"#utility.yul\":5240:5243   */\n      dup6\n        /* \"#utility.yul\":5236:5250   */\n      add\n        /* \"#utility.yul\":5222:5234   */\n      dup3\n        /* \"#utility.yul\":5188:5251   */\n      tag_109\n      jump\t// in\n    tag_188:\n        /* \"#utility.yul\":5093:5261   */\n      pop\n        /* \"#utility.yul\":5355:5359   */\n      0xc0\n        /* \"#utility.yul\":5348:5353   */\n      dup3\n        /* \"#utility.yul\":5344:5360   */\n      add\n        /* \"#utility.yul\":5338:5361   */\n      mload\n        /* \"#utility.yul\":5374:5437   */\n      tag_189\n        /* \"#utility.yul\":5431:5435   */\n      0xc0\n        /* \"#utility.yul\":5426:5429   */\n      dup6\n        /* \"#utility.yul\":5422:5436   */\n      add\n        /* \"#utility.yul\":5408:5420   */\n      dup3\n        /* \"#utility.yul\":5374:5437   */\n      tag_109\n      jump\t// in\n    tag_189:\n        /* \"#utility.yul\":5271:5447   */\n      pop\n        /* \"#utility.yul\":5542:5546   */\n      0xe0\n        /* \"#utility.yul\":5535:5540   */\n      dup3\n        /* \"#utility.yul\":5531:5547   */\n      add\n        /* \"#utility.yul\":5525:5548   */\n      mload\n        /* \"#utility.yul\":5561:5624   */\n      tag_190\n        /* \"#utility.yul\":5618:5622   */\n      0xe0\n        /* \"#utility.yul\":5613:5616   */\n      dup6\n        /* \"#utility.yul\":5609:5623   */\n      add\n        /* \"#utility.yul\":5595:5607   */\n      dup3\n        /* \"#utility.yul\":5561:5624   */\n      tag_110\n      jump\t// in\n    tag_190:\n        /* \"#utility.yul\":5457:5634   */\n      pop\n        /* \"#utility.yul\":4162:5641   */\n      pop\n        /* \"#utility.yul\":4018:5641   */\n      pop\n      pop\n      jump\t// out\n        /* \"#utility.yul\":5647:6026   */\n    tag_32:\n        /* \"#utility.yul\":5818:5822   */\n      0x00\n        /* \"#utility.yul\":5856:5859   */\n      0x0100\n        /* \"#utility.yul\":5845:5854   */\n      dup3\n        /* \"#utility.yul\":5841:5860   */\n      add\n        /* \"#utility.yul\":5833:5860   */\n      swap1\n      pop\n        /* \"#utility.yul\":5870:6019   */\n      tag_192\n        /* \"#utility.yul\":6016:6017   */\n      0x00\n        /* \"#utility.yul\":6005:6014   */\n      dup4\n        /* \"#utility.yul\":6001:6018   */\n      add\n        /* \"#utility.yul\":5992:5998   */\n      dup5\n        /* \"#utility.yul\":5870:6019   */\n      tag_111\n      jump\t// in\n    tag_192:\n        /* \"#utility.yul\":5647:6026   */\n      swap3\n      swap2\n      pop\n      pop\n      jump\t// out\n        /* \"#utility.yul\":6032:6175   */\n    tag_112:\n        /* \"#utility.yul\":6089:6094   */\n      0x00\n        /* \"#utility.yul\":6120:6126   */\n      dup2\n        /* \"#utility.yul\":6114:6127   */\n      mload\n        /* \"#utility.yul\":6105:6127   */\n      swap1\n      pop\n        /* \"#utility.yul\":6136:6169   */\n      tag_194\n        /* \"#utility.yul\":6163:6168   */\n      dup2\n        /* \"#utility.yul\":6136:6169   */\n      tag_97\n      jump\t// in\n    tag_194:\n        /* \"#utility.yul\":6032:6175   */\n      swap3\n      swap2\n      pop\n      pop\n      jump\t// out\n        /* \"#utility.yul\":6181:6532   */\n    tag_36:\n        /* \"#utility.yul\":6251:6257   */\n      0x00\n        /* \"#utility.yul\":6300:6302   */\n      0x20\n        /* \"#utility.yul\":6288:6297   */\n      dup3\n        /* \"#utility.yul\":6279:6286   */\n      dup5\n        /* \"#utility.yul\":6275:6298   */\n      sub\n        /* \"#utility.yul\":6271:6303   */\n      slt\n        /* \"#utility.yul\":6268:6387   */\n      iszero\n      tag_196\n      jumpi\n        /* \"#utility.yul\":6306:6385   */\n      tag_197\n      tag_94\n      jump\t// in\n    tag_197:\n        /* \"#utility.yul\":6268:6387   */\n    tag_196:\n        /* \"#utility.yul\":6426:6427   */\n      0x00\n        /* \"#utility.yul\":6451:6515   */\n      tag_198\n        /* \"#utility.yul\":6507:6514   */\n      dup5\n        /* \"#utility.yul\":6498:6504   */\n      dup3\n        /* \"#utility.yul\":6487:6496   */\n      dup6\n        /* \"#utility.yul\":6483:6505   */\n      add\n        /* \"#utility.yul\":6451:6515   */\n      tag_112\n      jump\t// in\n    tag_198:\n        /* \"#utility.yul\":6441:6515   */\n      swap2\n      pop\n        /* \"#utility.yul\":6397:6525   */\n      pop\n        /* \"#utility.yul\":6181:6532   */\n      swap3\n      swap2\n      pop\n      pop\n      jump\t// out\n        /* \"#utility.yul\":6634:8259   */\n    tag_113:\n        /* \"#utility.yul\":6811:6817   */\n      0x0100\n        /* \"#utility.yul\":6806:6809   */\n      dup3\n        /* \"#utility.yul\":6802:6818   */\n      add\n        /* \"#utility.yul\":6903:6907   */\n      0x00\n        /* \"#utility.yul\":6896:6901   */\n      dup3\n        /* \"#utility.yul\":6892:6908   */\n      add\n        /* \"#utility.yul\":6886:6909   */\n      mload\n        /* \"#utility.yul\":6922:6985   */\n      tag_200\n        /* \"#utility.yul\":6979:6983   */\n      0x00\n        /* \"#utility.yul\":6974:6977   */\n      dup6\n        /* \"#utility.yul\":6970:6984   */\n      add\n        /* \"#utility.yul\":6956:6968   */\n      dup3\n        /* \"#utility.yul\":6922:6985   */\n      tag_107\n      jump\t// in\n    tag_200:\n        /* \"#utility.yul\":6828:6995   */\n      pop\n        /* \"#utility.yul\":7081:7085   */\n      0x20\n        /* \"#utility.yul\":7074:7079   */\n      dup3\n        /* \"#utility.yul\":7070:7086   */\n      add\n        /* \"#utility.yul\":7064:7087   */\n      mload\n        /* \"#utility.yul\":7100:7163   */\n      tag_201\n        /* \"#utility.yul\":7157:7161   */\n      0x20\n        /* \"#utility.yul\":7152:7155   */\n      dup6\n        /* \"#utility.yul\":7148:7162   */\n      add\n        /* \"#utility.yul\":7134:7146   */\n      dup3\n        /* \"#utility.yul\":7100:7163   */\n      tag_107\n      jump\t// in\n    tag_201:\n        /* \"#utility.yul\":7005:7173   */\n      pop\n        /* \"#utility.yul\":7254:7258   */\n      0x40\n        /* \"#utility.yul\":7247:7252   */\n      dup3\n        /* \"#utility.yul\":7243:7259   */\n      add\n        /* \"#utility.yul\":7237:7260   */\n      mload\n        /* \"#utility.yul\":7273:7334   */\n      tag_202\n        /* \"#utility.yul\":7328:7332   */\n      0x40\n        /* \"#utility.yul\":7323:7326   */\n      dup6\n        /* \"#utility.yul\":7319:7333   */\n      add\n        /* \"#utility.yul\":7305:7317   */\n      dup3\n        /* \"#utility.yul\":7273:7334   */\n      tag_108\n      jump\t// in\n    tag_202:\n        /* \"#utility.yul\":7183:7344   */\n      pop\n        /* \"#utility.yul\":7431:7435   */\n      0x60\n        /* \"#utility.yul\":7424:7429   */\n      dup3\n        /* \"#utility.yul\":7420:7436   */\n      add\n        /* \"#utility.yul\":7414:7437   */\n      mload\n        /* \"#utility.yul\":7450:7513   */\n      tag_203\n        /* \"#utility.yul\":7507:7511   */\n      0x60\n        /* \"#utility.yul\":7502:7505   */\n      dup6\n        /* \"#utility.yul\":7498:7512   */\n      add\n        /* \"#utility.yul\":7484:7496   */\n      dup3\n        /* \"#utility.yul\":7450:7513   */\n      tag_107\n      jump\t// in\n    tag_203:\n        /* \"#utility.yul\":7354:7523   */\n      pop\n        /* \"#utility.yul\":7609:7613   */\n      0x80\n        /* \"#utility.yul\":7602:7607   */\n      dup3\n        /* \"#utility.yul\":7598:7614   */\n      add\n        /* \"#utility.yul\":7592:7615   */\n      mload\n        /* \"#utility.yul\":7628:7691   */\n      tag_204\n        /* \"#utility.yul\":7685:7689   */\n      0x80\n        /* \"#utility.yul\":7680:7683   */\n      dup6\n        /* \"#utility.yul\":7676:7690   */\n      add\n        /* \"#utility.yul\":7662:7674   */\n      dup3\n        /* \"#utility.yul\":7628:7691   */\n      tag_109\n      jump\t// in\n    tag_204:\n        /* \"#utility.yul\":7533:7701   */\n      pop\n        /* \"#utility.yul\":7788:7792   */\n      0xa0\n        /* \"#utility.yul\":7781:7786   */\n      dup3\n        /* \"#utility.yul\":7777:7793   */\n      add\n        /* \"#utility.yul\":7771:7794   */\n      mload\n        /* \"#utility.yul\":7807:7870   */\n      tag_205\n        /* \"#utility.yul\":7864:7868   */\n      0xa0\n        /* \"#utility.yul\":7859:7862   */\n      dup6\n        /* \"#utility.yul\":7855:7869   */\n      add\n        /* \"#utility.yul\":7841:7853   */\n      dup3\n        /* \"#utility.yul\":7807:7870   */\n      tag_109\n      jump\t// in\n    tag_205:\n        /* \"#utility.yul\":7711:7880   */\n      pop\n        /* \"#utility.yul\":7973:7977   */\n      0xc0\n        /* \"#utility.yul\":7966:7971   */\n      dup3\n        /* \"#utility.yul\":7962:7978   */\n      add\n        /* \"#utility.yul\":7956:7979   */\n      mload\n        /* \"#utility.yul\":7992:8055   */\n      tag_206\n        /* \"#utility.yul\":8049:8053   */\n      0xc0\n        /* \"#utility.yul\":8044:8047   */\n      dup6\n        /* \"#utility.yul\":8040:8054   */\n      add\n        /* \"#utility.yul\":8026:8038   */\n      dup3\n        /* \"#utility.yul\":7992:8055   */\n      tag_109\n      jump\t// in\n    tag_206:\n        /* \"#utility.yul\":7890:8065   */\n      pop\n        /* \"#utility.yul\":8160:8164   */\n      0xe0\n        /* \"#utility.yul\":8153:8158   */\n      dup3\n        /* \"#utility.yul\":8149:8165   */\n      add\n        /* \"#utility.yul\":8143:8166   */\n      mload\n        /* \"#utility.yul\":8179:8242   */\n      tag_207\n        /* \"#utility.yul\":8236:8240   */\n      0xe0\n        /* \"#utility.yul\":8231:8234   */\n      dup6\n        /* \"#utility.yul\":8227:8241   */\n      add\n        /* \"#utility.yul\":8213:8225   */\n      dup3\n        /* \"#utility.yul\":8179:8242   */\n      tag_110\n      jump\t// in\n    tag_207:\n        /* \"#utility.yul\":8075:8252   */\n      pop\n        /* \"#utility.yul\":6780:8259   */\n      pop\n        /* \"#utility.yul\":6634:8259   */\n      pop\n      pop\n      jump\t// out\n        /* \"#utility.yul\":8265:8648   */\n    tag_41:\n        /* \"#utility.yul\":8438:8442   */\n      0x00\n        /* \"#utility.yul\":8476:8479   */\n      0x0100\n        /* \"#utility.yul\":8465:8474   */\n      dup3\n        /* \"#utility.yul\":8461:8480   */\n      add\n        /* \"#utility.yul\":8453:8480   */\n      swap1\n      pop\n        /* \"#utility.yul\":8490:8641   */\n      tag_209\n        /* \"#utility.yul\":8638:8639   */\n      0x00\n        /* \"#utility.yul\":8627:8636   */\n      dup4\n        /* \"#utility.yul\":8623:8640   */\n      add\n        /* \"#utility.yul\":8614:8620   */\n      dup5\n        /* \"#utility.yul\":8490:8641   */\n      tag_113\n      jump\t// in\n    tag_209:\n        /* \"#utility.yul\":8265:8648   */\n      swap3\n      swap2\n      pop\n      pop\n      jump\t// out\n        /* \"#utility.yul\":8654:8834   */\n    tag_114:\n        /* \"#utility.yul\":8702:8779   */\n      0x4e487b7100000000000000000000000000000000000000000000000000000000\n        /* \"#utility.yul\":8699:8700   */\n      0x00\n        /* \"#utility.yul\":8692:8780   */\n      mstore\n        /* \"#utility.yul\":8799:8803   */\n      0x11\n        /* \"#utility.yul\":8796:8797   */\n      0x04\n        /* \"#utility.yul\":8789:8804   */\n      mstore\n        /* \"#utility.yul\":8823:8827   */\n      0x24\n        /* \"#utility.yul\":8820:8821   */\n      0x00\n        /* \"#utility.yul\":8813:8828   */\n      revert\n        /* \"#utility.yul\":8840:9034   */\n    tag_49:\n        /* \"#utility.yul\":8880:8884   */\n      0x00\n        /* \"#utility.yul\":8900:8920   */\n      tag_212\n        /* \"#utility.yul\":8918:8919   */\n      dup3\n        /* \"#utility.yul\":8900:8920   */\n      tag_96\n      jump\t// in\n    tag_212:\n        /* \"#utility.yul\":8895:8920   */\n      swap2\n      pop\n        /* \"#utility.yul\":8934:8954   */\n      tag_213\n        /* \"#utility.yul\":8952:8953   */\n      dup4\n        /* \"#utility.yul\":8934:8954   */\n      tag_96\n      jump\t// in\n    tag_213:\n        /* \"#utility.yul\":8929:8954   */\n      swap3\n      pop\n        /* \"#utility.yul\":8978:8979   */\n      dup3\n        /* \"#utility.yul\":8975:8976   */\n      dup3\n        /* \"#utility.yul\":8971:8980   */\n      sub\n        /* \"#utility.yul\":8963:8980   */\n      swap1\n      pop\n        /* \"#utility.yul\":9002:9003   */\n      dup2\n        /* \"#utility.yul\":8996:9000   */\n      dup2\n        /* \"#utility.yul\":8993:9004   */\n      gt\n        /* \"#utility.yul\":8990:9027   */\n      iszero\n      tag_214\n      jumpi\n        /* \"#utility.yul\":9007:9025   */\n      tag_215\n      tag_114\n      jump\t// in\n    tag_215:\n        /* \"#utility.yul\":8990:9027   */\n    tag_214:\n        /* \"#utility.yul\":8840:9034   */\n      swap3\n      swap2\n      pop\n      pop\n      jump\t// out\n        /* \"#utility.yul\":9040:9158   */\n    tag_115:\n        /* \"#utility.yul\":9127:9151   */\n      tag_217\n        /* \"#utility.yul\":9145:9150   */\n      dup2\n        /* \"#utility.yul\":9127:9151   */\n      tag_106\n      jump\t// in\n    tag_217:\n        /* \"#utility.yul\":9122:9125   */\n      dup3\n        /* \"#utility.yul\":9115:9152   */\n      mstore\n        /* \"#utility.yul\":9040:9158   */\n      pop\n      pop\n      jump\t// out\n        /* \"#utility.yul\":9164:9606   */\n    tag_53:\n        /* \"#utility.yul\":9313:9317   */\n      0x00\n        /* \"#utility.yul\":9351:9353   */\n      0x60\n        /* \"#utility.yul\":9340:9349   */\n      dup3\n        /* \"#utility.yul\":9336:9354   */\n      add\n        /* \"#utility.yul\":9328:9354   */\n      swap1\n      pop\n        /* \"#utility.yul\":9364:9435   */\n      tag_219\n        /* \"#utility.yul\":9432:9433   */\n      0x00\n        /* \"#utility.yul\":9421:9430   */\n      dup4\n        /* \"#utility.yul\":9417:9434   */\n      add\n        /* \"#utility.yul\":9408:9414   */\n      dup7\n        /* \"#utility.yul\":9364:9435   */\n      tag_115\n      jump\t// in\n    tag_219:\n        /* \"#utility.yul\":9445:9517   */\n      tag_220\n        /* \"#utility.yul\":9513:9515   */\n      0x20\n        /* \"#utility.yul\":9502:9511   */\n      dup4\n        /* \"#utility.yul\":9498:9516   */\n      add\n        /* \"#utility.yul\":9489:9495   */\n      dup6\n        /* \"#utility.yul\":9445:9517   */\n      tag_115\n      jump\t// in\n    tag_220:\n        /* \"#utility.yul\":9527:9599   */\n      tag_221\n        /* \"#utility.yul\":9595:9597   */\n      0x40\n        /* \"#utility.yul\":9584:9593   */\n      dup4\n        /* \"#utility.yul\":9580:9598   */\n      add\n        /* \"#utility.yul\":9571:9577   */\n      dup5\n        /* \"#utility.yul\":9527:9599   */\n      tag_99\n      jump\t// in\n    tag_221:\n        /* \"#utility.yul\":9164:9606   */\n      swap5\n      swap4\n      pop\n      pop\n      pop\n      pop\n      jump\t// out\n        /* \"#utility.yul\":9612:9710   */\n    tag_116:\n        /* \"#utility.yul\":9663:9669   */\n      0x00\n        /* \"#utility.yul\":9697:9702   */\n      dup2\n        /* \"#utility.yul\":9691:9703   */\n      mload\n        /* \"#utility.yul\":9681:9703   */\n      swap1\n      pop\n        /* \"#utility.yul\":9612:9710   */\n      swap2\n      swap1\n      pop\n      jump\t// out\n        /* \"#utility.yul\":9716:9863   */\n    tag_117:\n        /* \"#utility.yul\":9817:9828   */\n      0x00\n        /* \"#utility.yul\":9854:9857   */\n      dup2\n        /* \"#utility.yul\":9839:9857   */\n      swap1\n      pop\n        /* \"#utility.yul\":9716:9863   */\n      swap3\n      swap2\n      pop\n      pop\n      jump\t// out\n        /* \"#utility.yul\":9869:10008   */\n    tag_118:\n        /* \"#utility.yul\":9958:9964   */\n      dup3\n        /* \"#utility.yul\":9953:9956   */\n      dup2\n        /* \"#utility.yul\":9948:9951   */\n      dup4\n        /* \"#utility.yul\":9942:9965   */\n      mcopy\n        /* \"#utility.yul\":9999:10000   */\n      0x00\n        /* \"#utility.yul\":9990:9996   */\n      dup4\n        /* \"#utility.yul\":9985:9988   */\n      dup4\n        /* \"#utility.yul\":9981:9997   */\n      add\n        /* \"#utility.yul\":9974:10001   */\n      mstore\n        /* \"#utility.yul\":9869:10008   */\n      pop\n      pop\n      pop\n      jump\t// out\n        /* \"#utility.yul\":10014:10400   */\n    tag_119:\n        /* \"#utility.yul\":10118:10121   */\n      0x00\n        /* \"#utility.yul\":10146:10184   */\n      tag_226\n        /* \"#utility.yul\":10178:10183   */\n      dup3\n        /* \"#utility.yul\":10146:10184   */\n      tag_116\n      jump\t// in\n    tag_226:\n        /* \"#utility.yul\":10200:10288   */\n      tag_227\n        /* \"#utility.yul\":10281:10287   */\n      dup2\n        /* \"#utility.yul\":10276:10279   */\n      dup6\n        /* \"#utility.yul\":10200:10288   */\n      tag_117\n      jump\t// in\n    tag_227:\n        /* \"#utility.yul\":10193:10288   */\n      swap4\n      pop\n        /* \"#utility.yul\":10297:10362   */\n      tag_228\n        /* \"#utility.yul\":10355:10361   */\n      dup2\n        /* \"#utility.yul\":10350:10353   */\n      dup6\n        /* \"#utility.yul\":10343:10347   */\n      0x20\n        /* \"#utility.yul\":10336:10341   */\n      dup7\n        /* \"#utility.yul\":10332:10348   */\n      add\n        /* \"#utility.yul\":10297:10362   */\n      tag_118\n      jump\t// in\n    tag_228:\n        /* \"#utility.yul\":10387:10393   */\n      dup1\n        /* \"#utility.yul\":10382:10385   */\n      dup5\n        /* \"#utility.yul\":10378:10394   */\n      add\n        /* \"#utility.yul\":10371:10394   */\n      swap2\n      pop\n        /* \"#utility.yul\":10122:10400   */\n      pop\n        /* \"#utility.yul\":10014:10400   */\n      swap3\n      swap2\n      pop\n      pop\n      jump\t// out\n        /* \"#utility.yul\":10406:10677   */\n    tag_55:\n        /* \"#utility.yul\":10536:10539   */\n      0x00\n        /* \"#utility.yul\":10558:10651   */\n      tag_230\n        /* \"#utility.yul\":10647:10650   */\n      dup3\n        /* \"#utility.yul\":10638:10644   */\n      dup5\n        /* \"#utility.yul\":10558:10651   */\n      tag_119\n      jump\t// in\n    tag_230:\n        /* \"#utility.yul\":10551:10651   */\n      swap2\n      pop\n        /* \"#utility.yul\":10668:10671   */\n      dup2\n        /* \"#utility.yul\":10661:10671   */\n      swap1\n      pop\n        /* \"#utility.yul\":10406:10677   */\n      swap3\n      swap2\n      pop\n      pop\n      jump\t// out\n        /* \"#utility.yul\":10683:10773   */\n    tag_120:\n        /* \"#utility.yul\":10717:10724   */\n      0x00\n        /* \"#utility.yul\":10760:10765   */\n      dup2\n        /* \"#utility.yul\":10753:10766   */\n      iszero\n        /* \"#utility.yul\":10746:10767   */\n      iszero\n        /* \"#utility.yul\":10735:10767   */\n      swap1\n      pop\n        /* \"#utility.yul\":10683:10773   */\n      swap2\n      swap1\n      pop\n      jump\t// out\n        /* \"#utility.yul\":10779:10895   */\n    tag_121:\n        /* \"#utility.yul\":10849:10870   */\n      tag_233\n        /* \"#utility.yul\":10864:10869   */\n      dup2\n        /* \"#utility.yul\":10849:10870   */\n      tag_120\n      jump\t// in\n    tag_233:\n        /* \"#utility.yul\":10842:10847   */\n      dup2\n        /* \"#utility.yul\":10839:10871   */\n      eq\n        /* \"#utility.yul\":10829:10889   */\n      tag_234\n      jumpi\n        /* \"#utility.yul\":10885:10886   */\n      0x00\n        /* \"#utility.yul\":10882:10883   */\n      dup1\n        /* \"#utility.yul\":10875:10887   */\n      revert\n        /* \"#utility.yul\":10829:10889   */\n    tag_234:\n        /* \"#utility.yul\":10779:10895   */\n      pop\n      jump\t// out\n        /* \"#utility.yul\":10901:11038   */\n    tag_122:\n        /* \"#utility.yul\":10955:10960   */\n      0x00\n        /* \"#utility.yul\":10986:10992   */\n      dup2\n        /* \"#utility.yul\":10980:10993   */\n      mload\n        /* \"#utility.yul\":10971:10993   */\n      swap1\n      pop\n        /* \"#utility.yul\":11002:11032   */\n      tag_236\n        /* \"#utility.yul\":11026:11031   */\n      dup2\n        /* \"#utility.yul\":11002:11032   */\n      tag_121\n      jump\t// in\n    tag_236:\n        /* \"#utility.yul\":10901:11038   */\n      swap3\n      swap2\n      pop\n      pop\n      jump\t// out\n        /* \"#utility.yul\":11044:11389   */\n    tag_62:\n        /* \"#utility.yul\":11111:11117   */\n      0x00\n        /* \"#utility.yul\":11160:11162   */\n      0x20\n        /* \"#utility.yul\":11148:11157   */\n      dup3\n        /* \"#utility.yul\":11139:11146   */\n      dup5\n        /* \"#utility.yul\":11135:11158   */\n      sub\n        /* \"#utility.yul\":11131:11163   */\n      slt\n        /* \"#utility.yul\":11128:11247   */\n      iszero\n      tag_238\n      jumpi\n        /* \"#utility.yul\":11166:11245   */\n      tag_239\n      tag_94\n      jump\t// in\n    tag_239:\n        /* \"#utility.yul\":11128:11247   */\n    tag_238:\n        /* \"#utility.yul\":11286:11287   */\n      0x00\n        /* \"#utility.yul\":11311:11372   */\n      tag_240\n        /* \"#utility.yul\":11364:11371   */\n      dup5\n        /* \"#utility.yul\":11355:11361   */\n      dup3\n        /* \"#utility.yul\":11344:11353   */\n      dup6\n        /* \"#utility.yul\":11340:11362   */\n      add\n        /* \"#utility.yul\":11311:11372   */\n      tag_122\n      jump\t// in\n    tag_240:\n        /* \"#utility.yul\":11301:11372   */\n      swap2\n      pop\n        /* \"#utility.yul\":11257:11382   */\n      pop\n        /* \"#utility.yul\":11044:11389   */\n      swap3\n      swap2\n      pop\n      pop\n      jump\t// out\n        /* \"#utility.yul\":11395:11564   */\n    tag_123:\n        /* \"#utility.yul\":11479:11490   */\n      0x00\n        /* \"#utility.yul\":11513:11519   */\n      dup3\n        /* \"#utility.yul\":11508:11511   */\n      dup3\n        /* \"#utility.yul\":11501:11520   */\n      mstore\n        /* \"#utility.yul\":11553:11557   */\n      0x20\n        /* \"#utility.yul\":11548:11551   */\n      dup3\n        /* \"#utility.yul\":11544:11558   */\n      add\n        /* \"#utility.yul\":11529:11558   */\n      swap1\n      pop\n        /* \"#utility.yul\":11395:11564   */\n      swap3\n      swap2\n      pop\n      pop\n      jump\t// out\n        /* \"#utility.yul\":11570:11723   */\n    tag_124:\n        /* \"#utility.yul\":11710:11715   */\n      0x5354460000000000000000000000000000000000000000000000000000000000\n        /* \"#utility.yul\":11706:11707   */\n      0x00\n        /* \"#utility.yul\":11698:11704   */\n      dup3\n        /* \"#utility.yul\":11694:11708   */\n      add\n        /* \"#utility.yul\":11687:11716   */\n      mstore\n        /* \"#utility.yul\":11570:11723   */\n      pop\n      jump\t// out\n        /* \"#utility.yul\":11729:12094   */\n    tag_125:\n        /* \"#utility.yul\":11871:11874   */\n      0x00\n        /* \"#utility.yul\":11892:11958   */\n      tag_244\n        /* \"#utility.yul\":11956:11957   */\n      0x03\n        /* \"#utility.yul\":11951:11954   */\n      dup4\n        /* \"#utility.yul\":11892:11958   */\n      tag_123\n      jump\t// in\n    tag_244:\n        /* \"#utility.yul\":11885:11958   */\n      swap2\n      pop\n        /* \"#utility.yul\":11967:12060   */\n      tag_245\n        /* \"#utility.yul\":12056:12059   */\n      dup3\n        /* \"#utility.yul\":11967:12060   */\n      tag_124\n      jump\t// in\n    tag_245:\n        /* \"#utility.yul\":12085:12087   */\n      0x20\n        /* \"#utility.yul\":12080:12083   */\n      dup3\n        /* \"#utility.yul\":12076:12088   */\n      add\n        /* \"#utility.yul\":12069:12088   */\n      swap1\n      pop\n        /* \"#utility.yul\":11729:12094   */\n      swap2\n      swap1\n      pop\n      jump\t// out\n        /* \"#utility.yul\":12100:12519   */\n    tag_65:\n        /* \"#utility.yul\":12266:12270   */\n      0x00\n        /* \"#utility.yul\":12304:12306   */\n      0x20\n        /* \"#utility.yul\":12293:12302   */\n      dup3\n        /* \"#utility.yul\":12289:12307   */\n      add\n        /* \"#utility.yul\":12281:12307   */\n      swap1\n      pop\n        /* \"#utility.yul\":12353:12362   */\n      dup2\n        /* \"#utility.yul\":12347:12351   */\n      dup2\n        /* \"#utility.yul\":12343:12363   */\n      sub\n        /* \"#utility.yul\":12339:12340   */\n      0x00\n        /* \"#utility.yul\":12328:12337   */\n      dup4\n        /* \"#utility.yul\":12324:12341   */\n      add\n        /* \"#utility.yul\":12317:12364   */\n      mstore\n        /* \"#utility.yul\":12381:12512   */\n      tag_247\n        /* \"#utility.yul\":12507:12511   */\n      dup2\n        /* \"#utility.yul\":12381:12512   */\n      tag_125\n      jump\t// in\n    tag_247:\n        /* \"#utility.yul\":12373:12512   */\n      swap1\n      pop\n        /* \"#utility.yul\":12100:12519   */\n      swap2\n      swap1\n      pop\n      jump\t// out\n        /* \"#utility.yul\":12525:12857   */\n    tag_68:\n        /* \"#utility.yul\":12646:12650   */\n      0x00\n        /* \"#utility.yul\":12684:12686   */\n      0x40\n        /* \"#utility.yul\":12673:12682   */\n      dup3\n        /* \"#utility.yul\":12669:12687   */\n      add\n        /* \"#utility.yul\":12661:12687   */\n      swap1\n      pop\n        /* \"#utility.yul\":12697:12768   */\n      tag_249\n        /* \"#utility.yul\":12765:12766   */\n      0x00\n        /* \"#utility.yul\":12754:12763   */\n      dup4\n        /* \"#utility.yul\":12750:12767   */\n      add\n        /* \"#utility.yul\":12741:12747   */\n      dup6\n        /* \"#utility.yul\":12697:12768   */\n      tag_115\n      jump\t// in\n    tag_249:\n        /* \"#utility.yul\":12778:12850   */\n      tag_250\n        /* \"#utility.yul\":12846:12848   */\n      0x20\n        /* \"#utility.yul\":12835:12844   */\n      dup4\n        /* \"#utility.yul\":12831:12849   */\n      add\n        /* \"#utility.yul\":12822:12828   */\n      dup5\n        /* \"#utility.yul\":12778:12850   */\n      tag_99\n      jump\t// in\n    tag_250:\n        /* \"#utility.yul\":12525:12857   */\n      swap4\n      swap3\n      pop\n      pop\n      pop\n      jump\t// out\n        /* \"#utility.yul\":12863:13015   */\n    tag_126:\n        /* \"#utility.yul\":13003:13007   */\n      0x5341000000000000000000000000000000000000000000000000000000000000\n        /* \"#utility.yul\":12999:13000   */\n      0x00\n        /* \"#utility.yul\":12991:12997   */\n      dup3\n        /* \"#utility.yul\":12987:13001   */\n      add\n        /* \"#utility.yul\":12980:13008   */\n      mstore\n        /* \"#utility.yul\":12863:13015   */\n      pop\n      jump\t// out\n        /* \"#utility.yul\":13021:13386   */\n    tag_127:\n        /* \"#utility.yul\":13163:13166   */\n      0x00\n        /* \"#utility.yul\":13184:13250   */\n      tag_253\n        /* \"#utility.yul\":13248:13249   */\n      0x02\n        /* \"#utility.yul\":13243:13246   */\n      dup4\n        /* \"#utility.yul\":13184:13250   */\n      tag_123\n      jump\t// in\n    tag_253:\n        /* \"#utility.yul\":13177:13250   */\n      swap2\n      pop\n        /* \"#utility.yul\":13259:13352   */\n      tag_254\n        /* \"#utility.yul\":13348:13351   */\n      dup3\n        /* \"#utility.yul\":13259:13352   */\n      tag_126\n      jump\t// in\n    tag_254:\n        /* \"#utility.yul\":13377:13379   */\n      0x20\n        /* \"#utility.yul\":13372:13375   */\n      dup3\n        /* \"#utility.yul\":13368:13380   */\n      add\n        /* \"#utility.yul\":13361:13380   */\n      swap1\n      pop\n        /* \"#utility.yul\":13021:13386   */\n      swap2\n      swap1\n      pop\n      jump\t// out\n        /* \"#utility.yul\":13392:13811   */\n    tag_78:\n        /* \"#utility.yul\":13558:13562   */\n      0x00\n        /* \"#utility.yul\":13596:13598   */\n      0x20\n        /* \"#utility.yul\":13585:13594   */\n      dup3\n        /* \"#utility.yul\":13581:13599   */\n      add\n        /* \"#utility.yul\":13573:13599   */\n      swap1\n      pop\n        /* \"#utility.yul\":13645:13654   */\n      dup2\n        /* \"#utility.yul\":13639:13643   */\n      dup2\n        /* \"#utility.yul\":13635:13655   */\n      sub\n        /* \"#utility.yul\":13631:13632   */\n      0x00\n        /* \"#utility.yul\":13620:13629   */\n      dup4\n        /* \"#utility.yul\":13616:13633   */\n      add\n        /* \"#utility.yul\":13609:13656   */\n      mstore\n        /* \"#utility.yul\":13673:13804   */\n      tag_256\n        /* \"#utility.yul\":13799:13803   */\n      dup2\n        /* \"#utility.yul\":13673:13804   */\n      tag_127\n      jump\t// in\n    tag_256:\n        /* \"#utility.yul\":13665:13804   */\n      swap1\n      pop\n        /* \"#utility.yul\":13392:13811   */\n      swap2\n      swap1\n      pop\n      jump\t// out\n        /* \"#utility.yul\":13817:13969   */\n    tag_128:\n        /* \"#utility.yul\":13957:13961   */\n      0x5354000000000000000000000000000000000000000000000000000000000000\n        /* \"#utility.yul\":13953:13954   */\n      0x00\n        /* \"#utility.yul\":13945:13951   */\n      dup3\n        /* \"#utility.yul\":13941:13955   */\n      add\n        /* \"#utility.yul\":13934:13962   */\n      mstore\n        /* \"#utility.yul\":13817:13969   */\n      pop\n      jump\t// out\n        /* \"#utility.yul\":13975:14340   */\n    tag_129:\n        /* \"#utility.yul\":14117:14120   */\n      0x00\n        /* \"#utility.yul\":14138:14204   */\n      tag_259\n        /* \"#utility.yul\":14202:14203   */\n      0x02\n        /* \"#utility.yul\":14197:14200   */\n      dup4\n        /* \"#utility.yul\":14138:14204   */\n      tag_123\n      jump\t// in\n    tag_259:\n        /* \"#utility.yul\":14131:14204   */\n      swap2\n      pop\n        /* \"#utility.yul\":14213:14306   */\n      tag_260\n        /* \"#utility.yul\":14302:14305   */\n      dup3\n        /* \"#utility.yul\":14213:14306   */\n      tag_128\n      jump\t// in\n    tag_260:\n        /* \"#utility.yul\":14331:14333   */\n      0x20\n        /* \"#utility.yul\":14326:14329   */\n      dup3\n        /* \"#utility.yul\":14322:14334   */\n      add\n        /* \"#utility.yul\":14315:14334   */\n      swap1\n      pop\n        /* \"#utility.yul\":13975:14340   */\n      swap2\n      swap1\n      pop\n      jump\t// out\n        /* \"#utility.yul\":14346:14765   */\n    tag_90:\n        /* \"#utility.yul\":14512:14516   */\n      0x00\n        /* \"#utility.yul\":14550:14552   */\n      0x20\n        /* \"#utility.yul\":14539:14548   */\n      dup3\n        /* \"#utility.yul\":14535:14553   */\n      add\n        /* \"#utility.yul\":14527:14553   */\n      swap1\n      pop\n        /* \"#utility.yul\":14599:14608   */\n      dup2\n        /* \"#utility.yul\":14593:14597   */\n      dup2\n        /* \"#utility.yul\":14589:14609   */\n      sub\n        /* \"#utility.yul\":14585:14586   */\n      0x00\n        /* \"#utility.yul\":14574:14583   */\n      dup4\n        /* \"#utility.yul\":14570:14587   */\n      add\n        /* \"#utility.yul\":14563:14610   */\n      mstore\n        /* \"#utility.yul\":14627:14758   */\n      tag_262\n        /* \"#utility.yul\":14753:14757   */\n      dup2\n        /* \"#utility.yul\":14627:14758   */\n      tag_129\n      jump\t// in\n    tag_262:\n        /* \"#utility.yul\":14619:14758   */\n      swap1\n      pop\n        /* \"#utility.yul\":14346:14765   */\n      swap2\n      swap1\n      pop\n      jump\t// out\n\n    auxdata: 0xa264697066735822122064807b284766468a009dfbca4d25bc6a2a3d4292c8ba3e29cee53279dc8c69dd64736f6c63430008190033\n}\n",
				"bytecode": {
					"linkReferences": {},
					"object": "60a060405234801561000f575f80fd5b506040516110e33803806110e3833981810160405281019061003191906100da565b8073ffffffffffffffffffffffffffffffffffffffff1660808173ffffffffffffffffffffffffffffffffffffffff168152505050610105565b5f80fd5b5f73ffffffffffffffffffffffffffffffffffffffff82169050919050565b5f6100988261006f565b9050919050565b5f6100a98261008e565b9050919050565b6100b98161009f565b81146100c3575f80fd5b50565b5f815190506100d4816100b0565b92915050565b5f602082840312156100ef576100ee61006b565b5b5f6100fc848285016100c6565b91505092915050565b608051610fa36101405f395f818161012b01528181610216015281816102b701528181610314015281816103ff01526104ba0152610fa35ff3fe608060405234801561000f575f80fd5b506004361061004a575f3560e01c8063089fe6aa1461004e57806373bd43ad1461006c578063c31c9c071461009c578063c4b69a18146100ba575b5f80fd5b6100566100ea565b604051610063919061091e565b60405180910390f35b6100866004803603810190610081919061096e565b6100f0565b60405161009391906109a8565b60405180910390f35b6100a46102b5565b6040516100b19190610a3b565b60405180910390f35b6100d460048036038101906100cf9190610a54565b6102d9565b6040516100e191906109a8565b60405180910390f35b610bb881565b5f610111731c7d4b196cb0c7b01d743fbc6116a902379c7238333085610511565b610150731c7d4b196cb0c7b01d743fbc6116a902379c72387f000000000000000000000000000000000000000000000000000000000000000084610663565b5f604051806101000160405280731c7d4b196cb0c7b01d743fbc6116a902379c723873ffffffffffffffffffffffffffffffffffffffff16815260200173fff9976782d46cc05630d1f6ebab18b2324d6b1473ffffffffffffffffffffffffffffffffffffffff168152602001610bb862ffffff1681526020013373ffffffffffffffffffffffffffffffffffffffff1681526020014281526020018481526020015f81526020015f73ffffffffffffffffffffffffffffffffffffffff1681525090507f000000000000000000000000000000000000000000000000000000000000000073ffffffffffffffffffffffffffffffffffffffff1663414bf389826040518263ffffffff1660e01b815260040161026d9190610b7f565b6020604051808303815f875af1158015610289573d5f803e3d5ffd5b505050506040513d601f19601f820116820180604052508101906102ad9190610bad565b915050919050565b7f000000000000000000000000000000000000000000000000000000000000000081565b5f6102fa731c7d4b196cb0c7b01d743fbc6116a902379c7238333085610511565b610339731c7d4b196cb0c7b01d743fbc6116a902379c72387f000000000000000000000000000000000000000000000000000000000000000084610663565b5f604051806101000160405280731c7d4b196cb0c7b01d743fbc6116a902379c723873ffffffffffffffffffffffffffffffffffffffff16815260200173fff9976782d46cc05630d1f6ebab18b2324d6b1473ffffffffffffffffffffffffffffffffffffffff168152602001610bb862ffffff1681526020013373ffffffffffffffffffffffffffffffffffffffff1681526020014281526020018581526020018481526020015f73ffffffffffffffffffffffffffffffffffffffff1681525090507f000000000000000000000000000000000000000000000000000000000000000073ffffffffffffffffffffffffffffffffffffffff1663db3e2198826040518263ffffffff1660e01b81526004016104569190610c78565b6020604051808303815f875af1158015610472573d5f803e3d5ffd5b505050506040513d601f19601f820116820180604052508101906104969190610bad565b91508282101561050a576104df731c7d4b196cb0c7b01d743fbc6116a902379c72387f00000000000000000000000000000000000000000000000000000000000000005f610663565b610509731c7d4b196cb0c7b01d743fbc6116a902379c72383384866105049190610cbf565b6107b2565b5b5092915050565b5f808573ffffffffffffffffffffffffffffffffffffffff166323b872dd60e01b86868660405160240161054793929190610d01565b604051602081830303815290604052907bffffffffffffffffffffffffffffffffffffffffffffffffffffffff19166020820180517bffffffffffffffffffffffffffffffffffffffffffffffffffffffff83818316178352505050506040516105b19190610d88565b5f604051808303815f865af19150503d805f81146105ea576040519150601f19603f3d011682016040523d82523d5f602084013e6105ef565b606091505b509150915081801561061c57505f8151148061061b57508080602001905181019061061a9190610dd3565b5b5b61065b576040517f08c379a000000000000000000000000000000000000000000000000000000000815260040161065290610e58565b60405180910390fd5b505050505050565b5f808473ffffffffffffffffffffffffffffffffffffffff1663095ea7b360e01b8585604051602401610697929190610e76565b604051602081830303815290604052907bffffffffffffffffffffffffffffffffffffffffffffffffffffffff19166020820180517bffffffffffffffffffffffffffffffffffffffffffffffffffffffff83818316178352505050506040516107019190610d88565b5f604051808303815f865af19150503d805f811461073a576040519150601f19603f3d011682016040523d82523d5f602084013e61073f565b606091505b509150915081801561076c57505f8151148061076b57508080602001905181019061076a9190610dd3565b5b5b6107ab576040517f08c379a00000000000000000000000000000000000000000000000000000000081526004016107a290610ee7565b60405180910390fd5b5050505050565b5f808473ffffffffffffffffffffffffffffffffffffffff1663a9059cbb60e01b85856040516024016107e6929190610e76565b604051602081830303815290604052907bffffffffffffffffffffffffffffffffffffffffffffffffffffffff19166020820180517bffffffffffffffffffffffffffffffffffffffffffffffffffffffff83818316178352505050506040516108509190610d88565b5f604051808303815f865af19150503d805f8114610889576040519150601f19603f3d011682016040523d82523d5f602084013e61088e565b606091505b50915091508180156108bb57505f815114806108ba5750808060200190518101906108b99190610dd3565b5b5b6108fa576040517f08c379a00000000000000000000000000000000000000000000000000000000081526004016108f190610f4f565b60405180910390fd5b5050505050565b5f62ffffff82169050919050565b61091881610901565b82525050565b5f6020820190506109315f83018461090f565b92915050565b5f80fd5b5f819050919050565b61094d8161093b565b8114610957575f80fd5b50565b5f8135905061096881610944565b92915050565b5f6020828403121561098357610982610937565b5b5f6109908482850161095a565b91505092915050565b6109a28161093b565b82525050565b5f6020820190506109bb5f830184610999565b92915050565b5f73ffffffffffffffffffffffffffffffffffffffff82169050919050565b5f819050919050565b5f610a036109fe6109f9846109c1565b6109e0565b6109c1565b9050919050565b5f610a14826109e9565b9050919050565b5f610a2582610a0a565b9050919050565b610a3581610a1b565b82525050565b5f602082019050610a4e5f830184610a2c565b92915050565b5f8060408385031215610a6a57610a69610937565b5b5f610a778582860161095a565b9250506020610a888582860161095a565b9150509250929050565b5f610a9c826109c1565b9050919050565b610aac81610a92565b82525050565b610abb81610901565b82525050565b610aca8161093b565b82525050565b610ad9816109c1565b82525050565b61010082015f820151610af45f850182610aa3565b506020820151610b076020850182610aa3565b506040820151610b1a6040850182610ab2565b506060820151610b2d6060850182610aa3565b506080820151610b406080850182610ac1565b5060a0820151610b5360a0850182610ac1565b5060c0820151610b6660c0850182610ac1565b5060e0820151610b7960e0850182610ad0565b50505050565b5f61010082019050610b935f830184610adf565b92915050565b5f81519050610ba781610944565b92915050565b5f60208284031215610bc257610bc1610937565b5b5f610bcf84828501610b99565b91505092915050565b61010082015f820151610bed5f850182610aa3565b506020820151610c006020850182610aa3565b506040820151610c136040850182610ab2565b506060820151610c266060850182610aa3565b506080820151610c396080850182610ac1565b5060a0820151610c4c60a0850182610ac1565b5060c0820151610c5f60c0850182610ac1565b5060e0820151610c7260e0850182610ad0565b50505050565b5f61010082019050610c8c5f830184610bd8565b92915050565b7f4e487b71000000000000000000000000000000000000000000000000000000005f52601160045260245ffd5b5f610cc98261093b565b9150610cd48361093b565b9250828203905081811115610cec57610ceb610c92565b5b92915050565b610cfb81610a92565b82525050565b5f606082019050610d145f830186610cf2565b610d216020830185610cf2565b610d2e6040830184610999565b949350505050565b5f81519050919050565b5f81905092915050565b8281835e5f83830152505050565b5f610d6282610d36565b610d6c8185610d40565b9350610d7c818560208601610d4a565b80840191505092915050565b5f610d938284610d58565b915081905092915050565b5f8115159050919050565b610db281610d9e565b8114610dbc575f80fd5b50565b5f81519050610dcd81610da9565b92915050565b5f60208284031215610de857610de7610937565b5b5f610df584828501610dbf565b91505092915050565b5f82825260208201905092915050565b7f53544600000000000000000000000000000000000000000000000000000000005f82015250565b5f610e42600383610dfe565b9150610e4d82610e0e565b602082019050919050565b5f6020820190508181035f830152610e6f81610e36565b9050919050565b5f604082019050610e895f830185610cf2565b610e966020830184610999565b9392505050565b7f53410000000000000000000000000000000000000000000000000000000000005f82015250565b5f610ed1600283610dfe565b9150610edc82610e9d565b602082019050919050565b5f6020820190508181035f830152610efe81610ec5565b9050919050565b7f53540000000000000000000000000000000000000000000000000000000000005f82015250565b5f610f39600283610dfe565b9150610f4482610f05565b602082019050919050565b5f6020820190508181035f830152610f6681610f2d565b905091905056fea264697066735822122064807b284766468a009dfbca4d25bc6a2a3d4292c8ba3e29cee53279dc8c69dd64736f6c63430008190033",
					"opcodes": "PUSH1 0xA0 PUSH1 0x40 MSTORE CALLVALUE DUP1 ISZERO PUSH2 0xF JUMPI PUSH0 DUP1 REVERT JUMPDEST POP PUSH1 0x40 MLOAD PUSH2 0x10E3 CODESIZE SUB DUP1 PUSH2 0x10E3 DUP4 CODECOPY DUP2 DUP2 ADD PUSH1 0x40 MSTORE DUP2 ADD SWAP1 PUSH2 0x31 SWAP2 SWAP1 PUSH2 0xDA JUMP JUMPDEST DUP1 PUSH20 0xFFFFFFFFFFFFFFFFFFFFFFFFFFFFFFFFFFFFFFFF AND PUSH1 0x80 DUP2 PUSH20 0xFFFFFFFFFFFFFFFFFFFFFFFFFFFFFFFFFFFFFFFF AND DUP2 MSTORE POP POP POP PUSH2 0x105 JUMP JUMPDEST PUSH0 DUP1 REVERT JUMPDEST PUSH0 PUSH20 0xFFFFFFFFFFFFFFFFFFFFFFFFFFFFFFFFFFFFFFFF DUP3 AND SWAP1 POP SWAP2 SWAP1 POP JUMP JUMPDEST PUSH0 PUSH2 0x98 DUP3 PUSH2 0x6F JUMP JUMPDEST SWAP1 POP SWAP2 SWAP1 POP JUMP JUMPDEST PUSH0 PUSH2 0xA9 DUP3 PUSH2 0x8E JUMP JUMPDEST SWAP1 POP SWAP2 SWAP1 POP JUMP JUMPDEST PUSH2 0xB9 DUP2 PUSH2 0x9F JUMP JUMPDEST DUP2 EQ PUSH2 0xC3 JUMPI PUSH0 DUP1 REVERT JUMPDEST POP JUMP JUMPDEST PUSH0 DUP2 MLOAD SWAP1 POP PUSH2 0xD4 DUP2 PUSH2 0xB0 JUMP JUMPDEST SWAP3 SWAP2 POP POP JUMP JUMPDEST PUSH0 PUSH1 0x20 DUP3 DUP5 SUB SLT ISZERO PUSH2 0xEF JUMPI PUSH2 0xEE PUSH2 0x6B JUMP JUMPDEST JUMPDEST PUSH0 PUSH2 0xFC DUP5 DUP3 DUP6 ADD PUSH2 0xC6 JUMP JUMPDEST SWAP2 POP POP SWAP3 SWAP2 POP POP JUMP JUMPDEST PUSH1 0x80 MLOAD PUSH2 0xFA3 PUSH2 0x140 PUSH0 CODECOPY PUSH0 DUP2 DUP2 PUSH2 0x12B ADD MSTORE DUP2 DUP2 PUSH2 0x216 ADD MSTORE DUP2 DUP2 PUSH2 0x2B7 ADD MSTORE DUP2 DUP2 PUSH2 0x314 ADD MSTORE DUP2 DUP2 PUSH2 0x3FF ADD MSTORE PUSH2 0x4BA ADD MSTORE PUSH2 0xFA3 PUSH0 RETURN INVALID PUSH1 0x80 PUSH1 0x40 MSTORE CALLVALUE DUP1 ISZERO PUSH2 0xF JUMPI PUSH0 DUP1 REVERT JUMPDEST POP PUSH1 0x4 CALLDATASIZE LT PUSH2 0x4A JUMPI PUSH0 CALLDATALOAD PUSH1 0xE0 SHR DUP1 PUSH4 0x89FE6AA EQ PUSH2 0x4E JUMPI DUP1 PUSH4 0x73BD43AD EQ PUSH2 0x6C JUMPI DUP1 PUSH4 0xC31C9C07 EQ PUSH2 0x9C JUMPI DUP1 PUSH4 0xC4B69A18 EQ PUSH2 0xBA JUMPI JUMPDEST PUSH0 DUP1 REVERT JUMPDEST PUSH2 0x56 PUSH2 0xEA JUMP JUMPDEST PUSH1 0x40 MLOAD PUSH2 0x63 SWAP2 SWAP1 PUSH2 0x91E JUMP JUMPDEST PUSH1 0x40 MLOAD DUP1 SWAP2 SUB SWAP1 RETURN JUMPDEST PUSH2 0x86 PUSH1 0x4 DUP1 CALLDATASIZE SUB DUP2 ADD SWAP1 PUSH2 0x81 SWAP2 SWAP1 PUSH2 0x96E JUMP JUMPDEST PUSH2 0xF0 JUMP JUMPDEST PUSH1 0x40 MLOAD PUSH2 0x93 SWAP2 SWAP1 PUSH2 0x9A8 JUMP JUMPDEST PUSH1 0x40 MLOAD DUP1 SWAP2 SUB SWAP1 RETURN JUMPDEST PUSH2 0xA4 PUSH2 0x2B5 JUMP JUMPDEST PUSH1 0x40 MLOAD PUSH2 0xB1 SWAP2 SWAP1 PUSH2 0xA3B JUMP JUMPDEST PUSH1 0x40 MLOAD DUP1 SWAP2 SUB SWAP1 RETURN JUMPDEST PUSH2 0xD4 PUSH1 0x4 DUP1 CALLDATASIZE SUB DUP2 ADD SWAP1 PUSH2 0xCF SWAP2 SWAP1 PUSH2 0xA54 JUMP JUMPDEST PUSH2 0x2D9 JUMP JUMPDEST PUSH1 0x40 MLOAD PUSH2 0xE1 SWAP2 SWAP1 PUSH2 0x9A8 JUMP JUMPDEST PUSH1 0x40 MLOAD DUP1 SWAP2 SUB SWAP1 RETURN JUMPDEST PUSH2 0xBB8 DUP2 JUMP JUMPDEST PUSH0 PUSH2 0x111 PUSH20 0x1C7D4B196CB0C7B01D743FBC6116A902379C7238 CALLER ADDRESS DUP6 PUSH2 0x511 JUMP JUMPDEST PUSH2 0x150 PUSH20 0x1C7D4B196CB0C7B01D743FBC6116A902379C7238 PUSH32 0x0 DUP5 PUSH2 0x663 JUMP JUMPDEST PUSH0 PUSH1 0x40 MLOAD DUP1 PUSH2 0x100 ADD PUSH1 0x40 MSTORE DUP1 PUSH20 0x1C7D4B196CB0C7B01D743FBC6116A902379C7238 PUSH20 0xFFFFFFFFFFFFFFFFFFFFFFFFFFFFFFFFFFFFFFFF AND DUP2 MSTORE PUSH1 0x20 ADD PUSH20 0xFFF9976782D46CC05630D1F6EBAB18B2324D6B14 PUSH20 0xFFFFFFFFFFFFFFFFFFFFFFFFFFFFFFFFFFFFFFFF AND DUP2 MSTORE PUSH1 0x20 ADD PUSH2 0xBB8 PUSH3 0xFFFFFF AND DUP2 MSTORE PUSH1 0x20 ADD CALLER PUSH20 0xFFFFFFFFFFFFFFFFFFFFFFFFFFFFFFFFFFFFFFFF AND DUP2 MSTORE PUSH1 0x20 ADD TIMESTAMP DUP2 MSTORE PUSH1 0x20 ADD DUP5 DUP2 MSTORE PUSH1 0x20 ADD PUSH0 DUP2 MSTORE PUSH1 0x20 ADD PUSH0 PUSH20 0xFFFFFFFFFFFFFFFFFFFFFFFFFFFFFFFFFFFFFFFF AND DUP2 MSTORE POP SWAP1 POP PUSH32 0x0 PUSH20 0xFFFFFFFFFFFFFFFFFFFFFFFFFFFFFFFFFFFFFFFF AND PUSH4 0x414BF389 DUP3 PUSH1 0x40 MLOAD DUP3 PUSH4 0xFFFFFFFF AND PUSH1 0xE0 SHL DUP2 MSTORE PUSH1 0x4 ADD PUSH2 0x26D SWAP2 SWAP1 PUSH2 0xB7F JUMP JUMPDEST PUSH1 0x20 PUSH1 0x40 MLOAD DUP1 DUP4 SUB DUP2 PUSH0 DUP8 GAS CALL ISZERO DUP1 ISZERO PUSH2 0x289 JUMPI RETURNDATASIZE PUSH0 DUP1 RETURNDATACOPY RETURNDATASIZE PUSH0 REVERT JUMPDEST POP POP POP POP PUSH1 0x40 MLOAD RETURNDATASIZE PUSH1 0x1F NOT PUSH1 0x1F DUP3 ADD AND DUP3 ADD DUP1 PUSH1 0x40 MSTORE POP DUP2 ADD SWAP1 PUSH2 0x2AD SWAP2 SWAP1 PUSH2 0xBAD JUMP JUMPDEST SWAP2 POP POP SWAP2 SWAP1 POP JUMP JUMPDEST PUSH32 0x0 DUP2 JUMP JUMPDEST PUSH0 PUSH2 0x2FA PUSH20 0x1C7D4B196CB0C7B01D743FBC6116A902379C7238 CALLER ADDRESS DUP6 PUSH2 0x511 JUMP JUMPDEST PUSH2 0x339 PUSH20 0x1C7D4B196CB0C7B01D743FBC6116A902379C7238 PUSH32 0x0 DUP5 PUSH2 0x663 JUMP JUMPDEST PUSH0 PUSH1 0x40 MLOAD DUP1 PUSH2 0x100 ADD PUSH1 0x40 MSTORE DUP1 PUSH20 0x1C7D4B196CB0C7B01D743FBC6116A902379C7238 PUSH20 0xFFFFFFFFFFFFFFFFFFFFFFFFFFFFFFFFFFFFFFFF AND DUP2 MSTORE PUSH1 0x20 ADD PUSH20 0xFFF9976782D46CC05630D1F6EBAB18B2324D6B14 PUSH20 0xFFFFFFFFFFFFFFFFFFFFFFFFFFFFFFFFFFFFFFFF AND DUP2 MSTORE PUSH1 0x20 ADD PUSH2 0xBB8 PUSH3 0xFFFFFF AND DUP2 MSTORE PUSH1 0x20 ADD CALLER PUSH20 0xFFFFFFFFFFFFFFFFFFFFFFFFFFFFFFFFFFFFFFFF AND DUP2 MSTORE PUSH1 0x20 ADD TIMESTAMP DUP2 MSTORE PUSH1 0x20 ADD DUP6 DUP2 MSTORE PUSH1 0x20 ADD DUP5 DUP2 MSTORE PUSH1 0x20 ADD PUSH0 PUSH20 0xFFFFFFFFFFFFFFFFFFFFFFFFFFFFFFFFFFFFFFFF AND DUP2 MSTORE POP SWAP1 POP PUSH32 0x0 PUSH20 0xFFFFFFFFFFFFFFFFFFFFFFFFFFFFFFFFFFFFFFFF AND PUSH4 0xDB3E2198 DUP3 PUSH1 0x40 MLOAD DUP3 PUSH4 0xFFFFFFFF AND PUSH1 0xE0 SHL DUP2 MSTORE PUSH1 0x4 ADD PUSH2 0x456 SWAP2 SWAP1 PUSH2 0xC78 JUMP JUMPDEST PUSH1 0x20 PUSH1 0x40 MLOAD DUP1 DUP4 SUB DUP2 PUSH0 DUP8 GAS CALL ISZERO DUP1 ISZERO PUSH2 0x472 JUMPI RETURNDATASIZE PUSH0 DUP1 RETURNDATACOPY RETURNDATASIZE PUSH0 REVERT JUMPDEST POP POP POP POP PUSH1 0x40 MLOAD RETURNDATASIZE PUSH1 0x1F NOT PUSH1 0x1F DUP3 ADD AND DUP3 ADD DUP1 PUSH1 0x40 MSTORE POP DUP2 ADD SWAP1 PUSH2 0x496 SWAP2 SWAP1 PUSH2 0xBAD JUMP JUMPDEST SWAP2 POP DUP3 DUP3 LT ISZERO PUSH2 0x50A JUMPI PUSH2 0x4DF PUSH20 0x1C7D4B196CB0C7B01D743FBC6116A902379C7238 PUSH32 0x0 PUSH0 PUSH2 0x663 JUMP JUMPDEST PUSH2 0x509 PUSH20 0x1C7D4B196CB0C7B01D743FBC6116A902379C7238 CALLER DUP5 DUP7 PUSH2 0x504 SWAP2 SWAP1 PUSH2 0xCBF JUMP JUMPDEST PUSH2 0x7B2 JUMP JUMPDEST JUMPDEST POP SWAP3 SWAP2 POP POP JUMP JUMPDEST PUSH0 DUP1 DUP6 PUSH20 0xFFFFFFFFFFFFFFFFFFFFFFFFFFFFFFFFFFFFFFFF AND PUSH4 0x23B872DD PUSH1 0xE0 SHL DUP7 DUP7 DUP7 PUSH1 0x40 MLOAD PUSH1 0x24 ADD PUSH2 0x547 SWAP4 SWAP3 SWAP2 SWAP1 PUSH2 0xD01 JUMP JUMPDEST PUSH1 0x40 MLOAD PUSH1 0x20 DUP2 DUP4 SUB SUB DUP2 MSTORE SWAP1 PUSH1 0x40 MSTORE SWAP1 PUSH28 0xFFFFFFFFFFFFFFFFFFFFFFFFFFFFFFFFFFFFFFFFFFFFFFFFFFFFFFFF NOT AND PUSH1 0x20 DUP3 ADD DUP1 MLOAD PUSH28 0xFFFFFFFFFFFFFFFFFFFFFFFFFFFFFFFFFFFFFFFFFFFFFFFFFFFFFFFF DUP4 DUP2 DUP4 AND OR DUP4 MSTORE POP POP POP POP PUSH1 0x40 MLOAD PUSH2 0x5B1 SWAP2 SWAP1 PUSH2 0xD88 JUMP JUMPDEST PUSH0 PUSH1 0x40 MLOAD DUP1 DUP4 SUB DUP2 PUSH0 DUP7 GAS CALL SWAP2 POP POP RETURNDATASIZE DUP1 PUSH0 DUP2 EQ PUSH2 0x5EA JUMPI PUSH1 0x40 MLOAD SWAP2 POP PUSH1 0x1F NOT PUSH1 0x3F RETURNDATASIZE ADD AND DUP3 ADD PUSH1 0x40 MSTORE RETURNDATASIZE DUP3 MSTORE RETURNDATASIZE PUSH0 PUSH1 0x20 DUP5 ADD RETURNDATACOPY PUSH2 0x5EF JUMP JUMPDEST PUSH1 0x60 SWAP2 POP JUMPDEST POP SWAP2 POP SWAP2 POP DUP2 DUP1 ISZERO PUSH2 0x61C JUMPI POP PUSH0 DUP2 MLOAD EQ DUP1 PUSH2 0x61B JUMPI POP DUP1 DUP1 PUSH1 0x20 ADD SWAP1 MLOAD DUP2 ADD SWAP1 PUSH2 0x61A SWAP2 SWAP1 PUSH2 0xDD3 JUMP JUMPDEST JUMPDEST JUMPDEST PUSH2 0x65B JUMPI PUSH1 0x40 MLOAD PUSH32 0x8C379A000000000000000000000000000000000000000000000000000000000 DUP2 MSTORE PUSH1 0x4 ADD PUSH2 0x652 SWAP1 PUSH2 0xE58 JUMP JUMPDEST PUSH1 0x40 MLOAD DUP1 SWAP2 SUB SWAP1 REVERT JUMPDEST POP POP POP POP POP POP JUMP JUMPDEST PUSH0 DUP1 DUP5 PUSH20 0xFFFFFFFFFFFFFFFFFFFFFFFFFFFFFFFFFFFFFFFF AND PUSH4 0x95EA7B3 PUSH1 0xE0 SHL DUP6 DUP6 PUSH1 0x40 MLOAD PUSH1 0x24 ADD PUSH2 0x697 SWAP3 SWAP2 SWAP1 PUSH2 0xE76 JUMP JUMPDEST PUSH1 0x40 MLOAD PUSH1 0x20 DUP2 DUP4 SUB SUB DUP2 MSTORE SWAP1 PUSH1 0x40 MSTORE SWAP1 PUSH28 0xFFFFFFFFFFFFFFFFFFFFFFFFFFFFFFFFFFFFFFFFFFFFFFFFFFFFFFFF NOT AND PUSH1 0x20 DUP3 ADD DUP1 MLOAD PUSH28 0xFFFFFFFFFFFFFFFFFFFFFFFFFFFFFFFFFFFFFFFFFFFFFFFFFFFFFFFF DUP4 DUP2 DUP4 AND OR DUP4 MSTORE POP POP POP POP PUSH1 0x40 MLOAD PUSH2 0x701 SWAP2 SWAP1 PUSH2 0xD88 JUMP JUMPDEST PUSH0 PUSH1 0x40 MLOAD DUP1 DUP4 SUB DUP2 PUSH0 DUP7 GAS CALL SWAP2 POP POP RETURNDATASIZE DUP1 PUSH0 DUP2 EQ PUSH2 0x73A JUMPI PUSH1 0x40 MLOAD SWAP2 POP PUSH1 0x1F NOT PUSH1 0x3F RETURNDATASIZE ADD AND DUP3 ADD PUSH1 0x40 MSTORE RETURNDATASIZE DUP3 MSTORE RETURNDATASIZE PUSH0 PUSH1 0x20 DUP5 ADD RETURNDATACOPY PUSH2 0x73F JUMP JUMPDEST PUSH1 0x60 SWAP2 POP JUMPDEST POP SWAP2 POP SWAP2 POP DUP2 DUP1 ISZERO PUSH2 0x76C JUMPI POP PUSH0 DUP2 MLOAD EQ DUP1 PUSH2 0x76B JUMPI POP DUP1 DUP1 PUSH1 0x20 ADD SWAP1 MLOAD DUP2 ADD SWAP1 PUSH2 0x76A SWAP2 SWAP1 PUSH2 0xDD3 JUMP JUMPDEST JUMPDEST JUMPDEST PUSH2 0x7AB JUMPI PUSH1 0x40 MLOAD PUSH32 0x8C379A000000000000000000000000000000000000000000000000000000000 DUP2 MSTORE PUSH1 0x4 ADD PUSH2 0x7A2 SWAP1 PUSH2 0xEE7 JUMP JUMPDEST PUSH1 0x40 MLOAD DUP1 SWAP2 SUB SWAP1 REVERT JUMPDEST POP POP POP POP POP JUMP JUMPDEST PUSH0 DUP1 DUP5 PUSH20 0xFFFFFFFFFFFFFFFFFFFFFFFFFFFFFFFFFFFFFFFF AND PUSH4 0xA9059CBB PUSH1 0xE0 SHL DUP6 DUP6 PUSH1 0x40 MLOAD PUSH1 0x24 ADD PUSH2 0x7E6 SWAP3 SWAP2 SWAP1 PUSH2 0xE76 JUMP JUMPDEST PUSH1 0x40 MLOAD PUSH1 0x20 DUP2 DUP4 SUB SUB DUP2 MSTORE SWAP1 PUSH1 0x40 MSTORE SWAP1 PUSH28 0xFFFFFFFFFFFFFFFFFFFFFFFFFFFFFFFFFFFFFFFFFFFFFFFFFFFFFFFF NOT AND PUSH1 0x20 DUP3 ADD DUP1 MLOAD PUSH28 0xFFFFFFFFFFFFFFFFFFFFFFFFFFFFFFFFFFFFFFFFFFFFFFFFFFFFFFFF DUP4 DUP2 DUP4 AND OR DUP4 MSTORE POP POP POP POP PUSH1 0x40 MLOAD PUSH2 0x850 SWAP2 SWAP1 PUSH2 0xD88 JUMP JUMPDEST PUSH0 PUSH1 0x40 MLOAD DUP1 DUP4 SUB DUP2 PUSH0 DUP7 GAS CALL SWAP2 POP POP RETURNDATASIZE DUP1 PUSH0 DUP2 EQ PUSH2 0x889 JUMPI PUSH1 0x40 MLOAD SWAP2 POP PUSH1 0x1F NOT PUSH1 0x3F RETURNDATASIZE ADD AND DUP3 ADD PUSH1 0x40 MSTORE RETURNDATASIZE DUP3 MSTORE RETURNDATASIZE PUSH0 PUSH1 0x20 DUP5 ADD RETURNDATACOPY PUSH2 0x88E JUMP JUMPDEST PUSH1 0x60 SWAP2 POP JUMPDEST POP SWAP2 POP SWAP2 POP DUP2 DUP1 ISZERO PUSH2 0x8BB JUMPI POP PUSH0 DUP2 MLOAD EQ DUP1 PUSH2 0x8BA JUMPI POP DUP1 DUP1 PUSH1 0x20 ADD SWAP1 MLOAD DUP2 ADD SWAP1 PUSH2 0x8B9 SWAP2 SWAP1 PUSH2 0xDD3 JUMP JUMPDEST JUMPDEST JUMPDEST PUSH2 0x8FA JUMPI PUSH1 0x40 MLOAD PUSH32 0x8C379A000000000000000000000000000000000000000000000000000000000 DUP2 MSTORE PUSH1 0x4 ADD PUSH2 0x8F1 SWAP1 PUSH2 0xF4F JUMP JUMPDEST PUSH1 0x40 MLOAD DUP1 SWAP2 SUB SWAP1 REVERT JUMPDEST POP POP POP POP POP JUMP JUMPDEST PUSH0 PUSH3 0xFFFFFF DUP3 AND SWAP1 POP SWAP2 SWAP1 POP JUMP JUMPDEST PUSH2 0x918 DUP2 PUSH2 0x901 JUMP JUMPDEST DUP3 MSTORE POP POP JUMP JUMPDEST PUSH0 PUSH1 0x20 DUP3 ADD SWAP1 POP PUSH2 0x931 PUSH0 DUP4 ADD DUP5 PUSH2 0x90F JUMP JUMPDEST SWAP3 SWAP2 POP POP JUMP JUMPDEST PUSH0 DUP1 REVERT JUMPDEST PUSH0 DUP2 SWAP1 POP SWAP2 SWAP1 POP JUMP JUMPDEST PUSH2 0x94D DUP2 PUSH2 0x93B JUMP JUMPDEST DUP2 EQ PUSH2 0x957 JUMPI PUSH0 DUP1 REVERT JUMPDEST POP JUMP JUMPDEST PUSH0 DUP2 CALLDATALOAD SWAP1 POP PUSH2 0x968 DUP2 PUSH2 0x944 JUMP JUMPDEST SWAP3 SWAP2 POP POP JUMP JUMPDEST PUSH0 PUSH1 0x20 DUP3 DUP5 SUB SLT ISZERO PUSH2 0x983 JUMPI PUSH2 0x982 PUSH2 0x937 JUMP JUMPDEST JUMPDEST PUSH0 PUSH2 0x990 DUP5 DUP3 DUP6 ADD PUSH2 0x95A JUMP JUMPDEST SWAP2 POP POP SWAP3 SWAP2 POP POP JUMP JUMPDEST PUSH2 0x9A2 DUP2 PUSH2 0x93B JUMP JUMPDEST DUP3 MSTORE POP POP JUMP JUMPDEST PUSH0 PUSH1 0x20 DUP3 ADD SWAP1 POP PUSH2 0x9BB PUSH0 DUP4 ADD DUP5 PUSH2 0x999 JUMP JUMPDEST SWAP3 SWAP2 POP POP JUMP JUMPDEST PUSH0 PUSH20 0xFFFFFFFFFFFFFFFFFFFFFFFFFFFFFFFFFFFFFFFF DUP3 AND SWAP1 POP SWAP2 SWAP1 POP JUMP JUMPDEST PUSH0 DUP2 SWAP1 POP SWAP2 SWAP1 POP JUMP JUMPDEST PUSH0 PUSH2 0xA03 PUSH2 0x9FE PUSH2 0x9F9 DUP5 PUSH2 0x9C1 JUMP JUMPDEST PUSH2 0x9E0 JUMP JUMPDEST PUSH2 0x9C1 JUMP JUMPDEST SWAP1 POP SWAP2 SWAP1 POP JUMP JUMPDEST PUSH0 PUSH2 0xA14 DUP3 PUSH2 0x9E9 JUMP JUMPDEST SWAP1 POP SWAP2 SWAP1 POP JUMP JUMPDEST PUSH0 PUSH2 0xA25 DUP3 PUSH2 0xA0A JUMP JUMPDEST SWAP1 POP SWAP2 SWAP1 POP JUMP JUMPDEST PUSH2 0xA35 DUP2 PUSH2 0xA1B JUMP JUMPDEST DUP3 MSTORE POP POP JUMP JUMPDEST PUSH0 PUSH1 0x20 DUP3 ADD SWAP1 POP PUSH2 0xA4E PUSH0 DUP4 ADD DUP5 PUSH2 0xA2C JUMP JUMPDEST SWAP3 SWAP2 POP POP JUMP JUMPDEST PUSH0 DUP1 PUSH1 0x40 DUP4 DUP6 SUB SLT ISZERO PUSH2 0xA6A JUMPI PUSH2 0xA69 PUSH2 0x937 JUMP JUMPDEST JUMPDEST PUSH0 PUSH2 0xA77 DUP6 DUP3 DUP7 ADD PUSH2 0x95A JUMP JUMPDEST SWAP3 POP POP PUSH1 0x20 PUSH2 0xA88 DUP6 DUP3 DUP7 ADD PUSH2 0x95A JUMP JUMPDEST SWAP2 POP POP SWAP3 POP SWAP3 SWAP1 POP JUMP JUMPDEST PUSH0 PUSH2 0xA9C DUP3 PUSH2 0x9C1 JUMP JUMPDEST SWAP1 POP SWAP2 SWAP1 POP JUMP JUMPDEST PUSH2 0xAAC DUP2 PUSH2 0xA92 JUMP JUMPDEST DUP3 MSTORE POP POP JUMP JUMPDEST PUSH2 0xABB DUP2 PUSH2 0x901 JUMP JUMPDEST DUP3 MSTORE POP POP JUMP JUMPDEST PUSH2 0xACA DUP2 PUSH2 0x93B JUMP JUMPDEST DUP3 MSTORE POP POP JUMP JUMPDEST PUSH2 0xAD9 DUP2 PUSH2 0x9C1 JUMP JUMPDEST DUP3 MSTORE POP POP JUMP JUMPDEST PUSH2 0x100 DUP3 ADD PUSH0 DUP3 ADD MLOAD PUSH2 0xAF4 PUSH0 DUP6 ADD DUP3 PUSH2 0xAA3 JUMP JUMPDEST POP PUSH1 0x20 DUP3 ADD MLOAD PUSH2 0xB07 PUSH1 0x20 DUP6 ADD DUP3 PUSH2 0xAA3 JUMP JUMPDEST POP PUSH1 0x40 DUP3 ADD MLOAD PUSH2 0xB1A PUSH1 0x40 DUP6 ADD DUP3 PUSH2 0xAB2 JUMP JUMPDEST POP PUSH1 0x60 DUP3 ADD MLOAD PUSH2 0xB2D PUSH1 0x60 DUP6 ADD DUP3 PUSH2 0xAA3 JUMP JUMPDEST POP PUSH1 0x80 DUP3 ADD MLOAD PUSH2 0xB40 PUSH1 0x80 DUP6 ADD DUP3 PUSH2 0xAC1 JUMP JUMPDEST POP PUSH1 0xA0 DUP3 ADD MLOAD PUSH2 0xB53 PUSH1 0xA0 DUP6 ADD DUP3 PUSH2 0xAC1 JUMP JUMPDEST POP PUSH1 0xC0 DUP3 ADD MLOAD PUSH2 0xB66 PUSH1 0xC0 DUP6 ADD DUP3 PUSH2 0xAC1 JUMP JUMPDEST POP PUSH1 0xE0 DUP3 ADD MLOAD PUSH2 0xB79 PUSH1 0xE0 DUP6 ADD DUP3 PUSH2 0xAD0 JUMP JUMPDEST POP POP POP POP JUMP JUMPDEST PUSH0 PUSH2 0x100 DUP3 ADD SWAP1 POP PUSH2 0xB93 PUSH0 DUP4 ADD DUP5 PUSH2 0xADF JUMP JUMPDEST SWAP3 SWAP2 POP POP JUMP JUMPDEST PUSH0 DUP2 MLOAD SWAP1 POP PUSH2 0xBA7 DUP2 PUSH2 0x944 JUMP JUMPDEST SWAP3 SWAP2 POP POP JUMP JUMPDEST PUSH0 PUSH1 0x20 DUP3 DUP5 SUB SLT ISZERO PUSH2 0xBC2 JUMPI PUSH2 0xBC1 PUSH2 0x937 JUMP JUMPDEST JUMPDEST PUSH0 PUSH2 0xBCF DUP5 DUP3 DUP6 ADD PUSH2 0xB99 JUMP JUMPDEST SWAP2 POP POP SWAP3 SWAP2 POP POP JUMP JUMPDEST PUSH2 0x100 DUP3 ADD PUSH0 DUP3 ADD MLOAD PUSH2 0xBED PUSH0 DUP6 ADD DUP3 PUSH2 0xAA3 JUMP JUMPDEST POP PUSH1 0x20 DUP3 ADD MLOAD PUSH2 0xC00 PUSH1 0x20 DUP6 ADD DUP3 PUSH2 0xAA3 JUMP JUMPDEST POP PUSH1 0x40 DUP3 ADD MLOAD PUSH2 0xC13 PUSH1 0x40 DUP6 ADD DUP3 PUSH2 0xAB2 JUMP JUMPDEST POP PUSH1 0x60 DUP3 ADD MLOAD PUSH2 0xC26 PUSH1 0x60 DUP6 ADD DUP3 PUSH2 0xAA3 JUMP JUMPDEST POP PUSH1 0x80 DUP3 ADD MLOAD PUSH2 0xC39 PUSH1 0x80 DUP6 ADD DUP3 PUSH2 0xAC1 JUMP JUMPDEST POP PUSH1 0xA0 DUP3 ADD MLOAD PUSH2 0xC4C PUSH1 0xA0 DUP6 ADD DUP3 PUSH2 0xAC1 JUMP JUMPDEST POP PUSH1 0xC0 DUP3 ADD MLOAD PUSH2 0xC5F PUSH1 0xC0 DUP6 ADD DUP3 PUSH2 0xAC1 JUMP JUMPDEST POP PUSH1 0xE0 DUP3 ADD MLOAD PUSH2 0xC72 PUSH1 0xE0 DUP6 ADD DUP3 PUSH2 0xAD0 JUMP JUMPDEST POP POP POP POP JUMP JUMPDEST PUSH0 PUSH2 0x100 DUP3 ADD SWAP1 POP PUSH2 0xC8C PUSH0 DUP4 ADD DUP5 PUSH2 0xBD8 JUMP JUMPDEST SWAP3 SWAP2 POP POP JUMP JUMPDEST PUSH32 0x4E487B7100000000000000000000000000000000000000000000000000000000 PUSH0 MSTORE PUSH1 0x11 PUSH1 0x4 MSTORE PUSH1 0x24 PUSH0 REVERT JUMPDEST PUSH0 PUSH2 0xCC9 DUP3 PUSH2 0x93B JUMP JUMPDEST SWAP2 POP PUSH2 0xCD4 DUP4 PUSH2 0x93B JUMP JUMPDEST SWAP3 POP DUP3 DUP3 SUB SWAP1 POP DUP2 DUP2 GT ISZERO PUSH2 0xCEC JUMPI PUSH2 0xCEB PUSH2 0xC92 JUMP JUMPDEST JUMPDEST SWAP3 SWAP2 POP POP JUMP JUMPDEST PUSH2 0xCFB DUP2 PUSH2 0xA92 JUMP JUMPDEST DUP3 MSTORE POP POP JUMP JUMPDEST PUSH0 PUSH1 0x60 DUP3 ADD SWAP1 POP PUSH2 0xD14 PUSH0 DUP4 ADD DUP7 PUSH2 0xCF2 JUMP JUMPDEST PUSH2 0xD21 PUSH1 0x20 DUP4 ADD DUP6 PUSH2 0xCF2 JUMP JUMPDEST PUSH2 0xD2E PUSH1 0x40 DUP4 ADD DUP5 PUSH2 0x999 JUMP JUMPDEST SWAP5 SWAP4 POP POP POP POP JUMP JUMPDEST PUSH0 DUP2 MLOAD SWAP1 POP SWAP2 SWAP1 POP JUMP JUMPDEST PUSH0 DUP2 SWAP1 POP SWAP3 SWAP2 POP POP JUMP JUMPDEST DUP3 DUP2 DUP4 MCOPY PUSH0 DUP4 DUP4 ADD MSTORE POP POP POP JUMP JUMPDEST PUSH0 PUSH2 0xD62 DUP3 PUSH2 0xD36 JUMP JUMPDEST PUSH2 0xD6C DUP2 DUP6 PUSH2 0xD40 JUMP JUMPDEST SWAP4 POP PUSH2 0xD7C DUP2 DUP6 PUSH1 0x20 DUP7 ADD PUSH2 0xD4A JUMP JUMPDEST DUP1 DUP5 ADD SWAP2 POP POP SWAP3 SWAP2 POP POP JUMP JUMPDEST PUSH0 PUSH2 0xD93 DUP3 DUP5 PUSH2 0xD58 JUMP JUMPDEST SWAP2 POP DUP2 SWAP1 POP SWAP3 SWAP2 POP POP JUMP JUMPDEST PUSH0 DUP2 ISZERO ISZERO SWAP1 POP SWAP2 SWAP1 POP JUMP JUMPDEST PUSH2 0xDB2 DUP2 PUSH2 0xD9E JUMP JUMPDEST DUP2 EQ PUSH2 0xDBC JUMPI PUSH0 DUP1 REVERT JUMPDEST POP JUMP JUMPDEST PUSH0 DUP2 MLOAD SWAP1 POP PUSH2 0xDCD DUP2 PUSH2 0xDA9 JUMP JUMPDEST SWAP3 SWAP2 POP POP JUMP JUMPDEST PUSH0 PUSH1 0x20 DUP3 DUP5 SUB SLT ISZERO PUSH2 0xDE8 JUMPI PUSH2 0xDE7 PUSH2 0x937 JUMP JUMPDEST JUMPDEST PUSH0 PUSH2 0xDF5 DUP5 DUP3 DUP6 ADD PUSH2 0xDBF JUMP JUMPDEST SWAP2 POP POP SWAP3 SWAP2 POP POP JUMP JUMPDEST PUSH0 DUP3 DUP3 MSTORE PUSH1 0x20 DUP3 ADD SWAP1 POP SWAP3 SWAP2 POP POP JUMP JUMPDEST PUSH32 0x5354460000000000000000000000000000000000000000000000000000000000 PUSH0 DUP3 ADD MSTORE POP JUMP JUMPDEST PUSH0 PUSH2 0xE42 PUSH1 0x3 DUP4 PUSH2 0xDFE JUMP JUMPDEST SWAP2 POP PUSH2 0xE4D DUP3 PUSH2 0xE0E JUMP JUMPDEST PUSH1 0x20 DUP3 ADD SWAP1 POP SWAP2 SWAP1 POP JUMP JUMPDEST PUSH0 PUSH1 0x20 DUP3 ADD SWAP1 POP DUP2 DUP2 SUB PUSH0 DUP4 ADD MSTORE PUSH2 0xE6F DUP2 PUSH2 0xE36 JUMP JUMPDEST SWAP1 POP SWAP2 SWAP1 POP JUMP JUMPDEST PUSH0 PUSH1 0x40 DUP3 ADD SWAP1 POP PUSH2 0xE89 PUSH0 DUP4 ADD DUP6 PUSH2 0xCF2 JUMP JUMPDEST PUSH2 0xE96 PUSH1 0x20 DUP4 ADD DUP5 PUSH2 0x999 JUMP JUMPDEST SWAP4 SWAP3 POP POP POP JUMP JUMPDEST PUSH32 0x5341000000000000000000000000000000000000000000000000000000000000 PUSH0 DUP3 ADD MSTORE POP JUMP JUMPDEST PUSH0 PUSH2 0xED1 PUSH1 0x2 DUP4 PUSH2 0xDFE JUMP JUMPDEST SWAP2 POP PUSH2 0xEDC DUP3 PUSH2 0xE9D JUMP JUMPDEST PUSH1 0x20 DUP3 ADD SWAP1 POP SWAP2 SWAP1 POP JUMP JUMPDEST PUSH0 PUSH1 0x20 DUP3 ADD SWAP1 POP DUP2 DUP2 SUB PUSH0 DUP4 ADD MSTORE PUSH2 0xEFE DUP2 PUSH2 0xEC5 JUMP JUMPDEST SWAP1 POP SWAP2 SWAP1 POP JUMP JUMPDEST PUSH32 0x5354000000000000000000000000000000000000000000000000000000000000 PUSH0 DUP3 ADD MSTORE POP JUMP JUMPDEST PUSH0 PUSH2 0xF39 PUSH1 0x2 DUP4 PUSH2 0xDFE JUMP JUMPDEST SWAP2 POP PUSH2 0xF44 DUP3 PUSH2 0xF05 JUMP JUMPDEST PUSH1 0x20 DUP3 ADD SWAP1 POP SWAP2 SWAP1 POP JUMP JUMPDEST PUSH0 PUSH1 0x20 DUP3 ADD SWAP1 POP DUP2 DUP2 SUB PUSH0 DUP4 ADD MSTORE PUSH2 0xF66 DUP2 PUSH2 0xF2D JUMP JUMPDEST SWAP1 POP SWAP2 SWAP1 POP JUMP INVALID LOG2 PUSH5 0x6970667358 0x22 SLT KECCAK256 PUSH5 0x807B284766 CHAINID DUP11 STOP SWAP14 0xFB 0xCA 0x4D 0x25 0xBC PUSH11 0x2A3D4292C8BA3E29CEE532 PUSH26 0xDC8C69DD64736F6C634300081900330000000000000000000000 "
				},
				"gasEstimates": {
					"creation": {
						"codeDepositCost": "800600",
						"executionCost": "infinite",
						"totalCost": "infinite"
					},
					"external": {
						"poolFee()": "309",
						"swapExactInputSingle(uint256)": "infinite",
						"swapExactOutputSingle(uint256,uint256)": "infinite",
						"swapRouter()": "infinite"
					}
				},
				"methodIdentifiers": {
					"poolFee()": "089fe6aa",
					"swapExactInputSingle(uint256)": "73bd43ad",
					"swapExactOutputSingle(uint256,uint256)": "c4b69a18",
					"swapRouter()": "c31c9c07"
				}
			},
			"storageLayout": {
				"storage": [],
				"types": null
			},
			"userdoc": {
				"kind": "user",
				"methods": {
					"swapExactInputSingle(uint256)": {
						"notice": "swapExactInputSingle swaps a fixed amount of DAI for a maximum possible amount of WETH9 using the DAI/WETH9 0.3% pool by calling `exactInputSingle` in the swap router."
					},
					"swapExactOutputSingle(uint256,uint256)": {
						"notice": "swapExactOutputSingle swaps a minimum possible amount of DAI for a fixed amount of WETH."
					}
				},
				"version": 1
			}
		}
	}
}