{
	"contracts/MultiSigWallet.sol": {
		"MultiSigWallet": {
			"abi": [
				{
					"inputs": [
						{
							"internalType": "address[]",
							"name": "_owners",
							"type": "address[]"
						},
						{
							"internalType": "uint256",
							"name": "_required",
							"type": "uint256"
						}
					],
					"stateMutability": "nonpayable",
					"type": "constructor"
				},
				{
					"anonymous": false,
					"inputs": [
						{
							"indexed": true,
							"internalType": "address",
							"name": "owner",
							"type": "address"
						},
						{
							"indexed": true,
							"internalType": "uint256",
							"name": "transactionId",
							"type": "uint256"
						}
					],
					"name": "Confirmation",
					"type": "event"
				},
				{
					"anonymous": false,
					"inputs": [
						{
							"indexed": true,
							"internalType": "address",
							"name": "sender",
							"type": "address"
						},
						{
							"indexed": false,
							"internalType": "uint256",
							"name": "value",
							"type": "uint256"
						}
					],
					"name": "Deposit",
					"type": "event"
				},
				{
					"anonymous": false,
					"inputs": [
						{
							"indexed": true,
							"internalType": "uint256",
							"name": "transactionId",
							"type": "uint256"
						}
					],
					"name": "Execution",
					"type": "event"
				},
				{
					"anonymous": false,
					"inputs": [
						{
							"indexed": true,
							"internalType": "uint256",
							"name": "transactionId",
							"type": "uint256"
						}
					],
					"name": "ExecutionFailure",
					"type": "event"
				},
				{
					"anonymous": false,
					"inputs": [
						{
							"indexed": true,
							"internalType": "uint256",
							"name": "transactionId",
							"type": "uint256"
						}
					],
					"name": "Submission",
					"type": "event"
				},
				{
					"inputs": [
						{
							"internalType": "uint256",
							"name": "transactionId",
							"type": "uint256"
						}
					],
					"name": "confirmTransaction",
					"outputs": [],
					"stateMutability": "nonpayable",
					"type": "function"
				},
				{
					"inputs": [
						{
							"internalType": "uint256",
							"name": "",
							"type": "uint256"
						},
						{
							"internalType": "address",
							"name": "",
							"type": "address"
						}
					],
					"name": "confirmations",
					"outputs": [
						{
							"internalType": "bool",
							"name": "",
							"type": "bool"
						}
					],
					"stateMutability": "view",
					"type": "function"
				},
				{
					"inputs": [
						{
							"internalType": "uint256",
							"name": "transactionId",
							"type": "uint256"
						}
					],
					"name": "executeTransaction",
					"outputs": [],
					"stateMutability": "nonpayable",
					"type": "function"
				},
				{
					"inputs": [
						{
							"internalType": "uint256",
							"name": "transactionId",
							"type": "uint256"
						}
					],
					"name": "isConfirmed",
					"outputs": [
						{
							"internalType": "bool",
							"name": "",
							"type": "bool"
						}
					],
					"stateMutability": "view",
					"type": "function"
				},
				{
					"inputs": [
						{
							"internalType": "address",
							"name": "",
							"type": "address"
						}
					],
					"name": "isOwner",
					"outputs": [
						{
							"internalType": "bool",
							"name": "",
							"type": "bool"
						}
					],
					"stateMutability": "view",
					"type": "function"
				},
				{
					"inputs": [
						{
							"internalType": "uint256",
							"name": "",
							"type": "uint256"
						}
					],
					"name": "owners",
					"outputs": [
						{
							"internalType": "address",
							"name": "",
							"type": "address"
						}
					],
					"stateMutability": "view",
					"type": "function"
				},
				{
					"inputs": [],
					"name": "required",
					"outputs": [
						{
							"internalType": "uint256",
							"name": "",
							"type": "uint256"
						}
					],
					"stateMutability": "view",
					"type": "function"
				},
				{
					"inputs": [
						{
							"internalType": "address",
							"name": "destination",
							"type": "address"
						},
						{
							"internalType": "uint256",
							"name": "value",
							"type": "uint256"
						}
					],
					"name": "submitTransaction",
					"outputs": [
						{
							"internalType": "uint256",
							"name": "transactionId",
							"type": "uint256"
						}
					],
					"stateMutability": "nonpayable",
					"type": "function"
				},
				{
					"inputs": [],
					"name": "transactionCount",
					"outputs": [
						{
							"internalType": "uint256",
							"name": "",
							"type": "uint256"
						}
					],
					"stateMutability": "view",
					"type": "function"
				},
				{
					"inputs": [
						{
							"internalType": "uint256",
							"name": "",
							"type": "uint256"
						}
					],
					"name": "transactions",
					"outputs": [
						{
							"internalType": "address",
							"name": "destination",
							"type": "address"
						},
						{
							"internalType": "uint256",
							"name": "value",
							"type": "uint256"
						},
						{
							"internalType": "bool",
							"name": "executed",
							"type": "bool"
						}
					],
					"stateMutability": "view",
					"type": "function"
				},
				{
					"stateMutability": "payable",
					"type": "receive"
				}
			],
			"devdoc": {
				"kind": "dev",
				"methods": {},
				"version": 1
			},
			"evm": {
				"assembly": "    /* \"contracts/MultiSigWallet.sol\":57:3374  contract MultiSigWallet {... */\n  mstore(0x40, 0x80)\n    /* \"contracts/MultiSigWallet.sol\":1325:1772  constructor(address[] memory _owners, uint _required) {... */\n  callvalue\n  dup1\n  iszero\n  tag_1\n  jumpi\n  0x00\n  dup1\n  revert\ntag_1:\n  pop\n  mload(0x40)\n  sub(codesize, bytecodeSize)\n  dup1\n  bytecodeSize\n  dup4\n  codecopy\n  dup2\n  dup2\n  add\n  0x40\n  mstore\n  dup2\n  add\n  swap1\n  tag_2\n  swap2\n  swap1\n  tag_3\n  jump\t// in\ntag_2:\n    /* \"contracts/MultiSigWallet.sol\":1414:1415  0 */\n  0x00\n    /* \"contracts/MultiSigWallet.sol\":1397:1404  _owners */\n  dup3\n    /* \"contracts/MultiSigWallet.sol\":1397:1411  _owners.length */\n  mload\n    /* \"contracts/MultiSigWallet.sol\":1397:1415  _owners.length > 0 */\n  gt\n    /* \"contracts/MultiSigWallet.sol\":1389:1435  require(_owners.length > 0, \"Owners required\") */\n  tag_6\n  jumpi\n  mload(0x40)\n  0x08c379a000000000000000000000000000000000000000000000000000000000\n  dup2\n  mstore\n  0x04\n  add\n  tag_7\n  swap1\n  tag_8\n  jump\t// in\ntag_7:\n  mload(0x40)\n  dup1\n  swap2\n  sub\n  swap1\n  revert\ntag_6:\n    /* \"contracts/MultiSigWallet.sol\":1465:1466  0 */\n  0x00\n    /* \"contracts/MultiSigWallet.sol\":1453:1462  _required */\n  dup2\n    /* \"contracts/MultiSigWallet.sol\":1453:1466  _required > 0 */\n  gt\n    /* \"contracts/MultiSigWallet.sol\":1453:1497  _required > 0 && _required <= _owners.length */\n  dup1\n  iszero\n  tag_9\n  jumpi\n  pop\n    /* \"contracts/MultiSigWallet.sol\":1483:1490  _owners */\n  dup2\n    /* \"contracts/MultiSigWallet.sol\":1483:1497  _owners.length */\n  mload\n    /* \"contracts/MultiSigWallet.sol\":1470:1479  _required */\n  dup2\n    /* \"contracts/MultiSigWallet.sol\":1470:1497  _required <= _owners.length */\n  gt\n  iszero\n    /* \"contracts/MultiSigWallet.sol\":1453:1497  _required > 0 && _required <= _owners.length */\ntag_9:\n    /* \"contracts/MultiSigWallet.sol\":1445:1542  require(_required > 0 && _required <= _owners.length, \"Invalid number of required confirmations\") */\n  tag_10\n  jumpi\n  mload(0x40)\n  0x08c379a000000000000000000000000000000000000000000000000000000000\n  dup2\n  mstore\n  0x04\n  add\n  tag_11\n  swap1\n  tag_12\n  jump\t// in\ntag_11:\n  mload(0x40)\n  dup1\n  swap2\n  sub\n  swap1\n  revert\ntag_10:\n    /* \"contracts/MultiSigWallet.sol\":1558:1564  uint i */\n  0x00\n    /* \"contracts/MultiSigWallet.sol\":1553:1710  for (uint i = 0; i < _owners.length; i++) {... */\ntag_13:\n    /* \"contracts/MultiSigWallet.sol\":1574:1581  _owners */\n  dup3\n    /* \"contracts/MultiSigWallet.sol\":1574:1588  _owners.length */\n  mload\n    /* \"contracts/MultiSigWallet.sol\":1570:1571  i */\n  dup2\n    /* \"contracts/MultiSigWallet.sol\":1570:1588  i < _owners.length */\n  lt\n    /* \"contracts/MultiSigWallet.sol\":1553:1710  for (uint i = 0; i < _owners.length; i++) {... */\n  iszero\n  tag_14\n  jumpi\n    /* \"contracts/MultiSigWallet.sol\":1639:1640  0 */\n  0x00\n    /* \"contracts/MultiSigWallet.sol\":1617:1641  _owners[i] != address(0) */\n  0xffffffffffffffffffffffffffffffffffffffff\n  and\n    /* \"contracts/MultiSigWallet.sol\":1617:1624  _owners */\n  dup4\n    /* \"contracts/MultiSigWallet.sol\":1625:1626  i */\n  dup3\n    /* \"contracts/MultiSigWallet.sol\":1617:1627  _owners[i] */\n  dup2\n  mload\n  dup2\n  lt\n  tag_16\n  jumpi\n  tag_17\n  tag_18\n  jump\t// in\ntag_17:\ntag_16:\n  0x20\n  mul\n  0x20\n  add\n  add\n  mload\n    /* \"contracts/MultiSigWallet.sol\":1617:1641  _owners[i] != address(0) */\n  0xffffffffffffffffffffffffffffffffffffffff\n  and\n  sub\n    /* \"contracts/MultiSigWallet.sol\":1609:1659  require(_owners[i] != address(0), \"Invalid owner\") */\n  tag_19\n  jumpi\n  mload(0x40)\n  0x08c379a000000000000000000000000000000000000000000000000000000000\n  dup2\n  mstore\n  0x04\n  add\n  tag_20\n  swap1\n  tag_21\n  jump\t// in\ntag_20:\n  mload(0x40)\n  dup1\n  swap2\n  sub\n  swap1\n  revert\ntag_19:\n    /* \"contracts/MultiSigWallet.sol\":1695:1699  true */\n  0x01\n    /* \"contracts/MultiSigWallet.sol\":1673:1680  isOwner */\n  0x02\n    /* \"contracts/MultiSigWallet.sol\":1673:1692  isOwner[_owners[i]] */\n  0x00\n    /* \"contracts/MultiSigWallet.sol\":1681:1688  _owners */\n  dup6\n    /* \"contracts/MultiSigWallet.sol\":1689:1690  i */\n  dup5\n    /* \"contracts/MultiSigWallet.sol\":1681:1691  _owners[i] */\n  dup2\n  mload\n  dup2\n  lt\n  tag_22\n  jumpi\n  tag_23\n  tag_18\n  jump\t// in\ntag_23:\ntag_22:\n  0x20\n  mul\n  0x20\n  add\n  add\n  mload\n    /* \"contracts/MultiSigWallet.sol\":1673:1692  isOwner[_owners[i]] */\n  0xffffffffffffffffffffffffffffffffffffffff\n  and\n  0xffffffffffffffffffffffffffffffffffffffff\n  and\n  dup2\n  mstore\n  0x20\n  add\n  swap1\n  dup2\n  mstore\n  0x20\n  add\n  0x00\n  keccak256\n  0x00\n    /* \"contracts/MultiSigWallet.sol\":1673:1699  isOwner[_owners[i]] = true */\n  0x0100\n  exp\n  dup2\n  sload\n  dup2\n  0xff\n  mul\n  not\n  and\n  swap1\n  dup4\n  iszero\n  iszero\n  mul\n  or\n  swap1\n  sstore\n  pop\n    /* \"contracts/MultiSigWallet.sol\":1590:1593  i++ */\n  dup1\n  dup1\n  0x01\n  add\n  swap2\n  pop\n  pop\n    /* \"contracts/MultiSigWallet.sol\":1553:1710  for (uint i = 0; i < _owners.length; i++) {... */\n  jump(tag_13)\ntag_14:\n  pop\n    /* \"contracts/MultiSigWallet.sol\":1728:1735  _owners */\n  dup2\n    /* \"contracts/MultiSigWallet.sol\":1719:1725  owners */\n  0x00\n    /* \"contracts/MultiSigWallet.sol\":1719:1735  owners = _owners */\n  swap1\n  dup1\n  mload\n  swap1\n  0x20\n  add\n  swap1\n  tag_24\n  swap3\n  swap2\n  swap1\n  tag_25\n  jump\t// in\ntag_24:\n  pop\n    /* \"contracts/MultiSigWallet.sol\":1756:1765  _required */\n  dup1\n    /* \"contracts/MultiSigWallet.sol\":1745:1753  required */\n  0x01\n    /* \"contracts/MultiSigWallet.sol\":1745:1765  required = _required */\n  dup2\n  swap1\n  sstore\n  pop\n    /* \"contracts/MultiSigWallet.sol\":1325:1772  constructor(address[] memory _owners, uint _required) {... */\n  pop\n  pop\n    /* \"contracts/MultiSigWallet.sol\":57:3374  contract MultiSigWallet {... */\n  jump(tag_26)\ntag_25:\n  dup3\n  dup1\n  sload\n  dup3\n  dup3\n  sstore\n  swap1\n  0x00\n  mstore\n  keccak256(0x00, 0x20)\n  swap1\n  dup2\n  add\n  swap3\n  dup3\n  iszero\n  tag_27\n  jumpi\n  swap2\n  0x20\n  mul\n  dup3\n  add\ntag_28:\n  dup3\n  dup2\n  gt\n  iszero\n  tag_29\n  jumpi\n  dup3\n  mload\n  dup3\n  exp(0x0100, 0x00)\n  dup2\n  sload\n  dup2\n  0xffffffffffffffffffffffffffffffffffffffff\n  mul\n  not\n  and\n  swap1\n  dup4\n  0xffffffffffffffffffffffffffffffffffffffff\n  and\n  mul\n  or\n  swap1\n  sstore\n  pop\n  swap2\n  0x20\n  add\n  swap2\n  swap1\n  0x01\n  add\n  swap1\n  jump(tag_28)\ntag_29:\ntag_27:\n  pop\n  swap1\n  pop\n  tag_30\n  swap2\n  swap1\n  tag_31\n  jump\t// in\ntag_30:\n  pop\n  swap1\n  jump\t// out\ntag_31:\ntag_32:\n  dup1\n  dup3\n  gt\n  iszero\n  tag_33\n  jumpi\n  0x00\n  dup2\n  0x00\n  swap1\n  sstore\n  pop\n  0x01\n  add\n  jump(tag_32)\ntag_33:\n  pop\n  swap1\n  jump\t// out\n    /* \"#utility.yul\":7:82   */\ntag_34:\n    /* \"#utility.yul\":40:46   */\n  0x00\n    /* \"#utility.yul\":73:75   */\n  0x40\n    /* \"#utility.yul\":67:76   */\n  mload\n    /* \"#utility.yul\":57:76   */\n  swap1\n  pop\n    /* \"#utility.yul\":7:82   */\n  swap1\n  jump\t// out\n    /* \"#utility.yul\":88:205   */\ntag_35:\n    /* \"#utility.yul\":197:198   */\n  0x00\n    /* \"#utility.yul\":194:195   */\n  dup1\n    /* \"#utility.yul\":187:199   */\n  revert\n    /* \"#utility.yul\":211:328   */\ntag_36:\n    /* \"#utility.yul\":320:321   */\n  0x00\n    /* \"#utility.yul\":317:318   */\n  dup1\n    /* \"#utility.yul\":310:322   */\n  revert\n    /* \"#utility.yul\":334:451   */\ntag_37:\n    /* \"#utility.yul\":443:444   */\n  0x00\n    /* \"#utility.yul\":440:441   */\n  dup1\n    /* \"#utility.yul\":433:445   */\n  revert\n    /* \"#utility.yul\":457:559   */\ntag_38:\n    /* \"#utility.yul\":498:504   */\n  0x00\n    /* \"#utility.yul\":549:551   */\n  0x1f\n    /* \"#utility.yul\":545:552   */\n  not\n    /* \"#utility.yul\":540:542   */\n  0x1f\n    /* \"#utility.yul\":533:538   */\n  dup4\n    /* \"#utility.yul\":529:543   */\n  add\n    /* \"#utility.yul\":525:553   */\n  and\n    /* \"#utility.yul\":515:553   */\n  swap1\n  pop\n    /* \"#utility.yul\":457:559   */\n  swap2\n  swap1\n  pop\n  jump\t// out\n    /* \"#utility.yul\":565:745   */\ntag_39:\n    /* \"#utility.yul\":613:690   */\n  0x4e487b7100000000000000000000000000000000000000000000000000000000\n    /* \"#utility.yul\":610:611   */\n  0x00\n    /* \"#utility.yul\":603:691   */\n  mstore\n    /* \"#utility.yul\":710:714   */\n  0x41\n    /* \"#utility.yul\":707:708   */\n  0x04\n    /* \"#utility.yul\":700:715   */\n  mstore\n    /* \"#utility.yul\":734:738   */\n  0x24\n    /* \"#utility.yul\":731:732   */\n  0x00\n    /* \"#utility.yul\":724:739   */\n  revert\n    /* \"#utility.yul\":751:1032   */\ntag_40:\n    /* \"#utility.yul\":834:861   */\n  tag_68\n    /* \"#utility.yul\":856:860   */\n  dup3\n    /* \"#utility.yul\":834:861   */\n  tag_38\n  jump\t// in\ntag_68:\n    /* \"#utility.yul\":826:832   */\n  dup2\n    /* \"#utility.yul\":822:862   */\n  add\n    /* \"#utility.yul\":964:970   */\n  dup2\n    /* \"#utility.yul\":952:962   */\n  dup2\n    /* \"#utility.yul\":949:971   */\n  lt\n    /* \"#utility.yul\":928:946   */\n  0xffffffffffffffff\n    /* \"#utility.yul\":916:926   */\n  dup3\n    /* \"#utility.yul\":913:947   */\n  gt\n    /* \"#utility.yul\":910:972   */\n  or\n    /* \"#utility.yul\":907:995   */\n  iszero\n  tag_69\n  jumpi\n    /* \"#utility.yul\":975:993   */\n  tag_70\n  tag_39\n  jump\t// in\ntag_70:\n    /* \"#utility.yul\":907:995   */\ntag_69:\n    /* \"#utility.yul\":1015:1025   */\n  dup1\n    /* \"#utility.yul\":1011:1013   */\n  0x40\n    /* \"#utility.yul\":1004:1026   */\n  mstore\n    /* \"#utility.yul\":794:1032   */\n  pop\n    /* \"#utility.yul\":751:1032   */\n  pop\n  pop\n  jump\t// out\n    /* \"#utility.yul\":1038:1167   */\ntag_41:\n    /* \"#utility.yul\":1072:1078   */\n  0x00\n    /* \"#utility.yul\":1099:1119   */\n  tag_72\n  tag_34\n  jump\t// in\ntag_72:\n    /* \"#utility.yul\":1089:1119   */\n  swap1\n  pop\n    /* \"#utility.yul\":1128:1161   */\n  tag_73\n    /* \"#utility.yul\":1156:1160   */\n  dup3\n    /* \"#utility.yul\":1148:1154   */\n  dup3\n    /* \"#utility.yul\":1128:1161   */\n  tag_40\n  jump\t// in\ntag_73:\n    /* \"#utility.yul\":1038:1167   */\n  swap2\n  swap1\n  pop\n  jump\t// out\n    /* \"#utility.yul\":1173:1484   */\ntag_42:\n    /* \"#utility.yul\":1250:1254   */\n  0x00\n    /* \"#utility.yul\":1340:1358   */\n  0xffffffffffffffff\n    /* \"#utility.yul\":1332:1338   */\n  dup3\n    /* \"#utility.yul\":1329:1359   */\n  gt\n    /* \"#utility.yul\":1326:1382   */\n  iszero\n  tag_75\n  jumpi\n    /* \"#utility.yul\":1362:1380   */\n  tag_76\n  tag_39\n  jump\t// in\ntag_76:\n    /* \"#utility.yul\":1326:1382   */\ntag_75:\n    /* \"#utility.yul\":1412:1416   */\n  0x20\n    /* \"#utility.yul\":1404:1410   */\n  dup3\n    /* \"#utility.yul\":1400:1417   */\n  mul\n    /* \"#utility.yul\":1392:1417   */\n  swap1\n  pop\n    /* \"#utility.yul\":1472:1476   */\n  0x20\n    /* \"#utility.yul\":1466:1470   */\n  dup2\n    /* \"#utility.yul\":1462:1477   */\n  add\n    /* \"#utility.yul\":1454:1477   */\n  swap1\n  pop\n    /* \"#utility.yul\":1173:1484   */\n  swap2\n  swap1\n  pop\n  jump\t// out\n    /* \"#utility.yul\":1490:1607   */\ntag_43:\n    /* \"#utility.yul\":1599:1600   */\n  0x00\n    /* \"#utility.yul\":1596:1597   */\n  dup1\n    /* \"#utility.yul\":1589:1601   */\n  revert\n    /* \"#utility.yul\":1613:1739   */\ntag_44:\n    /* \"#utility.yul\":1650:1657   */\n  0x00\n    /* \"#utility.yul\":1690:1732   */\n  0xffffffffffffffffffffffffffffffffffffffff\n    /* \"#utility.yul\":1683:1688   */\n  dup3\n    /* \"#utility.yul\":1679:1733   */\n  and\n    /* \"#utility.yul\":1668:1733   */\n  swap1\n  pop\n    /* \"#utility.yul\":1613:1739   */\n  swap2\n  swap1\n  pop\n  jump\t// out\n    /* \"#utility.yul\":1745:1841   */\ntag_45:\n    /* \"#utility.yul\":1782:1789   */\n  0x00\n    /* \"#utility.yul\":1811:1835   */\n  tag_80\n    /* \"#utility.yul\":1829:1834   */\n  dup3\n    /* \"#utility.yul\":1811:1835   */\n  tag_44\n  jump\t// in\ntag_80:\n    /* \"#utility.yul\":1800:1835   */\n  swap1\n  pop\n    /* \"#utility.yul\":1745:1841   */\n  swap2\n  swap1\n  pop\n  jump\t// out\n    /* \"#utility.yul\":1847:1969   */\ntag_46:\n    /* \"#utility.yul\":1920:1944   */\n  tag_82\n    /* \"#utility.yul\":1938:1943   */\n  dup2\n    /* \"#utility.yul\":1920:1944   */\n  tag_45\n  jump\t// in\ntag_82:\n    /* \"#utility.yul\":1913:1918   */\n  dup2\n    /* \"#utility.yul\":1910:1945   */\n  eq\n    /* \"#utility.yul\":1900:1963   */\n  tag_83\n  jumpi\n    /* \"#utility.yul\":1959:1960   */\n  0x00\n    /* \"#utility.yul\":1956:1957   */\n  dup1\n    /* \"#utility.yul\":1949:1961   */\n  revert\n    /* \"#utility.yul\":1900:1963   */\ntag_83:\n    /* \"#utility.yul\":1847:1969   */\n  pop\n  jump\t// out\n    /* \"#utility.yul\":1975:2118   */\ntag_47:\n    /* \"#utility.yul\":2032:2037   */\n  0x00\n    /* \"#utility.yul\":2063:2069   */\n  dup2\n    /* \"#utility.yul\":2057:2070   */\n  mload\n    /* \"#utility.yul\":2048:2070   */\n  swap1\n  pop\n    /* \"#utility.yul\":2079:2112   */\n  tag_85\n    /* \"#utility.yul\":2106:2111   */\n  dup2\n    /* \"#utility.yul\":2079:2112   */\n  tag_46\n  jump\t// in\ntag_85:\n    /* \"#utility.yul\":1975:2118   */\n  swap3\n  swap2\n  pop\n  pop\n  jump\t// out\n    /* \"#utility.yul\":2141:2873   */\ntag_48:\n    /* \"#utility.yul\":2248:2253   */\n  0x00\n    /* \"#utility.yul\":2273:2354   */\n  tag_87\n    /* \"#utility.yul\":2289:2353   */\n  tag_88\n    /* \"#utility.yul\":2346:2352   */\n  dup5\n    /* \"#utility.yul\":2289:2353   */\n  tag_42\n  jump\t// in\ntag_88:\n    /* \"#utility.yul\":2273:2354   */\n  tag_41\n  jump\t// in\ntag_87:\n    /* \"#utility.yul\":2264:2354   */\n  swap1\n  pop\n    /* \"#utility.yul\":2374:2379   */\n  dup1\n    /* \"#utility.yul\":2403:2409   */\n  dup4\n    /* \"#utility.yul\":2396:2401   */\n  dup3\n    /* \"#utility.yul\":2389:2410   */\n  mstore\n    /* \"#utility.yul\":2437:2441   */\n  0x20\n    /* \"#utility.yul\":2430:2435   */\n  dup3\n    /* \"#utility.yul\":2426:2442   */\n  add\n    /* \"#utility.yul\":2419:2442   */\n  swap1\n  pop\n    /* \"#utility.yul\":2490:2494   */\n  0x20\n    /* \"#utility.yul\":2482:2488   */\n  dup5\n    /* \"#utility.yul\":2478:2495   */\n  mul\n    /* \"#utility.yul\":2470:2476   */\n  dup4\n    /* \"#utility.yul\":2466:2496   */\n  add\n    /* \"#utility.yul\":2519:2522   */\n  dup6\n    /* \"#utility.yul\":2511:2517   */\n  dup2\n    /* \"#utility.yul\":2508:2523   */\n  gt\n    /* \"#utility.yul\":2505:2627   */\n  iszero\n  tag_89\n  jumpi\n    /* \"#utility.yul\":2538:2617   */\n  tag_90\n  tag_43\n  jump\t// in\ntag_90:\n    /* \"#utility.yul\":2505:2627   */\ntag_89:\n    /* \"#utility.yul\":2653:2659   */\n  dup4\n    /* \"#utility.yul\":2636:2867   */\ntag_91:\n    /* \"#utility.yul\":2670:2676   */\n  dup2\n    /* \"#utility.yul\":2665:2668   */\n  dup2\n    /* \"#utility.yul\":2662:2677   */\n  lt\n    /* \"#utility.yul\":2636:2867   */\n  iszero\n  tag_93\n  jumpi\n    /* \"#utility.yul\":2745:2748   */\n  dup1\n    /* \"#utility.yul\":2774:2822   */\n  tag_94\n    /* \"#utility.yul\":2818:2821   */\n  dup9\n    /* \"#utility.yul\":2806:2816   */\n  dup3\n    /* \"#utility.yul\":2774:2822   */\n  tag_47\n  jump\t// in\ntag_94:\n    /* \"#utility.yul\":2769:2772   */\n  dup5\n    /* \"#utility.yul\":2762:2823   */\n  mstore\n    /* \"#utility.yul\":2852:2856   */\n  0x20\n    /* \"#utility.yul\":2847:2850   */\n  dup5\n    /* \"#utility.yul\":2843:2857   */\n  add\n    /* \"#utility.yul\":2836:2857   */\n  swap4\n  pop\n    /* \"#utility.yul\":2712:2867   */\n  pop\n    /* \"#utility.yul\":2696:2700   */\n  0x20\n    /* \"#utility.yul\":2691:2694   */\n  dup2\n    /* \"#utility.yul\":2687:2701   */\n  add\n    /* \"#utility.yul\":2680:2701   */\n  swap1\n  pop\n    /* \"#utility.yul\":2636:2867   */\n  jump(tag_91)\ntag_93:\n    /* \"#utility.yul\":2640:2661   */\n  pop\n    /* \"#utility.yul\":2254:2873   */\n  pop\n  pop\n    /* \"#utility.yul\":2141:2873   */\n  swap4\n  swap3\n  pop\n  pop\n  pop\n  jump\t// out\n    /* \"#utility.yul\":2896:3281   */\ntag_49:\n    /* \"#utility.yul\":2978:2983   */\n  0x00\n    /* \"#utility.yul\":3027:3030   */\n  dup3\n    /* \"#utility.yul\":3020:3024   */\n  0x1f\n    /* \"#utility.yul\":3012:3018   */\n  dup4\n    /* \"#utility.yul\":3008:3025   */\n  add\n    /* \"#utility.yul\":3004:3031   */\n  slt\n    /* \"#utility.yul\":2994:3116   */\n  tag_96\n  jumpi\n    /* \"#utility.yul\":3035:3114   */\n  tag_97\n  tag_37\n  jump\t// in\ntag_97:\n    /* \"#utility.yul\":2994:3116   */\ntag_96:\n    /* \"#utility.yul\":3145:3151   */\n  dup2\n    /* \"#utility.yul\":3139:3152   */\n  mload\n    /* \"#utility.yul\":3170:3275   */\n  tag_98\n    /* \"#utility.yul\":3271:3274   */\n  dup5\n    /* \"#utility.yul\":3263:3269   */\n  dup3\n    /* \"#utility.yul\":3256:3260   */\n  0x20\n    /* \"#utility.yul\":3248:3254   */\n  dup7\n    /* \"#utility.yul\":3244:3261   */\n  add\n    /* \"#utility.yul\":3170:3275   */\n  tag_48\n  jump\t// in\ntag_98:\n    /* \"#utility.yul\":3161:3275   */\n  swap2\n  pop\n    /* \"#utility.yul\":2984:3281   */\n  pop\n    /* \"#utility.yul\":2896:3281   */\n  swap3\n  swap2\n  pop\n  pop\n  jump\t// out\n    /* \"#utility.yul\":3287:3364   */\ntag_50:\n    /* \"#utility.yul\":3324:3331   */\n  0x00\n    /* \"#utility.yul\":3353:3358   */\n  dup2\n    /* \"#utility.yul\":3342:3358   */\n  swap1\n  pop\n    /* \"#utility.yul\":3287:3364   */\n  swap2\n  swap1\n  pop\n  jump\t// out\n    /* \"#utility.yul\":3370:3492   */\ntag_51:\n    /* \"#utility.yul\":3443:3467   */\n  tag_101\n    /* \"#utility.yul\":3461:3466   */\n  dup2\n    /* \"#utility.yul\":3443:3467   */\n  tag_50\n  jump\t// in\ntag_101:\n    /* \"#utility.yul\":3436:3441   */\n  dup2\n    /* \"#utility.yul\":3433:3468   */\n  eq\n    /* \"#utility.yul\":3423:3486   */\n  tag_102\n  jumpi\n    /* \"#utility.yul\":3482:3483   */\n  0x00\n    /* \"#utility.yul\":3479:3480   */\n  dup1\n    /* \"#utility.yul\":3472:3484   */\n  revert\n    /* \"#utility.yul\":3423:3486   */\ntag_102:\n    /* \"#utility.yul\":3370:3492   */\n  pop\n  jump\t// out\n    /* \"#utility.yul\":3498:3641   */\ntag_52:\n    /* \"#utility.yul\":3555:3560   */\n  0x00\n    /* \"#utility.yul\":3586:3592   */\n  dup2\n    /* \"#utility.yul\":3580:3593   */\n  mload\n    /* \"#utility.yul\":3571:3593   */\n  swap1\n  pop\n    /* \"#utility.yul\":3602:3635   */\n  tag_104\n    /* \"#utility.yul\":3629:3634   */\n  dup2\n    /* \"#utility.yul\":3602:3635   */\n  tag_51\n  jump\t// in\ntag_104:\n    /* \"#utility.yul\":3498:3641   */\n  swap3\n  swap2\n  pop\n  pop\n  jump\t// out\n    /* \"#utility.yul\":3647:4357   */\ntag_3:\n    /* \"#utility.yul\":3751:3757   */\n  0x00\n    /* \"#utility.yul\":3759:3765   */\n  dup1\n    /* \"#utility.yul\":3808:3810   */\n  0x40\n    /* \"#utility.yul\":3796:3805   */\n  dup4\n    /* \"#utility.yul\":3787:3794   */\n  dup6\n    /* \"#utility.yul\":3783:3806   */\n  sub\n    /* \"#utility.yul\":3779:3811   */\n  slt\n    /* \"#utility.yul\":3776:3895   */\n  iszero\n  tag_106\n  jumpi\n    /* \"#utility.yul\":3814:3893   */\n  tag_107\n  tag_35\n  jump\t// in\ntag_107:\n    /* \"#utility.yul\":3776:3895   */\ntag_106:\n    /* \"#utility.yul\":3955:3956   */\n  0x00\n    /* \"#utility.yul\":3944:3953   */\n  dup4\n    /* \"#utility.yul\":3940:3957   */\n  add\n    /* \"#utility.yul\":3934:3958   */\n  mload\n    /* \"#utility.yul\":3985:4003   */\n  0xffffffffffffffff\n    /* \"#utility.yul\":3977:3983   */\n  dup2\n    /* \"#utility.yul\":3974:4004   */\n  gt\n    /* \"#utility.yul\":3971:4088   */\n  iszero\n  tag_108\n  jumpi\n    /* \"#utility.yul\":4007:4086   */\n  tag_109\n  tag_36\n  jump\t// in\ntag_109:\n    /* \"#utility.yul\":3971:4088   */\ntag_108:\n    /* \"#utility.yul\":4112:4201   */\n  tag_110\n    /* \"#utility.yul\":4193:4200   */\n  dup6\n    /* \"#utility.yul\":4184:4190   */\n  dup3\n    /* \"#utility.yul\":4173:4182   */\n  dup7\n    /* \"#utility.yul\":4169:4191   */\n  add\n    /* \"#utility.yul\":4112:4201   */\n  tag_49\n  jump\t// in\ntag_110:\n    /* \"#utility.yul\":4102:4201   */\n  swap3\n  pop\n    /* \"#utility.yul\":3905:4211   */\n  pop\n    /* \"#utility.yul\":4250:4252   */\n  0x20\n    /* \"#utility.yul\":4276:4340   */\n  tag_111\n    /* \"#utility.yul\":4332:4339   */\n  dup6\n    /* \"#utility.yul\":4323:4329   */\n  dup3\n    /* \"#utility.yul\":4312:4321   */\n  dup7\n    /* \"#utility.yul\":4308:4330   */\n  add\n    /* \"#utility.yul\":4276:4340   */\n  tag_52\n  jump\t// in\ntag_111:\n    /* \"#utility.yul\":4266:4340   */\n  swap2\n  pop\n    /* \"#utility.yul\":4221:4350   */\n  pop\n    /* \"#utility.yul\":3647:4357   */\n  swap3\n  pop\n  swap3\n  swap1\n  pop\n  jump\t// out\n    /* \"#utility.yul\":4363:4532   */\ntag_53:\n    /* \"#utility.yul\":4447:4458   */\n  0x00\n    /* \"#utility.yul\":4481:4487   */\n  dup3\n    /* \"#utility.yul\":4476:4479   */\n  dup3\n    /* \"#utility.yul\":4469:4488   */\n  mstore\n    /* \"#utility.yul\":4521:4525   */\n  0x20\n    /* \"#utility.yul\":4516:4519   */\n  dup3\n    /* \"#utility.yul\":4512:4526   */\n  add\n    /* \"#utility.yul\":4497:4526   */\n  swap1\n  pop\n    /* \"#utility.yul\":4363:4532   */\n  swap3\n  swap2\n  pop\n  pop\n  jump\t// out\n    /* \"#utility.yul\":4538:4703   */\ntag_54:\n    /* \"#utility.yul\":4678:4695   */\n  0x4f776e6572732072657175697265640000000000000000000000000000000000\n    /* \"#utility.yul\":4674:4675   */\n  0x00\n    /* \"#utility.yul\":4666:4672   */\n  dup3\n    /* \"#utility.yul\":4662:4676   */\n  add\n    /* \"#utility.yul\":4655:4696   */\n  mstore\n    /* \"#utility.yul\":4538:4703   */\n  pop\n  jump\t// out\n    /* \"#utility.yul\":4709:5075   */\ntag_55:\n    /* \"#utility.yul\":4851:4854   */\n  0x00\n    /* \"#utility.yul\":4872:4939   */\n  tag_115\n    /* \"#utility.yul\":4936:4938   */\n  0x0f\n    /* \"#utility.yul\":4931:4934   */\n  dup4\n    /* \"#utility.yul\":4872:4939   */\n  tag_53\n  jump\t// in\ntag_115:\n    /* \"#utility.yul\":4865:4939   */\n  swap2\n  pop\n    /* \"#utility.yul\":4948:5041   */\n  tag_116\n    /* \"#utility.yul\":5037:5040   */\n  dup3\n    /* \"#utility.yul\":4948:5041   */\n  tag_54\n  jump\t// in\ntag_116:\n    /* \"#utility.yul\":5066:5068   */\n  0x20\n    /* \"#utility.yul\":5061:5064   */\n  dup3\n    /* \"#utility.yul\":5057:5069   */\n  add\n    /* \"#utility.yul\":5050:5069   */\n  swap1\n  pop\n    /* \"#utility.yul\":4709:5075   */\n  swap2\n  swap1\n  pop\n  jump\t// out\n    /* \"#utility.yul\":5081:5500   */\ntag_8:\n    /* \"#utility.yul\":5247:5251   */\n  0x00\n    /* \"#utility.yul\":5285:5287   */\n  0x20\n    /* \"#utility.yul\":5274:5283   */\n  dup3\n    /* \"#utility.yul\":5270:5288   */\n  add\n    /* \"#utility.yul\":5262:5288   */\n  swap1\n  pop\n    /* \"#utility.yul\":5334:5343   */\n  dup2\n    /* \"#utility.yul\":5328:5332   */\n  dup2\n    /* \"#utility.yul\":5324:5344   */\n  sub\n    /* \"#utility.yul\":5320:5321   */\n  0x00\n    /* \"#utility.yul\":5309:5318   */\n  dup4\n    /* \"#utility.yul\":5305:5322   */\n  add\n    /* \"#utility.yul\":5298:5345   */\n  mstore\n    /* \"#utility.yul\":5362:5493   */\n  tag_118\n    /* \"#utility.yul\":5488:5492   */\n  dup2\n    /* \"#utility.yul\":5362:5493   */\n  tag_55\n  jump\t// in\ntag_118:\n    /* \"#utility.yul\":5354:5493   */\n  swap1\n  pop\n    /* \"#utility.yul\":5081:5500   */\n  swap2\n  swap1\n  pop\n  jump\t// out\n    /* \"#utility.yul\":5506:5733   */\ntag_56:\n    /* \"#utility.yul\":5646:5680   */\n  0x496e76616c6964206e756d626572206f6620726571756972656420636f6e6669\n    /* \"#utility.yul\":5642:5643   */\n  0x00\n    /* \"#utility.yul\":5634:5640   */\n  dup3\n    /* \"#utility.yul\":5630:5644   */\n  add\n    /* \"#utility.yul\":5623:5681   */\n  mstore\n    /* \"#utility.yul\":5715:5725   */\n  0x726d6174696f6e73000000000000000000000000000000000000000000000000\n    /* \"#utility.yul\":5710:5712   */\n  0x20\n    /* \"#utility.yul\":5702:5708   */\n  dup3\n    /* \"#utility.yul\":5698:5713   */\n  add\n    /* \"#utility.yul\":5691:5726   */\n  mstore\n    /* \"#utility.yul\":5506:5733   */\n  pop\n  jump\t// out\n    /* \"#utility.yul\":5739:6105   */\ntag_57:\n    /* \"#utility.yul\":5881:5884   */\n  0x00\n    /* \"#utility.yul\":5902:5969   */\n  tag_121\n    /* \"#utility.yul\":5966:5968   */\n  0x28\n    /* \"#utility.yul\":5961:5964   */\n  dup4\n    /* \"#utility.yul\":5902:5969   */\n  tag_53\n  jump\t// in\ntag_121:\n    /* \"#utility.yul\":5895:5969   */\n  swap2\n  pop\n    /* \"#utility.yul\":5978:6071   */\n  tag_122\n    /* \"#utility.yul\":6067:6070   */\n  dup3\n    /* \"#utility.yul\":5978:6071   */\n  tag_56\n  jump\t// in\ntag_122:\n    /* \"#utility.yul\":6096:6098   */\n  0x40\n    /* \"#utility.yul\":6091:6094   */\n  dup3\n    /* \"#utility.yul\":6087:6099   */\n  add\n    /* \"#utility.yul\":6080:6099   */\n  swap1\n  pop\n    /* \"#utility.yul\":5739:6105   */\n  swap2\n  swap1\n  pop\n  jump\t// out\n    /* \"#utility.yul\":6111:6530   */\ntag_12:\n    /* \"#utility.yul\":6277:6281   */\n  0x00\n    /* \"#utility.yul\":6315:6317   */\n  0x20\n    /* \"#utility.yul\":6304:6313   */\n  dup3\n    /* \"#utility.yul\":6300:6318   */\n  add\n    /* \"#utility.yul\":6292:6318   */\n  swap1\n  pop\n    /* \"#utility.yul\":6364:6373   */\n  dup2\n    /* \"#utility.yul\":6358:6362   */\n  dup2\n    /* \"#utility.yul\":6354:6374   */\n  sub\n    /* \"#utility.yul\":6350:6351   */\n  0x00\n    /* \"#utility.yul\":6339:6348   */\n  dup4\n    /* \"#utility.yul\":6335:6352   */\n  add\n    /* \"#utility.yul\":6328:6375   */\n  mstore\n    /* \"#utility.yul\":6392:6523   */\n  tag_124\n    /* \"#utility.yul\":6518:6522   */\n  dup2\n    /* \"#utility.yul\":6392:6523   */\n  tag_57\n  jump\t// in\ntag_124:\n    /* \"#utility.yul\":6384:6523   */\n  swap1\n  pop\n    /* \"#utility.yul\":6111:6530   */\n  swap2\n  swap1\n  pop\n  jump\t// out\n    /* \"#utility.yul\":6536:6716   */\ntag_18:\n    /* \"#utility.yul\":6584:6661   */\n  0x4e487b7100000000000000000000000000000000000000000000000000000000\n    /* \"#utility.yul\":6581:6582   */\n  0x00\n    /* \"#utility.yul\":6574:6662   */\n  mstore\n    /* \"#utility.yul\":6681:6685   */\n  0x32\n    /* \"#utility.yul\":6678:6679   */\n  0x04\n    /* \"#utility.yul\":6671:6686   */\n  mstore\n    /* \"#utility.yul\":6705:6709   */\n  0x24\n    /* \"#utility.yul\":6702:6703   */\n  0x00\n    /* \"#utility.yul\":6695:6710   */\n  revert\n    /* \"#utility.yul\":6722:6885   */\ntag_58:\n    /* \"#utility.yul\":6862:6877   */\n  0x496e76616c6964206f776e657200000000000000000000000000000000000000\n    /* \"#utility.yul\":6858:6859   */\n  0x00\n    /* \"#utility.yul\":6850:6856   */\n  dup3\n    /* \"#utility.yul\":6846:6860   */\n  add\n    /* \"#utility.yul\":6839:6878   */\n  mstore\n    /* \"#utility.yul\":6722:6885   */\n  pop\n  jump\t// out\n    /* \"#utility.yul\":6891:7257   */\ntag_59:\n    /* \"#utility.yul\":7033:7036   */\n  0x00\n    /* \"#utility.yul\":7054:7121   */\n  tag_128\n    /* \"#utility.yul\":7118:7120   */\n  0x0d\n    /* \"#utility.yul\":7113:7116   */\n  dup4\n    /* \"#utility.yul\":7054:7121   */\n  tag_53\n  jump\t// in\ntag_128:\n    /* \"#utility.yul\":7047:7121   */\n  swap2\n  pop\n    /* \"#utility.yul\":7130:7223   */\n  tag_129\n    /* \"#utility.yul\":7219:7222   */\n  dup3\n    /* \"#utility.yul\":7130:7223   */\n  tag_58\n  jump\t// in\ntag_129:\n    /* \"#utility.yul\":7248:7250   */\n  0x20\n    /* \"#utility.yul\":7243:7246   */\n  dup3\n    /* \"#utility.yul\":7239:7251   */\n  add\n    /* \"#utility.yul\":7232:7251   */\n  swap1\n  pop\n    /* \"#utility.yul\":6891:7257   */\n  swap2\n  swap1\n  pop\n  jump\t// out\n    /* \"#utility.yul\":7263:7682   */\ntag_21:\n    /* \"#utility.yul\":7429:7433   */\n  0x00\n    /* \"#utility.yul\":7467:7469   */\n  0x20\n    /* \"#utility.yul\":7456:7465   */\n  dup3\n    /* \"#utility.yul\":7452:7470   */\n  add\n    /* \"#utility.yul\":7444:7470   */\n  swap1\n  pop\n    /* \"#utility.yul\":7516:7525   */\n  dup2\n    /* \"#utility.yul\":7510:7514   */\n  dup2\n    /* \"#utility.yul\":7506:7526   */\n  sub\n    /* \"#utility.yul\":7502:7503   */\n  0x00\n    /* \"#utility.yul\":7491:7500   */\n  dup4\n    /* \"#utility.yul\":7487:7504   */\n  add\n    /* \"#utility.yul\":7480:7527   */\n  mstore\n    /* \"#utility.yul\":7544:7675   */\n  tag_131\n    /* \"#utility.yul\":7670:7674   */\n  dup2\n    /* \"#utility.yul\":7544:7675   */\n  tag_59\n  jump\t// in\ntag_131:\n    /* \"#utility.yul\":7536:7675   */\n  swap1\n  pop\n    /* \"#utility.yul\":7263:7682   */\n  swap2\n  swap1\n  pop\n  jump\t// out\n    /* \"contracts/MultiSigWallet.sol\":57:3374  contract MultiSigWallet {... */\ntag_26:\n  dataSize(sub_0)\n  dup1\n  dataOffset(sub_0)\n  0x00\n  codecopy\n  0x00\n  return\nstop\n\nsub_0: assembly {\n        /* \"contracts/MultiSigWallet.sol\":57:3374  contract MultiSigWallet {... */\n      mstore(0x40, 0x80)\n      jumpi(tag_1, lt(calldatasize, 0x04))\n      shr(0xe0, calldataload(0x00))\n      dup1\n      0x9ace38c2\n      gt\n      tag_13\n      jumpi\n      dup1\n      0x9ace38c2\n      eq\n      tag_8\n      jumpi\n      dup1\n      0xb77bf600\n      eq\n      tag_9\n      jumpi\n      dup1\n      0xc01a8c84\n      eq\n      tag_10\n      jumpi\n      dup1\n      0xdc8452cd\n      eq\n      tag_11\n      jumpi\n      dup1\n      0xee22610b\n      eq\n      tag_12\n      jumpi\n      jump(tag_2)\n    tag_13:\n      dup1\n      0x025e7c27\n      eq\n      tag_3\n      jumpi\n      dup1\n      0x1d43b653\n      eq\n      tag_4\n      jumpi\n      dup1\n      0x2f54bf6e\n      eq\n      tag_5\n      jumpi\n      dup1\n      0x3411c81c\n      eq\n      tag_6\n      jumpi\n      dup1\n      0x784547a7\n      eq\n      tag_7\n      jumpi\n      jump(tag_2)\n    tag_1:\n      jumpi(tag_2, calldatasize)\n        /* \"contracts/MultiSigWallet.sol\":3343:3353  msg.sender */\n      caller\n        /* \"contracts/MultiSigWallet.sol\":3335:3365  Deposit(msg.sender, msg.value) */\n      0xffffffffffffffffffffffffffffffffffffffff\n      and\n      0xe1fffcc4923d04b559f4d29a8bfc6cda04eb5b0d3c460751c2402c5c5cc9109c\n        /* \"contracts/MultiSigWallet.sol\":3355:3364  msg.value */\n      callvalue\n        /* \"contracts/MultiSigWallet.sol\":3335:3365  Deposit(msg.sender, msg.value) */\n      mload(0x40)\n      tag_16\n      swap2\n      swap1\n      tag_17\n      jump\t// in\n    tag_16:\n      mload(0x40)\n      dup1\n      swap2\n      sub\n      swap1\n      log2\n        /* \"contracts/MultiSigWallet.sol\":57:3374  contract MultiSigWallet {... */\n      stop\n    tag_2:\n      0x00\n      dup1\n      revert\n        /* \"contracts/MultiSigWallet.sol\":87:110  address[] public owners */\n    tag_3:\n      callvalue\n      dup1\n      iszero\n      tag_18\n      jumpi\n      0x00\n      dup1\n      revert\n    tag_18:\n      pop\n      tag_19\n      0x04\n      dup1\n      calldatasize\n      sub\n      dup2\n      add\n      swap1\n      tag_20\n      swap2\n      swap1\n      tag_21\n      jump\t// in\n    tag_20:\n      tag_22\n      jump\t// in\n    tag_19:\n      mload(0x40)\n      tag_23\n      swap2\n      swap1\n      tag_24\n      jump\t// in\n    tag_23:\n      mload(0x40)\n      dup1\n      swap2\n      sub\n      swap1\n      return\n        /* \"contracts/MultiSigWallet.sol\":1778:2131  function submitTransaction(address destination, uint value) public onlyOwner returns (uint transactionId) {... */\n    tag_4:\n      callvalue\n      dup1\n      iszero\n      tag_25\n      jumpi\n      0x00\n      dup1\n      revert\n    tag_25:\n      pop\n      tag_26\n      0x04\n      dup1\n      calldatasize\n      sub\n      dup2\n      add\n      swap1\n      tag_27\n      swap2\n      swap1\n      tag_28\n      jump\t// in\n    tag_27:\n      tag_29\n      jump\t// in\n    tag_26:\n      mload(0x40)\n      tag_30\n      swap2\n      swap1\n      tag_17\n      jump\t// in\n    tag_30:\n      mload(0x40)\n      dup1\n      swap2\n      sub\n      swap1\n      return\n        /* \"contracts/MultiSigWallet.sol\":142:181  mapping(address => bool) public isOwner */\n    tag_5:\n      callvalue\n      dup1\n      iszero\n      tag_31\n      jumpi\n      0x00\n      dup1\n      revert\n    tag_31:\n      pop\n      tag_32\n      0x04\n      dup1\n      calldatasize\n      sub\n      dup2\n      add\n      swap1\n      tag_33\n      swap2\n      swap1\n      tag_34\n      jump\t// in\n    tag_33:\n      tag_35\n      jump\t// in\n    tag_32:\n      mload(0x40)\n      tag_36\n      swap2\n      swap1\n      tag_37\n      jump\t// in\n    tag_36:\n      mload(0x40)\n      dup1\n      swap2\n      sub\n      swap1\n      return\n        /* \"contracts/MultiSigWallet.sol\":241:303  mapping(uint => mapping(address => bool)) public confirmations */\n    tag_6:\n      callvalue\n      dup1\n      iszero\n      tag_38\n      jumpi\n      0x00\n      dup1\n      revert\n    tag_38:\n      pop\n      tag_39\n      0x04\n      dup1\n      calldatasize\n      sub\n      dup2\n      add\n      swap1\n      tag_40\n      swap2\n      swap1\n      tag_41\n      jump\t// in\n    tag_40:\n      tag_42\n      jump\t// in\n    tag_39:\n      mload(0x40)\n      tag_43\n      swap2\n      swap1\n      tag_37\n      jump\t// in\n    tag_43:\n      mload(0x40)\n      dup1\n      swap2\n      sub\n      swap1\n      return\n        /* \"contracts/MultiSigWallet.sol\":2988:3287  function isConfirmed(uint transactionId) public view returns (bool) {... */\n    tag_7:\n      callvalue\n      dup1\n      iszero\n      tag_44\n      jumpi\n      0x00\n      dup1\n      revert\n    tag_44:\n      pop\n      tag_45\n      0x04\n      dup1\n      calldatasize\n      sub\n      dup2\n      add\n      swap1\n      tag_46\n      swap2\n      swap1\n      tag_21\n      jump\t// in\n    tag_46:\n      tag_47\n      jump\t// in\n    tag_45:\n      mload(0x40)\n      tag_48\n      swap2\n      swap1\n      tag_37\n      jump\t// in\n    tag_48:\n      mload(0x40)\n      dup1\n      swap2\n      sub\n      swap1\n      return\n        /* \"contracts/MultiSigWallet.sol\":187:235  mapping(uint => Transaction) public transactions */\n    tag_8:\n      callvalue\n      dup1\n      iszero\n      tag_49\n      jumpi\n      0x00\n      dup1\n      revert\n    tag_49:\n      pop\n      tag_50\n      0x04\n      dup1\n      calldatasize\n      sub\n      dup2\n      add\n      swap1\n      tag_51\n      swap2\n      swap1\n      tag_21\n      jump\t// in\n    tag_51:\n      tag_52\n      jump\t// in\n    tag_50:\n      mload(0x40)\n      tag_53\n      swap4\n      swap3\n      swap2\n      swap1\n      tag_54\n      jump\t// in\n    tag_53:\n      mload(0x40)\n      dup1\n      swap2\n      sub\n      swap1\n      return\n        /* \"contracts/MultiSigWallet.sol\":309:337  uint public transactionCount */\n    tag_9:\n      callvalue\n      dup1\n      iszero\n      tag_55\n      jumpi\n      0x00\n      dup1\n      revert\n    tag_55:\n      pop\n      tag_56\n      tag_57\n      jump\t// in\n    tag_56:\n      mload(0x40)\n      tag_58\n      swap2\n      swap1\n      tag_17\n      jump\t// in\n    tag_58:\n      mload(0x40)\n      dup1\n      swap2\n      sub\n      swap1\n      return\n        /* \"contracts/MultiSigWallet.sol\":2137:2436  function confirmTransaction(uint transactionId) public onlyOwner transactionExists(transactionId) notConfirmed(transactionId, msg.sender) {... */\n    tag_10:\n      callvalue\n      dup1\n      iszero\n      tag_59\n      jumpi\n      0x00\n      dup1\n      revert\n    tag_59:\n      pop\n      tag_60\n      0x04\n      dup1\n      calldatasize\n      sub\n      dup2\n      add\n      swap1\n      tag_61\n      swap2\n      swap1\n      tag_21\n      jump\t// in\n    tag_61:\n      tag_62\n      jump\t// in\n    tag_60:\n      stop\n        /* \"contracts/MultiSigWallet.sol\":116:136  uint public required */\n    tag_11:\n      callvalue\n      dup1\n      iszero\n      tag_63\n      jumpi\n      0x00\n      dup1\n      revert\n    tag_63:\n      pop\n      tag_64\n      tag_65\n      jump\t// in\n    tag_64:\n      mload(0x40)\n      tag_66\n      swap2\n      swap1\n      tag_17\n      jump\t// in\n    tag_66:\n      mload(0x40)\n      dup1\n      swap2\n      sub\n      swap1\n      return\n        /* \"contracts/MultiSigWallet.sol\":2442:2982  function executeTransaction(uint transactionId) public onlyOwner transactionExists(transactionId) notExecuted(transactionId) {... */\n    tag_12:\n      callvalue\n      dup1\n      iszero\n      tag_67\n      jumpi\n      0x00\n      dup1\n      revert\n    tag_67:\n      pop\n      tag_68\n      0x04\n      dup1\n      calldatasize\n      sub\n      dup2\n      add\n      swap1\n      tag_69\n      swap2\n      swap1\n      tag_21\n      jump\t// in\n    tag_69:\n      tag_70\n      jump\t// in\n    tag_68:\n      stop\n        /* \"contracts/MultiSigWallet.sol\":87:110  address[] public owners */\n    tag_22:\n      0x00\n      dup2\n      dup2\n      sload\n      dup2\n      lt\n      tag_71\n      jumpi\n      0x00\n      dup1\n      revert\n    tag_71:\n      swap1\n      0x00\n      mstore\n      keccak256(0x00, 0x20)\n      add\n      0x00\n      swap2\n      pop\n      sload\n      swap1\n      0x0100\n      exp\n      swap1\n      div\n      0xffffffffffffffffffffffffffffffffffffffff\n      and\n      dup2\n      jump\t// out\n        /* \"contracts/MultiSigWallet.sol\":1778:2131  function submitTransaction(address destination, uint value) public onlyOwner returns (uint transactionId) {... */\n    tag_29:\n        /* \"contracts/MultiSigWallet.sol\":1864:1882  uint transactionId */\n      0x00\n        /* \"contracts/MultiSigWallet.sol\":487:494  isOwner */\n      0x02\n        /* \"contracts/MultiSigWallet.sol\":487:506  isOwner[msg.sender] */\n      0x00\n        /* \"contracts/MultiSigWallet.sol\":495:505  msg.sender */\n      caller\n        /* \"contracts/MultiSigWallet.sol\":487:506  isOwner[msg.sender] */\n      0xffffffffffffffffffffffffffffffffffffffff\n      and\n      0xffffffffffffffffffffffffffffffffffffffff\n      and\n      dup2\n      mstore\n      0x20\n      add\n      swap1\n      dup2\n      mstore\n      0x20\n      add\n      0x00\n      keccak256\n      0x00\n      swap1\n      sload\n      swap1\n      0x0100\n      exp\n      swap1\n      div\n      0xff\n      and\n        /* \"contracts/MultiSigWallet.sol\":479:520  require(isOwner[msg.sender], \"Not owner\") */\n      tag_74\n      jumpi\n      mload(0x40)\n      0x08c379a000000000000000000000000000000000000000000000000000000000\n      dup2\n      mstore\n      0x04\n      add\n      tag_75\n      swap1\n      tag_76\n      jump\t// in\n    tag_75:\n      mload(0x40)\n      dup1\n      swap2\n      sub\n      swap1\n      revert\n    tag_74:\n        /* \"contracts/MultiSigWallet.sol\":1910:1926  transactionCount */\n      0x05\n      0x00\n        /* \"contracts/MultiSigWallet.sol\":1910:1928  transactionCount++ */\n      dup2\n      sload\n      dup1\n      swap3\n      swap2\n      swap1\n      tag_78\n      swap1\n      tag_79\n      jump\t// in\n    tag_78:\n      swap2\n      swap1\n      pop\n      sstore\n        /* \"contracts/MultiSigWallet.sol\":1894:1928  transactionId = transactionCount++ */\n      swap1\n      pop\n        /* \"contracts/MultiSigWallet.sol\":1968:2084  Transaction({... */\n      mload(0x40)\n      dup1\n      0x60\n      add\n      0x40\n      mstore\n      dup1\n        /* \"contracts/MultiSigWallet.sol\":2007:2018  destination */\n      dup5\n        /* \"contracts/MultiSigWallet.sol\":1968:2084  Transaction({... */\n      0xffffffffffffffffffffffffffffffffffffffff\n      and\n      dup2\n      mstore\n      0x20\n      add\n        /* \"contracts/MultiSigWallet.sol\":2039:2044  value */\n      dup4\n        /* \"contracts/MultiSigWallet.sol\":1968:2084  Transaction({... */\n      dup2\n      mstore\n      0x20\n      add\n        /* \"contracts/MultiSigWallet.sol\":2068:2073  false */\n      0x00\n        /* \"contracts/MultiSigWallet.sol\":1968:2084  Transaction({... */\n      iszero\n      iszero\n      dup2\n      mstore\n      pop\n        /* \"contracts/MultiSigWallet.sol\":1938:1950  transactions */\n      0x03\n        /* \"contracts/MultiSigWallet.sol\":1938:1965  transactions[transactionId] */\n      0x00\n        /* \"contracts/MultiSigWallet.sol\":1951:1964  transactionId */\n      dup4\n        /* \"contracts/MultiSigWallet.sol\":1938:1965  transactions[transactionId] */\n      dup2\n      mstore\n      0x20\n      add\n      swap1\n      dup2\n      mstore\n      0x20\n      add\n      0x00\n      keccak256\n        /* \"contracts/MultiSigWallet.sol\":1938:2084  transactions[transactionId] = Transaction({... */\n      0x00\n      dup3\n      add\n      mload\n      dup2\n      0x00\n      add\n      exp(0x0100, 0x00)\n      dup2\n      sload\n      dup2\n      0xffffffffffffffffffffffffffffffffffffffff\n      mul\n      not\n      and\n      swap1\n      dup4\n      0xffffffffffffffffffffffffffffffffffffffff\n      and\n      mul\n      or\n      swap1\n      sstore\n      pop\n      0x20\n      dup3\n      add\n      mload\n      dup2\n      0x01\n      add\n      sstore\n      0x40\n      dup3\n      add\n      mload\n      dup2\n      0x02\n      add\n      exp(0x0100, 0x00)\n      dup2\n      sload\n      dup2\n      0xff\n      mul\n      not\n      and\n      swap1\n      dup4\n      iszero\n      iszero\n      mul\n      or\n      swap1\n      sstore\n      pop\n      swap1\n      pop\n      pop\n        /* \"contracts/MultiSigWallet.sol\":2110:2123  transactionId */\n      dup1\n        /* \"contracts/MultiSigWallet.sol\":2099:2124  Submission(transactionId) */\n      0xc0ba8fe4b176c1714197d43b9cc6bcf797a4a7461c5fe8d0ef6e184ae7601e51\n      mload(0x40)\n      mload(0x40)\n      dup1\n      swap2\n      sub\n      swap1\n      log2\n        /* \"contracts/MultiSigWallet.sol\":1778:2131  function submitTransaction(address destination, uint value) public onlyOwner returns (uint transactionId) {... */\n      swap3\n      swap2\n      pop\n      pop\n      jump\t// out\n        /* \"contracts/MultiSigWallet.sol\":142:181  mapping(address => bool) public isOwner */\n    tag_35:\n      mstore(0x20, 0x02)\n      dup1\n      0x00\n      mstore\n      keccak256(0x00, 0x40)\n      0x00\n      swap2\n      pop\n      sload\n      swap1\n      0x0100\n      exp\n      swap1\n      div\n      0xff\n      and\n      dup2\n      jump\t// out\n        /* \"contracts/MultiSigWallet.sol\":241:303  mapping(uint => mapping(address => bool)) public confirmations */\n    tag_42:\n      mstore(0x20, 0x04)\n      dup2\n      0x00\n      mstore\n      mstore(0x20, keccak256(0x00, 0x40))\n      dup1\n      0x00\n      mstore\n      keccak256(0x00, 0x40)\n      0x00\n      swap2\n      pop\n      swap2\n      pop\n      swap1\n      sload\n      swap1\n      0x0100\n      exp\n      swap1\n      div\n      0xff\n      and\n      dup2\n      jump\t// out\n        /* \"contracts/MultiSigWallet.sol\":2988:3287  function isConfirmed(uint transactionId) public view returns (bool) {... */\n    tag_47:\n        /* \"contracts/MultiSigWallet.sol\":3050:3054  bool */\n      0x00\n        /* \"contracts/MultiSigWallet.sol\":3066:3076  uint count */\n      dup1\n        /* \"contracts/MultiSigWallet.sol\":3079:3080  0 */\n      0x00\n        /* \"contracts/MultiSigWallet.sol\":3066:3080  uint count = 0 */\n      swap1\n      pop\n        /* \"contracts/MultiSigWallet.sol\":3095:3101  uint i */\n      0x00\n        /* \"contracts/MultiSigWallet.sol\":3090:3259  for (uint i = 0; i < owners.length; i++) {... */\n    tag_81:\n        /* \"contracts/MultiSigWallet.sol\":3111:3117  owners */\n      0x00\n        /* \"contracts/MultiSigWallet.sol\":3111:3124  owners.length */\n      dup1\n      sload\n      swap1\n      pop\n        /* \"contracts/MultiSigWallet.sol\":3107:3108  i */\n      dup2\n        /* \"contracts/MultiSigWallet.sol\":3107:3124  i < owners.length */\n      lt\n        /* \"contracts/MultiSigWallet.sol\":3090:3259  for (uint i = 0; i < owners.length; i++) {... */\n      iszero\n      tag_82\n      jumpi\n        /* \"contracts/MultiSigWallet.sol\":3149:3162  confirmations */\n      0x04\n        /* \"contracts/MultiSigWallet.sol\":3149:3177  confirmations[transactionId] */\n      0x00\n        /* \"contracts/MultiSigWallet.sol\":3163:3176  transactionId */\n      dup6\n        /* \"contracts/MultiSigWallet.sol\":3149:3177  confirmations[transactionId] */\n      dup2\n      mstore\n      0x20\n      add\n      swap1\n      dup2\n      mstore\n      0x20\n      add\n      0x00\n      keccak256\n        /* \"contracts/MultiSigWallet.sol\":3149:3188  confirmations[transactionId][owners[i]] */\n      0x00\n        /* \"contracts/MultiSigWallet.sol\":3178:3184  owners */\n      dup1\n        /* \"contracts/MultiSigWallet.sol\":3185:3186  i */\n      dup4\n        /* \"contracts/MultiSigWallet.sol\":3178:3187  owners[i] */\n      dup2\n      sload\n      dup2\n      lt\n      tag_84\n      jumpi\n      tag_85\n      tag_86\n      jump\t// in\n    tag_85:\n    tag_84:\n      swap1\n      0x00\n      mstore\n      keccak256(0x00, 0x20)\n      add\n      0x00\n      swap1\n      sload\n      swap1\n      0x0100\n      exp\n      swap1\n      div\n      0xffffffffffffffffffffffffffffffffffffffff\n      and\n        /* \"contracts/MultiSigWallet.sol\":3149:3188  confirmations[transactionId][owners[i]] */\n      0xffffffffffffffffffffffffffffffffffffffff\n      and\n      0xffffffffffffffffffffffffffffffffffffffff\n      and\n      dup2\n      mstore\n      0x20\n      add\n      swap1\n      dup2\n      mstore\n      0x20\n      add\n      0x00\n      keccak256\n      0x00\n      swap1\n      sload\n      swap1\n      0x0100\n      exp\n      swap1\n      div\n      0xff\n      and\n        /* \"contracts/MultiSigWallet.sol\":3145:3200  if (confirmations[transactionId][owners[i]]) count += 1 */\n      iszero\n      tag_88\n      jumpi\n        /* \"contracts/MultiSigWallet.sol\":3199:3200  1 */\n      0x01\n        /* \"contracts/MultiSigWallet.sol\":3190:3200  count += 1 */\n      dup3\n      tag_89\n      swap2\n      swap1\n      tag_90\n      jump\t// in\n    tag_89:\n      swap2\n      pop\n        /* \"contracts/MultiSigWallet.sol\":3145:3200  if (confirmations[transactionId][owners[i]]) count += 1 */\n    tag_88:\n        /* \"contracts/MultiSigWallet.sol\":3227:3235  required */\n      sload(0x01)\n        /* \"contracts/MultiSigWallet.sol\":3218:3223  count */\n      dup3\n        /* \"contracts/MultiSigWallet.sol\":3218:3235  count == required */\n      sub\n        /* \"contracts/MultiSigWallet.sol\":3214:3248  if (count == required) return true */\n      tag_91\n      jumpi\n        /* \"contracts/MultiSigWallet.sol\":3244:3248  true */\n      0x01\n        /* \"contracts/MultiSigWallet.sol\":3237:3248  return true */\n      swap3\n      pop\n      pop\n      pop\n      jump(tag_80)\n        /* \"contracts/MultiSigWallet.sol\":3214:3248  if (count == required) return true */\n    tag_91:\n        /* \"contracts/MultiSigWallet.sol\":3126:3129  i++ */\n      dup1\n      dup1\n      0x01\n      add\n      swap2\n      pop\n      pop\n        /* \"contracts/MultiSigWallet.sol\":3090:3259  for (uint i = 0; i < owners.length; i++) {... */\n      jump(tag_81)\n    tag_82:\n      pop\n        /* \"contracts/MultiSigWallet.sol\":3275:3280  false */\n      0x00\n        /* \"contracts/MultiSigWallet.sol\":3268:3280  return false */\n      swap2\n      pop\n      pop\n        /* \"contracts/MultiSigWallet.sol\":2988:3287  function isConfirmed(uint transactionId) public view returns (bool) {... */\n    tag_80:\n      swap2\n      swap1\n      pop\n      jump\t// out\n        /* \"contracts/MultiSigWallet.sol\":187:235  mapping(uint => Transaction) public transactions */\n    tag_52:\n      mstore(0x20, 0x03)\n      dup1\n      0x00\n      mstore\n      keccak256(0x00, 0x40)\n      0x00\n      swap2\n      pop\n      swap1\n      pop\n      dup1\n      0x00\n      add\n      0x00\n      swap1\n      sload\n      swap1\n      0x0100\n      exp\n      swap1\n      div\n      0xffffffffffffffffffffffffffffffffffffffff\n      and\n      swap1\n      dup1\n      0x01\n      add\n      sload\n      swap1\n      dup1\n      0x02\n      add\n      0x00\n      swap1\n      sload\n      swap1\n      0x0100\n      exp\n      swap1\n      div\n      0xff\n      and\n      swap1\n      pop\n      dup4\n      jump\t// out\n        /* \"contracts/MultiSigWallet.sol\":309:337  uint public transactionCount */\n    tag_57:\n      sload(0x05)\n      dup2\n      jump\t// out\n        /* \"contracts/MultiSigWallet.sol\":2137:2436  function confirmTransaction(uint transactionId) public onlyOwner transactionExists(transactionId) notConfirmed(transactionId, msg.sender) {... */\n    tag_62:\n        /* \"contracts/MultiSigWallet.sol\":487:494  isOwner */\n      0x02\n        /* \"contracts/MultiSigWallet.sol\":487:506  isOwner[msg.sender] */\n      0x00\n        /* \"contracts/MultiSigWallet.sol\":495:505  msg.sender */\n      caller\n        /* \"contracts/MultiSigWallet.sol\":487:506  isOwner[msg.sender] */\n      0xffffffffffffffffffffffffffffffffffffffff\n      and\n      0xffffffffffffffffffffffffffffffffffffffff\n      and\n      dup2\n      mstore\n      0x20\n      add\n      swap1\n      dup2\n      mstore\n      0x20\n      add\n      0x00\n      keccak256\n      0x00\n      swap1\n      sload\n      swap1\n      0x0100\n      exp\n      swap1\n      div\n      0xff\n      and\n        /* \"contracts/MultiSigWallet.sol\":479:520  require(isOwner[msg.sender], \"Not owner\") */\n      tag_93\n      jumpi\n      mload(0x40)\n      0x08c379a000000000000000000000000000000000000000000000000000000000\n      dup2\n      mstore\n      0x04\n      add\n      tag_94\n      swap1\n      tag_76\n      jump\t// in\n    tag_94:\n      mload(0x40)\n      dup1\n      swap2\n      sub\n      swap1\n      revert\n    tag_93:\n        /* \"contracts/MultiSigWallet.sol\":2220:2233  transactionId */\n      dup1\n        /* \"contracts/MultiSigWallet.sol\":660:661  0 */\n      0x00\n        /* \"contracts/MultiSigWallet.sol\":609:662  transactions[transactionId].destination != address(0) */\n      0xffffffffffffffffffffffffffffffffffffffff\n      and\n        /* \"contracts/MultiSigWallet.sol\":609:621  transactions */\n      0x03\n        /* \"contracts/MultiSigWallet.sol\":609:636  transactions[transactionId] */\n      0x00\n        /* \"contracts/MultiSigWallet.sol\":622:635  transactionId */\n      dup4\n        /* \"contracts/MultiSigWallet.sol\":609:636  transactions[transactionId] */\n      dup2\n      mstore\n      0x20\n      add\n      swap1\n      dup2\n      mstore\n      0x20\n      add\n      0x00\n      keccak256\n        /* \"contracts/MultiSigWallet.sol\":609:648  transactions[transactionId].destination */\n      0x00\n      add\n      0x00\n      swap1\n      sload\n      swap1\n      0x0100\n      exp\n      swap1\n      div\n      0xffffffffffffffffffffffffffffffffffffffff\n      and\n        /* \"contracts/MultiSigWallet.sol\":609:662  transactions[transactionId].destination != address(0) */\n      0xffffffffffffffffffffffffffffffffffffffff\n      and\n      sub\n        /* \"contracts/MultiSigWallet.sol\":601:693  require(transactions[transactionId].destination != address(0), \"Transaction does not exist\") */\n      tag_96\n      jumpi\n      mload(0x40)\n      0x08c379a000000000000000000000000000000000000000000000000000000000\n      dup2\n      mstore\n      0x04\n      add\n      tag_97\n      swap1\n      tag_98\n      jump\t// in\n    tag_97:\n      mload(0x40)\n      dup1\n      swap2\n      sub\n      swap1\n      revert\n    tag_96:\n        /* \"contracts/MultiSigWallet.sol\":2248:2261  transactionId */\n      dup2\n        /* \"contracts/MultiSigWallet.sol\":2263:2273  msg.sender */\n      caller\n        /* \"contracts/MultiSigWallet.sol\":793:806  confirmations */\n      0x04\n        /* \"contracts/MultiSigWallet.sol\":793:821  confirmations[transactionId] */\n      0x00\n        /* \"contracts/MultiSigWallet.sol\":807:820  transactionId */\n      dup4\n        /* \"contracts/MultiSigWallet.sol\":793:821  confirmations[transactionId] */\n      dup2\n      mstore\n      0x20\n      add\n      swap1\n      dup2\n      mstore\n      0x20\n      add\n      0x00\n      keccak256\n        /* \"contracts/MultiSigWallet.sol\":793:828  confirmations[transactionId][owner] */\n      0x00\n        /* \"contracts/MultiSigWallet.sol\":822:827  owner */\n      dup3\n        /* \"contracts/MultiSigWallet.sol\":793:828  confirmations[transactionId][owner] */\n      0xffffffffffffffffffffffffffffffffffffffff\n      and\n      0xffffffffffffffffffffffffffffffffffffffff\n      and\n      dup2\n      mstore\n      0x20\n      add\n      swap1\n      dup2\n      mstore\n      0x20\n      add\n      0x00\n      keccak256\n      0x00\n      swap1\n      sload\n      swap1\n      0x0100\n      exp\n      swap1\n      div\n      0xff\n      and\n        /* \"contracts/MultiSigWallet.sol\":792:828  !confirmations[transactionId][owner] */\n      iszero\n        /* \"contracts/MultiSigWallet.sol\":784:862  require(!confirmations[transactionId][owner], \"Transaction already confirmed\") */\n      tag_100\n      jumpi\n      mload(0x40)\n      0x08c379a000000000000000000000000000000000000000000000000000000000\n      dup2\n      mstore\n      0x04\n      add\n      tag_101\n      swap1\n      tag_102\n      jump\t// in\n    tag_101:\n      mload(0x40)\n      dup1\n      swap2\n      sub\n      swap1\n      revert\n    tag_100:\n        /* \"contracts/MultiSigWallet.sol\":2328:2332  true */\n      0x01\n        /* \"contracts/MultiSigWallet.sol\":2285:2298  confirmations */\n      0x04\n        /* \"contracts/MultiSigWallet.sol\":2285:2313  confirmations[transactionId] */\n      0x00\n        /* \"contracts/MultiSigWallet.sol\":2299:2312  transactionId */\n      dup7\n        /* \"contracts/MultiSigWallet.sol\":2285:2313  confirmations[transactionId] */\n      dup2\n      mstore\n      0x20\n      add\n      swap1\n      dup2\n      mstore\n      0x20\n      add\n      0x00\n      keccak256\n        /* \"contracts/MultiSigWallet.sol\":2285:2325  confirmations[transactionId][msg.sender] */\n      0x00\n        /* \"contracts/MultiSigWallet.sol\":2314:2324  msg.sender */\n      caller\n        /* \"contracts/MultiSigWallet.sol\":2285:2325  confirmations[transactionId][msg.sender] */\n      0xffffffffffffffffffffffffffffffffffffffff\n      and\n      0xffffffffffffffffffffffffffffffffffffffff\n      and\n      dup2\n      mstore\n      0x20\n      add\n      swap1\n      dup2\n      mstore\n      0x20\n      add\n      0x00\n      keccak256\n      0x00\n        /* \"contracts/MultiSigWallet.sol\":2285:2332  confirmations[transactionId][msg.sender] = true */\n      0x0100\n      exp\n      dup2\n      sload\n      dup2\n      0xff\n      mul\n      not\n      and\n      swap1\n      dup4\n      iszero\n      iszero\n      mul\n      or\n      swap1\n      sstore\n      pop\n        /* \"contracts/MultiSigWallet.sol\":2372:2385  transactionId */\n      dup4\n        /* \"contracts/MultiSigWallet.sol\":2360:2370  msg.sender */\n      caller\n        /* \"contracts/MultiSigWallet.sol\":2347:2386  Confirmation(msg.sender, transactionId) */\n      0xffffffffffffffffffffffffffffffffffffffff\n      and\n      0x4a504a94899432a9846e1aa406dceb1bcfd538bb839071d49d1e5e23f5be30ef\n      mload(0x40)\n      mload(0x40)\n      dup1\n      swap2\n      sub\n      swap1\n      log3\n        /* \"contracts/MultiSigWallet.sol\":2396:2429  executeTransaction(transactionId) */\n      tag_104\n        /* \"contracts/MultiSigWallet.sol\":2415:2428  transactionId */\n      dup5\n        /* \"contracts/MultiSigWallet.sol\":2396:2414  executeTransaction */\n      tag_70\n        /* \"contracts/MultiSigWallet.sol\":2396:2429  executeTransaction(transactionId) */\n      jump\t// in\n    tag_104:\n        /* \"contracts/MultiSigWallet.sol\":703:704  _ */\n      pop\n      pop\n        /* \"contracts/MultiSigWallet.sol\":530:531  _ */\n      pop\n        /* \"contracts/MultiSigWallet.sol\":2137:2436  function confirmTransaction(uint transactionId) public onlyOwner transactionExists(transactionId) notConfirmed(transactionId, msg.sender) {... */\n      pop\n      jump\t// out\n        /* \"contracts/MultiSigWallet.sol\":116:136  uint public required */\n    tag_65:\n      sload(0x01)\n      dup2\n      jump\t// out\n        /* \"contracts/MultiSigWallet.sol\":2442:2982  function executeTransaction(uint transactionId) public onlyOwner transactionExists(transactionId) notExecuted(transactionId) {... */\n    tag_70:\n        /* \"contracts/MultiSigWallet.sol\":487:494  isOwner */\n      0x02\n        /* \"contracts/MultiSigWallet.sol\":487:506  isOwner[msg.sender] */\n      0x00\n        /* \"contracts/MultiSigWallet.sol\":495:505  msg.sender */\n      caller\n        /* \"contracts/MultiSigWallet.sol\":487:506  isOwner[msg.sender] */\n      0xffffffffffffffffffffffffffffffffffffffff\n      and\n      0xffffffffffffffffffffffffffffffffffffffff\n      and\n      dup2\n      mstore\n      0x20\n      add\n      swap1\n      dup2\n      mstore\n      0x20\n      add\n      0x00\n      keccak256\n      0x00\n      swap1\n      sload\n      swap1\n      0x0100\n      exp\n      swap1\n      div\n      0xff\n      and\n        /* \"contracts/MultiSigWallet.sol\":479:520  require(isOwner[msg.sender], \"Not owner\") */\n      tag_106\n      jumpi\n      mload(0x40)\n      0x08c379a000000000000000000000000000000000000000000000000000000000\n      dup2\n      mstore\n      0x04\n      add\n      tag_107\n      swap1\n      tag_76\n      jump\t// in\n    tag_107:\n      mload(0x40)\n      dup1\n      swap2\n      sub\n      swap1\n      revert\n    tag_106:\n        /* \"contracts/MultiSigWallet.sol\":2525:2538  transactionId */\n      dup1\n        /* \"contracts/MultiSigWallet.sol\":660:661  0 */\n      0x00\n        /* \"contracts/MultiSigWallet.sol\":609:662  transactions[transactionId].destination != address(0) */\n      0xffffffffffffffffffffffffffffffffffffffff\n      and\n        /* \"contracts/MultiSigWallet.sol\":609:621  transactions */\n      0x03\n        /* \"contracts/MultiSigWallet.sol\":609:636  transactions[transactionId] */\n      0x00\n        /* \"contracts/MultiSigWallet.sol\":622:635  transactionId */\n      dup4\n        /* \"contracts/MultiSigWallet.sol\":609:636  transactions[transactionId] */\n      dup2\n      mstore\n      0x20\n      add\n      swap1\n      dup2\n      mstore\n      0x20\n      add\n      0x00\n      keccak256\n        /* \"contracts/MultiSigWallet.sol\":609:648  transactions[transactionId].destination */\n      0x00\n      add\n      0x00\n      swap1\n      sload\n      swap1\n      0x0100\n      exp\n      swap1\n      div\n      0xffffffffffffffffffffffffffffffffffffffff\n      and\n        /* \"contracts/MultiSigWallet.sol\":609:662  transactions[transactionId].destination != address(0) */\n      0xffffffffffffffffffffffffffffffffffffffff\n      and\n      sub\n        /* \"contracts/MultiSigWallet.sol\":601:693  require(transactions[transactionId].destination != address(0), \"Transaction does not exist\") */\n      tag_109\n      jumpi\n      mload(0x40)\n      0x08c379a000000000000000000000000000000000000000000000000000000000\n      dup2\n      mstore\n      0x04\n      add\n      tag_110\n      swap1\n      tag_98\n      jump\t// in\n    tag_110:\n      mload(0x40)\n      dup1\n      swap2\n      sub\n      swap1\n      revert\n    tag_109:\n        /* \"contracts/MultiSigWallet.sol\":2552:2565  transactionId */\n      dup2\n        /* \"contracts/MultiSigWallet.sol\":946:958  transactions */\n      0x03\n        /* \"contracts/MultiSigWallet.sol\":946:973  transactions[transactionId] */\n      0x00\n        /* \"contracts/MultiSigWallet.sol\":959:972  transactionId */\n      dup3\n        /* \"contracts/MultiSigWallet.sol\":946:973  transactions[transactionId] */\n      dup2\n      mstore\n      0x20\n      add\n      swap1\n      dup2\n      mstore\n      0x20\n      add\n      0x00\n      keccak256\n        /* \"contracts/MultiSigWallet.sol\":946:982  transactions[transactionId].executed */\n      0x02\n      add\n      0x00\n      swap1\n      sload\n      swap1\n      0x0100\n      exp\n      swap1\n      div\n      0xff\n      and\n        /* \"contracts/MultiSigWallet.sol\":945:982  !transactions[transactionId].executed */\n      iszero\n        /* \"contracts/MultiSigWallet.sol\":937:1015  require(!transactions[transactionId].executed, \"Transaction already executed\") */\n      tag_112\n      jumpi\n      mload(0x40)\n      0x08c379a000000000000000000000000000000000000000000000000000000000\n      dup2\n      mstore\n      0x04\n      add\n      tag_113\n      swap1\n      tag_114\n      jump\t// in\n    tag_113:\n      mload(0x40)\n      dup1\n      swap2\n      sub\n      swap1\n      revert\n    tag_112:\n        /* \"contracts/MultiSigWallet.sol\":2581:2607  isConfirmed(transactionId) */\n      tag_116\n        /* \"contracts/MultiSigWallet.sol\":2593:2606  transactionId */\n      dup4\n        /* \"contracts/MultiSigWallet.sol\":2581:2592  isConfirmed */\n      tag_47\n        /* \"contracts/MultiSigWallet.sol\":2581:2607  isConfirmed(transactionId) */\n      jump\t// in\n    tag_116:\n        /* \"contracts/MultiSigWallet.sol\":2577:2976  if (isConfirmed(transactionId)) {... */\n      iszero\n      tag_117\n      jumpi\n        /* \"contracts/MultiSigWallet.sol\":2623:2646  Transaction storage txn */\n      0x00\n        /* \"contracts/MultiSigWallet.sol\":2649:2661  transactions */\n      0x03\n        /* \"contracts/MultiSigWallet.sol\":2649:2676  transactions[transactionId] */\n      0x00\n        /* \"contracts/MultiSigWallet.sol\":2662:2675  transactionId */\n      dup6\n        /* \"contracts/MultiSigWallet.sol\":2649:2676  transactions[transactionId] */\n      dup2\n      mstore\n      0x20\n      add\n      swap1\n      dup2\n      mstore\n      0x20\n      add\n      0x00\n      keccak256\n        /* \"contracts/MultiSigWallet.sol\":2623:2676  Transaction storage txn = transactions[transactionId] */\n      swap1\n      pop\n        /* \"contracts/MultiSigWallet.sol\":2705:2709  true */\n      0x01\n        /* \"contracts/MultiSigWallet.sol\":2690:2693  txn */\n      dup2\n        /* \"contracts/MultiSigWallet.sol\":2690:2702  txn.executed */\n      0x02\n      add\n      0x00\n        /* \"contracts/MultiSigWallet.sol\":2690:2709  txn.executed = true */\n      0x0100\n      exp\n      dup2\n      sload\n      dup2\n      0xff\n      mul\n      not\n      and\n      swap1\n      dup4\n      iszero\n      iszero\n      mul\n      or\n      swap1\n      sstore\n      pop\n        /* \"contracts/MultiSigWallet.sol\":2724:2736  bool success */\n      0x00\n        /* \"contracts/MultiSigWallet.sol\":2742:2745  txn */\n      dup2\n        /* \"contracts/MultiSigWallet.sol\":2742:2757  txn.destination */\n      0x00\n      add\n      0x00\n      swap1\n      sload\n      swap1\n      0x0100\n      exp\n      swap1\n      div\n      0xffffffffffffffffffffffffffffffffffffffff\n      and\n        /* \"contracts/MultiSigWallet.sol\":2742:2762  txn.destination.call */\n      0xffffffffffffffffffffffffffffffffffffffff\n      and\n        /* \"contracts/MultiSigWallet.sol\":2770:2773  txn */\n      dup3\n        /* \"contracts/MultiSigWallet.sol\":2770:2779  txn.value */\n      0x01\n      add\n      sload\n        /* \"contracts/MultiSigWallet.sol\":2742:2784  txn.destination.call{value: txn.value}(\"\") */\n      mload(0x40)\n      tag_118\n      swap1\n      tag_119\n      jump\t// in\n    tag_118:\n      0x00\n      mload(0x40)\n      dup1\n      dup4\n      sub\n      dup2\n      dup6\n      dup8\n      gas\n      call\n      swap3\n      pop\n      pop\n      pop\n      returndatasize\n      dup1\n      0x00\n      dup2\n      eq\n      tag_122\n      jumpi\n      mload(0x40)\n      swap2\n      pop\n      and(add(returndatasize, 0x3f), not(0x1f))\n      dup3\n      add\n      0x40\n      mstore\n      returndatasize\n      dup3\n      mstore\n      returndatasize\n      0x00\n      0x20\n      dup5\n      add\n      returndatacopy\n      jump(tag_121)\n    tag_122:\n      0x60\n      swap2\n      pop\n    tag_121:\n      pop\n        /* \"contracts/MultiSigWallet.sol\":2723:2784  (bool success, ) = txn.destination.call{value: txn.value}(\"\") */\n      pop\n      swap1\n      pop\n        /* \"contracts/MultiSigWallet.sol\":2802:2809  success */\n      dup1\n        /* \"contracts/MultiSigWallet.sol\":2798:2966  if (success) emit Execution(transactionId);... */\n      iszero\n      tag_123\n      jumpi\n        /* \"contracts/MultiSigWallet.sol\":2826:2839  transactionId */\n      dup5\n        /* \"contracts/MultiSigWallet.sol\":2816:2840  Execution(transactionId) */\n      0x33e13ecb54c3076d8e8bb8c2881800a4d972b792045ffae98fdf46df365fed75\n      mload(0x40)\n      mload(0x40)\n      dup1\n      swap2\n      sub\n      swap1\n      log2\n        /* \"contracts/MultiSigWallet.sol\":2798:2966  if (success) emit Execution(transactionId);... */\n      jump(tag_124)\n    tag_123:\n        /* \"contracts/MultiSigWallet.sol\":2899:2912  transactionId */\n      dup5\n        /* \"contracts/MultiSigWallet.sol\":2882:2913  ExecutionFailure(transactionId) */\n      0x526441bb6c1aba3c9a4a6ca1d6545da9c2333c8c48343ef398eb858d72b79236\n      mload(0x40)\n      mload(0x40)\n      dup1\n      swap2\n      sub\n      swap1\n      log2\n        /* \"contracts/MultiSigWallet.sol\":2946:2951  false */\n      0x00\n        /* \"contracts/MultiSigWallet.sol\":2931:2934  txn */\n      dup3\n        /* \"contracts/MultiSigWallet.sol\":2931:2943  txn.executed */\n      0x02\n      add\n      0x00\n        /* \"contracts/MultiSigWallet.sol\":2931:2951  txn.executed = false */\n      0x0100\n      exp\n      dup2\n      sload\n      dup2\n      0xff\n      mul\n      not\n      and\n      swap1\n      dup4\n      iszero\n      iszero\n      mul\n      or\n      swap1\n      sstore\n      pop\n        /* \"contracts/MultiSigWallet.sol\":2798:2966  if (success) emit Execution(transactionId);... */\n    tag_124:\n        /* \"contracts/MultiSigWallet.sol\":2609:2976  {... */\n      pop\n      pop\n        /* \"contracts/MultiSigWallet.sol\":2577:2976  if (isConfirmed(transactionId)) {... */\n    tag_117:\n        /* \"contracts/MultiSigWallet.sol\":703:704  _ */\n      pop\n        /* \"contracts/MultiSigWallet.sol\":530:531  _ */\n      pop\n        /* \"contracts/MultiSigWallet.sol\":2442:2982  function executeTransaction(uint transactionId) public onlyOwner transactionExists(transactionId) notExecuted(transactionId) {... */\n      pop\n      jump\t// out\n        /* \"#utility.yul\":7:84   */\n    tag_125:\n        /* \"#utility.yul\":44:51   */\n      0x00\n        /* \"#utility.yul\":73:78   */\n      dup2\n        /* \"#utility.yul\":62:78   */\n      swap1\n      pop\n        /* \"#utility.yul\":7:84   */\n      swap2\n      swap1\n      pop\n      jump\t// out\n        /* \"#utility.yul\":90:208   */\n    tag_126:\n        /* \"#utility.yul\":177:201   */\n      tag_155\n        /* \"#utility.yul\":195:200   */\n      dup2\n        /* \"#utility.yul\":177:201   */\n      tag_125\n      jump\t// in\n    tag_155:\n        /* \"#utility.yul\":172:175   */\n      dup3\n        /* \"#utility.yul\":165:202   */\n      mstore\n        /* \"#utility.yul\":90:208   */\n      pop\n      pop\n      jump\t// out\n        /* \"#utility.yul\":214:436   */\n    tag_17:\n        /* \"#utility.yul\":307:311   */\n      0x00\n        /* \"#utility.yul\":345:347   */\n      0x20\n        /* \"#utility.yul\":334:343   */\n      dup3\n        /* \"#utility.yul\":330:348   */\n      add\n        /* \"#utility.yul\":322:348   */\n      swap1\n      pop\n        /* \"#utility.yul\":358:429   */\n      tag_157\n        /* \"#utility.yul\":426:427   */\n      0x00\n        /* \"#utility.yul\":415:424   */\n      dup4\n        /* \"#utility.yul\":411:428   */\n      add\n        /* \"#utility.yul\":402:408   */\n      dup5\n        /* \"#utility.yul\":358:429   */\n      tag_126\n      jump\t// in\n    tag_157:\n        /* \"#utility.yul\":214:436   */\n      swap3\n      swap2\n      pop\n      pop\n      jump\t// out\n        /* \"#utility.yul\":523:640   */\n    tag_128:\n        /* \"#utility.yul\":632:633   */\n      0x00\n        /* \"#utility.yul\":629:630   */\n      dup1\n        /* \"#utility.yul\":622:634   */\n      revert\n        /* \"#utility.yul\":769:891   */\n    tag_130:\n        /* \"#utility.yul\":842:866   */\n      tag_162\n        /* \"#utility.yul\":860:865   */\n      dup2\n        /* \"#utility.yul\":842:866   */\n      tag_125\n      jump\t// in\n    tag_162:\n        /* \"#utility.yul\":835:840   */\n      dup2\n        /* \"#utility.yul\":832:867   */\n      eq\n        /* \"#utility.yul\":822:885   */\n      tag_163\n      jumpi\n        /* \"#utility.yul\":881:882   */\n      0x00\n        /* \"#utility.yul\":878:879   */\n      dup1\n        /* \"#utility.yul\":871:883   */\n      revert\n        /* \"#utility.yul\":822:885   */\n    tag_163:\n        /* \"#utility.yul\":769:891   */\n      pop\n      jump\t// out\n        /* \"#utility.yul\":897:1036   */\n    tag_131:\n        /* \"#utility.yul\":943:948   */\n      0x00\n        /* \"#utility.yul\":981:987   */\n      dup2\n        /* \"#utility.yul\":968:988   */\n      calldataload\n        /* \"#utility.yul\":959:988   */\n      swap1\n      pop\n        /* \"#utility.yul\":997:1030   */\n      tag_165\n        /* \"#utility.yul\":1024:1029   */\n      dup2\n        /* \"#utility.yul\":997:1030   */\n      tag_130\n      jump\t// in\n    tag_165:\n        /* \"#utility.yul\":897:1036   */\n      swap3\n      swap2\n      pop\n      pop\n      jump\t// out\n        /* \"#utility.yul\":1042:1371   */\n    tag_21:\n        /* \"#utility.yul\":1101:1107   */\n      0x00\n        /* \"#utility.yul\":1150:1152   */\n      0x20\n        /* \"#utility.yul\":1138:1147   */\n      dup3\n        /* \"#utility.yul\":1129:1136   */\n      dup5\n        /* \"#utility.yul\":1125:1148   */\n      sub\n        /* \"#utility.yul\":1121:1153   */\n      slt\n        /* \"#utility.yul\":1118:1237   */\n      iszero\n      tag_167\n      jumpi\n        /* \"#utility.yul\":1156:1235   */\n      tag_168\n      tag_128\n      jump\t// in\n    tag_168:\n        /* \"#utility.yul\":1118:1237   */\n    tag_167:\n        /* \"#utility.yul\":1276:1277   */\n      0x00\n        /* \"#utility.yul\":1301:1354   */\n      tag_169\n        /* \"#utility.yul\":1346:1353   */\n      dup5\n        /* \"#utility.yul\":1337:1343   */\n      dup3\n        /* \"#utility.yul\":1326:1335   */\n      dup6\n        /* \"#utility.yul\":1322:1344   */\n      add\n        /* \"#utility.yul\":1301:1354   */\n      tag_131\n      jump\t// in\n    tag_169:\n        /* \"#utility.yul\":1291:1354   */\n      swap2\n      pop\n        /* \"#utility.yul\":1247:1364   */\n      pop\n        /* \"#utility.yul\":1042:1371   */\n      swap3\n      swap2\n      pop\n      pop\n      jump\t// out\n        /* \"#utility.yul\":1377:1503   */\n    tag_132:\n        /* \"#utility.yul\":1414:1421   */\n      0x00\n        /* \"#utility.yul\":1454:1496   */\n      0xffffffffffffffffffffffffffffffffffffffff\n        /* \"#utility.yul\":1447:1452   */\n      dup3\n        /* \"#utility.yul\":1443:1497   */\n      and\n        /* \"#utility.yul\":1432:1497   */\n      swap1\n      pop\n        /* \"#utility.yul\":1377:1503   */\n      swap2\n      swap1\n      pop\n      jump\t// out\n        /* \"#utility.yul\":1509:1605   */\n    tag_133:\n        /* \"#utility.yul\":1546:1553   */\n      0x00\n        /* \"#utility.yul\":1575:1599   */\n      tag_172\n        /* \"#utility.yul\":1593:1598   */\n      dup3\n        /* \"#utility.yul\":1575:1599   */\n      tag_132\n      jump\t// in\n    tag_172:\n        /* \"#utility.yul\":1564:1599   */\n      swap1\n      pop\n        /* \"#utility.yul\":1509:1605   */\n      swap2\n      swap1\n      pop\n      jump\t// out\n        /* \"#utility.yul\":1611:1729   */\n    tag_134:\n        /* \"#utility.yul\":1698:1722   */\n      tag_174\n        /* \"#utility.yul\":1716:1721   */\n      dup2\n        /* \"#utility.yul\":1698:1722   */\n      tag_133\n      jump\t// in\n    tag_174:\n        /* \"#utility.yul\":1693:1696   */\n      dup3\n        /* \"#utility.yul\":1686:1723   */\n      mstore\n        /* \"#utility.yul\":1611:1729   */\n      pop\n      pop\n      jump\t// out\n        /* \"#utility.yul\":1735:1957   */\n    tag_24:\n        /* \"#utility.yul\":1828:1832   */\n      0x00\n        /* \"#utility.yul\":1866:1868   */\n      0x20\n        /* \"#utility.yul\":1855:1864   */\n      dup3\n        /* \"#utility.yul\":1851:1869   */\n      add\n        /* \"#utility.yul\":1843:1869   */\n      swap1\n      pop\n        /* \"#utility.yul\":1879:1950   */\n      tag_176\n        /* \"#utility.yul\":1947:1948   */\n      0x00\n        /* \"#utility.yul\":1936:1945   */\n      dup4\n        /* \"#utility.yul\":1932:1949   */\n      add\n        /* \"#utility.yul\":1923:1929   */\n      dup5\n        /* \"#utility.yul\":1879:1950   */\n      tag_134\n      jump\t// in\n    tag_176:\n        /* \"#utility.yul\":1735:1957   */\n      swap3\n      swap2\n      pop\n      pop\n      jump\t// out\n        /* \"#utility.yul\":1963:2085   */\n    tag_135:\n        /* \"#utility.yul\":2036:2060   */\n      tag_178\n        /* \"#utility.yul\":2054:2059   */\n      dup2\n        /* \"#utility.yul\":2036:2060   */\n      tag_133\n      jump\t// in\n    tag_178:\n        /* \"#utility.yul\":2029:2034   */\n      dup2\n        /* \"#utility.yul\":2026:2061   */\n      eq\n        /* \"#utility.yul\":2016:2079   */\n      tag_179\n      jumpi\n        /* \"#utility.yul\":2075:2076   */\n      0x00\n        /* \"#utility.yul\":2072:2073   */\n      dup1\n        /* \"#utility.yul\":2065:2077   */\n      revert\n        /* \"#utility.yul\":2016:2079   */\n    tag_179:\n        /* \"#utility.yul\":1963:2085   */\n      pop\n      jump\t// out\n        /* \"#utility.yul\":2091:2230   */\n    tag_136:\n        /* \"#utility.yul\":2137:2142   */\n      0x00\n        /* \"#utility.yul\":2175:2181   */\n      dup2\n        /* \"#utility.yul\":2162:2182   */\n      calldataload\n        /* \"#utility.yul\":2153:2182   */\n      swap1\n      pop\n        /* \"#utility.yul\":2191:2224   */\n      tag_181\n        /* \"#utility.yul\":2218:2223   */\n      dup2\n        /* \"#utility.yul\":2191:2224   */\n      tag_135\n      jump\t// in\n    tag_181:\n        /* \"#utility.yul\":2091:2230   */\n      swap3\n      swap2\n      pop\n      pop\n      jump\t// out\n        /* \"#utility.yul\":2236:2710   */\n    tag_28:\n        /* \"#utility.yul\":2304:2310   */\n      0x00\n        /* \"#utility.yul\":2312:2318   */\n      dup1\n        /* \"#utility.yul\":2361:2363   */\n      0x40\n        /* \"#utility.yul\":2349:2358   */\n      dup4\n        /* \"#utility.yul\":2340:2347   */\n      dup6\n        /* \"#utility.yul\":2336:2359   */\n      sub\n        /* \"#utility.yul\":2332:2364   */\n      slt\n        /* \"#utility.yul\":2329:2448   */\n      iszero\n      tag_183\n      jumpi\n        /* \"#utility.yul\":2367:2446   */\n      tag_184\n      tag_128\n      jump\t// in\n    tag_184:\n        /* \"#utility.yul\":2329:2448   */\n    tag_183:\n        /* \"#utility.yul\":2487:2488   */\n      0x00\n        /* \"#utility.yul\":2512:2565   */\n      tag_185\n        /* \"#utility.yul\":2557:2564   */\n      dup6\n        /* \"#utility.yul\":2548:2554   */\n      dup3\n        /* \"#utility.yul\":2537:2546   */\n      dup7\n        /* \"#utility.yul\":2533:2555   */\n      add\n        /* \"#utility.yul\":2512:2565   */\n      tag_136\n      jump\t// in\n    tag_185:\n        /* \"#utility.yul\":2502:2565   */\n      swap3\n      pop\n        /* \"#utility.yul\":2458:2575   */\n      pop\n        /* \"#utility.yul\":2614:2616   */\n      0x20\n        /* \"#utility.yul\":2640:2693   */\n      tag_186\n        /* \"#utility.yul\":2685:2692   */\n      dup6\n        /* \"#utility.yul\":2676:2682   */\n      dup3\n        /* \"#utility.yul\":2665:2674   */\n      dup7\n        /* \"#utility.yul\":2661:2683   */\n      add\n        /* \"#utility.yul\":2640:2693   */\n      tag_131\n      jump\t// in\n    tag_186:\n        /* \"#utility.yul\":2630:2693   */\n      swap2\n      pop\n        /* \"#utility.yul\":2585:2703   */\n      pop\n        /* \"#utility.yul\":2236:2710   */\n      swap3\n      pop\n      swap3\n      swap1\n      pop\n      jump\t// out\n        /* \"#utility.yul\":2716:3045   */\n    tag_34:\n        /* \"#utility.yul\":2775:2781   */\n      0x00\n        /* \"#utility.yul\":2824:2826   */\n      0x20\n        /* \"#utility.yul\":2812:2821   */\n      dup3\n        /* \"#utility.yul\":2803:2810   */\n      dup5\n        /* \"#utility.yul\":2799:2822   */\n      sub\n        /* \"#utility.yul\":2795:2827   */\n      slt\n        /* \"#utility.yul\":2792:2911   */\n      iszero\n      tag_188\n      jumpi\n        /* \"#utility.yul\":2830:2909   */\n      tag_189\n      tag_128\n      jump\t// in\n    tag_189:\n        /* \"#utility.yul\":2792:2911   */\n    tag_188:\n        /* \"#utility.yul\":2950:2951   */\n      0x00\n        /* \"#utility.yul\":2975:3028   */\n      tag_190\n        /* \"#utility.yul\":3020:3027   */\n      dup5\n        /* \"#utility.yul\":3011:3017   */\n      dup3\n        /* \"#utility.yul\":3000:3009   */\n      dup6\n        /* \"#utility.yul\":2996:3018   */\n      add\n        /* \"#utility.yul\":2975:3028   */\n      tag_136\n      jump\t// in\n    tag_190:\n        /* \"#utility.yul\":2965:3028   */\n      swap2\n      pop\n        /* \"#utility.yul\":2921:3038   */\n      pop\n        /* \"#utility.yul\":2716:3045   */\n      swap3\n      swap2\n      pop\n      pop\n      jump\t// out\n        /* \"#utility.yul\":3051:3141   */\n    tag_137:\n        /* \"#utility.yul\":3085:3092   */\n      0x00\n        /* \"#utility.yul\":3128:3133   */\n      dup2\n        /* \"#utility.yul\":3121:3134   */\n      iszero\n        /* \"#utility.yul\":3114:3135   */\n      iszero\n        /* \"#utility.yul\":3103:3135   */\n      swap1\n      pop\n        /* \"#utility.yul\":3051:3141   */\n      swap2\n      swap1\n      pop\n      jump\t// out\n        /* \"#utility.yul\":3147:3256   */\n    tag_138:\n        /* \"#utility.yul\":3228:3249   */\n      tag_193\n        /* \"#utility.yul\":3243:3248   */\n      dup2\n        /* \"#utility.yul\":3228:3249   */\n      tag_137\n      jump\t// in\n    tag_193:\n        /* \"#utility.yul\":3223:3226   */\n      dup3\n        /* \"#utility.yul\":3216:3250   */\n      mstore\n        /* \"#utility.yul\":3147:3256   */\n      pop\n      pop\n      jump\t// out\n        /* \"#utility.yul\":3262:3472   */\n    tag_37:\n        /* \"#utility.yul\":3349:3353   */\n      0x00\n        /* \"#utility.yul\":3387:3389   */\n      0x20\n        /* \"#utility.yul\":3376:3385   */\n      dup3\n        /* \"#utility.yul\":3372:3390   */\n      add\n        /* \"#utility.yul\":3364:3390   */\n      swap1\n      pop\n        /* \"#utility.yul\":3400:3465   */\n      tag_195\n        /* \"#utility.yul\":3462:3463   */\n      0x00\n        /* \"#utility.yul\":3451:3460   */\n      dup4\n        /* \"#utility.yul\":3447:3464   */\n      add\n        /* \"#utility.yul\":3438:3444   */\n      dup5\n        /* \"#utility.yul\":3400:3465   */\n      tag_138\n      jump\t// in\n    tag_195:\n        /* \"#utility.yul\":3262:3472   */\n      swap3\n      swap2\n      pop\n      pop\n      jump\t// out\n        /* \"#utility.yul\":3478:3952   */\n    tag_41:\n        /* \"#utility.yul\":3546:3552   */\n      0x00\n        /* \"#utility.yul\":3554:3560   */\n      dup1\n        /* \"#utility.yul\":3603:3605   */\n      0x40\n        /* \"#utility.yul\":3591:3600   */\n      dup4\n        /* \"#utility.yul\":3582:3589   */\n      dup6\n        /* \"#utility.yul\":3578:3601   */\n      sub\n        /* \"#utility.yul\":3574:3606   */\n      slt\n        /* \"#utility.yul\":3571:3690   */\n      iszero\n      tag_197\n      jumpi\n        /* \"#utility.yul\":3609:3688   */\n      tag_198\n      tag_128\n      jump\t// in\n    tag_198:\n        /* \"#utility.yul\":3571:3690   */\n    tag_197:\n        /* \"#utility.yul\":3729:3730   */\n      0x00\n        /* \"#utility.yul\":3754:3807   */\n      tag_199\n        /* \"#utility.yul\":3799:3806   */\n      dup6\n        /* \"#utility.yul\":3790:3796   */\n      dup3\n        /* \"#utility.yul\":3779:3788   */\n      dup7\n        /* \"#utility.yul\":3775:3797   */\n      add\n        /* \"#utility.yul\":3754:3807   */\n      tag_131\n      jump\t// in\n    tag_199:\n        /* \"#utility.yul\":3744:3807   */\n      swap3\n      pop\n        /* \"#utility.yul\":3700:3817   */\n      pop\n        /* \"#utility.yul\":3856:3858   */\n      0x20\n        /* \"#utility.yul\":3882:3935   */\n      tag_200\n        /* \"#utility.yul\":3927:3934   */\n      dup6\n        /* \"#utility.yul\":3918:3924   */\n      dup3\n        /* \"#utility.yul\":3907:3916   */\n      dup7\n        /* \"#utility.yul\":3903:3925   */\n      add\n        /* \"#utility.yul\":3882:3935   */\n      tag_136\n      jump\t// in\n    tag_200:\n        /* \"#utility.yul\":3872:3935   */\n      swap2\n      pop\n        /* \"#utility.yul\":3827:3945   */\n      pop\n        /* \"#utility.yul\":3478:3952   */\n      swap3\n      pop\n      swap3\n      swap1\n      pop\n      jump\t// out\n        /* \"#utility.yul\":3958:4388   */\n    tag_54:\n        /* \"#utility.yul\":4101:4105   */\n      0x00\n        /* \"#utility.yul\":4139:4141   */\n      0x60\n        /* \"#utility.yul\":4128:4137   */\n      dup3\n        /* \"#utility.yul\":4124:4142   */\n      add\n        /* \"#utility.yul\":4116:4142   */\n      swap1\n      pop\n        /* \"#utility.yul\":4152:4223   */\n      tag_202\n        /* \"#utility.yul\":4220:4221   */\n      0x00\n        /* \"#utility.yul\":4209:4218   */\n      dup4\n        /* \"#utility.yul\":4205:4222   */\n      add\n        /* \"#utility.yul\":4196:4202   */\n      dup7\n        /* \"#utility.yul\":4152:4223   */\n      tag_134\n      jump\t// in\n    tag_202:\n        /* \"#utility.yul\":4233:4305   */\n      tag_203\n        /* \"#utility.yul\":4301:4303   */\n      0x20\n        /* \"#utility.yul\":4290:4299   */\n      dup4\n        /* \"#utility.yul\":4286:4304   */\n      add\n        /* \"#utility.yul\":4277:4283   */\n      dup6\n        /* \"#utility.yul\":4233:4305   */\n      tag_126\n      jump\t// in\n    tag_203:\n        /* \"#utility.yul\":4315:4381   */\n      tag_204\n        /* \"#utility.yul\":4377:4379   */\n      0x40\n        /* \"#utility.yul\":4366:4375   */\n      dup4\n        /* \"#utility.yul\":4362:4380   */\n      add\n        /* \"#utility.yul\":4353:4359   */\n      dup5\n        /* \"#utility.yul\":4315:4381   */\n      tag_138\n      jump\t// in\n    tag_204:\n        /* \"#utility.yul\":3958:4388   */\n      swap5\n      swap4\n      pop\n      pop\n      pop\n      pop\n      jump\t// out\n        /* \"#utility.yul\":4394:4563   */\n    tag_139:\n        /* \"#utility.yul\":4478:4489   */\n      0x00\n        /* \"#utility.yul\":4512:4518   */\n      dup3\n        /* \"#utility.yul\":4507:4510   */\n      dup3\n        /* \"#utility.yul\":4500:4519   */\n      mstore\n        /* \"#utility.yul\":4552:4556   */\n      0x20\n        /* \"#utility.yul\":4547:4550   */\n      dup3\n        /* \"#utility.yul\":4543:4557   */\n      add\n        /* \"#utility.yul\":4528:4557   */\n      swap1\n      pop\n        /* \"#utility.yul\":4394:4563   */\n      swap3\n      swap2\n      pop\n      pop\n      jump\t// out\n        /* \"#utility.yul\":4569:4728   */\n    tag_140:\n        /* \"#utility.yul\":4709:4720   */\n      0x4e6f74206f776e65720000000000000000000000000000000000000000000000\n        /* \"#utility.yul\":4705:4706   */\n      0x00\n        /* \"#utility.yul\":4697:4703   */\n      dup3\n        /* \"#utility.yul\":4693:4707   */\n      add\n        /* \"#utility.yul\":4686:4721   */\n      mstore\n        /* \"#utility.yul\":4569:4728   */\n      pop\n      jump\t// out\n        /* \"#utility.yul\":4734:5099   */\n    tag_141:\n        /* \"#utility.yul\":4876:4879   */\n      0x00\n        /* \"#utility.yul\":4897:4963   */\n      tag_208\n        /* \"#utility.yul\":4961:4962   */\n      0x09\n        /* \"#utility.yul\":4956:4959   */\n      dup4\n        /* \"#utility.yul\":4897:4963   */\n      tag_139\n      jump\t// in\n    tag_208:\n        /* \"#utility.yul\":4890:4963   */\n      swap2\n      pop\n        /* \"#utility.yul\":4972:5065   */\n      tag_209\n        /* \"#utility.yul\":5061:5064   */\n      dup3\n        /* \"#utility.yul\":4972:5065   */\n      tag_140\n      jump\t// in\n    tag_209:\n        /* \"#utility.yul\":5090:5092   */\n      0x20\n        /* \"#utility.yul\":5085:5088   */\n      dup3\n        /* \"#utility.yul\":5081:5093   */\n      add\n        /* \"#utility.yul\":5074:5093   */\n      swap1\n      pop\n        /* \"#utility.yul\":4734:5099   */\n      swap2\n      swap1\n      pop\n      jump\t// out\n        /* \"#utility.yul\":5105:5524   */\n    tag_76:\n        /* \"#utility.yul\":5271:5275   */\n      0x00\n        /* \"#utility.yul\":5309:5311   */\n      0x20\n        /* \"#utility.yul\":5298:5307   */\n      dup3\n        /* \"#utility.yul\":5294:5312   */\n      add\n        /* \"#utility.yul\":5286:5312   */\n      swap1\n      pop\n        /* \"#utility.yul\":5358:5367   */\n      dup2\n        /* \"#utility.yul\":5352:5356   */\n      dup2\n        /* \"#utility.yul\":5348:5368   */\n      sub\n        /* \"#utility.yul\":5344:5345   */\n      0x00\n        /* \"#utility.yul\":5333:5342   */\n      dup4\n        /* \"#utility.yul\":5329:5346   */\n      add\n        /* \"#utility.yul\":5322:5369   */\n      mstore\n        /* \"#utility.yul\":5386:5517   */\n      tag_211\n        /* \"#utility.yul\":5512:5516   */\n      dup2\n        /* \"#utility.yul\":5386:5517   */\n      tag_141\n      jump\t// in\n    tag_211:\n        /* \"#utility.yul\":5378:5517   */\n      swap1\n      pop\n        /* \"#utility.yul\":5105:5524   */\n      swap2\n      swap1\n      pop\n      jump\t// out\n        /* \"#utility.yul\":5530:5710   */\n    tag_142:\n        /* \"#utility.yul\":5578:5655   */\n      0x4e487b7100000000000000000000000000000000000000000000000000000000\n        /* \"#utility.yul\":5575:5576   */\n      0x00\n        /* \"#utility.yul\":5568:5656   */\n      mstore\n        /* \"#utility.yul\":5675:5679   */\n      0x11\n        /* \"#utility.yul\":5672:5673   */\n      0x04\n        /* \"#utility.yul\":5665:5680   */\n      mstore\n        /* \"#utility.yul\":5699:5703   */\n      0x24\n        /* \"#utility.yul\":5696:5697   */\n      0x00\n        /* \"#utility.yul\":5689:5704   */\n      revert\n        /* \"#utility.yul\":5716:5949   */\n    tag_79:\n        /* \"#utility.yul\":5755:5758   */\n      0x00\n        /* \"#utility.yul\":5778:5802   */\n      tag_214\n        /* \"#utility.yul\":5796:5801   */\n      dup3\n        /* \"#utility.yul\":5778:5802   */\n      tag_125\n      jump\t// in\n    tag_214:\n        /* \"#utility.yul\":5769:5802   */\n      swap2\n      pop\n        /* \"#utility.yul\":5824:5890   */\n      0xffffffffffffffffffffffffffffffffffffffffffffffffffffffffffffffff\n        /* \"#utility.yul\":5817:5822   */\n      dup3\n        /* \"#utility.yul\":5814:5891   */\n      sub\n        /* \"#utility.yul\":5811:5914   */\n      tag_215\n      jumpi\n        /* \"#utility.yul\":5894:5912   */\n      tag_216\n      tag_142\n      jump\t// in\n    tag_216:\n        /* \"#utility.yul\":5811:5914   */\n    tag_215:\n        /* \"#utility.yul\":5941:5942   */\n      0x01\n        /* \"#utility.yul\":5934:5939   */\n      dup3\n        /* \"#utility.yul\":5930:5943   */\n      add\n        /* \"#utility.yul\":5923:5943   */\n      swap1\n      pop\n        /* \"#utility.yul\":5716:5949   */\n      swap2\n      swap1\n      pop\n      jump\t// out\n        /* \"#utility.yul\":5955:6135   */\n    tag_86:\n        /* \"#utility.yul\":6003:6080   */\n      0x4e487b7100000000000000000000000000000000000000000000000000000000\n        /* \"#utility.yul\":6000:6001   */\n      0x00\n        /* \"#utility.yul\":5993:6081   */\n      mstore\n        /* \"#utility.yul\":6100:6104   */\n      0x32\n        /* \"#utility.yul\":6097:6098   */\n      0x04\n        /* \"#utility.yul\":6090:6105   */\n      mstore\n        /* \"#utility.yul\":6124:6128   */\n      0x24\n        /* \"#utility.yul\":6121:6122   */\n      0x00\n        /* \"#utility.yul\":6114:6129   */\n      revert\n        /* \"#utility.yul\":6141:6332   */\n    tag_90:\n        /* \"#utility.yul\":6181:6184   */\n      0x00\n        /* \"#utility.yul\":6200:6220   */\n      tag_219\n        /* \"#utility.yul\":6218:6219   */\n      dup3\n        /* \"#utility.yul\":6200:6220   */\n      tag_125\n      jump\t// in\n    tag_219:\n        /* \"#utility.yul\":6195:6220   */\n      swap2\n      pop\n        /* \"#utility.yul\":6234:6254   */\n      tag_220\n        /* \"#utility.yul\":6252:6253   */\n      dup4\n        /* \"#utility.yul\":6234:6254   */\n      tag_125\n      jump\t// in\n    tag_220:\n        /* \"#utility.yul\":6229:6254   */\n      swap3\n      pop\n        /* \"#utility.yul\":6277:6278   */\n      dup3\n        /* \"#utility.yul\":6274:6275   */\n      dup3\n        /* \"#utility.yul\":6270:6279   */\n      add\n        /* \"#utility.yul\":6263:6279   */\n      swap1\n      pop\n        /* \"#utility.yul\":6298:6301   */\n      dup1\n        /* \"#utility.yul\":6295:6296   */\n      dup3\n        /* \"#utility.yul\":6292:6302   */\n      gt\n        /* \"#utility.yul\":6289:6325   */\n      iszero\n      tag_221\n      jumpi\n        /* \"#utility.yul\":6305:6323   */\n      tag_222\n      tag_142\n      jump\t// in\n    tag_222:\n        /* \"#utility.yul\":6289:6325   */\n    tag_221:\n        /* \"#utility.yul\":6141:6332   */\n      swap3\n      swap2\n      pop\n      pop\n      jump\t// out\n        /* \"#utility.yul\":6338:6514   */\n    tag_143:\n        /* \"#utility.yul\":6478:6506   */\n      0x5472616e73616374696f6e20646f6573206e6f74206578697374000000000000\n        /* \"#utility.yul\":6474:6475   */\n      0x00\n        /* \"#utility.yul\":6466:6472   */\n      dup3\n        /* \"#utility.yul\":6462:6476   */\n      add\n        /* \"#utility.yul\":6455:6507   */\n      mstore\n        /* \"#utility.yul\":6338:6514   */\n      pop\n      jump\t// out\n        /* \"#utility.yul\":6520:6886   */\n    tag_144:\n        /* \"#utility.yul\":6662:6665   */\n      0x00\n        /* \"#utility.yul\":6683:6750   */\n      tag_225\n        /* \"#utility.yul\":6747:6749   */\n      0x1a\n        /* \"#utility.yul\":6742:6745   */\n      dup4\n        /* \"#utility.yul\":6683:6750   */\n      tag_139\n      jump\t// in\n    tag_225:\n        /* \"#utility.yul\":6676:6750   */\n      swap2\n      pop\n        /* \"#utility.yul\":6759:6852   */\n      tag_226\n        /* \"#utility.yul\":6848:6851   */\n      dup3\n        /* \"#utility.yul\":6759:6852   */\n      tag_143\n      jump\t// in\n    tag_226:\n        /* \"#utility.yul\":6877:6879   */\n      0x20\n        /* \"#utility.yul\":6872:6875   */\n      dup3\n        /* \"#utility.yul\":6868:6880   */\n      add\n        /* \"#utility.yul\":6861:6880   */\n      swap1\n      pop\n        /* \"#utility.yul\":6520:6886   */\n      swap2\n      swap1\n      pop\n      jump\t// out\n        /* \"#utility.yul\":6892:7311   */\n    tag_98:\n        /* \"#utility.yul\":7058:7062   */\n      0x00\n        /* \"#utility.yul\":7096:7098   */\n      0x20\n        /* \"#utility.yul\":7085:7094   */\n      dup3\n        /* \"#utility.yul\":7081:7099   */\n      add\n        /* \"#utility.yul\":7073:7099   */\n      swap1\n      pop\n        /* \"#utility.yul\":7145:7154   */\n      dup2\n        /* \"#utility.yul\":7139:7143   */\n      dup2\n        /* \"#utility.yul\":7135:7155   */\n      sub\n        /* \"#utility.yul\":7131:7132   */\n      0x00\n        /* \"#utility.yul\":7120:7129   */\n      dup4\n        /* \"#utility.yul\":7116:7133   */\n      add\n        /* \"#utility.yul\":7109:7156   */\n      mstore\n        /* \"#utility.yul\":7173:7304   */\n      tag_228\n        /* \"#utility.yul\":7299:7303   */\n      dup2\n        /* \"#utility.yul\":7173:7304   */\n      tag_144\n      jump\t// in\n    tag_228:\n        /* \"#utility.yul\":7165:7304   */\n      swap1\n      pop\n        /* \"#utility.yul\":6892:7311   */\n      swap2\n      swap1\n      pop\n      jump\t// out\n        /* \"#utility.yul\":7317:7496   */\n    tag_145:\n        /* \"#utility.yul\":7457:7488   */\n      0x5472616e73616374696f6e20616c726561647920636f6e6669726d6564000000\n        /* \"#utility.yul\":7453:7454   */\n      0x00\n        /* \"#utility.yul\":7445:7451   */\n      dup3\n        /* \"#utility.yul\":7441:7455   */\n      add\n        /* \"#utility.yul\":7434:7489   */\n      mstore\n        /* \"#utility.yul\":7317:7496   */\n      pop\n      jump\t// out\n        /* \"#utility.yul\":7502:7868   */\n    tag_146:\n        /* \"#utility.yul\":7644:7647   */\n      0x00\n        /* \"#utility.yul\":7665:7732   */\n      tag_231\n        /* \"#utility.yul\":7729:7731   */\n      0x1d\n        /* \"#utility.yul\":7724:7727   */\n      dup4\n        /* \"#utility.yul\":7665:7732   */\n      tag_139\n      jump\t// in\n    tag_231:\n        /* \"#utility.yul\":7658:7732   */\n      swap2\n      pop\n        /* \"#utility.yul\":7741:7834   */\n      tag_232\n        /* \"#utility.yul\":7830:7833   */\n      dup3\n        /* \"#utility.yul\":7741:7834   */\n      tag_145\n      jump\t// in\n    tag_232:\n        /* \"#utility.yul\":7859:7861   */\n      0x20\n        /* \"#utility.yul\":7854:7857   */\n      dup3\n        /* \"#utility.yul\":7850:7862   */\n      add\n        /* \"#utility.yul\":7843:7862   */\n      swap1\n      pop\n        /* \"#utility.yul\":7502:7868   */\n      swap2\n      swap1\n      pop\n      jump\t// out\n        /* \"#utility.yul\":7874:8293   */\n    tag_102:\n        /* \"#utility.yul\":8040:8044   */\n      0x00\n        /* \"#utility.yul\":8078:8080   */\n      0x20\n        /* \"#utility.yul\":8067:8076   */\n      dup3\n        /* \"#utility.yul\":8063:8081   */\n      add\n        /* \"#utility.yul\":8055:8081   */\n      swap1\n      pop\n        /* \"#utility.yul\":8127:8136   */\n      dup2\n        /* \"#utility.yul\":8121:8125   */\n      dup2\n        /* \"#utility.yul\":8117:8137   */\n      sub\n        /* \"#utility.yul\":8113:8114   */\n      0x00\n        /* \"#utility.yul\":8102:8111   */\n      dup4\n        /* \"#utility.yul\":8098:8115   */\n      add\n        /* \"#utility.yul\":8091:8138   */\n      mstore\n        /* \"#utility.yul\":8155:8286   */\n      tag_234\n        /* \"#utility.yul\":8281:8285   */\n      dup2\n        /* \"#utility.yul\":8155:8286   */\n      tag_146\n      jump\t// in\n    tag_234:\n        /* \"#utility.yul\":8147:8286   */\n      swap1\n      pop\n        /* \"#utility.yul\":7874:8293   */\n      swap2\n      swap1\n      pop\n      jump\t// out\n        /* \"#utility.yul\":8299:8477   */\n    tag_147:\n        /* \"#utility.yul\":8439:8469   */\n      0x5472616e73616374696f6e20616c726561647920657865637574656400000000\n        /* \"#utility.yul\":8435:8436   */\n      0x00\n        /* \"#utility.yul\":8427:8433   */\n      dup3\n        /* \"#utility.yul\":8423:8437   */\n      add\n        /* \"#utility.yul\":8416:8470   */\n      mstore\n        /* \"#utility.yul\":8299:8477   */\n      pop\n      jump\t// out\n        /* \"#utility.yul\":8483:8849   */\n    tag_148:\n        /* \"#utility.yul\":8625:8628   */\n      0x00\n        /* \"#utility.yul\":8646:8713   */\n      tag_237\n        /* \"#utility.yul\":8710:8712   */\n      0x1c\n        /* \"#utility.yul\":8705:8708   */\n      dup4\n        /* \"#utility.yul\":8646:8713   */\n      tag_139\n      jump\t// in\n    tag_237:\n        /* \"#utility.yul\":8639:8713   */\n      swap2\n      pop\n        /* \"#utility.yul\":8722:8815   */\n      tag_238\n        /* \"#utility.yul\":8811:8814   */\n      dup3\n        /* \"#utility.yul\":8722:8815   */\n      tag_147\n      jump\t// in\n    tag_238:\n        /* \"#utility.yul\":8840:8842   */\n      0x20\n        /* \"#utility.yul\":8835:8838   */\n      dup3\n        /* \"#utility.yul\":8831:8843   */\n      add\n        /* \"#utility.yul\":8824:8843   */\n      swap1\n      pop\n        /* \"#utility.yul\":8483:8849   */\n      swap2\n      swap1\n      pop\n      jump\t// out\n        /* \"#utility.yul\":8855:9274   */\n    tag_114:\n        /* \"#utility.yul\":9021:9025   */\n      0x00\n        /* \"#utility.yul\":9059:9061   */\n      0x20\n        /* \"#utility.yul\":9048:9057   */\n      dup3\n        /* \"#utility.yul\":9044:9062   */\n      add\n        /* \"#utility.yul\":9036:9062   */\n      swap1\n      pop\n        /* \"#utility.yul\":9108:9117   */\n      dup2\n        /* \"#utility.yul\":9102:9106   */\n      dup2\n        /* \"#utility.yul\":9098:9118   */\n      sub\n        /* \"#utility.yul\":9094:9095   */\n      0x00\n        /* \"#utility.yul\":9083:9092   */\n      dup4\n        /* \"#utility.yul\":9079:9096   */\n      add\n        /* \"#utility.yul\":9072:9119   */\n      mstore\n        /* \"#utility.yul\":9136:9267   */\n      tag_240\n        /* \"#utility.yul\":9262:9266   */\n      dup2\n        /* \"#utility.yul\":9136:9267   */\n      tag_148\n      jump\t// in\n    tag_240:\n        /* \"#utility.yul\":9128:9267   */\n      swap1\n      pop\n        /* \"#utility.yul\":8855:9274   */\n      swap2\n      swap1\n      pop\n      jump\t// out\n        /* \"#utility.yul\":9280:9427   */\n    tag_149:\n        /* \"#utility.yul\":9381:9392   */\n      0x00\n        /* \"#utility.yul\":9418:9421   */\n      dup2\n        /* \"#utility.yul\":9403:9421   */\n      swap1\n      pop\n        /* \"#utility.yul\":9280:9427   */\n      swap3\n      swap2\n      pop\n      pop\n      jump\t// out\n        /* \"#utility.yul\":9433:9547   */\n    tag_150:\n      pop\n      jump\t// out\n        /* \"#utility.yul\":9553:9951   */\n    tag_151:\n        /* \"#utility.yul\":9712:9715   */\n      0x00\n        /* \"#utility.yul\":9733:9816   */\n      tag_244\n        /* \"#utility.yul\":9814:9815   */\n      0x00\n        /* \"#utility.yul\":9809:9812   */\n      dup4\n        /* \"#utility.yul\":9733:9816   */\n      tag_149\n      jump\t// in\n    tag_244:\n        /* \"#utility.yul\":9726:9816   */\n      swap2\n      pop\n        /* \"#utility.yul\":9825:9918   */\n      tag_245\n        /* \"#utility.yul\":9914:9917   */\n      dup3\n        /* \"#utility.yul\":9825:9918   */\n      tag_150\n      jump\t// in\n    tag_245:\n        /* \"#utility.yul\":9943:9944   */\n      0x00\n        /* \"#utility.yul\":9938:9941   */\n      dup3\n        /* \"#utility.yul\":9934:9945   */\n      add\n        /* \"#utility.yul\":9927:9945   */\n      swap1\n      pop\n        /* \"#utility.yul\":9553:9951   */\n      swap2\n      swap1\n      pop\n      jump\t// out\n        /* \"#utility.yul\":9957:10336   */\n    tag_119:\n        /* \"#utility.yul\":10141:10144   */\n      0x00\n        /* \"#utility.yul\":10163:10310   */\n      tag_247\n        /* \"#utility.yul\":10306:10309   */\n      dup3\n        /* \"#utility.yul\":10163:10310   */\n      tag_151\n      jump\t// in\n    tag_247:\n        /* \"#utility.yul\":10156:10310   */\n      swap2\n      pop\n        /* \"#utility.yul\":10327:10330   */\n      dup2\n        /* \"#utility.yul\":10320:10330   */\n      swap1\n      pop\n        /* \"#utility.yul\":9957:10336   */\n      swap2\n      swap1\n      pop\n      jump\t// out\n\n    auxdata: 0xa2646970667358221220387c402d1ea4bb9bd8be96fe04cfe2a10a329ea43ad4b5d3406bffe56be1423264736f6c63430008190033\n}\n",
				"bytecode": {
					"linkReferences": {},
					"object": "608060405234801561000f575f80fd5b5060405161174538038061174583398181016040528101906100319190610487565b5f825111610074576040517f08c379a000000000000000000000000000000000000000000000000000000000815260040161006b9061053b565b60405180910390fd5b5f81118015610084575081518111155b6100c3576040517f08c379a00000000000000000000000000000000000000000000000000000000081526004016100ba906105c9565b60405180910390fd5b5f5b82518110156101d2575f73ffffffffffffffffffffffffffffffffffffffff168382815181106100f8576100f76105e7565b5b602002602001015173ffffffffffffffffffffffffffffffffffffffff1603610156576040517f08c379a000000000000000000000000000000000000000000000000000000000815260040161014d9061065e565b60405180910390fd5b600160025f85848151811061016e5761016d6105e7565b5b602002602001015173ffffffffffffffffffffffffffffffffffffffff1673ffffffffffffffffffffffffffffffffffffffff1681526020019081526020015f205f6101000a81548160ff02191690831515021790555080806001019150506100c5565b50815f90805190602001906101e89291906101f7565b5080600181905550505061067c565b828054828255905f5260205f2090810192821561026d579160200282015b8281111561026c578251825f6101000a81548173ffffffffffffffffffffffffffffffffffffffff021916908373ffffffffffffffffffffffffffffffffffffffff16021790555091602001919060010190610215565b5b50905061027a919061027e565b5090565b5b80821115610295575f815f90555060010161027f565b5090565b5f604051905090565b5f80fd5b5f80fd5b5f80fd5b5f601f19601f8301169050919050565b7f4e487b71000000000000000000000000000000000000000000000000000000005f52604160045260245ffd5b6102f4826102ae565b810181811067ffffffffffffffff82111715610313576103126102be565b5b80604052505050565b5f610325610299565b905061033182826102eb565b919050565b5f67ffffffffffffffff8211156103505761034f6102be565b5b602082029050602081019050919050565b5f80fd5b5f73ffffffffffffffffffffffffffffffffffffffff82169050919050565b5f61038e82610365565b9050919050565b61039e81610384565b81146103a8575f80fd5b50565b5f815190506103b981610395565b92915050565b5f6103d16103cc84610336565b61031c565b905080838252602082019050602084028301858111156103f4576103f3610361565b5b835b8181101561041d578061040988826103ab565b8452602084019350506020810190506103f6565b5050509392505050565b5f82601f83011261043b5761043a6102aa565b5b815161044b8482602086016103bf565b91505092915050565b5f819050919050565b61046681610454565b8114610470575f80fd5b50565b5f815190506104818161045d565b92915050565b5f806040838503121561049d5761049c6102a2565b5b5f83015167ffffffffffffffff8111156104ba576104b96102a6565b5b6104c685828601610427565b92505060206104d785828601610473565b9150509250929050565b5f82825260208201905092915050565b7f4f776e65727320726571756972656400000000000000000000000000000000005f82015250565b5f610525600f836104e1565b9150610530826104f1565b602082019050919050565b5f6020820190508181035f83015261055281610519565b9050919050565b7f496e76616c6964206e756d626572206f6620726571756972656420636f6e66695f8201527f726d6174696f6e73000000000000000000000000000000000000000000000000602082015250565b5f6105b36028836104e1565b91506105be82610559565b604082019050919050565b5f6020820190508181035f8301526105e0816105a7565b9050919050565b7f4e487b71000000000000000000000000000000000000000000000000000000005f52603260045260245ffd5b7f496e76616c6964206f776e6572000000000000000000000000000000000000005f82015250565b5f610648600d836104e1565b915061065382610614565b602082019050919050565b5f6020820190508181035f8301526106758161063c565b9050919050565b6110bc806106895f395ff3fe608060405260043610610094575f3560e01c80639ace38c2116100585780639ace38c214610219578063b77bf60014610257578063c01a8c8414610281578063dc8452cd146102a9578063ee22610b146102d3576100e9565b8063025e7c27146100ed5780631d43b653146101295780632f54bf6e146101655780633411c81c146101a1578063784547a7146101dd576100e9565b366100e9573373ffffffffffffffffffffffffffffffffffffffff167fe1fffcc4923d04b559f4d29a8bfc6cda04eb5b0d3c460751c2402c5c5cc9109c346040516100df9190610bbe565b60405180910390a2005b5f80fd5b3480156100f8575f80fd5b50610113600480360381019061010e9190610c05565b6102fb565b6040516101209190610c6f565b60405180910390f35b348015610134575f80fd5b5061014f600480360381019061014a9190610cb2565b610335565b60405161015c9190610bbe565b60405180910390f35b348015610170575f80fd5b5061018b60048036038101906101869190610cf0565b6104be565b6040516101989190610d35565b60405180910390f35b3480156101ac575f80fd5b506101c760048036038101906101c29190610d4e565b6104db565b6040516101d49190610d35565b60405180910390f35b3480156101e8575f80fd5b5061020360048036038101906101fe9190610c05565b610505565b6040516102109190610d35565b60405180910390f35b348015610224575f80fd5b5061023f600480360381019061023a9190610c05565b6105ec565b60405161024e93929190610d8c565b60405180910390f35b348015610262575f80fd5b5061026b61063d565b6040516102789190610bbe565b60405180910390f35b34801561028c575f80fd5b506102a760048036038101906102a29190610c05565b610643565b005b3480156102b4575f80fd5b506102bd6108bf565b6040516102ca9190610bbe565b60405180910390f35b3480156102de575f80fd5b506102f960048036038101906102f49190610c05565b6108c5565b005b5f8181548110610309575f80fd5b905f5260205f20015f915054906101000a900473ffffffffffffffffffffffffffffffffffffffff1681565b5f60025f3373ffffffffffffffffffffffffffffffffffffffff1673ffffffffffffffffffffffffffffffffffffffff1681526020019081526020015f205f9054906101000a900460ff166103bf576040517f08c379a00000000000000000000000000000000000000000000000000000000081526004016103b690610e1b565b60405180910390fd5b60055f8154809291906103d190610e66565b91905055905060405180606001604052808473ffffffffffffffffffffffffffffffffffffffff1681526020018381526020015f151581525060035f8381526020019081526020015f205f820151815f015f6101000a81548173ffffffffffffffffffffffffffffffffffffffff021916908373ffffffffffffffffffffffffffffffffffffffff160217905550602082015181600101556040820151816002015f6101000a81548160ff021916908315150217905550905050807fc0ba8fe4b176c1714197d43b9cc6bcf797a4a7461c5fe8d0ef6e184ae7601e5160405160405180910390a292915050565b6002602052805f5260405f205f915054906101000a900460ff1681565b6004602052815f5260405f20602052805f5260405f205f915091509054906101000a900460ff1681565b5f805f90505f5b5f805490508110156105e15760045f8581526020019081526020015f205f80838154811061053d5761053c610ead565b5b905f5260205f20015f9054906101000a900473ffffffffffffffffffffffffffffffffffffffff1673ffffffffffffffffffffffffffffffffffffffff1673ffffffffffffffffffffffffffffffffffffffff1681526020019081526020015f205f9054906101000a900460ff16156105c0576001826105bd9190610eda565b91505b60015482036105d4576001925050506105e7565b808060010191505061050c565b505f9150505b919050565b6003602052805f5260405f205f91509050805f015f9054906101000a900473ffffffffffffffffffffffffffffffffffffffff1690806001015490806002015f9054906101000a900460ff16905083565b60055481565b60025f3373ffffffffffffffffffffffffffffffffffffffff1673ffffffffffffffffffffffffffffffffffffffff1681526020019081526020015f205f9054906101000a900460ff166106cc576040517f08c379a00000000000000000000000000000000000000000000000000000000081526004016106c390610e1b565b60405180910390fd5b805f73ffffffffffffffffffffffffffffffffffffffff1660035f8381526020019081526020015f205f015f9054906101000a900473ffffffffffffffffffffffffffffffffffffffff1673ffffffffffffffffffffffffffffffffffffffff160361076d576040517f08c379a000000000000000000000000000000000000000000000000000000000815260040161076490610f57565b60405180910390fd5b813360045f8381526020019081526020015f205f8273ffffffffffffffffffffffffffffffffffffffff1673ffffffffffffffffffffffffffffffffffffffff1681526020019081526020015f205f9054906101000a900460ff1615610808576040517f08c379a00000000000000000000000000000000000000000000000000000000081526004016107ff90610fbf565b60405180910390fd5b600160045f8681526020019081526020015f205f3373ffffffffffffffffffffffffffffffffffffffff1673ffffffffffffffffffffffffffffffffffffffff1681526020019081526020015f205f6101000a81548160ff021916908315150217905550833373ffffffffffffffffffffffffffffffffffffffff167f4a504a94899432a9846e1aa406dceb1bcfd538bb839071d49d1e5e23f5be30ef60405160405180910390a36108b9846108c5565b50505050565b60015481565b60025f3373ffffffffffffffffffffffffffffffffffffffff1673ffffffffffffffffffffffffffffffffffffffff1681526020019081526020015f205f9054906101000a900460ff1661094e576040517f08c379a000000000000000000000000000000000000000000000000000000000815260040161094590610e1b565b60405180910390fd5b805f73ffffffffffffffffffffffffffffffffffffffff1660035f8381526020019081526020015f205f015f9054906101000a900473ffffffffffffffffffffffffffffffffffffffff1673ffffffffffffffffffffffffffffffffffffffff16036109ef576040517f08c379a00000000000000000000000000000000000000000000000000000000081526004016109e690610f57565b60405180910390fd5b8160035f8281526020019081526020015f206002015f9054906101000a900460ff1615610a51576040517f08c379a0000000000000000000000000000000000000000000000000000000008152600401610a4890611027565b60405180910390fd5b610a5a83610505565b15610ba1575f60035f8581526020019081526020015f2090506001816002015f6101000a81548160ff0219169083151502179055505f815f015f9054906101000a900473ffffffffffffffffffffffffffffffffffffffff1673ffffffffffffffffffffffffffffffffffffffff168260010154604051610ada90611072565b5f6040518083038185875af1925050503d805f8114610b14576040519150601f19603f3d011682016040523d82523d5f602084013e610b19565b606091505b505090508015610b5557847f33e13ecb54c3076d8e8bb8c2881800a4d972b792045ffae98fdf46df365fed7560405160405180910390a2610b9e565b847f526441bb6c1aba3c9a4a6ca1d6545da9c2333c8c48343ef398eb858d72b7923660405160405180910390a25f826002015f6101000a81548160ff0219169083151502179055505b50505b505050565b5f819050919050565b610bb881610ba6565b82525050565b5f602082019050610bd15f830184610baf565b92915050565b5f80fd5b610be481610ba6565b8114610bee575f80fd5b50565b5f81359050610bff81610bdb565b92915050565b5f60208284031215610c1a57610c19610bd7565b5b5f610c2784828501610bf1565b91505092915050565b5f73ffffffffffffffffffffffffffffffffffffffff82169050919050565b5f610c5982610c30565b9050919050565b610c6981610c4f565b82525050565b5f602082019050610c825f830184610c60565b92915050565b610c9181610c4f565b8114610c9b575f80fd5b50565b5f81359050610cac81610c88565b92915050565b5f8060408385031215610cc857610cc7610bd7565b5b5f610cd585828601610c9e565b9250506020610ce685828601610bf1565b9150509250929050565b5f60208284031215610d0557610d04610bd7565b5b5f610d1284828501610c9e565b91505092915050565b5f8115159050919050565b610d2f81610d1b565b82525050565b5f602082019050610d485f830184610d26565b92915050565b5f8060408385031215610d6457610d63610bd7565b5b5f610d7185828601610bf1565b9250506020610d8285828601610c9e565b9150509250929050565b5f606082019050610d9f5f830186610c60565b610dac6020830185610baf565b610db96040830184610d26565b949350505050565b5f82825260208201905092915050565b7f4e6f74206f776e657200000000000000000000000000000000000000000000005f82015250565b5f610e05600983610dc1565b9150610e1082610dd1565b602082019050919050565b5f6020820190508181035f830152610e3281610df9565b9050919050565b7f4e487b71000000000000000000000000000000000000000000000000000000005f52601160045260245ffd5b5f610e7082610ba6565b91507fffffffffffffffffffffffffffffffffffffffffffffffffffffffffffffffff8203610ea257610ea1610e39565b5b600182019050919050565b7f4e487b71000000000000000000000000000000000000000000000000000000005f52603260045260245ffd5b5f610ee482610ba6565b9150610eef83610ba6565b9250828201905080821115610f0757610f06610e39565b5b92915050565b7f5472616e73616374696f6e20646f6573206e6f742065786973740000000000005f82015250565b5f610f41601a83610dc1565b9150610f4c82610f0d565b602082019050919050565b5f6020820190508181035f830152610f6e81610f35565b9050919050565b7f5472616e73616374696f6e20616c726561647920636f6e6669726d65640000005f82015250565b5f610fa9601d83610dc1565b9150610fb482610f75565b602082019050919050565b5f6020820190508181035f830152610fd681610f9d565b9050919050565b7f5472616e73616374696f6e20616c7265616479206578656375746564000000005f82015250565b5f611011601c83610dc1565b915061101c82610fdd565b602082019050919050565b5f6020820190508181035f83015261103e81611005565b9050919050565b5f81905092915050565b50565b5f61105d5f83611045565b91506110688261104f565b5f82019050919050565b5f61107c82611052565b915081905091905056fea2646970667358221220387c402d1ea4bb9bd8be96fe04cfe2a10a329ea43ad4b5d3406bffe56be1423264736f6c63430008190033",
					"opcodes": "PUSH1 0x80 PUSH1 0x40 MSTORE CALLVALUE DUP1 ISZERO PUSH2 0xF JUMPI PUSH0 DUP1 REVERT JUMPDEST POP PUSH1 0x40 MLOAD PUSH2 0x1745 CODESIZE SUB DUP1 PUSH2 0x1745 DUP4 CODECOPY DUP2 DUP2 ADD PUSH1 0x40 MSTORE DUP2 ADD SWAP1 PUSH2 0x31 SWAP2 SWAP1 PUSH2 0x487 JUMP JUMPDEST PUSH0 DUP3 MLOAD GT PUSH2 0x74 JUMPI PUSH1 0x40 MLOAD PUSH32 0x8C379A000000000000000000000000000000000000000000000000000000000 DUP2 MSTORE PUSH1 0x4 ADD PUSH2 0x6B SWAP1 PUSH2 0x53B JUMP JUMPDEST PUSH1 0x40 MLOAD DUP1 SWAP2 SUB SWAP1 REVERT JUMPDEST PUSH0 DUP2 GT DUP1 ISZERO PUSH2 0x84 JUMPI POP DUP2 MLOAD DUP2 GT ISZERO JUMPDEST PUSH2 0xC3 JUMPI PUSH1 0x40 MLOAD PUSH32 0x8C379A000000000000000000000000000000000000000000000000000000000 DUP2 MSTORE PUSH1 0x4 ADD PUSH2 0xBA SWAP1 PUSH2 0x5C9 JUMP JUMPDEST PUSH1 0x40 MLOAD DUP1 SWAP2 SUB SWAP1 REVERT JUMPDEST PUSH0 JUMPDEST DUP3 MLOAD DUP2 LT ISZERO PUSH2 0x1D2 JUMPI PUSH0 PUSH20 0xFFFFFFFFFFFFFFFFFFFFFFFFFFFFFFFFFFFFFFFF AND DUP4 DUP3 DUP2 MLOAD DUP2 LT PUSH2 0xF8 JUMPI PUSH2 0xF7 PUSH2 0x5E7 JUMP JUMPDEST JUMPDEST PUSH1 0x20 MUL PUSH1 0x20 ADD ADD MLOAD PUSH20 0xFFFFFFFFFFFFFFFFFFFFFFFFFFFFFFFFFFFFFFFF AND SUB PUSH2 0x156 JUMPI PUSH1 0x40 MLOAD PUSH32 0x8C379A000000000000000000000000000000000000000000000000000000000 DUP2 MSTORE PUSH1 0x4 ADD PUSH2 0x14D SWAP1 PUSH2 0x65E JUMP JUMPDEST PUSH1 0x40 MLOAD DUP1 SWAP2 SUB SWAP1 REVERT JUMPDEST PUSH1 0x1 PUSH1 0x2 PUSH0 DUP6 DUP5 DUP2 MLOAD DUP2 LT PUSH2 0x16E JUMPI PUSH2 0x16D PUSH2 0x5E7 JUMP JUMPDEST JUMPDEST PUSH1 0x20 MUL PUSH1 0x20 ADD ADD MLOAD PUSH20 0xFFFFFFFFFFFFFFFFFFFFFFFFFFFFFFFFFFFFFFFF AND PUSH20 0xFFFFFFFFFFFFFFFFFFFFFFFFFFFFFFFFFFFFFFFF AND DUP2 MSTORE PUSH1 0x20 ADD SWAP1 DUP2 MSTORE PUSH1 0x20 ADD PUSH0 KECCAK256 PUSH0 PUSH2 0x100 EXP DUP2 SLOAD DUP2 PUSH1 0xFF MUL NOT AND SWAP1 DUP4 ISZERO ISZERO MUL OR SWAP1 SSTORE POP DUP1 DUP1 PUSH1 0x1 ADD SWAP2 POP POP PUSH2 0xC5 JUMP JUMPDEST POP DUP2 PUSH0 SWAP1 DUP1 MLOAD SWAP1 PUSH1 0x20 ADD SWAP1 PUSH2 0x1E8 SWAP3 SWAP2 SWAP1 PUSH2 0x1F7 JUMP JUMPDEST POP DUP1 PUSH1 0x1 DUP2 SWAP1 SSTORE POP POP POP PUSH2 0x67C JUMP JUMPDEST DUP3 DUP1 SLOAD DUP3 DUP3 SSTORE SWAP1 PUSH0 MSTORE PUSH1 0x20 PUSH0 KECCAK256 SWAP1 DUP2 ADD SWAP3 DUP3 ISZERO PUSH2 0x26D JUMPI SWAP2 PUSH1 0x20 MUL DUP3 ADD JUMPDEST DUP3 DUP2 GT ISZERO PUSH2 0x26C JUMPI DUP3 MLOAD DUP3 PUSH0 PUSH2 0x100 EXP DUP2 SLOAD DUP2 PUSH20 0xFFFFFFFFFFFFFFFFFFFFFFFFFFFFFFFFFFFFFFFF MUL NOT AND SWAP1 DUP4 PUSH20 0xFFFFFFFFFFFFFFFFFFFFFFFFFFFFFFFFFFFFFFFF AND MUL OR SWAP1 SSTORE POP SWAP2 PUSH1 0x20 ADD SWAP2 SWAP1 PUSH1 0x1 ADD SWAP1 PUSH2 0x215 JUMP JUMPDEST JUMPDEST POP SWAP1 POP PUSH2 0x27A SWAP2 SWAP1 PUSH2 0x27E JUMP JUMPDEST POP SWAP1 JUMP JUMPDEST JUMPDEST DUP1 DUP3 GT ISZERO PUSH2 0x295 JUMPI PUSH0 DUP2 PUSH0 SWAP1 SSTORE POP PUSH1 0x1 ADD PUSH2 0x27F JUMP JUMPDEST POP SWAP1 JUMP JUMPDEST PUSH0 PUSH1 0x40 MLOAD SWAP1 POP SWAP1 JUMP JUMPDEST PUSH0 DUP1 REVERT JUMPDEST PUSH0 DUP1 REVERT JUMPDEST PUSH0 DUP1 REVERT JUMPDEST PUSH0 PUSH1 0x1F NOT PUSH1 0x1F DUP4 ADD AND SWAP1 POP SWAP2 SWAP1 POP JUMP JUMPDEST PUSH32 0x4E487B7100000000000000000000000000000000000000000000000000000000 PUSH0 MSTORE PUSH1 0x41 PUSH1 0x4 MSTORE PUSH1 0x24 PUSH0 REVERT JUMPDEST PUSH2 0x2F4 DUP3 PUSH2 0x2AE JUMP JUMPDEST DUP2 ADD DUP2 DUP2 LT PUSH8 0xFFFFFFFFFFFFFFFF DUP3 GT OR ISZERO PUSH2 0x313 JUMPI PUSH2 0x312 PUSH2 0x2BE JUMP JUMPDEST JUMPDEST DUP1 PUSH1 0x40 MSTORE POP POP POP JUMP JUMPDEST PUSH0 PUSH2 0x325 PUSH2 0x299 JUMP JUMPDEST SWAP1 POP PUSH2 0x331 DUP3 DUP3 PUSH2 0x2EB JUMP JUMPDEST SWAP2 SWAP1 POP JUMP JUMPDEST PUSH0 PUSH8 0xFFFFFFFFFFFFFFFF DUP3 GT ISZERO PUSH2 0x350 JUMPI PUSH2 0x34F PUSH2 0x2BE JUMP JUMPDEST JUMPDEST PUSH1 0x20 DUP3 MUL SWAP1 POP PUSH1 0x20 DUP2 ADD SWAP1 POP SWAP2 SWAP1 POP JUMP JUMPDEST PUSH0 DUP1 REVERT JUMPDEST PUSH0 PUSH20 0xFFFFFFFFFFFFFFFFFFFFFFFFFFFFFFFFFFFFFFFF DUP3 AND SWAP1 POP SWAP2 SWAP1 POP JUMP JUMPDEST PUSH0 PUSH2 0x38E DUP3 PUSH2 0x365 JUMP JUMPDEST SWAP1 POP SWAP2 SWAP1 POP JUMP JUMPDEST PUSH2 0x39E DUP2 PUSH2 0x384 JUMP JUMPDEST DUP2 EQ PUSH2 0x3A8 JUMPI PUSH0 DUP1 REVERT JUMPDEST POP JUMP JUMPDEST PUSH0 DUP2 MLOAD SWAP1 POP PUSH2 0x3B9 DUP2 PUSH2 0x395 JUMP JUMPDEST SWAP3 SWAP2 POP POP JUMP JUMPDEST PUSH0 PUSH2 0x3D1 PUSH2 0x3CC DUP5 PUSH2 0x336 JUMP JUMPDEST PUSH2 0x31C JUMP JUMPDEST SWAP1 POP DUP1 DUP4 DUP3 MSTORE PUSH1 0x20 DUP3 ADD SWAP1 POP PUSH1 0x20 DUP5 MUL DUP4 ADD DUP6 DUP2 GT ISZERO PUSH2 0x3F4 JUMPI PUSH2 0x3F3 PUSH2 0x361 JUMP JUMPDEST JUMPDEST DUP4 JUMPDEST DUP2 DUP2 LT ISZERO PUSH2 0x41D JUMPI DUP1 PUSH2 0x409 DUP9 DUP3 PUSH2 0x3AB JUMP JUMPDEST DUP5 MSTORE PUSH1 0x20 DUP5 ADD SWAP4 POP POP PUSH1 0x20 DUP2 ADD SWAP1 POP PUSH2 0x3F6 JUMP JUMPDEST POP POP POP SWAP4 SWAP3 POP POP POP JUMP JUMPDEST PUSH0 DUP3 PUSH1 0x1F DUP4 ADD SLT PUSH2 0x43B JUMPI PUSH2 0x43A PUSH2 0x2AA JUMP JUMPDEST JUMPDEST DUP2 MLOAD PUSH2 0x44B DUP5 DUP3 PUSH1 0x20 DUP7 ADD PUSH2 0x3BF JUMP JUMPDEST SWAP2 POP POP SWAP3 SWAP2 POP POP JUMP JUMPDEST PUSH0 DUP2 SWAP1 POP SWAP2 SWAP1 POP JUMP JUMPDEST PUSH2 0x466 DUP2 PUSH2 0x454 JUMP JUMPDEST DUP2 EQ PUSH2 0x470 JUMPI PUSH0 DUP1 REVERT JUMPDEST POP JUMP JUMPDEST PUSH0 DUP2 MLOAD SWAP1 POP PUSH2 0x481 DUP2 PUSH2 0x45D JUMP JUMPDEST SWAP3 SWAP2 POP POP JUMP JUMPDEST PUSH0 DUP1 PUSH1 0x40 DUP4 DUP6 SUB SLT ISZERO PUSH2 0x49D JUMPI PUSH2 0x49C PUSH2 0x2A2 JUMP JUMPDEST JUMPDEST PUSH0 DUP4 ADD MLOAD PUSH8 0xFFFFFFFFFFFFFFFF DUP2 GT ISZERO PUSH2 0x4BA JUMPI PUSH2 0x4B9 PUSH2 0x2A6 JUMP JUMPDEST JUMPDEST PUSH2 0x4C6 DUP6 DUP3 DUP7 ADD PUSH2 0x427 JUMP JUMPDEST SWAP3 POP POP PUSH1 0x20 PUSH2 0x4D7 DUP6 DUP3 DUP7 ADD PUSH2 0x473 JUMP JUMPDEST SWAP2 POP POP SWAP3 POP SWAP3 SWAP1 POP JUMP JUMPDEST PUSH0 DUP3 DUP3 MSTORE PUSH1 0x20 DUP3 ADD SWAP1 POP SWAP3 SWAP2 POP POP JUMP JUMPDEST PUSH32 0x4F776E6572732072657175697265640000000000000000000000000000000000 PUSH0 DUP3 ADD MSTORE POP JUMP JUMPDEST PUSH0 PUSH2 0x525 PUSH1 0xF DUP4 PUSH2 0x4E1 JUMP JUMPDEST SWAP2 POP PUSH2 0x530 DUP3 PUSH2 0x4F1 JUMP JUMPDEST PUSH1 0x20 DUP3 ADD SWAP1 POP SWAP2 SWAP1 POP JUMP JUMPDEST PUSH0 PUSH1 0x20 DUP3 ADD SWAP1 POP DUP2 DUP2 SUB PUSH0 DUP4 ADD MSTORE PUSH2 0x552 DUP2 PUSH2 0x519 JUMP JUMPDEST SWAP1 POP SWAP2 SWAP1 POP JUMP JUMPDEST PUSH32 0x496E76616C6964206E756D626572206F6620726571756972656420636F6E6669 PUSH0 DUP3 ADD MSTORE PUSH32 0x726D6174696F6E73000000000000000000000000000000000000000000000000 PUSH1 0x20 DUP3 ADD MSTORE POP JUMP JUMPDEST PUSH0 PUSH2 0x5B3 PUSH1 0x28 DUP4 PUSH2 0x4E1 JUMP JUMPDEST SWAP2 POP PUSH2 0x5BE DUP3 PUSH2 0x559 JUMP JUMPDEST PUSH1 0x40 DUP3 ADD SWAP1 POP SWAP2 SWAP1 POP JUMP JUMPDEST PUSH0 PUSH1 0x20 DUP3 ADD SWAP1 POP DUP2 DUP2 SUB PUSH0 DUP4 ADD MSTORE PUSH2 0x5E0 DUP2 PUSH2 0x5A7 JUMP JUMPDEST SWAP1 POP SWAP2 SWAP1 POP JUMP JUMPDEST PUSH32 0x4E487B7100000000000000000000000000000000000000000000000000000000 PUSH0 MSTORE PUSH1 0x32 PUSH1 0x4 MSTORE PUSH1 0x24 PUSH0 REVERT JUMPDEST PUSH32 0x496E76616C6964206F776E657200000000000000000000000000000000000000 PUSH0 DUP3 ADD MSTORE POP JUMP JUMPDEST PUSH0 PUSH2 0x648 PUSH1 0xD DUP4 PUSH2 0x4E1 JUMP JUMPDEST SWAP2 POP PUSH2 0x653 DUP3 PUSH2 0x614 JUMP JUMPDEST PUSH1 0x20 DUP3 ADD SWAP1 POP SWAP2 SWAP1 POP JUMP JUMPDEST PUSH0 PUSH1 0x20 DUP3 ADD SWAP1 POP DUP2 DUP2 SUB PUSH0 DUP4 ADD MSTORE PUSH2 0x675 DUP2 PUSH2 0x63C JUMP JUMPDEST SWAP1 POP SWAP2 SWAP1 POP JUMP JUMPDEST PUSH2 0x10BC DUP1 PUSH2 0x689 PUSH0 CODECOPY PUSH0 RETURN INVALID PUSH1 0x80 PUSH1 0x40 MSTORE PUSH1 0x4 CALLDATASIZE LT PUSH2 0x94 JUMPI PUSH0 CALLDATALOAD PUSH1 0xE0 SHR DUP1 PUSH4 0x9ACE38C2 GT PUSH2 0x58 JUMPI DUP1 PUSH4 0x9ACE38C2 EQ PUSH2 0x219 JUMPI DUP1 PUSH4 0xB77BF600 EQ PUSH2 0x257 JUMPI DUP1 PUSH4 0xC01A8C84 EQ PUSH2 0x281 JUMPI DUP1 PUSH4 0xDC8452CD EQ PUSH2 0x2A9 JUMPI DUP1 PUSH4 0xEE22610B EQ PUSH2 0x2D3 JUMPI PUSH2 0xE9 JUMP JUMPDEST DUP1 PUSH4 0x25E7C27 EQ PUSH2 0xED JUMPI DUP1 PUSH4 0x1D43B653 EQ PUSH2 0x129 JUMPI DUP1 PUSH4 0x2F54BF6E EQ PUSH2 0x165 JUMPI DUP1 PUSH4 0x3411C81C EQ PUSH2 0x1A1 JUMPI DUP1 PUSH4 0x784547A7 EQ PUSH2 0x1DD JUMPI PUSH2 0xE9 JUMP JUMPDEST CALLDATASIZE PUSH2 0xE9 JUMPI CALLER PUSH20 0xFFFFFFFFFFFFFFFFFFFFFFFFFFFFFFFFFFFFFFFF AND PUSH32 0xE1FFFCC4923D04B559F4D29A8BFC6CDA04EB5B0D3C460751C2402C5C5CC9109C CALLVALUE PUSH1 0x40 MLOAD PUSH2 0xDF SWAP2 SWAP1 PUSH2 0xBBE JUMP JUMPDEST PUSH1 0x40 MLOAD DUP1 SWAP2 SUB SWAP1 LOG2 STOP JUMPDEST PUSH0 DUP1 REVERT JUMPDEST CALLVALUE DUP1 ISZERO PUSH2 0xF8 JUMPI PUSH0 DUP1 REVERT JUMPDEST POP PUSH2 0x113 PUSH1 0x4 DUP1 CALLDATASIZE SUB DUP2 ADD SWAP1 PUSH2 0x10E SWAP2 SWAP1 PUSH2 0xC05 JUMP JUMPDEST PUSH2 0x2FB JUMP JUMPDEST PUSH1 0x40 MLOAD PUSH2 0x120 SWAP2 SWAP1 PUSH2 0xC6F JUMP JUMPDEST PUSH1 0x40 MLOAD DUP1 SWAP2 SUB SWAP1 RETURN JUMPDEST CALLVALUE DUP1 ISZERO PUSH2 0x134 JUMPI PUSH0 DUP1 REVERT JUMPDEST POP PUSH2 0x14F PUSH1 0x4 DUP1 CALLDATASIZE SUB DUP2 ADD SWAP1 PUSH2 0x14A SWAP2 SWAP1 PUSH2 0xCB2 JUMP JUMPDEST PUSH2 0x335 JUMP JUMPDEST PUSH1 0x40 MLOAD PUSH2 0x15C SWAP2 SWAP1 PUSH2 0xBBE JUMP JUMPDEST PUSH1 0x40 MLOAD DUP1 SWAP2 SUB SWAP1 RETURN JUMPDEST CALLVALUE DUP1 ISZERO PUSH2 0x170 JUMPI PUSH0 DUP1 REVERT JUMPDEST POP PUSH2 0x18B PUSH1 0x4 DUP1 CALLDATASIZE SUB DUP2 ADD SWAP1 PUSH2 0x186 SWAP2 SWAP1 PUSH2 0xCF0 JUMP JUMPDEST PUSH2 0x4BE JUMP JUMPDEST PUSH1 0x40 MLOAD PUSH2 0x198 SWAP2 SWAP1 PUSH2 0xD35 JUMP JUMPDEST PUSH1 0x40 MLOAD DUP1 SWAP2 SUB SWAP1 RETURN JUMPDEST CALLVALUE DUP1 ISZERO PUSH2 0x1AC JUMPI PUSH0 DUP1 REVERT JUMPDEST POP PUSH2 0x1C7 PUSH1 0x4 DUP1 CALLDATASIZE SUB DUP2 ADD SWAP1 PUSH2 0x1C2 SWAP2 SWAP1 PUSH2 0xD4E JUMP JUMPDEST PUSH2 0x4DB JUMP JUMPDEST PUSH1 0x40 MLOAD PUSH2 0x1D4 SWAP2 SWAP1 PUSH2 0xD35 JUMP JUMPDEST PUSH1 0x40 MLOAD DUP1 SWAP2 SUB SWAP1 RETURN JUMPDEST CALLVALUE DUP1 ISZERO PUSH2 0x1E8 JUMPI PUSH0 DUP1 REVERT JUMPDEST POP PUSH2 0x203 PUSH1 0x4 DUP1 CALLDATASIZE SUB DUP2 ADD SWAP1 PUSH2 0x1FE SWAP2 SWAP1 PUSH2 0xC05 JUMP JUMPDEST PUSH2 0x505 JUMP JUMPDEST PUSH1 0x40 MLOAD PUSH2 0x210 SWAP2 SWAP1 PUSH2 0xD35 JUMP JUMPDEST PUSH1 0x40 MLOAD DUP1 SWAP2 SUB SWAP1 RETURN JUMPDEST CALLVALUE DUP1 ISZERO PUSH2 0x224 JUMPI PUSH0 DUP1 REVERT JUMPDEST POP PUSH2 0x23F PUSH1 0x4 DUP1 CALLDATASIZE SUB DUP2 ADD SWAP1 PUSH2 0x23A SWAP2 SWAP1 PUSH2 0xC05 JUMP JUMPDEST PUSH2 0x5EC JUMP JUMPDEST PUSH1 0x40 MLOAD PUSH2 0x24E SWAP4 SWAP3 SWAP2 SWAP1 PUSH2 0xD8C JUMP JUMPDEST PUSH1 0x40 MLOAD DUP1 SWAP2 SUB SWAP1 RETURN JUMPDEST CALLVALUE DUP1 ISZERO PUSH2 0x262 JUMPI PUSH0 DUP1 REVERT JUMPDEST POP PUSH2 0x26B PUSH2 0x63D JUMP JUMPDEST PUSH1 0x40 MLOAD PUSH2 0x278 SWAP2 SWAP1 PUSH2 0xBBE JUMP JUMPDEST PUSH1 0x40 MLOAD DUP1 SWAP2 SUB SWAP1 RETURN JUMPDEST CALLVALUE DUP1 ISZERO PUSH2 0x28C JUMPI PUSH0 DUP1 REVERT JUMPDEST POP PUSH2 0x2A7 PUSH1 0x4 DUP1 CALLDATASIZE SUB DUP2 ADD SWAP1 PUSH2 0x2A2 SWAP2 SWAP1 PUSH2 0xC05 JUMP JUMPDEST PUSH2 0x643 JUMP JUMPDEST STOP JUMPDEST CALLVALUE DUP1 ISZERO PUSH2 0x2B4 JUMPI PUSH0 DUP1 REVERT JUMPDEST POP PUSH2 0x2BD PUSH2 0x8BF JUMP JUMPDEST PUSH1 0x40 MLOAD PUSH2 0x2CA SWAP2 SWAP1 PUSH2 0xBBE JUMP JUMPDEST PUSH1 0x40 MLOAD DUP1 SWAP2 SUB SWAP1 RETURN JUMPDEST CALLVALUE DUP1 ISZERO PUSH2 0x2DE JUMPI PUSH0 DUP1 REVERT JUMPDEST POP PUSH2 0x2F9 PUSH1 0x4 DUP1 CALLDATASIZE SUB DUP2 ADD SWAP1 PUSH2 0x2F4 SWAP2 SWAP1 PUSH2 0xC05 JUMP JUMPDEST PUSH2 0x8C5 JUMP JUMPDEST STOP JUMPDEST PUSH0 DUP2 DUP2 SLOAD DUP2 LT PUSH2 0x309 JUMPI PUSH0 DUP1 REVERT JUMPDEST SWAP1 PUSH0 MSTORE PUSH1 0x20 PUSH0 KECCAK256 ADD PUSH0 SWAP2 POP SLOAD SWAP1 PUSH2 0x100 EXP SWAP1 DIV PUSH20 0xFFFFFFFFFFFFFFFFFFFFFFFFFFFFFFFFFFFFFFFF AND DUP2 JUMP JUMPDEST PUSH0 PUSH1 0x2 PUSH0 CALLER PUSH20 0xFFFFFFFFFFFFFFFFFFFFFFFFFFFFFFFFFFFFFFFF AND PUSH20 0xFFFFFFFFFFFFFFFFFFFFFFFFFFFFFFFFFFFFFFFF AND DUP2 MSTORE PUSH1 0x20 ADD SWAP1 DUP2 MSTORE PUSH1 0x20 ADD PUSH0 KECCAK256 PUSH0 SWAP1 SLOAD SWAP1 PUSH2 0x100 EXP SWAP1 DIV PUSH1 0xFF AND PUSH2 0x3BF JUMPI PUSH1 0x40 MLOAD PUSH32 0x8C379A000000000000000000000000000000000000000000000000000000000 DUP2 MSTORE PUSH1 0x4 ADD PUSH2 0x3B6 SWAP1 PUSH2 0xE1B JUMP JUMPDEST PUSH1 0x40 MLOAD DUP1 SWAP2 SUB SWAP1 REVERT JUMPDEST PUSH1 0x5 PUSH0 DUP2 SLOAD DUP1 SWAP3 SWAP2 SWAP1 PUSH2 0x3D1 SWAP1 PUSH2 0xE66 JUMP JUMPDEST SWAP2 SWAP1 POP SSTORE SWAP1 POP PUSH1 0x40 MLOAD DUP1 PUSH1 0x60 ADD PUSH1 0x40 MSTORE DUP1 DUP5 PUSH20 0xFFFFFFFFFFFFFFFFFFFFFFFFFFFFFFFFFFFFFFFF AND DUP2 MSTORE PUSH1 0x20 ADD DUP4 DUP2 MSTORE PUSH1 0x20 ADD PUSH0 ISZERO ISZERO DUP2 MSTORE POP PUSH1 0x3 PUSH0 DUP4 DUP2 MSTORE PUSH1 0x20 ADD SWAP1 DUP2 MSTORE PUSH1 0x20 ADD PUSH0 KECCAK256 PUSH0 DUP3 ADD MLOAD DUP2 PUSH0 ADD PUSH0 PUSH2 0x100 EXP DUP2 SLOAD DUP2 PUSH20 0xFFFFFFFFFFFFFFFFFFFFFFFFFFFFFFFFFFFFFFFF MUL NOT AND SWAP1 DUP4 PUSH20 0xFFFFFFFFFFFFFFFFFFFFFFFFFFFFFFFFFFFFFFFF AND MUL OR SWAP1 SSTORE POP PUSH1 0x20 DUP3 ADD MLOAD DUP2 PUSH1 0x1 ADD SSTORE PUSH1 0x40 DUP3 ADD MLOAD DUP2 PUSH1 0x2 ADD PUSH0 PUSH2 0x100 EXP DUP2 SLOAD DUP2 PUSH1 0xFF MUL NOT AND SWAP1 DUP4 ISZERO ISZERO MUL OR SWAP1 SSTORE POP SWAP1 POP POP DUP1 PUSH32 0xC0BA8FE4B176C1714197D43B9CC6BCF797A4A7461C5FE8D0EF6E184AE7601E51 PUSH1 0x40 MLOAD PUSH1 0x40 MLOAD DUP1 SWAP2 SUB SWAP1 LOG2 SWAP3 SWAP2 POP POP JUMP JUMPDEST PUSH1 0x2 PUSH1 0x20 MSTORE DUP1 PUSH0 MSTORE PUSH1 0x40 PUSH0 KECCAK256 PUSH0 SWAP2 POP SLOAD SWAP1 PUSH2 0x100 EXP SWAP1 DIV PUSH1 0xFF AND DUP2 JUMP JUMPDEST PUSH1 0x4 PUSH1 0x20 MSTORE DUP2 PUSH0 MSTORE PUSH1 0x40 PUSH0 KECCAK256 PUSH1 0x20 MSTORE DUP1 PUSH0 MSTORE PUSH1 0x40 PUSH0 KECCAK256 PUSH0 SWAP2 POP SWAP2 POP SWAP1 SLOAD SWAP1 PUSH2 0x100 EXP SWAP1 DIV PUSH1 0xFF AND DUP2 JUMP JUMPDEST PUSH0 DUP1 PUSH0 SWAP1 POP PUSH0 JUMPDEST PUSH0 DUP1 SLOAD SWAP1 POP DUP2 LT ISZERO PUSH2 0x5E1 JUMPI PUSH1 0x4 PUSH0 DUP6 DUP2 MSTORE PUSH1 0x20 ADD SWAP1 DUP2 MSTORE PUSH1 0x20 ADD PUSH0 KECCAK256 PUSH0 DUP1 DUP4 DUP2 SLOAD DUP2 LT PUSH2 0x53D JUMPI PUSH2 0x53C PUSH2 0xEAD JUMP JUMPDEST JUMPDEST SWAP1 PUSH0 MSTORE PUSH1 0x20 PUSH0 KECCAK256 ADD PUSH0 SWAP1 SLOAD SWAP1 PUSH2 0x100 EXP SWAP1 DIV PUSH20 0xFFFFFFFFFFFFFFFFFFFFFFFFFFFFFFFFFFFFFFFF AND PUSH20 0xFFFFFFFFFFFFFFFFFFFFFFFFFFFFFFFFFFFFFFFF AND PUSH20 0xFFFFFFFFFFFFFFFFFFFFFFFFFFFFFFFFFFFFFFFF AND DUP2 MSTORE PUSH1 0x20 ADD SWAP1 DUP2 MSTORE PUSH1 0x20 ADD PUSH0 KECCAK256 PUSH0 SWAP1 SLOAD SWAP1 PUSH2 0x100 EXP SWAP1 DIV PUSH1 0xFF AND ISZERO PUSH2 0x5C0 JUMPI PUSH1 0x1 DUP3 PUSH2 0x5BD SWAP2 SWAP1 PUSH2 0xEDA JUMP JUMPDEST SWAP2 POP JUMPDEST PUSH1 0x1 SLOAD DUP3 SUB PUSH2 0x5D4 JUMPI PUSH1 0x1 SWAP3 POP POP POP PUSH2 0x5E7 JUMP JUMPDEST DUP1 DUP1 PUSH1 0x1 ADD SWAP2 POP POP PUSH2 0x50C JUMP JUMPDEST POP PUSH0 SWAP2 POP POP JUMPDEST SWAP2 SWAP1 POP JUMP JUMPDEST PUSH1 0x3 PUSH1 0x20 MSTORE DUP1 PUSH0 MSTORE PUSH1 0x40 PUSH0 KECCAK256 PUSH0 SWAP2 POP SWAP1 POP DUP1 PUSH0 ADD PUSH0 SWAP1 SLOAD SWAP1 PUSH2 0x100 EXP SWAP1 DIV PUSH20 0xFFFFFFFFFFFFFFFFFFFFFFFFFFFFFFFFFFFFFFFF AND SWAP1 DUP1 PUSH1 0x1 ADD SLOAD SWAP1 DUP1 PUSH1 0x2 ADD PUSH0 SWAP1 SLOAD SWAP1 PUSH2 0x100 EXP SWAP1 DIV PUSH1 0xFF AND SWAP1 POP DUP4 JUMP JUMPDEST PUSH1 0x5 SLOAD DUP2 JUMP JUMPDEST PUSH1 0x2 PUSH0 CALLER PUSH20 0xFFFFFFFFFFFFFFFFFFFFFFFFFFFFFFFFFFFFFFFF AND PUSH20 0xFFFFFFFFFFFFFFFFFFFFFFFFFFFFFFFFFFFFFFFF AND DUP2 MSTORE PUSH1 0x20 ADD SWAP1 DUP2 MSTORE PUSH1 0x20 ADD PUSH0 KECCAK256 PUSH0 SWAP1 SLOAD SWAP1 PUSH2 0x100 EXP SWAP1 DIV PUSH1 0xFF AND PUSH2 0x6CC JUMPI PUSH1 0x40 MLOAD PUSH32 0x8C379A000000000000000000000000000000000000000000000000000000000 DUP2 MSTORE PUSH1 0x4 ADD PUSH2 0x6C3 SWAP1 PUSH2 0xE1B JUMP JUMPDEST PUSH1 0x40 MLOAD DUP1 SWAP2 SUB SWAP1 REVERT JUMPDEST DUP1 PUSH0 PUSH20 0xFFFFFFFFFFFFFFFFFFFFFFFFFFFFFFFFFFFFFFFF AND PUSH1 0x3 PUSH0 DUP4 DUP2 MSTORE PUSH1 0x20 ADD SWAP1 DUP2 MSTORE PUSH1 0x20 ADD PUSH0 KECCAK256 PUSH0 ADD PUSH0 SWAP1 SLOAD SWAP1 PUSH2 0x100 EXP SWAP1 DIV PUSH20 0xFFFFFFFFFFFFFFFFFFFFFFFFFFFFFFFFFFFFFFFF AND PUSH20 0xFFFFFFFFFFFFFFFFFFFFFFFFFFFFFFFFFFFFFFFF AND SUB PUSH2 0x76D JUMPI PUSH1 0x40 MLOAD PUSH32 0x8C379A000000000000000000000000000000000000000000000000000000000 DUP2 MSTORE PUSH1 0x4 ADD PUSH2 0x764 SWAP1 PUSH2 0xF57 JUMP JUMPDEST PUSH1 0x40 MLOAD DUP1 SWAP2 SUB SWAP1 REVERT JUMPDEST DUP2 CALLER PUSH1 0x4 PUSH0 DUP4 DUP2 MSTORE PUSH1 0x20 ADD SWAP1 DUP2 MSTORE PUSH1 0x20 ADD PUSH0 KECCAK256 PUSH0 DUP3 PUSH20 0xFFFFFFFFFFFFFFFFFFFFFFFFFFFFFFFFFFFFFFFF AND PUSH20 0xFFFFFFFFFFFFFFFFFFFFFFFFFFFFFFFFFFFFFFFF AND DUP2 MSTORE PUSH1 0x20 ADD SWAP1 DUP2 MSTORE PUSH1 0x20 ADD PUSH0 KECCAK256 PUSH0 SWAP1 SLOAD SWAP1 PUSH2 0x100 EXP SWAP1 DIV PUSH1 0xFF AND ISZERO PUSH2 0x808 JUMPI PUSH1 0x40 MLOAD PUSH32 0x8C379A000000000000000000000000000000000000000000000000000000000 DUP2 MSTORE PUSH1 0x4 ADD PUSH2 0x7FF SWAP1 PUSH2 0xFBF JUMP JUMPDEST PUSH1 0x40 MLOAD DUP1 SWAP2 SUB SWAP1 REVERT JUMPDEST PUSH1 0x1 PUSH1 0x4 PUSH0 DUP7 DUP2 MSTORE PUSH1 0x20 ADD SWAP1 DUP2 MSTORE PUSH1 0x20 ADD PUSH0 KECCAK256 PUSH0 CALLER PUSH20 0xFFFFFFFFFFFFFFFFFFFFFFFFFFFFFFFFFFFFFFFF AND PUSH20 0xFFFFFFFFFFFFFFFFFFFFFFFFFFFFFFFFFFFFFFFF AND DUP2 MSTORE PUSH1 0x20 ADD SWAP1 DUP2 MSTORE PUSH1 0x20 ADD PUSH0 KECCAK256 PUSH0 PUSH2 0x100 EXP DUP2 SLOAD DUP2 PUSH1 0xFF MUL NOT AND SWAP1 DUP4 ISZERO ISZERO MUL OR SWAP1 SSTORE POP DUP4 CALLER PUSH20 0xFFFFFFFFFFFFFFFFFFFFFFFFFFFFFFFFFFFFFFFF AND PUSH32 0x4A504A94899432A9846E1AA406DCEB1BCFD538BB839071D49D1E5E23F5BE30EF PUSH1 0x40 MLOAD PUSH1 0x40 MLOAD DUP1 SWAP2 SUB SWAP1 LOG3 PUSH2 0x8B9 DUP5 PUSH2 0x8C5 JUMP JUMPDEST POP POP POP POP JUMP JUMPDEST PUSH1 0x1 SLOAD DUP2 JUMP JUMPDEST PUSH1 0x2 PUSH0 CALLER PUSH20 0xFFFFFFFFFFFFFFFFFFFFFFFFFFFFFFFFFFFFFFFF AND PUSH20 0xFFFFFFFFFFFFFFFFFFFFFFFFFFFFFFFFFFFFFFFF AND DUP2 MSTORE PUSH1 0x20 ADD SWAP1 DUP2 MSTORE PUSH1 0x20 ADD PUSH0 KECCAK256 PUSH0 SWAP1 SLOAD SWAP1 PUSH2 0x100 EXP SWAP1 DIV PUSH1 0xFF AND PUSH2 0x94E JUMPI PUSH1 0x40 MLOAD PUSH32 0x8C379A000000000000000000000000000000000000000000000000000000000 DUP2 MSTORE PUSH1 0x4 ADD PUSH2 0x945 SWAP1 PUSH2 0xE1B JUMP JUMPDEST PUSH1 0x40 MLOAD DUP1 SWAP2 SUB SWAP1 REVERT JUMPDEST DUP1 PUSH0 PUSH20 0xFFFFFFFFFFFFFFFFFFFFFFFFFFFFFFFFFFFFFFFF AND PUSH1 0x3 PUSH0 DUP4 DUP2 MSTORE PUSH1 0x20 ADD SWAP1 DUP2 MSTORE PUSH1 0x20 ADD PUSH0 KECCAK256 PUSH0 ADD PUSH0 SWAP1 SLOAD SWAP1 PUSH2 0x100 EXP SWAP1 DIV PUSH20 0xFFFFFFFFFFFFFFFFFFFFFFFFFFFFFFFFFFFFFFFF AND PUSH20 0xFFFFFFFFFFFFFFFFFFFFFFFFFFFFFFFFFFFFFFFF AND SUB PUSH2 0x9EF JUMPI PUSH1 0x40 MLOAD PUSH32 0x8C379A000000000000000000000000000000000000000000000000000000000 DUP2 MSTORE PUSH1 0x4 ADD PUSH2 0x9E6 SWAP1 PUSH2 0xF57 JUMP JUMPDEST PUSH1 0x40 MLOAD DUP1 SWAP2 SUB SWAP1 REVERT JUMPDEST DUP2 PUSH1 0x3 PUSH0 DUP3 DUP2 MSTORE PUSH1 0x20 ADD SWAP1 DUP2 MSTORE PUSH1 0x20 ADD PUSH0 KECCAK256 PUSH1 0x2 ADD PUSH0 SWAP1 SLOAD SWAP1 PUSH2 0x100 EXP SWAP1 DIV PUSH1 0xFF AND ISZERO PUSH2 0xA51 JUMPI PUSH1 0x40 MLOAD PUSH32 0x8C379A000000000000000000000000000000000000000000000000000000000 DUP2 MSTORE PUSH1 0x4 ADD PUSH2 0xA48 SWAP1 PUSH2 0x1027 JUMP JUMPDEST PUSH1 0x40 MLOAD DUP1 SWAP2 SUB SWAP1 REVERT JUMPDEST PUSH2 0xA5A DUP4 PUSH2 0x505 JUMP JUMPDEST ISZERO PUSH2 0xBA1 JUMPI PUSH0 PUSH1 0x3 PUSH0 DUP6 DUP2 MSTORE PUSH1 0x20 ADD SWAP1 DUP2 MSTORE PUSH1 0x20 ADD PUSH0 KECCAK256 SWAP1 POP PUSH1 0x1 DUP2 PUSH1 0x2 ADD PUSH0 PUSH2 0x100 EXP DUP2 SLOAD DUP2 PUSH1 0xFF MUL NOT AND SWAP1 DUP4 ISZERO ISZERO MUL OR SWAP1 SSTORE POP PUSH0 DUP2 PUSH0 ADD PUSH0 SWAP1 SLOAD SWAP1 PUSH2 0x100 EXP SWAP1 DIV PUSH20 0xFFFFFFFFFFFFFFFFFFFFFFFFFFFFFFFFFFFFFFFF AND PUSH20 0xFFFFFFFFFFFFFFFFFFFFFFFFFFFFFFFFFFFFFFFF AND DUP3 PUSH1 0x1 ADD SLOAD PUSH1 0x40 MLOAD PUSH2 0xADA SWAP1 PUSH2 0x1072 JUMP JUMPDEST PUSH0 PUSH1 0x40 MLOAD DUP1 DUP4 SUB DUP2 DUP6 DUP8 GAS CALL SWAP3 POP POP POP RETURNDATASIZE DUP1 PUSH0 DUP2 EQ PUSH2 0xB14 JUMPI PUSH1 0x40 MLOAD SWAP2 POP PUSH1 0x1F NOT PUSH1 0x3F RETURNDATASIZE ADD AND DUP3 ADD PUSH1 0x40 MSTORE RETURNDATASIZE DUP3 MSTORE RETURNDATASIZE PUSH0 PUSH1 0x20 DUP5 ADD RETURNDATACOPY PUSH2 0xB19 JUMP JUMPDEST PUSH1 0x60 SWAP2 POP JUMPDEST POP POP SWAP1 POP DUP1 ISZERO PUSH2 0xB55 JUMPI DUP5 PUSH32 0x33E13ECB54C3076D8E8BB8C2881800A4D972B792045FFAE98FDF46DF365FED75 PUSH1 0x40 MLOAD PUSH1 0x40 MLOAD DUP1 SWAP2 SUB SWAP1 LOG2 PUSH2 0xB9E JUMP JUMPDEST DUP5 PUSH32 0x526441BB6C1ABA3C9A4A6CA1D6545DA9C2333C8C48343EF398EB858D72B79236 PUSH1 0x40 MLOAD PUSH1 0x40 MLOAD DUP1 SWAP2 SUB SWAP1 LOG2 PUSH0 DUP3 PUSH1 0x2 ADD PUSH0 PUSH2 0x100 EXP DUP2 SLOAD DUP2 PUSH1 0xFF MUL NOT AND SWAP1 DUP4 ISZERO ISZERO MUL OR SWAP1 SSTORE POP JUMPDEST POP POP JUMPDEST POP POP POP JUMP JUMPDEST PUSH0 DUP2 SWAP1 POP SWAP2 SWAP1 POP JUMP JUMPDEST PUSH2 0xBB8 DUP2 PUSH2 0xBA6 JUMP JUMPDEST DUP3 MSTORE POP POP JUMP JUMPDEST PUSH0 PUSH1 0x20 DUP3 ADD SWAP1 POP PUSH2 0xBD1 PUSH0 DUP4 ADD DUP5 PUSH2 0xBAF JUMP JUMPDEST SWAP3 SWAP2 POP POP JUMP JUMPDEST PUSH0 DUP1 REVERT JUMPDEST PUSH2 0xBE4 DUP2 PUSH2 0xBA6 JUMP JUMPDEST DUP2 EQ PUSH2 0xBEE JUMPI PUSH0 DUP1 REVERT JUMPDEST POP JUMP JUMPDEST PUSH0 DUP2 CALLDATALOAD SWAP1 POP PUSH2 0xBFF DUP2 PUSH2 0xBDB JUMP JUMPDEST SWAP3 SWAP2 POP POP JUMP JUMPDEST PUSH0 PUSH1 0x20 DUP3 DUP5 SUB SLT ISZERO PUSH2 0xC1A JUMPI PUSH2 0xC19 PUSH2 0xBD7 JUMP JUMPDEST JUMPDEST PUSH0 PUSH2 0xC27 DUP5 DUP3 DUP6 ADD PUSH2 0xBF1 JUMP JUMPDEST SWAP2 POP POP SWAP3 SWAP2 POP POP JUMP JUMPDEST PUSH0 PUSH20 0xFFFFFFFFFFFFFFFFFFFFFFFFFFFFFFFFFFFFFFFF DUP3 AND SWAP1 POP SWAP2 SWAP1 POP JUMP JUMPDEST PUSH0 PUSH2 0xC59 DUP3 PUSH2 0xC30 JUMP JUMPDEST SWAP1 POP SWAP2 SWAP1 POP JUMP JUMPDEST PUSH2 0xC69 DUP2 PUSH2 0xC4F JUMP JUMPDEST DUP3 MSTORE POP POP JUMP JUMPDEST PUSH0 PUSH1 0x20 DUP3 ADD SWAP1 POP PUSH2 0xC82 PUSH0 DUP4 ADD DUP5 PUSH2 0xC60 JUMP JUMPDEST SWAP3 SWAP2 POP POP JUMP JUMPDEST PUSH2 0xC91 DUP2 PUSH2 0xC4F JUMP JUMPDEST DUP2 EQ PUSH2 0xC9B JUMPI PUSH0 DUP1 REVERT JUMPDEST POP JUMP JUMPDEST PUSH0 DUP2 CALLDATALOAD SWAP1 POP PUSH2 0xCAC DUP2 PUSH2 0xC88 JUMP JUMPDEST SWAP3 SWAP2 POP POP JUMP JUMPDEST PUSH0 DUP1 PUSH1 0x40 DUP4 DUP6 SUB SLT ISZERO PUSH2 0xCC8 JUMPI PUSH2 0xCC7 PUSH2 0xBD7 JUMP JUMPDEST JUMPDEST PUSH0 PUSH2 0xCD5 DUP6 DUP3 DUP7 ADD PUSH2 0xC9E JUMP JUMPDEST SWAP3 POP POP PUSH1 0x20 PUSH2 0xCE6 DUP6 DUP3 DUP7 ADD PUSH2 0xBF1 JUMP JUMPDEST SWAP2 POP POP SWAP3 POP SWAP3 SWAP1 POP JUMP JUMPDEST PUSH0 PUSH1 0x20 DUP3 DUP5 SUB SLT ISZERO PUSH2 0xD05 JUMPI PUSH2 0xD04 PUSH2 0xBD7 JUMP JUMPDEST JUMPDEST PUSH0 PUSH2 0xD12 DUP5 DUP3 DUP6 ADD PUSH2 0xC9E JUMP JUMPDEST SWAP2 POP POP SWAP3 SWAP2 POP POP JUMP JUMPDEST PUSH0 DUP2 ISZERO ISZERO SWAP1 POP SWAP2 SWAP1 POP JUMP JUMPDEST PUSH2 0xD2F DUP2 PUSH2 0xD1B JUMP JUMPDEST DUP3 MSTORE POP POP JUMP JUMPDEST PUSH0 PUSH1 0x20 DUP3 ADD SWAP1 POP PUSH2 0xD48 PUSH0 DUP4 ADD DUP5 PUSH2 0xD26 JUMP JUMPDEST SWAP3 SWAP2 POP POP JUMP JUMPDEST PUSH0 DUP1 PUSH1 0x40 DUP4 DUP6 SUB SLT ISZERO PUSH2 0xD64 JUMPI PUSH2 0xD63 PUSH2 0xBD7 JUMP JUMPDEST JUMPDEST PUSH0 PUSH2 0xD71 DUP6 DUP3 DUP7 ADD PUSH2 0xBF1 JUMP JUMPDEST SWAP3 POP POP PUSH1 0x20 PUSH2 0xD82 DUP6 DUP3 DUP7 ADD PUSH2 0xC9E JUMP JUMPDEST SWAP2 POP POP SWAP3 POP SWAP3 SWAP1 POP JUMP JUMPDEST PUSH0 PUSH1 0x60 DUP3 ADD SWAP1 POP PUSH2 0xD9F PUSH0 DUP4 ADD DUP7 PUSH2 0xC60 JUMP JUMPDEST PUSH2 0xDAC PUSH1 0x20 DUP4 ADD DUP6 PUSH2 0xBAF JUMP JUMPDEST PUSH2 0xDB9 PUSH1 0x40 DUP4 ADD DUP5 PUSH2 0xD26 JUMP JUMPDEST SWAP5 SWAP4 POP POP POP POP JUMP JUMPDEST PUSH0 DUP3 DUP3 MSTORE PUSH1 0x20 DUP3 ADD SWAP1 POP SWAP3 SWAP2 POP POP JUMP JUMPDEST PUSH32 0x4E6F74206F776E65720000000000000000000000000000000000000000000000 PUSH0 DUP3 ADD MSTORE POP JUMP JUMPDEST PUSH0 PUSH2 0xE05 PUSH1 0x9 DUP4 PUSH2 0xDC1 JUMP JUMPDEST SWAP2 POP PUSH2 0xE10 DUP3 PUSH2 0xDD1 JUMP JUMPDEST PUSH1 0x20 DUP3 ADD SWAP1 POP SWAP2 SWAP1 POP JUMP JUMPDEST PUSH0 PUSH1 0x20 DUP3 ADD SWAP1 POP DUP2 DUP2 SUB PUSH0 DUP4 ADD MSTORE PUSH2 0xE32 DUP2 PUSH2 0xDF9 JUMP JUMPDEST SWAP1 POP SWAP2 SWAP1 POP JUMP JUMPDEST PUSH32 0x4E487B7100000000000000000000000000000000000000000000000000000000 PUSH0 MSTORE PUSH1 0x11 PUSH1 0x4 MSTORE PUSH1 0x24 PUSH0 REVERT JUMPDEST PUSH0 PUSH2 0xE70 DUP3 PUSH2 0xBA6 JUMP JUMPDEST SWAP2 POP PUSH32 0xFFFFFFFFFFFFFFFFFFFFFFFFFFFFFFFFFFFFFFFFFFFFFFFFFFFFFFFFFFFFFFFF DUP3 SUB PUSH2 0xEA2 JUMPI PUSH2 0xEA1 PUSH2 0xE39 JUMP JUMPDEST JUMPDEST PUSH1 0x1 DUP3 ADD SWAP1 POP SWAP2 SWAP1 POP JUMP JUMPDEST PUSH32 0x4E487B7100000000000000000000000000000000000000000000000000000000 PUSH0 MSTORE PUSH1 0x32 PUSH1 0x4 MSTORE PUSH1 0x24 PUSH0 REVERT JUMPDEST PUSH0 PUSH2 0xEE4 DUP3 PUSH2 0xBA6 JUMP JUMPDEST SWAP2 POP PUSH2 0xEEF DUP4 PUSH2 0xBA6 JUMP JUMPDEST SWAP3 POP DUP3 DUP3 ADD SWAP1 POP DUP1 DUP3 GT ISZERO PUSH2 0xF07 JUMPI PUSH2 0xF06 PUSH2 0xE39 JUMP JUMPDEST JUMPDEST SWAP3 SWAP2 POP POP JUMP JUMPDEST PUSH32 0x5472616E73616374696F6E20646F6573206E6F74206578697374000000000000 PUSH0 DUP3 ADD MSTORE POP JUMP JUMPDEST PUSH0 PUSH2 0xF41 PUSH1 0x1A DUP4 PUSH2 0xDC1 JUMP JUMPDEST SWAP2 POP PUSH2 0xF4C DUP3 PUSH2 0xF0D JUMP JUMPDEST PUSH1 0x20 DUP3 ADD SWAP1 POP SWAP2 SWAP1 POP JUMP JUMPDEST PUSH0 PUSH1 0x20 DUP3 ADD SWAP1 POP DUP2 DUP2 SUB PUSH0 DUP4 ADD MSTORE PUSH2 0xF6E DUP2 PUSH2 0xF35 JUMP JUMPDEST SWAP1 POP SWAP2 SWAP1 POP JUMP JUMPDEST PUSH32 0x5472616E73616374696F6E20616C726561647920636F6E6669726D6564000000 PUSH0 DUP3 ADD MSTORE POP JUMP JUMPDEST PUSH0 PUSH2 0xFA9 PUSH1 0x1D DUP4 PUSH2 0xDC1 JUMP JUMPDEST SWAP2 POP PUSH2 0xFB4 DUP3 PUSH2 0xF75 JUMP JUMPDEST PUSH1 0x20 DUP3 ADD SWAP1 POP SWAP2 SWAP1 POP JUMP JUMPDEST PUSH0 PUSH1 0x20 DUP3 ADD SWAP1 POP DUP2 DUP2 SUB PUSH0 DUP4 ADD MSTORE PUSH2 0xFD6 DUP2 PUSH2 0xF9D JUMP JUMPDEST SWAP1 POP SWAP2 SWAP1 POP JUMP JUMPDEST PUSH32 0x5472616E73616374696F6E20616C726561647920657865637574656400000000 PUSH0 DUP3 ADD MSTORE POP JUMP JUMPDEST PUSH0 PUSH2 0x1011 PUSH1 0x1C DUP4 PUSH2 0xDC1 JUMP JUMPDEST SWAP2 POP PUSH2 0x101C DUP3 PUSH2 0xFDD JUMP JUMPDEST PUSH1 0x20 DUP3 ADD SWAP1 POP SWAP2 SWAP1 POP JUMP JUMPDEST PUSH0 PUSH1 0x20 DUP3 ADD SWAP1 POP DUP2 DUP2 SUB PUSH0 DUP4 ADD MSTORE PUSH2 0x103E DUP2 PUSH2 0x1005 JUMP JUMPDEST SWAP1 POP SWAP2 SWAP1 POP JUMP JUMPDEST PUSH0 DUP2 SWAP1 POP SWAP3 SWAP2 POP POP JUMP JUMPDEST POP JUMP JUMPDEST PUSH0 PUSH2 0x105D PUSH0 DUP4 PUSH2 0x1045 JUMP JUMPDEST SWAP2 POP PUSH2 0x1068 DUP3 PUSH2 0x104F JUMP JUMPDEST PUSH0 DUP3 ADD SWAP1 POP SWAP2 SWAP1 POP JUMP JUMPDEST PUSH0 PUSH2 0x107C DUP3 PUSH2 0x1052 JUMP JUMPDEST SWAP2 POP DUP2 SWAP1 POP SWAP2 SWAP1 POP JUMP INVALID LOG2 PUSH5 0x6970667358 0x22 SLT KECCAK256 CODESIZE PUSH29 0x402D1EA4BB9BD8BE96FE04CFE2A10A329EA43AD4B5D3406BFFE56BE142 ORIGIN PUSH5 0x736F6C6343 STOP ADDMOD NOT STOP CALLER "
				},
				"gasEstimates": {
					"creation": {
						"codeDepositCost": "856800",
						"executionCost": "infinite",
						"totalCost": "infinite"
					},
					"external": {
						"confirmTransaction(uint256)": "infinite",
						"confirmations(uint256,address)": "3138",
						"executeTransaction(uint256)": "infinite",
						"isConfirmed(uint256)": "infinite",
						"isOwner(address)": "2878",
						"owners(uint256)": "4944",
						"required()": "2491",
						"submitTransaction(address,uint256)": "infinite",
						"transactionCount()": "2447",
						"transactions(uint256)": "infinite"
					}
				},
				"methodIdentifiers": {
					"confirmTransaction(uint256)": "c01a8c84",
					"confirmations(uint256,address)": "3411c81c",
					"executeTransaction(uint256)": "ee22610b",
					"isConfirmed(uint256)": "784547a7",
					"isOwner(address)": "2f54bf6e",
					"owners(uint256)": "025e7c27",
					"required()": "dc8452cd",
					"submitTransaction(address,uint256)": "1d43b653",
					"transactionCount()": "b77bf600",
					"transactions(uint256)": "9ace38c2"
				}
			},
			"storageLayout": {
				"storage": [
					{
						"astId": 4,
						"contract": "contracts/MultiSigWallet.sol:MultiSigWallet",
						"label": "owners",
						"offset": 0,
						"slot": "0",
						"type": "t_array(t_address)dyn_storage"
					},
					{
						"astId": 6,
						"contract": "contracts/MultiSigWallet.sol:MultiSigWallet",
						"label": "required",
						"offset": 0,
						"slot": "1",
						"type": "t_uint256"
					},
					{
						"astId": 10,
						"contract": "contracts/MultiSigWallet.sol:MultiSigWallet",
						"label": "isOwner",
						"offset": 0,
						"slot": "2",
						"type": "t_mapping(t_address,t_bool)"
					},
					{
						"astId": 15,
						"contract": "contracts/MultiSigWallet.sol:MultiSigWallet",
						"label": "transactions",
						"offset": 0,
						"slot": "3",
						"type": "t_mapping(t_uint256,t_struct(Transaction)30_storage)"
					},
					{
						"astId": 21,
						"contract": "contracts/MultiSigWallet.sol:MultiSigWallet",
						"label": "confirmations",
						"offset": 0,
						"slot": "4",
						"type": "t_mapping(t_uint256,t_mapping(t_address,t_bool))"
					},
					{
						"astId": 23,
						"contract": "contracts/MultiSigWallet.sol:MultiSigWallet",
						"label": "transactionCount",
						"offset": 0,
						"slot": "5",
						"type": "t_uint256"
					}
				],
				"types": {
					"t_address": {
						"encoding": "inplace",
						"label": "address",
						"numberOfBytes": "20"
					},
					"t_array(t_address)dyn_storage": {
						"base": "t_address",
						"encoding": "dynamic_array",
						"label": "address[]",
						"numberOfBytes": "32"
					},
					"t_bool": {
						"encoding": "inplace",
						"label": "bool",
						"numberOfBytes": "1"
					},
					"t_mapping(t_address,t_bool)": {
						"encoding": "mapping",
						"key": "t_address",
						"label": "mapping(address => bool)",
						"numberOfBytes": "32",
						"value": "t_bool"
					},
					"t_mapping(t_uint256,t_mapping(t_address,t_bool))": {
						"encoding": "mapping",
						"key": "t_uint256",
						"label": "mapping(uint256 => mapping(address => bool))",
						"numberOfBytes": "32",
						"value": "t_mapping(t_address,t_bool)"
					},
					"t_mapping(t_uint256,t_struct(Transaction)30_storage)": {
						"encoding": "mapping",
						"key": "t_uint256",
						"label": "mapping(uint256 => struct MultiSigWallet.Transaction)",
						"numberOfBytes": "32",
						"value": "t_struct(Transaction)30_storage"
					},
					"t_struct(Transaction)30_storage": {
						"encoding": "inplace",
						"label": "struct MultiSigWallet.Transaction",
						"members": [
							{
								"astId": 25,
								"contract": "contracts/MultiSigWallet.sol:MultiSigWallet",
								"label": "destination",
								"offset": 0,
								"slot": "0",
								"type": "t_address"
							},
							{
								"astId": 27,
								"contract": "contracts/MultiSigWallet.sol:MultiSigWallet",
								"label": "value",
								"offset": 0,
								"slot": "1",
								"type": "t_uint256"
							},
							{
								"astId": 29,
								"contract": "contracts/MultiSigWallet.sol:MultiSigWallet",
								"label": "executed",
								"offset": 0,
								"slot": "2",
								"type": "t_bool"
							}
						],
						"numberOfBytes": "96"
					},
					"t_uint256": {
						"encoding": "inplace",
						"label": "uint256",
						"numberOfBytes": "32"
					}
				}
			},
			"userdoc": {
				"kind": "user",
				"methods": {},
				"version": 1
			}
		}
	}
}