{
	"contracts/ConcreteObserver.sol": {
		"ConcreteObserver": {
			"abi": [
				{
					"anonymous": false,
					"inputs": [
						{
							"indexed": false,
							"internalType": "uint256",
							"name": "eventCode",
							"type": "uint256"
						},
						{
							"indexed": false,
							"internalType": "address",
							"name": "caller",
							"type": "address"
						}
					],
					"name": "LogNotificationReceived",
					"type": "event"
				},
				{
					"inputs": [
						{
							"internalType": "uint256",
							"name": "eventCode",
							"type": "uint256"
						},
						{
							"internalType": "address",
							"name": "caller",
							"type": "address"
						}
					],
					"name": "notify",
					"outputs": [],
					"stateMutability": "nonpayable",
					"type": "function"
				}
			],
			"devdoc": {
				"kind": "dev",
				"methods": {},
				"version": 1
			},
			"evm": {
				"assembly": "    /* \"contracts/ConcreteObserver.sol\":91:442  contract ConcreteObserver is IObserver {... */\n  mstore(0x40, 0x80)\n  callvalue\n  dup1\n  iszero\n  tag_1\n  jumpi\n  0x00\n  dup1\n  revert\ntag_1:\n  pop\n  dataSize(sub_0)\n  dup1\n  dataOffset(sub_0)\n  0x00\n  codecopy\n  0x00\n  return\nstop\n\nsub_0: assembly {\n        /* \"contracts/ConcreteObserver.sol\":91:442  contract ConcreteObserver is IObserver {... */\n      mstore(0x40, 0x80)\n      callvalue\n      dup1\n      iszero\n      tag_1\n      jumpi\n      0x00\n      dup1\n      revert\n    tag_1:\n      pop\n      jumpi(tag_2, lt(calldatasize, 0x04))\n      shr(0xe0, calldataload(0x00))\n      dup1\n      0x5a0af957\n      eq\n      tag_3\n      jumpi\n    tag_2:\n      0x00\n      dup1\n      revert\n        /* \"contracts/ConcreteObserver.sol\":258:440  function notify(uint eventCode, address caller) external override {... */\n    tag_3:\n      tag_4\n      0x04\n      dup1\n      calldatasize\n      sub\n      dup2\n      add\n      swap1\n      tag_5\n      swap2\n      swap1\n      tag_6\n      jump\t// in\n    tag_5:\n      tag_7\n      jump\t// in\n    tag_4:\n      stop\n    tag_7:\n        /* \"contracts/ConcreteObserver.sol\":391:433  LogNotificationReceived(eventCode, caller) */\n      0x4397b631a5c0cb26057601b555f48eb339e1660b7492f46ea1cc0a3442154dea\n        /* \"contracts/ConcreteObserver.sol\":415:424  eventCode */\n      dup3\n        /* \"contracts/ConcreteObserver.sol\":426:432  caller */\n      dup3\n        /* \"contracts/ConcreteObserver.sol\":391:433  LogNotificationReceived(eventCode, caller) */\n      mload(0x40)\n      tag_9\n      swap3\n      swap2\n      swap1\n      tag_10\n      jump\t// in\n    tag_9:\n      mload(0x40)\n      dup1\n      swap2\n      sub\n      swap1\n      log1\n        /* \"contracts/ConcreteObserver.sol\":258:440  function notify(uint eventCode, address caller) external override {... */\n      pop\n      pop\n      jump\t// out\n        /* \"#utility.yul\":88:205   */\n    tag_12:\n        /* \"#utility.yul\":197:198   */\n      0x00\n        /* \"#utility.yul\":194:195   */\n      dup1\n        /* \"#utility.yul\":187:199   */\n      revert\n        /* \"#utility.yul\":334:411   */\n    tag_14:\n        /* \"#utility.yul\":371:378   */\n      0x00\n        /* \"#utility.yul\":400:405   */\n      dup2\n        /* \"#utility.yul\":389:405   */\n      swap1\n      pop\n        /* \"#utility.yul\":334:411   */\n      swap2\n      swap1\n      pop\n      jump\t// out\n        /* \"#utility.yul\":417:539   */\n    tag_15:\n        /* \"#utility.yul\":490:514   */\n      tag_29\n        /* \"#utility.yul\":508:513   */\n      dup2\n        /* \"#utility.yul\":490:514   */\n      tag_14\n      jump\t// in\n    tag_29:\n        /* \"#utility.yul\":483:488   */\n      dup2\n        /* \"#utility.yul\":480:515   */\n      eq\n        /* \"#utility.yul\":470:533   */\n      tag_30\n      jumpi\n        /* \"#utility.yul\":529:530   */\n      0x00\n        /* \"#utility.yul\":526:527   */\n      dup1\n        /* \"#utility.yul\":519:531   */\n      revert\n        /* \"#utility.yul\":470:533   */\n    tag_30:\n        /* \"#utility.yul\":417:539   */\n      pop\n      jump\t// out\n        /* \"#utility.yul\":545:684   */\n    tag_16:\n        /* \"#utility.yul\":591:596   */\n      0x00\n        /* \"#utility.yul\":629:635   */\n      dup2\n        /* \"#utility.yul\":616:636   */\n      calldataload\n        /* \"#utility.yul\":607:636   */\n      swap1\n      pop\n        /* \"#utility.yul\":645:678   */\n      tag_32\n        /* \"#utility.yul\":672:677   */\n      dup2\n        /* \"#utility.yul\":645:678   */\n      tag_15\n      jump\t// in\n    tag_32:\n        /* \"#utility.yul\":545:684   */\n      swap3\n      swap2\n      pop\n      pop\n      jump\t// out\n        /* \"#utility.yul\":690:816   */\n    tag_17:\n        /* \"#utility.yul\":727:734   */\n      0x00\n        /* \"#utility.yul\":767:809   */\n      0xffffffffffffffffffffffffffffffffffffffff\n        /* \"#utility.yul\":760:765   */\n      dup3\n        /* \"#utility.yul\":756:810   */\n      and\n        /* \"#utility.yul\":745:810   */\n      swap1\n      pop\n        /* \"#utility.yul\":690:816   */\n      swap2\n      swap1\n      pop\n      jump\t// out\n        /* \"#utility.yul\":822:918   */\n    tag_18:\n        /* \"#utility.yul\":859:866   */\n      0x00\n        /* \"#utility.yul\":888:912   */\n      tag_35\n        /* \"#utility.yul\":906:911   */\n      dup3\n        /* \"#utility.yul\":888:912   */\n      tag_17\n      jump\t// in\n    tag_35:\n        /* \"#utility.yul\":877:912   */\n      swap1\n      pop\n        /* \"#utility.yul\":822:918   */\n      swap2\n      swap1\n      pop\n      jump\t// out\n        /* \"#utility.yul\":924:1046   */\n    tag_19:\n        /* \"#utility.yul\":997:1021   */\n      tag_37\n        /* \"#utility.yul\":1015:1020   */\n      dup2\n        /* \"#utility.yul\":997:1021   */\n      tag_18\n      jump\t// in\n    tag_37:\n        /* \"#utility.yul\":990:995   */\n      dup2\n        /* \"#utility.yul\":987:1022   */\n      eq\n        /* \"#utility.yul\":977:1040   */\n      tag_38\n      jumpi\n        /* \"#utility.yul\":1036:1037   */\n      0x00\n        /* \"#utility.yul\":1033:1034   */\n      dup1\n        /* \"#utility.yul\":1026:1038   */\n      revert\n        /* \"#utility.yul\":977:1040   */\n    tag_38:\n        /* \"#utility.yul\":924:1046   */\n      pop\n      jump\t// out\n        /* \"#utility.yul\":1052:1191   */\n    tag_20:\n        /* \"#utility.yul\":1098:1103   */\n      0x00\n        /* \"#utility.yul\":1136:1142   */\n      dup2\n        /* \"#utility.yul\":1123:1143   */\n      calldataload\n        /* \"#utility.yul\":1114:1143   */\n      swap1\n      pop\n        /* \"#utility.yul\":1152:1185   */\n      tag_40\n        /* \"#utility.yul\":1179:1184   */\n      dup2\n        /* \"#utility.yul\":1152:1185   */\n      tag_19\n      jump\t// in\n    tag_40:\n        /* \"#utility.yul\":1052:1191   */\n      swap3\n      swap2\n      pop\n      pop\n      jump\t// out\n        /* \"#utility.yul\":1197:1671   */\n    tag_6:\n        /* \"#utility.yul\":1265:1271   */\n      0x00\n        /* \"#utility.yul\":1273:1279   */\n      dup1\n        /* \"#utility.yul\":1322:1324   */\n      0x40\n        /* \"#utility.yul\":1310:1319   */\n      dup4\n        /* \"#utility.yul\":1301:1308   */\n      dup6\n        /* \"#utility.yul\":1297:1320   */\n      sub\n        /* \"#utility.yul\":1293:1325   */\n      slt\n        /* \"#utility.yul\":1290:1409   */\n      iszero\n      tag_42\n      jumpi\n        /* \"#utility.yul\":1328:1407   */\n      tag_43\n      tag_12\n      jump\t// in\n    tag_43:\n        /* \"#utility.yul\":1290:1409   */\n    tag_42:\n        /* \"#utility.yul\":1448:1449   */\n      0x00\n        /* \"#utility.yul\":1473:1526   */\n      tag_44\n        /* \"#utility.yul\":1518:1525   */\n      dup6\n        /* \"#utility.yul\":1509:1515   */\n      dup3\n        /* \"#utility.yul\":1498:1507   */\n      dup7\n        /* \"#utility.yul\":1494:1516   */\n      add\n        /* \"#utility.yul\":1473:1526   */\n      tag_16\n      jump\t// in\n    tag_44:\n        /* \"#utility.yul\":1463:1526   */\n      swap3\n      pop\n        /* \"#utility.yul\":1419:1536   */\n      pop\n        /* \"#utility.yul\":1575:1577   */\n      0x20\n        /* \"#utility.yul\":1601:1654   */\n      tag_45\n        /* \"#utility.yul\":1646:1653   */\n      dup6\n        /* \"#utility.yul\":1637:1643   */\n      dup3\n        /* \"#utility.yul\":1626:1635   */\n      dup7\n        /* \"#utility.yul\":1622:1644   */\n      add\n        /* \"#utility.yul\":1601:1654   */\n      tag_20\n      jump\t// in\n    tag_45:\n        /* \"#utility.yul\":1591:1654   */\n      swap2\n      pop\n        /* \"#utility.yul\":1546:1664   */\n      pop\n        /* \"#utility.yul\":1197:1671   */\n      swap3\n      pop\n      swap3\n      swap1\n      pop\n      jump\t// out\n        /* \"#utility.yul\":1677:1795   */\n    tag_21:\n        /* \"#utility.yul\":1764:1788   */\n      tag_47\n        /* \"#utility.yul\":1782:1787   */\n      dup2\n        /* \"#utility.yul\":1764:1788   */\n      tag_14\n      jump\t// in\n    tag_47:\n        /* \"#utility.yul\":1759:1762   */\n      dup3\n        /* \"#utility.yul\":1752:1789   */\n      mstore\n        /* \"#utility.yul\":1677:1795   */\n      pop\n      pop\n      jump\t// out\n        /* \"#utility.yul\":1801:1919   */\n    tag_22:\n        /* \"#utility.yul\":1888:1912   */\n      tag_49\n        /* \"#utility.yul\":1906:1911   */\n      dup2\n        /* \"#utility.yul\":1888:1912   */\n      tag_18\n      jump\t// in\n    tag_49:\n        /* \"#utility.yul\":1883:1886   */\n      dup3\n        /* \"#utility.yul\":1876:1913   */\n      mstore\n        /* \"#utility.yul\":1801:1919   */\n      pop\n      pop\n      jump\t// out\n        /* \"#utility.yul\":1925:2257   */\n    tag_10:\n        /* \"#utility.yul\":2046:2050   */\n      0x00\n        /* \"#utility.yul\":2084:2086   */\n      0x40\n        /* \"#utility.yul\":2073:2082   */\n      dup3\n        /* \"#utility.yul\":2069:2087   */\n      add\n        /* \"#utility.yul\":2061:2087   */\n      swap1\n      pop\n        /* \"#utility.yul\":2097:2168   */\n      tag_51\n        /* \"#utility.yul\":2165:2166   */\n      0x00\n        /* \"#utility.yul\":2154:2163   */\n      dup4\n        /* \"#utility.yul\":2150:2167   */\n      add\n        /* \"#utility.yul\":2141:2147   */\n      dup6\n        /* \"#utility.yul\":2097:2168   */\n      tag_21\n      jump\t// in\n    tag_51:\n        /* \"#utility.yul\":2178:2250   */\n      tag_52\n        /* \"#utility.yul\":2246:2248   */\n      0x20\n        /* \"#utility.yul\":2235:2244   */\n      dup4\n        /* \"#utility.yul\":2231:2249   */\n      add\n        /* \"#utility.yul\":2222:2228   */\n      dup5\n        /* \"#utility.yul\":2178:2250   */\n      tag_22\n      jump\t// in\n    tag_52:\n        /* \"#utility.yul\":1925:2257   */\n      swap4\n      swap3\n      pop\n      pop\n      pop\n      jump\t// out\n\n    auxdata: 0xa26469706673582212201b6a5cfb78047c1a5b18a5c67ae65c4a9a078a11c2f445621d1d963cea20364964736f6c63430008190033\n}\n",
				"bytecode": {
					"linkReferences": {},
					"object": "6080604052348015600e575f80fd5b506101d08061001c5f395ff3fe608060405234801561000f575f80fd5b5060043610610029575f3560e01c80635a0af9571461002d575b5f80fd5b61004760048036038101906100429190610117565b610049565b005b7f4397b631a5c0cb26057601b555f48eb339e1660b7492f46ea1cc0a3442154dea828260405161007a929190610173565b60405180910390a15050565b5f80fd5b5f819050919050565b61009c8161008a565b81146100a6575f80fd5b50565b5f813590506100b781610093565b92915050565b5f73ffffffffffffffffffffffffffffffffffffffff82169050919050565b5f6100e6826100bd565b9050919050565b6100f6816100dc565b8114610100575f80fd5b50565b5f81359050610111816100ed565b92915050565b5f806040838503121561012d5761012c610086565b5b5f61013a858286016100a9565b925050602061014b85828601610103565b9150509250929050565b61015e8161008a565b82525050565b61016d816100dc565b82525050565b5f6040820190506101865f830185610155565b6101936020830184610164565b939250505056fea26469706673582212201b6a5cfb78047c1a5b18a5c67ae65c4a9a078a11c2f445621d1d963cea20364964736f6c63430008190033",
					"opcodes": "PUSH1 0x80 PUSH1 0x40 MSTORE CALLVALUE DUP1 ISZERO PUSH1 0xE JUMPI PUSH0 DUP1 REVERT JUMPDEST POP PUSH2 0x1D0 DUP1 PUSH2 0x1C PUSH0 CODECOPY PUSH0 RETURN INVALID PUSH1 0x80 PUSH1 0x40 MSTORE CALLVALUE DUP1 ISZERO PUSH2 0xF JUMPI PUSH0 DUP1 REVERT JUMPDEST POP PUSH1 0x4 CALLDATASIZE LT PUSH2 0x29 JUMPI PUSH0 CALLDATALOAD PUSH1 0xE0 SHR DUP1 PUSH4 0x5A0AF957 EQ PUSH2 0x2D JUMPI JUMPDEST PUSH0 DUP1 REVERT JUMPDEST PUSH2 0x47 PUSH1 0x4 DUP1 CALLDATASIZE SUB DUP2 ADD SWAP1 PUSH2 0x42 SWAP2 SWAP1 PUSH2 0x117 JUMP JUMPDEST PUSH2 0x49 JUMP JUMPDEST STOP JUMPDEST PUSH32 0x4397B631A5C0CB26057601B555F48EB339E1660B7492F46EA1CC0A3442154DEA DUP3 DUP3 PUSH1 0x40 MLOAD PUSH2 0x7A SWAP3 SWAP2 SWAP1 PUSH2 0x173 JUMP JUMPDEST PUSH1 0x40 MLOAD DUP1 SWAP2 SUB SWAP1 LOG1 POP POP JUMP JUMPDEST PUSH0 DUP1 REVERT JUMPDEST PUSH0 DUP2 SWAP1 POP SWAP2 SWAP1 POP JUMP JUMPDEST PUSH2 0x9C DUP2 PUSH2 0x8A JUMP JUMPDEST DUP2 EQ PUSH2 0xA6 JUMPI PUSH0 DUP1 REVERT JUMPDEST POP JUMP JUMPDEST PUSH0 DUP2 CALLDATALOAD SWAP1 POP PUSH2 0xB7 DUP2 PUSH2 0x93 JUMP JUMPDEST SWAP3 SWAP2 POP POP JUMP JUMPDEST PUSH0 PUSH20 0xFFFFFFFFFFFFFFFFFFFFFFFFFFFFFFFFFFFFFFFF DUP3 AND SWAP1 POP SWAP2 SWAP1 POP JUMP JUMPDEST PUSH0 PUSH2 0xE6 DUP3 PUSH2 0xBD JUMP JUMPDEST SWAP1 POP SWAP2 SWAP1 POP JUMP JUMPDEST PUSH2 0xF6 DUP2 PUSH2 0xDC JUMP JUMPDEST DUP2 EQ PUSH2 0x100 JUMPI PUSH0 DUP1 REVERT JUMPDEST POP JUMP JUMPDEST PUSH0 DUP2 CALLDATALOAD SWAP1 POP PUSH2 0x111 DUP2 PUSH2 0xED JUMP JUMPDEST SWAP3 SWAP2 POP POP JUMP JUMPDEST PUSH0 DUP1 PUSH1 0x40 DUP4 DUP6 SUB SLT ISZERO PUSH2 0x12D JUMPI PUSH2 0x12C PUSH2 0x86 JUMP JUMPDEST JUMPDEST PUSH0 PUSH2 0x13A DUP6 DUP3 DUP7 ADD PUSH2 0xA9 JUMP JUMPDEST SWAP3 POP POP PUSH1 0x20 PUSH2 0x14B DUP6 DUP3 DUP7 ADD PUSH2 0x103 JUMP JUMPDEST SWAP2 POP POP SWAP3 POP SWAP3 SWAP1 POP JUMP JUMPDEST PUSH2 0x15E DUP2 PUSH2 0x8A JUMP JUMPDEST DUP3 MSTORE POP POP JUMP JUMPDEST PUSH2 0x16D DUP2 PUSH2 0xDC JUMP JUMPDEST DUP3 MSTORE POP POP JUMP JUMPDEST PUSH0 PUSH1 0x40 DUP3 ADD SWAP1 POP PUSH2 0x186 PUSH0 DUP4 ADD DUP6 PUSH2 0x155 JUMP JUMPDEST PUSH2 0x193 PUSH1 0x20 DUP4 ADD DUP5 PUSH2 0x164 JUMP JUMPDEST SWAP4 SWAP3 POP POP POP JUMP INVALID LOG2 PUSH5 0x6970667358 0x22 SLT KECCAK256 SHL PUSH11 0x5CFB78047C1A5B18A5C67A 0xE6 TLOAD BLOBBASEFEE SWAP11 SMOD DUP11 GT 0xC2 DELEGATECALL GASLIMIT PUSH3 0x1D1D96 EXTCODECOPY 0xEA KECCAK256 CALLDATASIZE BLOBHASH PUSH5 0x736F6C6343 STOP ADDMOD NOT STOP CALLER "
				},
				"gasEstimates": {
					"creation": {
						"codeDepositCost": "92800",
						"executionCost": "139",
						"totalCost": "92939"
					},
					"external": {
						"notify(uint256,address)": "infinite"
					}
				},
				"methodIdentifiers": {
					"notify(uint256,address)": "5a0af957"
				}
			},
			"storageLayout": {
				"storage": [],
				"types": null
			},
			"userdoc": {
				"kind": "user",
				"methods": {},
				"version": 1
			}
		}
	}
}