{
	"contracts/AssetToken.sol": {
		"AssetToken": {
			"abi": [
				{
					"inputs": [
						{
							"internalType": "string",
							"name": "name",
							"type": "string"
						},
						{
							"internalType": "string",
							"name": "symbol",
							"type": "string"
						},
						{
							"internalType": "uint256",
							"name": "_maxSupply",
							"type": "uint256"
						},
						{
							"internalType": "address",
							"name": "admin",
							"type": "address"
						}
					],
					"stateMutability": "nonpayable",
					"type": "constructor"
				},
				{
					"inputs": [],
					"name": "AccessControlBadConfirmation",
					"type": "error"
				},
				{
					"inputs": [
						{
							"internalType": "address",
							"name": "account",
							"type": "address"
						},
						{
							"internalType": "bytes32",
							"name": "neededRole",
							"type": "bytes32"
						}
					],
					"name": "AccessControlUnauthorizedAccount",
					"type": "error"
				},
				{
					"inputs": [
						{
							"internalType": "address",
							"name": "spender",
							"type": "address"
						},
						{
							"internalType": "uint256",
							"name": "allowance",
							"type": "uint256"
						},
						{
							"internalType": "uint256",
							"name": "needed",
							"type": "uint256"
						}
					],
					"name": "ERC20InsufficientAllowance",
					"type": "error"
				},
				{
					"inputs": [
						{
							"internalType": "address",
							"name": "sender",
							"type": "address"
						},
						{
							"internalType": "uint256",
							"name": "balance",
							"type": "uint256"
						},
						{
							"internalType": "uint256",
							"name": "needed",
							"type": "uint256"
						}
					],
					"name": "ERC20InsufficientBalance",
					"type": "error"
				},
				{
					"inputs": [
						{
							"internalType": "address",
							"name": "approver",
							"type": "address"
						}
					],
					"name": "ERC20InvalidApprover",
					"type": "error"
				},
				{
					"inputs": [
						{
							"internalType": "address",
							"name": "receiver",
							"type": "address"
						}
					],
					"name": "ERC20InvalidReceiver",
					"type": "error"
				},
				{
					"inputs": [
						{
							"internalType": "address",
							"name": "sender",
							"type": "address"
						}
					],
					"name": "ERC20InvalidSender",
					"type": "error"
				},
				{
					"inputs": [
						{
							"internalType": "address",
							"name": "spender",
							"type": "address"
						}
					],
					"name": "ERC20InvalidSpender",
					"type": "error"
				},
				{
					"anonymous": false,
					"inputs": [
						{
							"indexed": true,
							"internalType": "address",
							"name": "owner",
							"type": "address"
						},
						{
							"indexed": true,
							"internalType": "address",
							"name": "spender",
							"type": "address"
						},
						{
							"indexed": false,
							"internalType": "uint256",
							"name": "value",
							"type": "uint256"
						}
					],
					"name": "Approval",
					"type": "event"
				},
				{
					"anonymous": false,
					"inputs": [
						{
							"indexed": true,
							"internalType": "bytes32",
							"name": "role",
							"type": "bytes32"
						},
						{
							"indexed": true,
							"internalType": "bytes32",
							"name": "previousAdminRole",
							"type": "bytes32"
						},
						{
							"indexed": true,
							"internalType": "bytes32",
							"name": "newAdminRole",
							"type": "bytes32"
						}
					],
					"name": "RoleAdminChanged",
					"type": "event"
				},
				{
					"anonymous": false,
					"inputs": [
						{
							"indexed": true,
							"internalType": "bytes32",
							"name": "role",
							"type": "bytes32"
						},
						{
							"indexed": true,
							"internalType": "address",
							"name": "account",
							"type": "address"
						},
						{
							"indexed": true,
							"internalType": "address",
							"name": "sender",
							"type": "address"
						}
					],
					"name": "RoleGranted",
					"type": "event"
				},
				{
					"anonymous": false,
					"inputs": [
						{
							"indexed": true,
							"internalType": "bytes32",
							"name": "role",
							"type": "bytes32"
						},
						{
							"indexed": true,
							"internalType": "address",
							"name": "account",
							"type": "address"
						},
						{
							"indexed": true,
							"internalType": "address",
							"name": "sender",
							"type": "address"
						}
					],
					"name": "RoleRevoked",
					"type": "event"
				},
				{
					"anonymous": false,
					"inputs": [
						{
							"indexed": true,
							"internalType": "address",
							"name": "from",
							"type": "address"
						},
						{
							"indexed": true,
							"internalType": "address",
							"name": "to",
							"type": "address"
						},
						{
							"indexed": false,
							"internalType": "uint256",
							"name": "value",
							"type": "uint256"
						}
					],
					"name": "Transfer",
					"type": "event"
				},
				{
					"inputs": [],
					"name": "DEFAULT_ADMIN_ROLE",
					"outputs": [
						{
							"internalType": "bytes32",
							"name": "",
							"type": "bytes32"
						}
					],
					"stateMutability": "view",
					"type": "function"
				},
				{
					"inputs": [],
					"name": "MINTER_ROLE",
					"outputs": [
						{
							"internalType": "bytes32",
							"name": "",
							"type": "bytes32"
						}
					],
					"stateMutability": "view",
					"type": "function"
				},
				{
					"inputs": [
						{
							"internalType": "address",
							"name": "owner",
							"type": "address"
						},
						{
							"internalType": "address",
							"name": "spender",
							"type": "address"
						}
					],
					"name": "allowance",
					"outputs": [
						{
							"internalType": "uint256",
							"name": "",
							"type": "uint256"
						}
					],
					"stateMutability": "view",
					"type": "function"
				},
				{
					"inputs": [
						{
							"internalType": "address",
							"name": "spender",
							"type": "address"
						},
						{
							"internalType": "uint256",
							"name": "value",
							"type": "uint256"
						}
					],
					"name": "approve",
					"outputs": [
						{
							"internalType": "bool",
							"name": "",
							"type": "bool"
						}
					],
					"stateMutability": "nonpayable",
					"type": "function"
				},
				{
					"inputs": [
						{
							"internalType": "address",
							"name": "account",
							"type": "address"
						}
					],
					"name": "balanceOf",
					"outputs": [
						{
							"internalType": "uint256",
							"name": "",
							"type": "uint256"
						}
					],
					"stateMutability": "view",
					"type": "function"
				},
				{
					"inputs": [],
					"name": "decimals",
					"outputs": [
						{
							"internalType": "uint8",
							"name": "",
							"type": "uint8"
						}
					],
					"stateMutability": "view",
					"type": "function"
				},
				{
					"inputs": [
						{
							"internalType": "bytes32",
							"name": "role",
							"type": "bytes32"
						}
					],
					"name": "getRoleAdmin",
					"outputs": [
						{
							"internalType": "bytes32",
							"name": "",
							"type": "bytes32"
						}
					],
					"stateMutability": "view",
					"type": "function"
				},
				{
					"inputs": [
						{
							"internalType": "bytes32",
							"name": "role",
							"type": "bytes32"
						},
						{
							"internalType": "address",
							"name": "account",
							"type": "address"
						}
					],
					"name": "grantRole",
					"outputs": [],
					"stateMutability": "nonpayable",
					"type": "function"
				},
				{
					"inputs": [
						{
							"internalType": "bytes32",
							"name": "role",
							"type": "bytes32"
						},
						{
							"internalType": "address",
							"name": "account",
							"type": "address"
						}
					],
					"name": "hasRole",
					"outputs": [
						{
							"internalType": "bool",
							"name": "",
							"type": "bool"
						}
					],
					"stateMutability": "view",
					"type": "function"
				},
				{
					"inputs": [],
					"name": "maxSupply",
					"outputs": [
						{
							"internalType": "uint256",
							"name": "",
							"type": "uint256"
						}
					],
					"stateMutability": "view",
					"type": "function"
				},
				{
					"inputs": [
						{
							"internalType": "address",
							"name": "to",
							"type": "address"
						},
						{
							"internalType": "uint256",
							"name": "amount",
							"type": "uint256"
						}
					],
					"name": "mint",
					"outputs": [],
					"stateMutability": "nonpayable",
					"type": "function"
				},
				{
					"inputs": [],
					"name": "name",
					"outputs": [
						{
							"internalType": "string",
							"name": "",
							"type": "string"
						}
					],
					"stateMutability": "view",
					"type": "function"
				},
				{
					"inputs": [
						{
							"internalType": "bytes32",
							"name": "role",
							"type": "bytes32"
						},
						{
							"internalType": "address",
							"name": "callerConfirmation",
							"type": "address"
						}
					],
					"name": "renounceRole",
					"outputs": [],
					"stateMutability": "nonpayable",
					"type": "function"
				},
				{
					"inputs": [
						{
							"internalType": "bytes32",
							"name": "role",
							"type": "bytes32"
						},
						{
							"internalType": "address",
							"name": "account",
							"type": "address"
						}
					],
					"name": "revokeRole",
					"outputs": [],
					"stateMutability": "nonpayable",
					"type": "function"
				},
				{
					"inputs": [
						{
							"internalType": "bytes4",
							"name": "interfaceId",
							"type": "bytes4"
						}
					],
					"name": "supportsInterface",
					"outputs": [
						{
							"internalType": "bool",
							"name": "",
							"type": "bool"
						}
					],
					"stateMutability": "view",
					"type": "function"
				},
				{
					"inputs": [],
					"name": "symbol",
					"outputs": [
						{
							"internalType": "string",
							"name": "",
							"type": "string"
						}
					],
					"stateMutability": "view",
					"type": "function"
				},
				{
					"inputs": [],
					"name": "totalMinted",
					"outputs": [
						{
							"internalType": "uint256",
							"name": "",
							"type": "uint256"
						}
					],
					"stateMutability": "view",
					"type": "function"
				},
				{
					"inputs": [],
					"name": "totalSupply",
					"outputs": [
						{
							"internalType": "uint256",
							"name": "",
							"type": "uint256"
						}
					],
					"stateMutability": "view",
					"type": "function"
				},
				{
					"inputs": [
						{
							"internalType": "address",
							"name": "to",
							"type": "address"
						},
						{
							"internalType": "uint256",
							"name": "value",
							"type": "uint256"
						}
					],
					"name": "transfer",
					"outputs": [
						{
							"internalType": "bool",
							"name": "",
							"type": "bool"
						}
					],
					"stateMutability": "nonpayable",
					"type": "function"
				},
				{
					"inputs": [
						{
							"internalType": "address",
							"name": "from",
							"type": "address"
						},
						{
							"internalType": "address",
							"name": "to",
							"type": "address"
						},
						{
							"internalType": "uint256",
							"name": "value",
							"type": "uint256"
						}
					],
					"name": "transferFrom",
					"outputs": [
						{
							"internalType": "bool",
							"name": "",
							"type": "bool"
						}
					],
					"stateMutability": "nonpayable",
					"type": "function"
				}
			],
			"devdoc": {
				"errors": {
					"AccessControlBadConfirmation()": [
						{
							"details": "The caller of a function is not the expected one. NOTE: Don't confuse with {AccessControlUnauthorizedAccount}."
						}
					],
					"AccessControlUnauthorizedAccount(address,bytes32)": [
						{
							"details": "The `account` is missing a role."
						}
					],
					"ERC20InsufficientAllowance(address,uint256,uint256)": [
						{
							"details": "Indicates a failure with the `spender`’s `allowance`. Used in transfers.",
							"params": {
								"allowance": "Amount of tokens a `spender` is allowed to operate with.",
								"needed": "Minimum amount required to perform a transfer.",
								"spender": "Address that may be allowed to operate on tokens without being their owner."
							}
						}
					],
					"ERC20InsufficientBalance(address,uint256,uint256)": [
						{
							"details": "Indicates an error related to the current `balance` of a `sender`. Used in transfers.",
							"params": {
								"balance": "Current balance for the interacting account.",
								"needed": "Minimum amount required to perform a transfer.",
								"sender": "Address whose tokens are being transferred."
							}
						}
					],
					"ERC20InvalidApprover(address)": [
						{
							"details": "Indicates a failure with the `approver` of a token to be approved. Used in approvals.",
							"params": {
								"approver": "Address initiating an approval operation."
							}
						}
					],
					"ERC20InvalidReceiver(address)": [
						{
							"details": "Indicates a failure with the token `receiver`. Used in transfers.",
							"params": {
								"receiver": "Address to which tokens are being transferred."
							}
						}
					],
					"ERC20InvalidSender(address)": [
						{
							"details": "Indicates a failure with the token `sender`. Used in transfers.",
							"params": {
								"sender": "Address whose tokens are being transferred."
							}
						}
					],
					"ERC20InvalidSpender(address)": [
						{
							"details": "Indicates a failure with the `spender` to be approved. Used in approvals.",
							"params": {
								"spender": "Address that may be allowed to operate on tokens without being their owner."
							}
						}
					]
				},
				"events": {
					"Approval(address,address,uint256)": {
						"details": "Emitted when the allowance of a `spender` for an `owner` is set by a call to {approve}. `value` is the new allowance."
					},
					"RoleAdminChanged(bytes32,bytes32,bytes32)": {
						"details": "Emitted when `newAdminRole` is set as ``role``'s admin role, replacing `previousAdminRole` `DEFAULT_ADMIN_ROLE` is the starting admin for all roles, despite {RoleAdminChanged} not being emitted signaling this."
					},
					"RoleGranted(bytes32,address,address)": {
						"details": "Emitted when `account` is granted `role`. `sender` is the account that originated the contract call, an admin role bearer except when using {AccessControl-_setupRole}."
					},
					"RoleRevoked(bytes32,address,address)": {
						"details": "Emitted when `account` is revoked `role`. `sender` is the account that originated the contract call:   - if using `revokeRole`, it is the admin role bearer   - if using `renounceRole`, it is the role bearer (i.e. `account`)"
					},
					"Transfer(address,address,uint256)": {
						"details": "Emitted when `value` tokens are moved from one account (`from`) to another (`to`). Note that `value` may be zero."
					}
				},
				"kind": "dev",
				"methods": {
					"allowance(address,address)": {
						"details": "See {IERC20-allowance}."
					},
					"approve(address,uint256)": {
						"details": "See {IERC20-approve}. NOTE: If `value` is the maximum `uint256`, the allowance is not updated on `transferFrom`. This is semantically equivalent to an infinite approval. Requirements: - `spender` cannot be the zero address."
					},
					"balanceOf(address)": {
						"details": "See {IERC20-balanceOf}."
					},
					"decimals()": {
						"details": "Returns the number of decimals used to get its user representation. For example, if `decimals` equals `2`, a balance of `505` tokens should be displayed to a user as `5.05` (`505 / 10 ** 2`). Tokens usually opt for a value of 18, imitating the relationship between Ether and Wei. This is the default value returned by this function, unless it's overridden. NOTE: This information is only used for _display_ purposes: it in no way affects any of the arithmetic of the contract, including {IERC20-balanceOf} and {IERC20-transfer}."
					},
					"getRoleAdmin(bytes32)": {
						"details": "Returns the admin role that controls `role`. See {grantRole} and {revokeRole}. To change a role's admin, use {_setRoleAdmin}."
					},
					"grantRole(bytes32,address)": {
						"details": "Grants `role` to `account`. If `account` had not been already granted `role`, emits a {RoleGranted} event. Requirements: - the caller must have ``role``'s admin role. May emit a {RoleGranted} event."
					},
					"hasRole(bytes32,address)": {
						"details": "Returns `true` if `account` has been granted `role`."
					},
					"name()": {
						"details": "Returns the name of the token."
					},
					"renounceRole(bytes32,address)": {
						"details": "Revokes `role` from the calling account. Roles are often managed via {grantRole} and {revokeRole}: this function's purpose is to provide a mechanism for accounts to lose their privileges if they are compromised (such as when a trusted device is misplaced). If the calling account had been revoked `role`, emits a {RoleRevoked} event. Requirements: - the caller must be `callerConfirmation`. May emit a {RoleRevoked} event."
					},
					"revokeRole(bytes32,address)": {
						"details": "Revokes `role` from `account`. If `account` had been granted `role`, emits a {RoleRevoked} event. Requirements: - the caller must have ``role``'s admin role. May emit a {RoleRevoked} event."
					},
					"supportsInterface(bytes4)": {
						"details": "See {IERC165-supportsInterface}."
					},
					"symbol()": {
						"details": "Returns the symbol of the token, usually a shorter version of the name."
					},
					"totalSupply()": {
						"details": "See {IERC20-totalSupply}."
					},
					"transfer(address,uint256)": {
						"details": "See {IERC20-transfer}. Requirements: - `to` cannot be the zero address. - the caller must have a balance of at least `value`."
					},
					"transferFrom(address,address,uint256)": {
						"details": "See {IERC20-transferFrom}. Emits an {Approval} event indicating the updated allowance. This is not required by the EIP. See the note at the beginning of {ERC20}. NOTE: Does not update the allowance if the current allowance is the maximum `uint256`. Requirements: - `from` and `to` cannot be the zero address. - `from` must have a balance of at least `value`. - the caller must have allowance for ``from``'s tokens of at least `value`."
					}
				},
				"version": 1
			},
			"evm": {
				"assembly": "    /* \"contracts/AssetToken.sol\":174:1305  contract AssetToken is ERC20, AccessControl {... */\n  mstore(0x40, 0xa0)\n    /* \"contracts/AssetToken.sol\":403:979  constructor(... */\n  callvalue\n  dup1\n  iszero\n  tag_1\n  jumpi\n  0x00\n  dup1\n  revert\ntag_1:\n  pop\n  mload(0x40)\n  sub(codesize, bytecodeSize)\n  dup1\n  bytecodeSize\n  dup4\n  codecopy\n  dup2\n  dup2\n  add\n  0x40\n  mstore\n  dup2\n  add\n  swap1\n  tag_2\n  swap2\n  swap1\n  tag_3\n  jump\t// in\ntag_2:\n    /* \"contracts/AssetToken.sol\":536:540  name */\n  dup4\n    /* \"contracts/AssetToken.sol\":542:548  symbol */\n  dup4\n    /* \"@openzeppelin/contracts/token/ERC20/ERC20.sol\":1970:1975  name_ */\n  dup2\n    /* \"@openzeppelin/contracts/token/ERC20/ERC20.sol\":1962:1967  _name */\n  0x03\n    /* \"@openzeppelin/contracts/token/ERC20/ERC20.sol\":1962:1975  _name = name_ */\n  swap1\n  dup2\n  tag_7\n  swap2\n  swap1\n  tag_8\n  jump\t// in\ntag_7:\n  pop\n    /* \"@openzeppelin/contracts/token/ERC20/ERC20.sol\":1995:2002  symbol_ */\n  dup1\n    /* \"@openzeppelin/contracts/token/ERC20/ERC20.sol\":1985:1992  _symbol */\n  0x04\n    /* \"@openzeppelin/contracts/token/ERC20/ERC20.sol\":1985:2002  _symbol = symbol_ */\n  swap1\n  dup2\n  tag_9\n  swap2\n  swap1\n  tag_8\n  jump\t// in\ntag_9:\n  pop\n    /* \"@openzeppelin/contracts/token/ERC20/ERC20.sol\":1896:2009  constructor(string memory name_, string memory symbol_) {... */\n  pop\n  pop\n    /* \"contracts/AssetToken.sol\":585:593  10 ** 18 */\n  0x0de0b6b3a7640000\n    /* \"contracts/AssetToken.sol\":572:582  _maxSupply */\n  dup3\n    /* \"contracts/AssetToken.sol\":572:593  _maxSupply * 10 ** 18 */\n  tag_11\n  swap2\n  swap1\n  tag_12\n  jump\t// in\ntag_11:\n    /* \"contracts/AssetToken.sol\":560:593  maxSupply = _maxSupply * 10 ** 18 */\n  0x80\n  dup2\n  dup2\n  mstore\n  pop\n  pop\n    /* \"contracts/AssetToken.sol\":649:686  _grantRole(DEFAULT_ADMIN_ROLE, admin) */\n  tag_13\n    /* \"@openzeppelin/contracts/access/AccessControl.sol\":2232:2236  0x00 */\n  0x00\n    /* \"contracts/AssetToken.sol\":660:678  DEFAULT_ADMIN_ROLE */\n  dup1\n  shl\n    /* \"contracts/AssetToken.sol\":680:685  admin */\n  dup3\n    /* \"contracts/AssetToken.sol\":649:659  _grantRole */\n  shl(0x20, tag_14)\n    /* \"contracts/AssetToken.sol\":649:686  _grantRole(DEFAULT_ADMIN_ROLE, admin) */\n  0x20\n  shr\n  jump\t// in\ntag_13:\n  pop\n    /* \"contracts/AssetToken.sol\":749:778  grantRole(MINTER_ROLE, admin) */\n  tag_15\n    /* \"contracts/AssetToken.sol\":262:286  keccak256(\"MINTER_ROLE\") */\n  0x9f2df0fed2c77648de5860a4cc508cd0818c85b8b8a1ab4ceeef8d981c8956a6\n    /* \"contracts/AssetToken.sol\":772:777  admin */\n  dup3\n    /* \"contracts/AssetToken.sol\":749:758  grantRole */\n  shl(0x20, tag_16)\n    /* \"contracts/AssetToken.sol\":749:778  grantRole(MINTER_ROLE, admin) */\n  0x20\n  shr\n  jump\t// in\ntag_15:\n    /* \"contracts/AssetToken.sol\":403:979  constructor(... */\n  pop\n  pop\n  pop\n  pop\n    /* \"contracts/AssetToken.sol\":174:1305  contract AssetToken is ERC20, AccessControl {... */\n  jump(tag_17)\n    /* \"@openzeppelin/contracts/access/AccessControl.sol\":6179:6495  function _grantRole(bytes32 role, address account) internal virtual returns (bool) {... */\ntag_14:\n    /* \"@openzeppelin/contracts/access/AccessControl.sol\":6256:6260  bool */\n  0x00\n    /* \"@openzeppelin/contracts/access/AccessControl.sol\":6277:6299  hasRole(role, account) */\n  tag_19\n    /* \"@openzeppelin/contracts/access/AccessControl.sol\":6285:6289  role */\n  dup4\n    /* \"@openzeppelin/contracts/access/AccessControl.sol\":6291:6298  account */\n  dup4\n    /* \"@openzeppelin/contracts/access/AccessControl.sol\":6277:6284  hasRole */\n  shl(0x20, tag_20)\n    /* \"@openzeppelin/contracts/access/AccessControl.sol\":6277:6299  hasRole(role, account) */\n  0x20\n  shr\n  jump\t// in\ntag_19:\n    /* \"@openzeppelin/contracts/access/AccessControl.sol\":6272:6489  if (!hasRole(role, account)) {... */\n  tag_21\n  jumpi\n    /* \"@openzeppelin/contracts/access/AccessControl.sol\":6347:6351  true */\n  0x01\n    /* \"@openzeppelin/contracts/access/AccessControl.sol\":6315:6321  _roles */\n  0x05\n    /* \"@openzeppelin/contracts/access/AccessControl.sol\":6315:6327  _roles[role] */\n  0x00\n    /* \"@openzeppelin/contracts/access/AccessControl.sol\":6322:6326  role */\n  dup6\n    /* \"@openzeppelin/contracts/access/AccessControl.sol\":6315:6327  _roles[role] */\n  dup2\n  mstore\n  0x20\n  add\n  swap1\n  dup2\n  mstore\n  0x20\n  add\n  0x00\n  keccak256\n    /* \"@openzeppelin/contracts/access/AccessControl.sol\":6315:6335  _roles[role].hasRole */\n  0x00\n  add\n    /* \"@openzeppelin/contracts/access/AccessControl.sol\":6315:6344  _roles[role].hasRole[account] */\n  0x00\n    /* \"@openzeppelin/contracts/access/AccessControl.sol\":6336:6343  account */\n  dup5\n    /* \"@openzeppelin/contracts/access/AccessControl.sol\":6315:6344  _roles[role].hasRole[account] */\n  0xffffffffffffffffffffffffffffffffffffffff\n  and\n  0xffffffffffffffffffffffffffffffffffffffff\n  and\n  dup2\n  mstore\n  0x20\n  add\n  swap1\n  dup2\n  mstore\n  0x20\n  add\n  0x00\n  keccak256\n  0x00\n    /* \"@openzeppelin/contracts/access/AccessControl.sol\":6315:6351  _roles[role].hasRole[account] = true */\n  0x0100\n  exp\n  dup2\n  sload\n  dup2\n  0xff\n  mul\n  not\n  and\n  swap1\n  dup4\n  iszero\n  iszero\n  mul\n  or\n  swap1\n  sstore\n  pop\n    /* \"@openzeppelin/contracts/access/AccessControl.sol\":6397:6409  _msgSender() */\n  tag_22\n    /* \"@openzeppelin/contracts/access/AccessControl.sol\":6397:6407  _msgSender */\n  shl(0x20, tag_23)\n    /* \"@openzeppelin/contracts/access/AccessControl.sol\":6397:6409  _msgSender() */\n  0x20\n  shr\n  jump\t// in\ntag_22:\n    /* \"@openzeppelin/contracts/access/AccessControl.sol\":6370:6410  RoleGranted(role, account, _msgSender()) */\n  0xffffffffffffffffffffffffffffffffffffffff\n  and\n    /* \"@openzeppelin/contracts/access/AccessControl.sol\":6388:6395  account */\n  dup3\n    /* \"@openzeppelin/contracts/access/AccessControl.sol\":6370:6410  RoleGranted(role, account, _msgSender()) */\n  0xffffffffffffffffffffffffffffffffffffffff\n  and\n    /* \"@openzeppelin/contracts/access/AccessControl.sol\":6382:6386  role */\n  dup5\n    /* \"@openzeppelin/contracts/access/AccessControl.sol\":6370:6410  RoleGranted(role, account, _msgSender()) */\n  0x2f8788117e7eff1d82e926ec794901d17c78024a50270940304540a733656f0d\n  mload(0x40)\n  mload(0x40)\n  dup1\n  swap2\n  sub\n  swap1\n  log4\n    /* \"@openzeppelin/contracts/access/AccessControl.sol\":6431:6435  true */\n  0x01\n    /* \"@openzeppelin/contracts/access/AccessControl.sol\":6424:6435  return true */\n  swap1\n  pop\n  jump(tag_18)\n    /* \"@openzeppelin/contracts/access/AccessControl.sol\":6272:6489  if (!hasRole(role, account)) {... */\ntag_21:\n    /* \"@openzeppelin/contracts/access/AccessControl.sol\":6473:6478  false */\n  0x00\n    /* \"@openzeppelin/contracts/access/AccessControl.sol\":6466:6478  return false */\n  swap1\n  pop\n    /* \"@openzeppelin/contracts/access/AccessControl.sol\":6179:6495  function _grantRole(bytes32 role, address account) internal virtual returns (bool) {... */\ntag_18:\n  swap3\n  swap2\n  pop\n  pop\n  jump\t// out\n    /* \"@openzeppelin/contracts/access/AccessControl.sol\":4226:4362  function grantRole(bytes32 role, address account) public virtual onlyRole(getRoleAdmin(role)) {... */\ntag_16:\n    /* \"@openzeppelin/contracts/access/AccessControl.sol\":4300:4318  getRoleAdmin(role) */\n  tag_25\n    /* \"@openzeppelin/contracts/access/AccessControl.sol\":4313:4317  role */\n  dup3\n    /* \"@openzeppelin/contracts/access/AccessControl.sol\":4300:4312  getRoleAdmin */\n  shl(0x20, tag_26)\n    /* \"@openzeppelin/contracts/access/AccessControl.sol\":4300:4318  getRoleAdmin(role) */\n  0x20\n  shr\n  jump\t// in\ntag_25:\n    /* \"@openzeppelin/contracts/access/AccessControl.sol\":2464:2480  _checkRole(role) */\n  tag_28\n    /* \"@openzeppelin/contracts/access/AccessControl.sol\":2475:2479  role */\n  dup2\n    /* \"@openzeppelin/contracts/access/AccessControl.sol\":2464:2474  _checkRole */\n  shl(0x20, tag_29)\n    /* \"@openzeppelin/contracts/access/AccessControl.sol\":2464:2480  _checkRole(role) */\n  0x20\n  shr\n  jump\t// in\ntag_28:\n    /* \"@openzeppelin/contracts/access/AccessControl.sol\":4330:4355  _grantRole(role, account) */\n  tag_31\n    /* \"@openzeppelin/contracts/access/AccessControl.sol\":4341:4345  role */\n  dup4\n    /* \"@openzeppelin/contracts/access/AccessControl.sol\":4347:4354  account */\n  dup4\n    /* \"@openzeppelin/contracts/access/AccessControl.sol\":4330:4340  _grantRole */\n  shl(0x20, tag_14)\n    /* \"@openzeppelin/contracts/access/AccessControl.sol\":4330:4355  _grantRole(role, account) */\n  0x20\n  shr\n  jump\t// in\ntag_31:\n  pop\n    /* \"@openzeppelin/contracts/access/AccessControl.sol\":4226:4362  function grantRole(bytes32 role, address account) public virtual onlyRole(getRoleAdmin(role)) {... */\n  pop\n  pop\n  pop\n  jump\t// out\n    /* \"@openzeppelin/contracts/access/AccessControl.sol\":2854:2990  function hasRole(bytes32 role, address account) public view virtual returns (bool) {... */\ntag_20:\n    /* \"@openzeppelin/contracts/access/AccessControl.sol\":2931:2935  bool */\n  0x00\n    /* \"@openzeppelin/contracts/access/AccessControl.sol\":2954:2960  _roles */\n  0x05\n    /* \"@openzeppelin/contracts/access/AccessControl.sol\":2954:2966  _roles[role] */\n  0x00\n    /* \"@openzeppelin/contracts/access/AccessControl.sol\":2961:2965  role */\n  dup5\n    /* \"@openzeppelin/contracts/access/AccessControl.sol\":2954:2966  _roles[role] */\n  dup2\n  mstore\n  0x20\n  add\n  swap1\n  dup2\n  mstore\n  0x20\n  add\n  0x00\n  keccak256\n    /* \"@openzeppelin/contracts/access/AccessControl.sol\":2954:2974  _roles[role].hasRole */\n  0x00\n  add\n    /* \"@openzeppelin/contracts/access/AccessControl.sol\":2954:2983  _roles[role].hasRole[account] */\n  0x00\n    /* \"@openzeppelin/contracts/access/AccessControl.sol\":2975:2982  account */\n  dup4\n    /* \"@openzeppelin/contracts/access/AccessControl.sol\":2954:2983  _roles[role].hasRole[account] */\n  0xffffffffffffffffffffffffffffffffffffffff\n  and\n  0xffffffffffffffffffffffffffffffffffffffff\n  and\n  dup2\n  mstore\n  0x20\n  add\n  swap1\n  dup2\n  mstore\n  0x20\n  add\n  0x00\n  keccak256\n  0x00\n  swap1\n  sload\n  swap1\n  0x0100\n  exp\n  swap1\n  div\n  0xff\n  and\n    /* \"@openzeppelin/contracts/access/AccessControl.sol\":2947:2983  return _roles[role].hasRole[account] */\n  swap1\n  pop\n    /* \"@openzeppelin/contracts/access/AccessControl.sol\":2854:2990  function hasRole(bytes32 role, address account) public view virtual returns (bool) {... */\n  swap3\n  swap2\n  pop\n  pop\n  jump\t// out\n    /* \"@openzeppelin/contracts/utils/Context.sol\":656:752  function _msgSender() internal view virtual returns (address) {... */\ntag_23:\n    /* \"@openzeppelin/contracts/utils/Context.sol\":709:716  address */\n  0x00\n    /* \"@openzeppelin/contracts/utils/Context.sol\":735:745  msg.sender */\n  caller\n    /* \"@openzeppelin/contracts/utils/Context.sol\":728:745  return msg.sender */\n  swap1\n  pop\n    /* \"@openzeppelin/contracts/utils/Context.sol\":656:752  function _msgSender() internal view virtual returns (address) {... */\n  swap1\n  jump\t// out\n    /* \"@openzeppelin/contracts/access/AccessControl.sol\":3810:3930  function getRoleAdmin(bytes32 role) public view virtual returns (bytes32) {... */\ntag_26:\n    /* \"@openzeppelin/contracts/access/AccessControl.sol\":3875:3882  bytes32 */\n  0x00\n    /* \"@openzeppelin/contracts/access/AccessControl.sol\":3901:3907  _roles */\n  0x05\n    /* \"@openzeppelin/contracts/access/AccessControl.sol\":3901:3913  _roles[role] */\n  0x00\n    /* \"@openzeppelin/contracts/access/AccessControl.sol\":3908:3912  role */\n  dup4\n    /* \"@openzeppelin/contracts/access/AccessControl.sol\":3901:3913  _roles[role] */\n  dup2\n  mstore\n  0x20\n  add\n  swap1\n  dup2\n  mstore\n  0x20\n  add\n  0x00\n  keccak256\n    /* \"@openzeppelin/contracts/access/AccessControl.sol\":3901:3923  _roles[role].adminRole */\n  0x01\n  add\n  sload\n    /* \"@openzeppelin/contracts/access/AccessControl.sol\":3894:3923  return _roles[role].adminRole */\n  swap1\n  pop\n    /* \"@openzeppelin/contracts/access/AccessControl.sol\":3810:3930  function getRoleAdmin(bytes32 role) public view virtual returns (bytes32) {... */\n  swap2\n  swap1\n  pop\n  jump\t// out\n    /* \"@openzeppelin/contracts/access/AccessControl.sol\":3199:3302  function _checkRole(bytes32 role) internal view virtual {... */\ntag_29:\n    /* \"@openzeppelin/contracts/access/AccessControl.sol\":3265:3295  _checkRole(role, _msgSender()) */\n  tag_36\n    /* \"@openzeppelin/contracts/access/AccessControl.sol\":3276:3280  role */\n  dup2\n    /* \"@openzeppelin/contracts/access/AccessControl.sol\":3282:3294  _msgSender() */\n  tag_37\n    /* \"@openzeppelin/contracts/access/AccessControl.sol\":3282:3292  _msgSender */\n  shl(0x20, tag_23)\n    /* \"@openzeppelin/contracts/access/AccessControl.sol\":3282:3294  _msgSender() */\n  0x20\n  shr\n  jump\t// in\ntag_37:\n    /* \"@openzeppelin/contracts/access/AccessControl.sol\":3265:3275  _checkRole */\n  shl(0x20, tag_38)\n    /* \"@openzeppelin/contracts/access/AccessControl.sol\":3265:3295  _checkRole(role, _msgSender()) */\n  0x20\n  shr\n  jump\t// in\ntag_36:\n    /* \"@openzeppelin/contracts/access/AccessControl.sol\":3199:3302  function _checkRole(bytes32 role) internal view virtual {... */\n  pop\n  jump\t// out\n    /* \"@openzeppelin/contracts/access/AccessControl.sol\":3432:3629  function _checkRole(bytes32 role, address account) internal view virtual {... */\ntag_38:\n    /* \"@openzeppelin/contracts/access/AccessControl.sol\":3520:3542  hasRole(role, account) */\n  tag_40\n    /* \"@openzeppelin/contracts/access/AccessControl.sol\":3528:3532  role */\n  dup3\n    /* \"@openzeppelin/contracts/access/AccessControl.sol\":3534:3541  account */\n  dup3\n    /* \"@openzeppelin/contracts/access/AccessControl.sol\":3520:3527  hasRole */\n  shl(0x20, tag_20)\n    /* \"@openzeppelin/contracts/access/AccessControl.sol\":3520:3542  hasRole(role, account) */\n  0x20\n  shr\n  jump\t// in\ntag_40:\n    /* \"@openzeppelin/contracts/access/AccessControl.sol\":3515:3623  if (!hasRole(role, account)) {... */\n  tag_41\n  jumpi\n    /* \"@openzeppelin/contracts/access/AccessControl.sol\":3598:3605  account */\n  dup1\n    /* \"@openzeppelin/contracts/access/AccessControl.sol\":3607:3611  role */\n  dup3\n    /* \"@openzeppelin/contracts/access/AccessControl.sol\":3565:3612  AccessControlUnauthorizedAccount(account, role) */\n  mload(0x40)\n  0xe2517d3f00000000000000000000000000000000000000000000000000000000\n  dup2\n  mstore\n  0x04\n  add\n  tag_42\n  swap3\n  swap2\n  swap1\n  tag_43\n  jump\t// in\ntag_42:\n  mload(0x40)\n  dup1\n  swap2\n  sub\n  swap1\n  revert\n    /* \"@openzeppelin/contracts/access/AccessControl.sol\":3515:3623  if (!hasRole(role, account)) {... */\ntag_41:\n    /* \"@openzeppelin/contracts/access/AccessControl.sol\":3432:3629  function _checkRole(bytes32 role, address account) internal view virtual {... */\n  pop\n  pop\n  jump\t// out\n    /* \"#utility.yul\":7:82   */\ntag_44:\n    /* \"#utility.yul\":40:46   */\n  0x00\n    /* \"#utility.yul\":73:75   */\n  0x40\n    /* \"#utility.yul\":67:76   */\n  mload\n    /* \"#utility.yul\":57:76   */\n  swap1\n  pop\n    /* \"#utility.yul\":7:82   */\n  swap1\n  jump\t// out\n    /* \"#utility.yul\":88:205   */\ntag_45:\n    /* \"#utility.yul\":197:198   */\n  0x00\n    /* \"#utility.yul\":194:195   */\n  dup1\n    /* \"#utility.yul\":187:199   */\n  revert\n    /* \"#utility.yul\":211:328   */\ntag_46:\n    /* \"#utility.yul\":320:321   */\n  0x00\n    /* \"#utility.yul\":317:318   */\n  dup1\n    /* \"#utility.yul\":310:322   */\n  revert\n    /* \"#utility.yul\":334:451   */\ntag_47:\n    /* \"#utility.yul\":443:444   */\n  0x00\n    /* \"#utility.yul\":440:441   */\n  dup1\n    /* \"#utility.yul\":433:445   */\n  revert\n    /* \"#utility.yul\":457:574   */\ntag_48:\n    /* \"#utility.yul\":566:567   */\n  0x00\n    /* \"#utility.yul\":563:564   */\n  dup1\n    /* \"#utility.yul\":556:568   */\n  revert\n    /* \"#utility.yul\":580:682   */\ntag_49:\n    /* \"#utility.yul\":621:627   */\n  0x00\n    /* \"#utility.yul\":672:674   */\n  0x1f\n    /* \"#utility.yul\":668:675   */\n  not\n    /* \"#utility.yul\":663:665   */\n  0x1f\n    /* \"#utility.yul\":656:661   */\n  dup4\n    /* \"#utility.yul\":652:666   */\n  add\n    /* \"#utility.yul\":648:676   */\n  and\n    /* \"#utility.yul\":638:676   */\n  swap1\n  pop\n    /* \"#utility.yul\":580:682   */\n  swap2\n  swap1\n  pop\n  jump\t// out\n    /* \"#utility.yul\":688:868   */\ntag_50:\n    /* \"#utility.yul\":736:813   */\n  0x4e487b7100000000000000000000000000000000000000000000000000000000\n    /* \"#utility.yul\":733:734   */\n  0x00\n    /* \"#utility.yul\":726:814   */\n  mstore\n    /* \"#utility.yul\":833:837   */\n  0x41\n    /* \"#utility.yul\":830:831   */\n  0x04\n    /* \"#utility.yul\":823:838   */\n  mstore\n    /* \"#utility.yul\":857:861   */\n  0x24\n    /* \"#utility.yul\":854:855   */\n  0x00\n    /* \"#utility.yul\":847:862   */\n  revert\n    /* \"#utility.yul\":874:1155   */\ntag_51:\n    /* \"#utility.yul\":957:984   */\n  tag_95\n    /* \"#utility.yul\":979:983   */\n  dup3\n    /* \"#utility.yul\":957:984   */\n  tag_49\n  jump\t// in\ntag_95:\n    /* \"#utility.yul\":949:955   */\n  dup2\n    /* \"#utility.yul\":945:985   */\n  add\n    /* \"#utility.yul\":1087:1093   */\n  dup2\n    /* \"#utility.yul\":1075:1085   */\n  dup2\n    /* \"#utility.yul\":1072:1094   */\n  lt\n    /* \"#utility.yul\":1051:1069   */\n  0xffffffffffffffff\n    /* \"#utility.yul\":1039:1049   */\n  dup3\n    /* \"#utility.yul\":1036:1070   */\n  gt\n    /* \"#utility.yul\":1033:1095   */\n  or\n    /* \"#utility.yul\":1030:1118   */\n  iszero\n  tag_96\n  jumpi\n    /* \"#utility.yul\":1098:1116   */\n  tag_97\n  tag_50\n  jump\t// in\ntag_97:\n    /* \"#utility.yul\":1030:1118   */\ntag_96:\n    /* \"#utility.yul\":1138:1148   */\n  dup1\n    /* \"#utility.yul\":1134:1136   */\n  0x40\n    /* \"#utility.yul\":1127:1149   */\n  mstore\n    /* \"#utility.yul\":917:1155   */\n  pop\n    /* \"#utility.yul\":874:1155   */\n  pop\n  pop\n  jump\t// out\n    /* \"#utility.yul\":1161:1290   */\ntag_52:\n    /* \"#utility.yul\":1195:1201   */\n  0x00\n    /* \"#utility.yul\":1222:1242   */\n  tag_99\n  tag_44\n  jump\t// in\ntag_99:\n    /* \"#utility.yul\":1212:1242   */\n  swap1\n  pop\n    /* \"#utility.yul\":1251:1284   */\n  tag_100\n    /* \"#utility.yul\":1279:1283   */\n  dup3\n    /* \"#utility.yul\":1271:1277   */\n  dup3\n    /* \"#utility.yul\":1251:1284   */\n  tag_51\n  jump\t// in\ntag_100:\n    /* \"#utility.yul\":1161:1290   */\n  swap2\n  swap1\n  pop\n  jump\t// out\n    /* \"#utility.yul\":1296:1604   */\ntag_53:\n    /* \"#utility.yul\":1358:1362   */\n  0x00\n    /* \"#utility.yul\":1448:1466   */\n  0xffffffffffffffff\n    /* \"#utility.yul\":1440:1446   */\n  dup3\n    /* \"#utility.yul\":1437:1467   */\n  gt\n    /* \"#utility.yul\":1434:1490   */\n  iszero\n  tag_102\n  jumpi\n    /* \"#utility.yul\":1470:1488   */\n  tag_103\n  tag_50\n  jump\t// in\ntag_103:\n    /* \"#utility.yul\":1434:1490   */\ntag_102:\n    /* \"#utility.yul\":1508:1537   */\n  tag_104\n    /* \"#utility.yul\":1530:1536   */\n  dup3\n    /* \"#utility.yul\":1508:1537   */\n  tag_49\n  jump\t// in\ntag_104:\n    /* \"#utility.yul\":1500:1537   */\n  swap1\n  pop\n    /* \"#utility.yul\":1592:1596   */\n  0x20\n    /* \"#utility.yul\":1586:1590   */\n  dup2\n    /* \"#utility.yul\":1582:1597   */\n  add\n    /* \"#utility.yul\":1574:1597   */\n  swap1\n  pop\n    /* \"#utility.yul\":1296:1604   */\n  swap2\n  swap1\n  pop\n  jump\t// out\n    /* \"#utility.yul\":1610:1856   */\ntag_54:\n    /* \"#utility.yul\":1691:1692   */\n  0x00\n    /* \"#utility.yul\":1701:1814   */\ntag_106:\n    /* \"#utility.yul\":1715:1721   */\n  dup4\n    /* \"#utility.yul\":1712:1713   */\n  dup2\n    /* \"#utility.yul\":1709:1722   */\n  lt\n    /* \"#utility.yul\":1701:1814   */\n  iszero\n  tag_108\n  jumpi\n    /* \"#utility.yul\":1800:1801   */\n  dup1\n    /* \"#utility.yul\":1795:1798   */\n  dup3\n    /* \"#utility.yul\":1791:1802   */\n  add\n    /* \"#utility.yul\":1785:1803   */\n  mload\n    /* \"#utility.yul\":1781:1782   */\n  dup2\n    /* \"#utility.yul\":1776:1779   */\n  dup5\n    /* \"#utility.yul\":1772:1783   */\n  add\n    /* \"#utility.yul\":1765:1804   */\n  mstore\n    /* \"#utility.yul\":1737:1739   */\n  0x20\n    /* \"#utility.yul\":1734:1735   */\n  dup2\n    /* \"#utility.yul\":1730:1740   */\n  add\n    /* \"#utility.yul\":1725:1740   */\n  swap1\n  pop\n    /* \"#utility.yul\":1701:1814   */\n  jump(tag_106)\ntag_108:\n    /* \"#utility.yul\":1848:1849   */\n  0x00\n    /* \"#utility.yul\":1839:1845   */\n  dup5\n    /* \"#utility.yul\":1834:1837   */\n  dup5\n    /* \"#utility.yul\":1830:1846   */\n  add\n    /* \"#utility.yul\":1823:1850   */\n  mstore\n    /* \"#utility.yul\":1672:1856   */\n  pop\n    /* \"#utility.yul\":1610:1856   */\n  pop\n  pop\n  pop\n  jump\t// out\n    /* \"#utility.yul\":1862:2296   */\ntag_55:\n    /* \"#utility.yul\":1951:1956   */\n  0x00\n    /* \"#utility.yul\":1976:2042   */\n  tag_110\n    /* \"#utility.yul\":1992:2041   */\n  tag_111\n    /* \"#utility.yul\":2034:2040   */\n  dup5\n    /* \"#utility.yul\":1992:2041   */\n  tag_53\n  jump\t// in\ntag_111:\n    /* \"#utility.yul\":1976:2042   */\n  tag_52\n  jump\t// in\ntag_110:\n    /* \"#utility.yul\":1967:2042   */\n  swap1\n  pop\n    /* \"#utility.yul\":2065:2071   */\n  dup3\n    /* \"#utility.yul\":2058:2063   */\n  dup2\n    /* \"#utility.yul\":2051:2072   */\n  mstore\n    /* \"#utility.yul\":2103:2107   */\n  0x20\n    /* \"#utility.yul\":2096:2101   */\n  dup2\n    /* \"#utility.yul\":2092:2108   */\n  add\n    /* \"#utility.yul\":2141:2144   */\n  dup5\n    /* \"#utility.yul\":2132:2138   */\n  dup5\n    /* \"#utility.yul\":2127:2130   */\n  dup5\n    /* \"#utility.yul\":2123:2139   */\n  add\n    /* \"#utility.yul\":2120:2145   */\n  gt\n    /* \"#utility.yul\":2117:2229   */\n  iszero\n  tag_112\n  jumpi\n    /* \"#utility.yul\":2148:2227   */\n  tag_113\n  tag_48\n  jump\t// in\ntag_113:\n    /* \"#utility.yul\":2117:2229   */\ntag_112:\n    /* \"#utility.yul\":2238:2290   */\n  tag_114\n    /* \"#utility.yul\":2283:2289   */\n  dup5\n    /* \"#utility.yul\":2278:2281   */\n  dup3\n    /* \"#utility.yul\":2273:2276   */\n  dup6\n    /* \"#utility.yul\":2238:2290   */\n  tag_54\n  jump\t// in\ntag_114:\n    /* \"#utility.yul\":1957:2296   */\n  pop\n    /* \"#utility.yul\":1862:2296   */\n  swap4\n  swap3\n  pop\n  pop\n  pop\n  jump\t// out\n    /* \"#utility.yul\":2316:2671   */\ntag_56:\n    /* \"#utility.yul\":2383:2388   */\n  0x00\n    /* \"#utility.yul\":2432:2435   */\n  dup3\n    /* \"#utility.yul\":2425:2429   */\n  0x1f\n    /* \"#utility.yul\":2417:2423   */\n  dup4\n    /* \"#utility.yul\":2413:2430   */\n  add\n    /* \"#utility.yul\":2409:2436   */\n  slt\n    /* \"#utility.yul\":2399:2521   */\n  tag_116\n  jumpi\n    /* \"#utility.yul\":2440:2519   */\n  tag_117\n  tag_47\n  jump\t// in\ntag_117:\n    /* \"#utility.yul\":2399:2521   */\ntag_116:\n    /* \"#utility.yul\":2550:2556   */\n  dup2\n    /* \"#utility.yul\":2544:2557   */\n  mload\n    /* \"#utility.yul\":2575:2665   */\n  tag_118\n    /* \"#utility.yul\":2661:2664   */\n  dup5\n    /* \"#utility.yul\":2653:2659   */\n  dup3\n    /* \"#utility.yul\":2646:2650   */\n  0x20\n    /* \"#utility.yul\":2638:2644   */\n  dup7\n    /* \"#utility.yul\":2634:2651   */\n  add\n    /* \"#utility.yul\":2575:2665   */\n  tag_55\n  jump\t// in\ntag_118:\n    /* \"#utility.yul\":2566:2665   */\n  swap2\n  pop\n    /* \"#utility.yul\":2389:2671   */\n  pop\n    /* \"#utility.yul\":2316:2671   */\n  swap3\n  swap2\n  pop\n  pop\n  jump\t// out\n    /* \"#utility.yul\":2677:2754   */\ntag_57:\n    /* \"#utility.yul\":2714:2721   */\n  0x00\n    /* \"#utility.yul\":2743:2748   */\n  dup2\n    /* \"#utility.yul\":2732:2748   */\n  swap1\n  pop\n    /* \"#utility.yul\":2677:2754   */\n  swap2\n  swap1\n  pop\n  jump\t// out\n    /* \"#utility.yul\":2760:2882   */\ntag_58:\n    /* \"#utility.yul\":2833:2857   */\n  tag_121\n    /* \"#utility.yul\":2851:2856   */\n  dup2\n    /* \"#utility.yul\":2833:2857   */\n  tag_57\n  jump\t// in\ntag_121:\n    /* \"#utility.yul\":2826:2831   */\n  dup2\n    /* \"#utility.yul\":2823:2858   */\n  eq\n    /* \"#utility.yul\":2813:2876   */\n  tag_122\n  jumpi\n    /* \"#utility.yul\":2872:2873   */\n  0x00\n    /* \"#utility.yul\":2869:2870   */\n  dup1\n    /* \"#utility.yul\":2862:2874   */\n  revert\n    /* \"#utility.yul\":2813:2876   */\ntag_122:\n    /* \"#utility.yul\":2760:2882   */\n  pop\n  jump\t// out\n    /* \"#utility.yul\":2888:3031   */\ntag_59:\n    /* \"#utility.yul\":2945:2950   */\n  0x00\n    /* \"#utility.yul\":2976:2982   */\n  dup2\n    /* \"#utility.yul\":2970:2983   */\n  mload\n    /* \"#utility.yul\":2961:2983   */\n  swap1\n  pop\n    /* \"#utility.yul\":2992:3025   */\n  tag_124\n    /* \"#utility.yul\":3019:3024   */\n  dup2\n    /* \"#utility.yul\":2992:3025   */\n  tag_58\n  jump\t// in\ntag_124:\n    /* \"#utility.yul\":2888:3031   */\n  swap3\n  swap2\n  pop\n  pop\n  jump\t// out\n    /* \"#utility.yul\":3037:3163   */\ntag_60:\n    /* \"#utility.yul\":3074:3081   */\n  0x00\n    /* \"#utility.yul\":3114:3156   */\n  0xffffffffffffffffffffffffffffffffffffffff\n    /* \"#utility.yul\":3107:3112   */\n  dup3\n    /* \"#utility.yul\":3103:3157   */\n  and\n    /* \"#utility.yul\":3092:3157   */\n  swap1\n  pop\n    /* \"#utility.yul\":3037:3163   */\n  swap2\n  swap1\n  pop\n  jump\t// out\n    /* \"#utility.yul\":3169:3265   */\ntag_61:\n    /* \"#utility.yul\":3206:3213   */\n  0x00\n    /* \"#utility.yul\":3235:3259   */\n  tag_127\n    /* \"#utility.yul\":3253:3258   */\n  dup3\n    /* \"#utility.yul\":3235:3259   */\n  tag_60\n  jump\t// in\ntag_127:\n    /* \"#utility.yul\":3224:3259   */\n  swap1\n  pop\n    /* \"#utility.yul\":3169:3265   */\n  swap2\n  swap1\n  pop\n  jump\t// out\n    /* \"#utility.yul\":3271:3393   */\ntag_62:\n    /* \"#utility.yul\":3344:3368   */\n  tag_129\n    /* \"#utility.yul\":3362:3367   */\n  dup2\n    /* \"#utility.yul\":3344:3368   */\n  tag_61\n  jump\t// in\ntag_129:\n    /* \"#utility.yul\":3337:3342   */\n  dup2\n    /* \"#utility.yul\":3334:3369   */\n  eq\n    /* \"#utility.yul\":3324:3387   */\n  tag_130\n  jumpi\n    /* \"#utility.yul\":3383:3384   */\n  0x00\n    /* \"#utility.yul\":3380:3381   */\n  dup1\n    /* \"#utility.yul\":3373:3385   */\n  revert\n    /* \"#utility.yul\":3324:3387   */\ntag_130:\n    /* \"#utility.yul\":3271:3393   */\n  pop\n  jump\t// out\n    /* \"#utility.yul\":3399:3542   */\ntag_63:\n    /* \"#utility.yul\":3456:3461   */\n  0x00\n    /* \"#utility.yul\":3487:3493   */\n  dup2\n    /* \"#utility.yul\":3481:3494   */\n  mload\n    /* \"#utility.yul\":3472:3494   */\n  swap1\n  pop\n    /* \"#utility.yul\":3503:3536   */\n  tag_132\n    /* \"#utility.yul\":3530:3535   */\n  dup2\n    /* \"#utility.yul\":3503:3536   */\n  tag_62\n  jump\t// in\ntag_132:\n    /* \"#utility.yul\":3399:3542   */\n  swap3\n  swap2\n  pop\n  pop\n  jump\t// out\n    /* \"#utility.yul\":3548:4714   */\ntag_3:\n    /* \"#utility.yul\":3665:3671   */\n  0x00\n    /* \"#utility.yul\":3673:3679   */\n  dup1\n    /* \"#utility.yul\":3681:3687   */\n  0x00\n    /* \"#utility.yul\":3689:3695   */\n  dup1\n    /* \"#utility.yul\":3738:3741   */\n  0x80\n    /* \"#utility.yul\":3726:3735   */\n  dup6\n    /* \"#utility.yul\":3717:3724   */\n  dup8\n    /* \"#utility.yul\":3713:3736   */\n  sub\n    /* \"#utility.yul\":3709:3742   */\n  slt\n    /* \"#utility.yul\":3706:3826   */\n  iszero\n  tag_134\n  jumpi\n    /* \"#utility.yul\":3745:3824   */\n  tag_135\n  tag_45\n  jump\t// in\ntag_135:\n    /* \"#utility.yul\":3706:3826   */\ntag_134:\n    /* \"#utility.yul\":3886:3887   */\n  0x00\n    /* \"#utility.yul\":3875:3884   */\n  dup6\n    /* \"#utility.yul\":3871:3888   */\n  add\n    /* \"#utility.yul\":3865:3889   */\n  mload\n    /* \"#utility.yul\":3916:3934   */\n  0xffffffffffffffff\n    /* \"#utility.yul\":3908:3914   */\n  dup2\n    /* \"#utility.yul\":3905:3935   */\n  gt\n    /* \"#utility.yul\":3902:4019   */\n  iszero\n  tag_136\n  jumpi\n    /* \"#utility.yul\":3938:4017   */\n  tag_137\n  tag_46\n  jump\t// in\ntag_137:\n    /* \"#utility.yul\":3902:4019   */\ntag_136:\n    /* \"#utility.yul\":4043:4117   */\n  tag_138\n    /* \"#utility.yul\":4109:4116   */\n  dup8\n    /* \"#utility.yul\":4100:4106   */\n  dup3\n    /* \"#utility.yul\":4089:4098   */\n  dup9\n    /* \"#utility.yul\":4085:4107   */\n  add\n    /* \"#utility.yul\":4043:4117   */\n  tag_56\n  jump\t// in\ntag_138:\n    /* \"#utility.yul\":4033:4117   */\n  swap5\n  pop\n    /* \"#utility.yul\":3836:4127   */\n  pop\n    /* \"#utility.yul\":4187:4189   */\n  0x20\n    /* \"#utility.yul\":4176:4185   */\n  dup6\n    /* \"#utility.yul\":4172:4190   */\n  add\n    /* \"#utility.yul\":4166:4191   */\n  mload\n    /* \"#utility.yul\":4218:4236   */\n  0xffffffffffffffff\n    /* \"#utility.yul\":4210:4216   */\n  dup2\n    /* \"#utility.yul\":4207:4237   */\n  gt\n    /* \"#utility.yul\":4204:4321   */\n  iszero\n  tag_139\n  jumpi\n    /* \"#utility.yul\":4240:4319   */\n  tag_140\n  tag_46\n  jump\t// in\ntag_140:\n    /* \"#utility.yul\":4204:4321   */\ntag_139:\n    /* \"#utility.yul\":4345:4419   */\n  tag_141\n    /* \"#utility.yul\":4411:4418   */\n  dup8\n    /* \"#utility.yul\":4402:4408   */\n  dup3\n    /* \"#utility.yul\":4391:4400   */\n  dup9\n    /* \"#utility.yul\":4387:4409   */\n  add\n    /* \"#utility.yul\":4345:4419   */\n  tag_56\n  jump\t// in\ntag_141:\n    /* \"#utility.yul\":4335:4419   */\n  swap4\n  pop\n    /* \"#utility.yul\":4137:4429   */\n  pop\n    /* \"#utility.yul\":4468:4470   */\n  0x40\n    /* \"#utility.yul\":4494:4558   */\n  tag_142\n    /* \"#utility.yul\":4550:4557   */\n  dup8\n    /* \"#utility.yul\":4541:4547   */\n  dup3\n    /* \"#utility.yul\":4530:4539   */\n  dup9\n    /* \"#utility.yul\":4526:4548   */\n  add\n    /* \"#utility.yul\":4494:4558   */\n  tag_59\n  jump\t// in\ntag_142:\n    /* \"#utility.yul\":4484:4558   */\n  swap3\n  pop\n    /* \"#utility.yul\":4439:4568   */\n  pop\n    /* \"#utility.yul\":4607:4609   */\n  0x60\n    /* \"#utility.yul\":4633:4697   */\n  tag_143\n    /* \"#utility.yul\":4689:4696   */\n  dup8\n    /* \"#utility.yul\":4680:4686   */\n  dup3\n    /* \"#utility.yul\":4669:4678   */\n  dup9\n    /* \"#utility.yul\":4665:4687   */\n  add\n    /* \"#utility.yul\":4633:4697   */\n  tag_63\n  jump\t// in\ntag_143:\n    /* \"#utility.yul\":4623:4697   */\n  swap2\n  pop\n    /* \"#utility.yul\":4578:4707   */\n  pop\n    /* \"#utility.yul\":3548:4714   */\n  swap3\n  swap6\n  swap2\n  swap5\n  pop\n  swap3\n  pop\n  jump\t// out\n    /* \"#utility.yul\":4720:4819   */\ntag_64:\n    /* \"#utility.yul\":4772:4778   */\n  0x00\n    /* \"#utility.yul\":4806:4811   */\n  dup2\n    /* \"#utility.yul\":4800:4812   */\n  mload\n    /* \"#utility.yul\":4790:4812   */\n  swap1\n  pop\n    /* \"#utility.yul\":4720:4819   */\n  swap2\n  swap1\n  pop\n  jump\t// out\n    /* \"#utility.yul\":4825:5005   */\ntag_65:\n    /* \"#utility.yul\":4873:4950   */\n  0x4e487b7100000000000000000000000000000000000000000000000000000000\n    /* \"#utility.yul\":4870:4871   */\n  0x00\n    /* \"#utility.yul\":4863:4951   */\n  mstore\n    /* \"#utility.yul\":4970:4974   */\n  0x22\n    /* \"#utility.yul\":4967:4968   */\n  0x04\n    /* \"#utility.yul\":4960:4975   */\n  mstore\n    /* \"#utility.yul\":4994:4998   */\n  0x24\n    /* \"#utility.yul\":4991:4992   */\n  0x00\n    /* \"#utility.yul\":4984:4999   */\n  revert\n    /* \"#utility.yul\":5011:5331   */\ntag_66:\n    /* \"#utility.yul\":5055:5061   */\n  0x00\n    /* \"#utility.yul\":5092:5093   */\n  0x02\n    /* \"#utility.yul\":5086:5090   */\n  dup3\n    /* \"#utility.yul\":5082:5094   */\n  div\n    /* \"#utility.yul\":5072:5094   */\n  swap1\n  pop\n    /* \"#utility.yul\":5139:5140   */\n  0x01\n    /* \"#utility.yul\":5133:5137   */\n  dup3\n    /* \"#utility.yul\":5129:5141   */\n  and\n    /* \"#utility.yul\":5160:5178   */\n  dup1\n    /* \"#utility.yul\":5150:5231   */\n  tag_147\n  jumpi\n    /* \"#utility.yul\":5216:5220   */\n  0x7f\n    /* \"#utility.yul\":5208:5214   */\n  dup3\n    /* \"#utility.yul\":5204:5221   */\n  and\n    /* \"#utility.yul\":5194:5221   */\n  swap2\n  pop\n    /* \"#utility.yul\":5150:5231   */\ntag_147:\n    /* \"#utility.yul\":5278:5280   */\n  0x20\n    /* \"#utility.yul\":5270:5276   */\n  dup3\n    /* \"#utility.yul\":5267:5281   */\n  lt\n    /* \"#utility.yul\":5247:5265   */\n  dup2\n    /* \"#utility.yul\":5244:5282   */\n  sub\n    /* \"#utility.yul\":5241:5325   */\n  tag_148\n  jumpi\n    /* \"#utility.yul\":5297:5315   */\n  tag_149\n  tag_65\n  jump\t// in\ntag_149:\n    /* \"#utility.yul\":5241:5325   */\ntag_148:\n    /* \"#utility.yul\":5062:5331   */\n  pop\n    /* \"#utility.yul\":5011:5331   */\n  swap2\n  swap1\n  pop\n  jump\t// out\n    /* \"#utility.yul\":5337:5478   */\ntag_67:\n    /* \"#utility.yul\":5386:5390   */\n  0x00\n    /* \"#utility.yul\":5409:5412   */\n  dup2\n    /* \"#utility.yul\":5401:5412   */\n  swap1\n  pop\n    /* \"#utility.yul\":5432:5435   */\n  dup2\n    /* \"#utility.yul\":5429:5430   */\n  0x00\n    /* \"#utility.yul\":5422:5436   */\n  mstore\n    /* \"#utility.yul\":5466:5470   */\n  0x20\n    /* \"#utility.yul\":5463:5464   */\n  0x00\n    /* \"#utility.yul\":5453:5471   */\n  keccak256\n    /* \"#utility.yul\":5445:5471   */\n  swap1\n  pop\n    /* \"#utility.yul\":5337:5478   */\n  swap2\n  swap1\n  pop\n  jump\t// out\n    /* \"#utility.yul\":5484:5577   */\ntag_68:\n    /* \"#utility.yul\":5521:5527   */\n  0x00\n    /* \"#utility.yul\":5568:5570   */\n  0x20\n    /* \"#utility.yul\":5563:5565   */\n  0x1f\n    /* \"#utility.yul\":5556:5561   */\n  dup4\n    /* \"#utility.yul\":5552:5566   */\n  add\n    /* \"#utility.yul\":5548:5571   */\n  div\n    /* \"#utility.yul\":5538:5571   */\n  swap1\n  pop\n    /* \"#utility.yul\":5484:5577   */\n  swap2\n  swap1\n  pop\n  jump\t// out\n    /* \"#utility.yul\":5583:5690   */\ntag_69:\n    /* \"#utility.yul\":5627:5635   */\n  0x00\n    /* \"#utility.yul\":5677:5682   */\n  dup3\n    /* \"#utility.yul\":5671:5675   */\n  dup3\n    /* \"#utility.yul\":5667:5683   */\n  shl\n    /* \"#utility.yul\":5646:5683   */\n  swap1\n  pop\n    /* \"#utility.yul\":5583:5690   */\n  swap3\n  swap2\n  pop\n  pop\n  jump\t// out\n    /* \"#utility.yul\":5696:6089   */\ntag_70:\n    /* \"#utility.yul\":5765:5771   */\n  0x00\n    /* \"#utility.yul\":5815:5816   */\n  0x08\n    /* \"#utility.yul\":5803:5813   */\n  dup4\n    /* \"#utility.yul\":5799:5817   */\n  mul\n    /* \"#utility.yul\":5838:5935   */\n  tag_154\n    /* \"#utility.yul\":5868:5934   */\n  0xffffffffffffffffffffffffffffffffffffffffffffffffffffffffffffffff\n    /* \"#utility.yul\":5857:5866   */\n  dup3\n    /* \"#utility.yul\":5838:5935   */\n  tag_69\n  jump\t// in\ntag_154:\n    /* \"#utility.yul\":5956:5995   */\n  tag_155\n    /* \"#utility.yul\":5986:5994   */\n  dup7\n    /* \"#utility.yul\":5975:5984   */\n  dup4\n    /* \"#utility.yul\":5956:5995   */\n  tag_69\n  jump\t// in\ntag_155:\n    /* \"#utility.yul\":5944:5995   */\n  swap6\n  pop\n    /* \"#utility.yul\":6028:6032   */\n  dup1\n    /* \"#utility.yul\":6024:6033   */\n  not\n    /* \"#utility.yul\":6017:6022   */\n  dup5\n    /* \"#utility.yul\":6013:6034   */\n  and\n    /* \"#utility.yul\":6004:6034   */\n  swap4\n  pop\n    /* \"#utility.yul\":6077:6081   */\n  dup1\n    /* \"#utility.yul\":6067:6075   */\n  dup7\n    /* \"#utility.yul\":6063:6082   */\n  and\n    /* \"#utility.yul\":6056:6061   */\n  dup5\n    /* \"#utility.yul\":6053:6083   */\n  or\n    /* \"#utility.yul\":6043:6083   */\n  swap3\n  pop\n    /* \"#utility.yul\":5772:6089   */\n  pop\n  pop\n    /* \"#utility.yul\":5696:6089   */\n  swap4\n  swap3\n  pop\n  pop\n  pop\n  jump\t// out\n    /* \"#utility.yul\":6095:6155   */\ntag_71:\n    /* \"#utility.yul\":6123:6126   */\n  0x00\n    /* \"#utility.yul\":6144:6149   */\n  dup2\n    /* \"#utility.yul\":6137:6149   */\n  swap1\n  pop\n    /* \"#utility.yul\":6095:6155   */\n  swap2\n  swap1\n  pop\n  jump\t// out\n    /* \"#utility.yul\":6161:6303   */\ntag_72:\n    /* \"#utility.yul\":6211:6220   */\n  0x00\n    /* \"#utility.yul\":6244:6297   */\n  tag_158\n    /* \"#utility.yul\":6262:6296   */\n  tag_159\n    /* \"#utility.yul\":6271:6295   */\n  tag_160\n    /* \"#utility.yul\":6289:6294   */\n  dup5\n    /* \"#utility.yul\":6271:6295   */\n  tag_57\n  jump\t// in\ntag_160:\n    /* \"#utility.yul\":6262:6296   */\n  tag_71\n  jump\t// in\ntag_159:\n    /* \"#utility.yul\":6244:6297   */\n  tag_57\n  jump\t// in\ntag_158:\n    /* \"#utility.yul\":6231:6297   */\n  swap1\n  pop\n    /* \"#utility.yul\":6161:6303   */\n  swap2\n  swap1\n  pop\n  jump\t// out\n    /* \"#utility.yul\":6309:6384   */\ntag_73:\n    /* \"#utility.yul\":6352:6355   */\n  0x00\n    /* \"#utility.yul\":6373:6378   */\n  dup2\n    /* \"#utility.yul\":6366:6378   */\n  swap1\n  pop\n    /* \"#utility.yul\":6309:6384   */\n  swap2\n  swap1\n  pop\n  jump\t// out\n    /* \"#utility.yul\":6390:6659   */\ntag_74:\n    /* \"#utility.yul\":6500:6539   */\n  tag_163\n    /* \"#utility.yul\":6531:6538   */\n  dup4\n    /* \"#utility.yul\":6500:6539   */\n  tag_72\n  jump\t// in\ntag_163:\n    /* \"#utility.yul\":6561:6652   */\n  tag_164\n    /* \"#utility.yul\":6610:6651   */\n  tag_165\n    /* \"#utility.yul\":6634:6650   */\n  dup3\n    /* \"#utility.yul\":6610:6651   */\n  tag_73\n  jump\t// in\ntag_165:\n    /* \"#utility.yul\":6602:6608   */\n  dup5\n    /* \"#utility.yul\":6595:6599   */\n  dup5\n    /* \"#utility.yul\":6589:6600   */\n  sload\n    /* \"#utility.yul\":6561:6652   */\n  tag_70\n  jump\t// in\ntag_164:\n    /* \"#utility.yul\":6555:6559   */\n  dup3\n    /* \"#utility.yul\":6548:6653   */\n  sstore\n    /* \"#utility.yul\":6466:6659   */\n  pop\n    /* \"#utility.yul\":6390:6659   */\n  pop\n  pop\n  pop\n  jump\t// out\n    /* \"#utility.yul\":6665:6738   */\ntag_75:\n    /* \"#utility.yul\":6710:6713   */\n  0x00\n    /* \"#utility.yul\":6665:6738   */\n  swap1\n  jump\t// out\n    /* \"#utility.yul\":6744:6933   */\ntag_76:\n    /* \"#utility.yul\":6821:6853   */\n  tag_168\n  tag_75\n  jump\t// in\ntag_168:\n    /* \"#utility.yul\":6862:6927   */\n  tag_169\n    /* \"#utility.yul\":6920:6926   */\n  dup2\n    /* \"#utility.yul\":6912:6918   */\n  dup5\n    /* \"#utility.yul\":6906:6910   */\n  dup5\n    /* \"#utility.yul\":6862:6927   */\n  tag_74\n  jump\t// in\ntag_169:\n    /* \"#utility.yul\":6797:6933   */\n  pop\n    /* \"#utility.yul\":6744:6933   */\n  pop\n  pop\n  jump\t// out\n    /* \"#utility.yul\":6939:7125   */\ntag_77:\n    /* \"#utility.yul\":6999:7119   */\ntag_171:\n    /* \"#utility.yul\":7016:7019   */\n  dup2\n    /* \"#utility.yul\":7009:7014   */\n  dup2\n    /* \"#utility.yul\":7006:7020   */\n  lt\n    /* \"#utility.yul\":6999:7119   */\n  iszero\n  tag_173\n  jumpi\n    /* \"#utility.yul\":7070:7109   */\n  tag_174\n    /* \"#utility.yul\":7107:7108   */\n  0x00\n    /* \"#utility.yul\":7100:7105   */\n  dup3\n    /* \"#utility.yul\":7070:7109   */\n  tag_76\n  jump\t// in\ntag_174:\n    /* \"#utility.yul\":7043:7044   */\n  0x01\n    /* \"#utility.yul\":7036:7041   */\n  dup2\n    /* \"#utility.yul\":7032:7045   */\n  add\n    /* \"#utility.yul\":7023:7045   */\n  swap1\n  pop\n    /* \"#utility.yul\":6999:7119   */\n  jump(tag_171)\ntag_173:\n    /* \"#utility.yul\":6939:7125   */\n  pop\n  pop\n  jump\t// out\n    /* \"#utility.yul\":7131:7674   */\ntag_78:\n    /* \"#utility.yul\":7232:7234   */\n  0x1f\n    /* \"#utility.yul\":7227:7230   */\n  dup3\n    /* \"#utility.yul\":7224:7235   */\n  gt\n    /* \"#utility.yul\":7221:7667   */\n  iszero\n  tag_176\n  jumpi\n    /* \"#utility.yul\":7266:7304   */\n  tag_177\n    /* \"#utility.yul\":7298:7303   */\n  dup2\n    /* \"#utility.yul\":7266:7304   */\n  tag_67\n  jump\t// in\ntag_177:\n    /* \"#utility.yul\":7350:7379   */\n  tag_178\n    /* \"#utility.yul\":7368:7378   */\n  dup5\n    /* \"#utility.yul\":7350:7379   */\n  tag_68\n  jump\t// in\ntag_178:\n    /* \"#utility.yul\":7340:7348   */\n  dup2\n    /* \"#utility.yul\":7336:7380   */\n  add\n    /* \"#utility.yul\":7533:7535   */\n  0x20\n    /* \"#utility.yul\":7521:7531   */\n  dup6\n    /* \"#utility.yul\":7518:7536   */\n  lt\n    /* \"#utility.yul\":7515:7564   */\n  iszero\n  tag_179\n  jumpi\n    /* \"#utility.yul\":7554:7562   */\n  dup2\n    /* \"#utility.yul\":7539:7562   */\n  swap1\n  pop\n    /* \"#utility.yul\":7515:7564   */\ntag_179:\n    /* \"#utility.yul\":7577:7657   */\n  tag_180\n    /* \"#utility.yul\":7633:7655   */\n  tag_181\n    /* \"#utility.yul\":7651:7654   */\n  dup6\n    /* \"#utility.yul\":7633:7655   */\n  tag_68\n  jump\t// in\ntag_181:\n    /* \"#utility.yul\":7623:7631   */\n  dup4\n    /* \"#utility.yul\":7619:7656   */\n  add\n    /* \"#utility.yul\":7606:7617   */\n  dup3\n    /* \"#utility.yul\":7577:7657   */\n  tag_77\n  jump\t// in\ntag_180:\n    /* \"#utility.yul\":7236:7667   */\n  pop\n  pop\n    /* \"#utility.yul\":7221:7667   */\ntag_176:\n    /* \"#utility.yul\":7131:7674   */\n  pop\n  pop\n  pop\n  jump\t// out\n    /* \"#utility.yul\":7680:7797   */\ntag_79:\n    /* \"#utility.yul\":7734:7742   */\n  0x00\n    /* \"#utility.yul\":7784:7789   */\n  dup3\n    /* \"#utility.yul\":7778:7782   */\n  dup3\n    /* \"#utility.yul\":7774:7790   */\n  shr\n    /* \"#utility.yul\":7753:7790   */\n  swap1\n  pop\n    /* \"#utility.yul\":7680:7797   */\n  swap3\n  swap2\n  pop\n  pop\n  jump\t// out\n    /* \"#utility.yul\":7803:7972   */\ntag_80:\n    /* \"#utility.yul\":7847:7853   */\n  0x00\n    /* \"#utility.yul\":7880:7931   */\n  tag_184\n    /* \"#utility.yul\":7928:7929   */\n  0x00\n    /* \"#utility.yul\":7924:7930   */\n  not\n    /* \"#utility.yul\":7916:7921   */\n  dup5\n    /* \"#utility.yul\":7913:7914   */\n  0x08\n    /* \"#utility.yul\":7909:7922   */\n  mul\n    /* \"#utility.yul\":7880:7931   */\n  tag_79\n  jump\t// in\ntag_184:\n    /* \"#utility.yul\":7876:7932   */\n  not\n    /* \"#utility.yul\":7961:7965   */\n  dup1\n    /* \"#utility.yul\":7955:7959   */\n  dup4\n    /* \"#utility.yul\":7951:7966   */\n  and\n    /* \"#utility.yul\":7941:7966   */\n  swap2\n  pop\n    /* \"#utility.yul\":7854:7972   */\n  pop\n    /* \"#utility.yul\":7803:7972   */\n  swap3\n  swap2\n  pop\n  pop\n  jump\t// out\n    /* \"#utility.yul\":7977:8272   */\ntag_81:\n    /* \"#utility.yul\":8053:8057   */\n  0x00\n    /* \"#utility.yul\":8199:8228   */\n  tag_186\n    /* \"#utility.yul\":8224:8227   */\n  dup4\n    /* \"#utility.yul\":8218:8222   */\n  dup4\n    /* \"#utility.yul\":8199:8228   */\n  tag_80\n  jump\t// in\ntag_186:\n    /* \"#utility.yul\":8191:8228   */\n  swap2\n  pop\n    /* \"#utility.yul\":8261:8264   */\n  dup3\n    /* \"#utility.yul\":8258:8259   */\n  0x02\n    /* \"#utility.yul\":8254:8265   */\n  mul\n    /* \"#utility.yul\":8248:8252   */\n  dup3\n    /* \"#utility.yul\":8245:8266   */\n  or\n    /* \"#utility.yul\":8237:8266   */\n  swap1\n  pop\n    /* \"#utility.yul\":7977:8272   */\n  swap3\n  swap2\n  pop\n  pop\n  jump\t// out\n    /* \"#utility.yul\":8277:9672   */\ntag_8:\n    /* \"#utility.yul\":8394:8431   */\n  tag_188\n    /* \"#utility.yul\":8427:8430   */\n  dup3\n    /* \"#utility.yul\":8394:8431   */\n  tag_64\n  jump\t// in\ntag_188:\n    /* \"#utility.yul\":8496:8514   */\n  0xffffffffffffffff\n    /* \"#utility.yul\":8488:8494   */\n  dup2\n    /* \"#utility.yul\":8485:8515   */\n  gt\n    /* \"#utility.yul\":8482:8538   */\n  iszero\n  tag_189\n  jumpi\n    /* \"#utility.yul\":8518:8536   */\n  tag_190\n  tag_50\n  jump\t// in\ntag_190:\n    /* \"#utility.yul\":8482:8538   */\ntag_189:\n    /* \"#utility.yul\":8562:8600   */\n  tag_191\n    /* \"#utility.yul\":8594:8598   */\n  dup3\n    /* \"#utility.yul\":8588:8599   */\n  sload\n    /* \"#utility.yul\":8562:8600   */\n  tag_66\n  jump\t// in\ntag_191:\n    /* \"#utility.yul\":8647:8714   */\n  tag_192\n    /* \"#utility.yul\":8707:8713   */\n  dup3\n    /* \"#utility.yul\":8699:8705   */\n  dup3\n    /* \"#utility.yul\":8693:8697   */\n  dup6\n    /* \"#utility.yul\":8647:8714   */\n  tag_78\n  jump\t// in\ntag_192:\n    /* \"#utility.yul\":8741:8742   */\n  0x00\n    /* \"#utility.yul\":8765:8769   */\n  0x20\n    /* \"#utility.yul\":8752:8769   */\n  swap1\n  pop\n    /* \"#utility.yul\":8797:8799   */\n  0x1f\n    /* \"#utility.yul\":8789:8795   */\n  dup4\n    /* \"#utility.yul\":8786:8800   */\n  gt\n    /* \"#utility.yul\":8814:8815   */\n  0x01\n    /* \"#utility.yul\":8809:9427   */\n  dup2\n  eq\n  tag_194\n  jumpi\n    /* \"#utility.yul\":9471:9472   */\n  0x00\n    /* \"#utility.yul\":9488:9494   */\n  dup5\n    /* \"#utility.yul\":9485:9562   */\n  iszero\n  tag_195\n  jumpi\n    /* \"#utility.yul\":9537:9546   */\n  dup3\n    /* \"#utility.yul\":9532:9535   */\n  dup8\n    /* \"#utility.yul\":9528:9547   */\n  add\n    /* \"#utility.yul\":9522:9548   */\n  mload\n    /* \"#utility.yul\":9513:9548   */\n  swap1\n  pop\n    /* \"#utility.yul\":9485:9562   */\ntag_195:\n    /* \"#utility.yul\":9588:9655   */\n  tag_196\n    /* \"#utility.yul\":9648:9654   */\n  dup6\n    /* \"#utility.yul\":9641:9646   */\n  dup3\n    /* \"#utility.yul\":9588:9655   */\n  tag_81\n  jump\t// in\ntag_196:\n    /* \"#utility.yul\":9582:9586   */\n  dup7\n    /* \"#utility.yul\":9575:9656   */\n  sstore\n    /* \"#utility.yul\":9444:9666   */\n  pop\n    /* \"#utility.yul\":8779:9666   */\n  jump(tag_193)\n    /* \"#utility.yul\":8809:9427   */\ntag_194:\n    /* \"#utility.yul\":8861:8865   */\n  0x1f\n    /* \"#utility.yul\":8857:8866   */\n  not\n    /* \"#utility.yul\":8849:8855   */\n  dup5\n    /* \"#utility.yul\":8845:8867   */\n  and\n    /* \"#utility.yul\":8895:8932   */\n  tag_197\n    /* \"#utility.yul\":8927:8931   */\n  dup7\n    /* \"#utility.yul\":8895:8932   */\n  tag_67\n  jump\t// in\ntag_197:\n    /* \"#utility.yul\":8954:8955   */\n  0x00\n    /* \"#utility.yul\":8968:9176   */\ntag_198:\n    /* \"#utility.yul\":8982:8989   */\n  dup3\n    /* \"#utility.yul\":8979:8980   */\n  dup2\n    /* \"#utility.yul\":8976:8990   */\n  lt\n    /* \"#utility.yul\":8968:9176   */\n  iszero\n  tag_200\n  jumpi\n    /* \"#utility.yul\":9061:9070   */\n  dup5\n    /* \"#utility.yul\":9056:9059   */\n  dup10\n    /* \"#utility.yul\":9052:9071   */\n  add\n    /* \"#utility.yul\":9046:9072   */\n  mload\n    /* \"#utility.yul\":9038:9044   */\n  dup3\n    /* \"#utility.yul\":9031:9073   */\n  sstore\n    /* \"#utility.yul\":9112:9113   */\n  0x01\n    /* \"#utility.yul\":9104:9110   */\n  dup3\n    /* \"#utility.yul\":9100:9114   */\n  add\n    /* \"#utility.yul\":9090:9114   */\n  swap2\n  pop\n    /* \"#utility.yul\":9159:9161   */\n  0x20\n    /* \"#utility.yul\":9148:9157   */\n  dup6\n    /* \"#utility.yul\":9144:9162   */\n  add\n    /* \"#utility.yul\":9131:9162   */\n  swap5\n  pop\n    /* \"#utility.yul\":9005:9009   */\n  0x20\n    /* \"#utility.yul\":9002:9003   */\n  dup2\n    /* \"#utility.yul\":8998:9010   */\n  add\n    /* \"#utility.yul\":8993:9010   */\n  swap1\n  pop\n    /* \"#utility.yul\":8968:9176   */\n  jump(tag_198)\ntag_200:\n    /* \"#utility.yul\":9204:9210   */\n  dup7\n    /* \"#utility.yul\":9195:9202   */\n  dup4\n    /* \"#utility.yul\":9192:9211   */\n  lt\n    /* \"#utility.yul\":9189:9368   */\n  iszero\n  tag_201\n  jumpi\n    /* \"#utility.yul\":9262:9271   */\n  dup5\n    /* \"#utility.yul\":9257:9260   */\n  dup10\n    /* \"#utility.yul\":9253:9272   */\n  add\n    /* \"#utility.yul\":9247:9273   */\n  mload\n    /* \"#utility.yul\":9305:9353   */\n  tag_202\n    /* \"#utility.yul\":9347:9351   */\n  0x1f\n    /* \"#utility.yul\":9339:9345   */\n  dup10\n    /* \"#utility.yul\":9335:9352   */\n  and\n    /* \"#utility.yul\":9324:9333   */\n  dup3\n    /* \"#utility.yul\":9305:9353   */\n  tag_80\n  jump\t// in\ntag_202:\n    /* \"#utility.yul\":9297:9303   */\n  dup4\n    /* \"#utility.yul\":9290:9354   */\n  sstore\n    /* \"#utility.yul\":9212:9368   */\n  pop\n    /* \"#utility.yul\":9189:9368   */\ntag_201:\n    /* \"#utility.yul\":9414:9415   */\n  0x01\n    /* \"#utility.yul\":9410:9411   */\n  0x02\n    /* \"#utility.yul\":9402:9408   */\n  dup9\n    /* \"#utility.yul\":9398:9412   */\n  mul\n    /* \"#utility.yul\":9394:9416   */\n  add\n    /* \"#utility.yul\":9388:9392   */\n  dup9\n    /* \"#utility.yul\":9381:9417   */\n  sstore\n    /* \"#utility.yul\":8816:9427   */\n  pop\n  pop\n  pop\n    /* \"#utility.yul\":8779:9666   */\ntag_193:\n  pop\n    /* \"#utility.yul\":8369:9672   */\n  pop\n  pop\n  pop\n    /* \"#utility.yul\":8277:9672   */\n  pop\n  pop\n  jump\t// out\n    /* \"#utility.yul\":9678:9858   */\ntag_82:\n    /* \"#utility.yul\":9726:9803   */\n  0x4e487b7100000000000000000000000000000000000000000000000000000000\n    /* \"#utility.yul\":9723:9724   */\n  0x00\n    /* \"#utility.yul\":9716:9804   */\n  mstore\n    /* \"#utility.yul\":9823:9827   */\n  0x11\n    /* \"#utility.yul\":9820:9821   */\n  0x04\n    /* \"#utility.yul\":9813:9828   */\n  mstore\n    /* \"#utility.yul\":9847:9851   */\n  0x24\n    /* \"#utility.yul\":9844:9845   */\n  0x00\n    /* \"#utility.yul\":9837:9852   */\n  revert\n    /* \"#utility.yul\":9864:10274   */\ntag_12:\n    /* \"#utility.yul\":9904:9911   */\n  0x00\n    /* \"#utility.yul\":9927:9947   */\n  tag_205\n    /* \"#utility.yul\":9945:9946   */\n  dup3\n    /* \"#utility.yul\":9927:9947   */\n  tag_57\n  jump\t// in\ntag_205:\n    /* \"#utility.yul\":9922:9947   */\n  swap2\n  pop\n    /* \"#utility.yul\":9961:9981   */\n  tag_206\n    /* \"#utility.yul\":9979:9980   */\n  dup4\n    /* \"#utility.yul\":9961:9981   */\n  tag_57\n  jump\t// in\ntag_206:\n    /* \"#utility.yul\":9956:9981   */\n  swap3\n  pop\n    /* \"#utility.yul\":10016:10017   */\n  dup3\n    /* \"#utility.yul\":10013:10014   */\n  dup3\n    /* \"#utility.yul\":10009:10018   */\n  mul\n    /* \"#utility.yul\":10038:10068   */\n  tag_207\n    /* \"#utility.yul\":10056:10067   */\n  dup2\n    /* \"#utility.yul\":10038:10068   */\n  tag_57\n  jump\t// in\ntag_207:\n    /* \"#utility.yul\":10027:10068   */\n  swap2\n  pop\n    /* \"#utility.yul\":10217:10218   */\n  dup3\n    /* \"#utility.yul\":10208:10215   */\n  dup3\n    /* \"#utility.yul\":10204:10219   */\n  div\n    /* \"#utility.yul\":10201:10202   */\n  dup5\n    /* \"#utility.yul\":10198:10220   */\n  eq\n    /* \"#utility.yul\":10178:10179   */\n  dup4\n    /* \"#utility.yul\":10171:10180   */\n  iszero\n    /* \"#utility.yul\":10151:10234   */\n  or\n    /* \"#utility.yul\":10128:10267   */\n  tag_208\n  jumpi\n    /* \"#utility.yul\":10247:10265   */\n  tag_209\n  tag_82\n  jump\t// in\ntag_209:\n    /* \"#utility.yul\":10128:10267   */\ntag_208:\n    /* \"#utility.yul\":9912:10274   */\n  pop\n    /* \"#utility.yul\":9864:10274   */\n  swap3\n  swap2\n  pop\n  pop\n  jump\t// out\n    /* \"#utility.yul\":10280:10398   */\ntag_83:\n    /* \"#utility.yul\":10367:10391   */\n  tag_211\n    /* \"#utility.yul\":10385:10390   */\n  dup2\n    /* \"#utility.yul\":10367:10391   */\n  tag_61\n  jump\t// in\ntag_211:\n    /* \"#utility.yul\":10362:10365   */\n  dup3\n    /* \"#utility.yul\":10355:10392   */\n  mstore\n    /* \"#utility.yul\":10280:10398   */\n  pop\n  pop\n  jump\t// out\n    /* \"#utility.yul\":10404:10481   */\ntag_84:\n    /* \"#utility.yul\":10441:10448   */\n  0x00\n    /* \"#utility.yul\":10470:10475   */\n  dup2\n    /* \"#utility.yul\":10459:10475   */\n  swap1\n  pop\n    /* \"#utility.yul\":10404:10481   */\n  swap2\n  swap1\n  pop\n  jump\t// out\n    /* \"#utility.yul\":10487:10605   */\ntag_85:\n    /* \"#utility.yul\":10574:10598   */\n  tag_214\n    /* \"#utility.yul\":10592:10597   */\n  dup2\n    /* \"#utility.yul\":10574:10598   */\n  tag_84\n  jump\t// in\ntag_214:\n    /* \"#utility.yul\":10569:10572   */\n  dup3\n    /* \"#utility.yul\":10562:10599   */\n  mstore\n    /* \"#utility.yul\":10487:10605   */\n  pop\n  pop\n  jump\t// out\n    /* \"#utility.yul\":10611:10943   */\ntag_43:\n    /* \"#utility.yul\":10732:10736   */\n  0x00\n    /* \"#utility.yul\":10770:10772   */\n  0x40\n    /* \"#utility.yul\":10759:10768   */\n  dup3\n    /* \"#utility.yul\":10755:10773   */\n  add\n    /* \"#utility.yul\":10747:10773   */\n  swap1\n  pop\n    /* \"#utility.yul\":10783:10854   */\n  tag_216\n    /* \"#utility.yul\":10851:10852   */\n  0x00\n    /* \"#utility.yul\":10840:10849   */\n  dup4\n    /* \"#utility.yul\":10836:10853   */\n  add\n    /* \"#utility.yul\":10827:10833   */\n  dup6\n    /* \"#utility.yul\":10783:10854   */\n  tag_83\n  jump\t// in\ntag_216:\n    /* \"#utility.yul\":10864:10936   */\n  tag_217\n    /* \"#utility.yul\":10932:10934   */\n  0x20\n    /* \"#utility.yul\":10921:10930   */\n  dup4\n    /* \"#utility.yul\":10917:10935   */\n  add\n    /* \"#utility.yul\":10908:10914   */\n  dup5\n    /* \"#utility.yul\":10864:10936   */\n  tag_85\n  jump\t// in\ntag_217:\n    /* \"#utility.yul\":10611:10943   */\n  swap4\n  swap3\n  pop\n  pop\n  pop\n  jump\t// out\n    /* \"contracts/AssetToken.sol\":174:1305  contract AssetToken is ERC20, AccessControl {... */\ntag_17:\n  mload(0x80)\n  codecopy(0x00, dataOffset(sub_0), dataSize(sub_0))\n  0x00\n  assignImmutable(\"0xe0b0c81624316a76f02b81bdbe091fea3534e869290099ccc5bfa3c55b4ea400\")\n  return(0x00, dataSize(sub_0))\nstop\n\nsub_0: assembly {\n        /* \"contracts/AssetToken.sol\":174:1305  contract AssetToken is ERC20, AccessControl {... */\n      mstore(0x40, 0x80)\n      callvalue\n      dup1\n      iszero\n      tag_1\n      jumpi\n      0x00\n      dup1\n      revert\n    tag_1:\n      pop\n      jumpi(tag_2, lt(calldatasize, 0x04))\n      shr(0xe0, calldataload(0x00))\n      dup1\n      0x70a08231\n      gt\n      tag_23\n      jumpi\n      dup1\n      0xa9059cbb\n      gt\n      tag_24\n      jumpi\n      dup1\n      0xa9059cbb\n      eq\n      tag_18\n      jumpi\n      dup1\n      0xd5391393\n      eq\n      tag_19\n      jumpi\n      dup1\n      0xd547741f\n      eq\n      tag_20\n      jumpi\n      dup1\n      0xd5abeb01\n      eq\n      tag_21\n      jumpi\n      dup1\n      0xdd62ed3e\n      eq\n      tag_22\n      jumpi\n      jump(tag_2)\n    tag_24:\n      dup1\n      0x70a08231\n      eq\n      tag_13\n      jumpi\n      dup1\n      0x91d14854\n      eq\n      tag_14\n      jumpi\n      dup1\n      0x95d89b41\n      eq\n      tag_15\n      jumpi\n      dup1\n      0xa217fddf\n      eq\n      tag_16\n      jumpi\n      dup1\n      0xa2309ff8\n      eq\n      tag_17\n      jumpi\n      jump(tag_2)\n    tag_23:\n      dup1\n      0x248a9ca3\n      gt\n      tag_25\n      jumpi\n      dup1\n      0x248a9ca3\n      eq\n      tag_8\n      jumpi\n      dup1\n      0x2f2ff15d\n      eq\n      tag_9\n      jumpi\n      dup1\n      0x313ce567\n      eq\n      tag_10\n      jumpi\n      dup1\n      0x36568abe\n      eq\n      tag_11\n      jumpi\n      dup1\n      0x40c10f19\n      eq\n      tag_12\n      jumpi\n      jump(tag_2)\n    tag_25:\n      dup1\n      0x01ffc9a7\n      eq\n      tag_3\n      jumpi\n      dup1\n      0x06fdde03\n      eq\n      tag_4\n      jumpi\n      dup1\n      0x095ea7b3\n      eq\n      tag_5\n      jumpi\n      dup1\n      0x18160ddd\n      eq\n      tag_6\n      jumpi\n      dup1\n      0x23b872dd\n      eq\n      tag_7\n      jumpi\n    tag_2:\n      0x00\n      dup1\n      revert\n        /* \"@openzeppelin/contracts/access/AccessControl.sol\":2565:2767  function supportsInterface(bytes4 interfaceId) public view virtual override returns (bool) {... */\n    tag_3:\n      tag_26\n      0x04\n      dup1\n      calldatasize\n      sub\n      dup2\n      add\n      swap1\n      tag_27\n      swap2\n      swap1\n      tag_28\n      jump\t// in\n    tag_27:\n      tag_29\n      jump\t// in\n    tag_26:\n      mload(0x40)\n      tag_30\n      swap2\n      swap1\n      tag_31\n      jump\t// in\n    tag_30:\n      mload(0x40)\n      dup1\n      swap2\n      sub\n      swap1\n      return\n        /* \"@openzeppelin/contracts/token/ERC20/ERC20.sol\":2074:2163  function name() public view virtual returns (string memory) {... */\n    tag_4:\n      tag_32\n      tag_33\n      jump\t// in\n    tag_32:\n      mload(0x40)\n      tag_34\n      swap2\n      swap1\n      tag_35\n      jump\t// in\n    tag_34:\n      mload(0x40)\n      dup1\n      swap2\n      sub\n      swap1\n      return\n        /* \"@openzeppelin/contracts/token/ERC20/ERC20.sol\":4293:4479  function approve(address spender, uint256 value) public virtual returns (bool) {... */\n    tag_5:\n      tag_36\n      0x04\n      dup1\n      calldatasize\n      sub\n      dup2\n      add\n      swap1\n      tag_37\n      swap2\n      swap1\n      tag_38\n      jump\t// in\n    tag_37:\n      tag_39\n      jump\t// in\n    tag_36:\n      mload(0x40)\n      tag_40\n      swap2\n      swap1\n      tag_31\n      jump\t// in\n    tag_40:\n      mload(0x40)\n      dup1\n      swap2\n      sub\n      swap1\n      return\n        /* \"@openzeppelin/contracts/token/ERC20/ERC20.sol\":3144:3241  function totalSupply() public view virtual returns (uint256) {... */\n    tag_6:\n      tag_41\n      tag_42\n      jump\t// in\n    tag_41:\n      mload(0x40)\n      tag_43\n      swap2\n      swap1\n      tag_44\n      jump\t// in\n    tag_43:\n      mload(0x40)\n      dup1\n      swap2\n      sub\n      swap1\n      return\n        /* \"@openzeppelin/contracts/token/ERC20/ERC20.sol\":5039:5283  function transferFrom(address from, address to, uint256 value) public virtual returns (bool) {... */\n    tag_7:\n      tag_45\n      0x04\n      dup1\n      calldatasize\n      sub\n      dup2\n      add\n      swap1\n      tag_46\n      swap2\n      swap1\n      tag_47\n      jump\t// in\n    tag_46:\n      tag_48\n      jump\t// in\n    tag_45:\n      mload(0x40)\n      tag_49\n      swap2\n      swap1\n      tag_31\n      jump\t// in\n    tag_49:\n      mload(0x40)\n      dup1\n      swap2\n      sub\n      swap1\n      return\n        /* \"@openzeppelin/contracts/access/AccessControl.sol\":3810:3930  function getRoleAdmin(bytes32 role) public view virtual returns (bytes32) {... */\n    tag_8:\n      tag_50\n      0x04\n      dup1\n      calldatasize\n      sub\n      dup2\n      add\n      swap1\n      tag_51\n      swap2\n      swap1\n      tag_52\n      jump\t// in\n    tag_51:\n      tag_53\n      jump\t// in\n    tag_50:\n      mload(0x40)\n      tag_54\n      swap2\n      swap1\n      tag_55\n      jump\t// in\n    tag_54:\n      mload(0x40)\n      dup1\n      swap2\n      sub\n      swap1\n      return\n        /* \"@openzeppelin/contracts/access/AccessControl.sol\":4226:4362  function grantRole(bytes32 role, address account) public virtual onlyRole(getRoleAdmin(role)) {... */\n    tag_9:\n      tag_56\n      0x04\n      dup1\n      calldatasize\n      sub\n      dup2\n      add\n      swap1\n      tag_57\n      swap2\n      swap1\n      tag_58\n      jump\t// in\n    tag_57:\n      tag_59\n      jump\t// in\n    tag_56:\n      stop\n        /* \"@openzeppelin/contracts/token/ERC20/ERC20.sol\":3002:3084  function decimals() public view virtual returns (uint8) {... */\n    tag_10:\n      tag_60\n      tag_61\n      jump\t// in\n    tag_60:\n      mload(0x40)\n      tag_62\n      swap2\n      swap1\n      tag_63\n      jump\t// in\n    tag_62:\n      mload(0x40)\n      dup1\n      swap2\n      sub\n      swap1\n      return\n        /* \"@openzeppelin/contracts/access/AccessControl.sol\":5328:5573  function renounceRole(bytes32 role, address callerConfirmation) public virtual {... */\n    tag_11:\n      tag_64\n      0x04\n      dup1\n      calldatasize\n      sub\n      dup2\n      add\n      swap1\n      tag_65\n      swap2\n      swap1\n      tag_58\n      jump\t// in\n    tag_65:\n      tag_66\n      jump\t// in\n    tag_64:\n      stop\n        /* \"contracts/AssetToken.sol\":985:1303  function mint(address to, uint256 amount) public {... */\n    tag_12:\n      tag_67\n      0x04\n      dup1\n      calldatasize\n      sub\n      dup2\n      add\n      swap1\n      tag_68\n      swap2\n      swap1\n      tag_38\n      jump\t// in\n    tag_68:\n      tag_69\n      jump\t// in\n    tag_67:\n      stop\n        /* \"@openzeppelin/contracts/token/ERC20/ERC20.sol\":3299:3415  function balanceOf(address account) public view virtual returns (uint256) {... */\n    tag_13:\n      tag_70\n      0x04\n      dup1\n      calldatasize\n      sub\n      dup2\n      add\n      swap1\n      tag_71\n      swap2\n      swap1\n      tag_72\n      jump\t// in\n    tag_71:\n      tag_73\n      jump\t// in\n    tag_70:\n      mload(0x40)\n      tag_74\n      swap2\n      swap1\n      tag_44\n      jump\t// in\n    tag_74:\n      mload(0x40)\n      dup1\n      swap2\n      sub\n      swap1\n      return\n        /* \"@openzeppelin/contracts/access/AccessControl.sol\":2854:2990  function hasRole(bytes32 role, address account) public view virtual returns (bool) {... */\n    tag_14:\n      tag_75\n      0x04\n      dup1\n      calldatasize\n      sub\n      dup2\n      add\n      swap1\n      tag_76\n      swap2\n      swap1\n      tag_58\n      jump\t// in\n    tag_76:\n      tag_77\n      jump\t// in\n    tag_75:\n      mload(0x40)\n      tag_78\n      swap2\n      swap1\n      tag_31\n      jump\t// in\n    tag_78:\n      mload(0x40)\n      dup1\n      swap2\n      sub\n      swap1\n      return\n        /* \"@openzeppelin/contracts/token/ERC20/ERC20.sol\":2276:2369  function symbol() public view virtual returns (string memory) {... */\n    tag_15:\n      tag_79\n      tag_80\n      jump\t// in\n    tag_79:\n      mload(0x40)\n      tag_81\n      swap2\n      swap1\n      tag_35\n      jump\t// in\n    tag_81:\n      mload(0x40)\n      dup1\n      swap2\n      sub\n      swap1\n      return\n        /* \"@openzeppelin/contracts/access/AccessControl.sol\":2187:2236  bytes32 public constant DEFAULT_ADMIN_ROLE = 0x00 */\n    tag_16:\n      tag_82\n      tag_83\n      jump\t// in\n    tag_82:\n      mload(0x40)\n      tag_84\n      swap2\n      swap1\n      tag_55\n      jump\t// in\n    tag_84:\n      mload(0x40)\n      dup1\n      swap2\n      sub\n      swap1\n      return\n        /* \"contracts/AssetToken.sol\":332:358  uint256 public totalMinted */\n    tag_17:\n      tag_85\n      tag_86\n      jump\t// in\n    tag_85:\n      mload(0x40)\n      tag_87\n      swap2\n      swap1\n      tag_44\n      jump\t// in\n    tag_87:\n      mload(0x40)\n      dup1\n      swap2\n      sub\n      swap1\n      return\n        /* \"@openzeppelin/contracts/token/ERC20/ERC20.sol\":3610:3788  function transfer(address to, uint256 value) public virtual returns (bool) {... */\n    tag_18:\n      tag_88\n      0x04\n      dup1\n      calldatasize\n      sub\n      dup2\n      add\n      swap1\n      tag_89\n      swap2\n      swap1\n      tag_38\n      jump\t// in\n    tag_89:\n      tag_90\n      jump\t// in\n    tag_88:\n      mload(0x40)\n      tag_91\n      swap2\n      swap1\n      tag_31\n      jump\t// in\n    tag_91:\n      mload(0x40)\n      dup1\n      swap2\n      sub\n      swap1\n      return\n        /* \"contracts/AssetToken.sol\":224:286  bytes32 public constant MINTER_ROLE = keccak256(\"MINTER_ROLE\") */\n    tag_19:\n      tag_92\n      tag_93\n      jump\t// in\n    tag_92:\n      mload(0x40)\n      tag_94\n      swap2\n      swap1\n      tag_55\n      jump\t// in\n    tag_94:\n      mload(0x40)\n      dup1\n      swap2\n      sub\n      swap1\n      return\n        /* \"@openzeppelin/contracts/access/AccessControl.sol\":4642:4780  function revokeRole(bytes32 role, address account) public virtual onlyRole(getRoleAdmin(role)) {... */\n    tag_20:\n      tag_95\n      0x04\n      dup1\n      calldatasize\n      sub\n      dup2\n      add\n      swap1\n      tag_96\n      swap2\n      swap1\n      tag_58\n      jump\t// in\n    tag_96:\n      tag_97\n      jump\t// in\n    tag_95:\n      stop\n        /* \"contracts/AssetToken.sol\":292:326  uint256 public immutable maxSupply */\n    tag_21:\n      tag_98\n      tag_99\n      jump\t// in\n    tag_98:\n      mload(0x40)\n      tag_100\n      swap2\n      swap1\n      tag_44\n      jump\t// in\n    tag_100:\n      mload(0x40)\n      dup1\n      swap2\n      sub\n      swap1\n      return\n        /* \"@openzeppelin/contracts/token/ERC20/ERC20.sol\":3846:3986  function allowance(address owner, address spender) public view virtual returns (uint256) {... */\n    tag_22:\n      tag_101\n      0x04\n      dup1\n      calldatasize\n      sub\n      dup2\n      add\n      swap1\n      tag_102\n      swap2\n      swap1\n      tag_103\n      jump\t// in\n    tag_102:\n      tag_104\n      jump\t// in\n    tag_101:\n      mload(0x40)\n      tag_105\n      swap2\n      swap1\n      tag_44\n      jump\t// in\n    tag_105:\n      mload(0x40)\n      dup1\n      swap2\n      sub\n      swap1\n      return\n        /* \"@openzeppelin/contracts/access/AccessControl.sol\":2565:2767  function supportsInterface(bytes4 interfaceId) public view virtual override returns (bool) {... */\n    tag_29:\n        /* \"@openzeppelin/contracts/access/AccessControl.sol\":2650:2654  bool */\n      0x00\n        /* \"@openzeppelin/contracts/access/AccessControl.sol\":2688:2720  type(IAccessControl).interfaceId */\n      0x7965db0b00000000000000000000000000000000000000000000000000000000\n        /* \"@openzeppelin/contracts/access/AccessControl.sol\":2673:2720  interfaceId == type(IAccessControl).interfaceId */\n      not(0xffffffffffffffffffffffffffffffffffffffffffffffffffffffff)\n      and\n        /* \"@openzeppelin/contracts/access/AccessControl.sol\":2673:2684  interfaceId */\n      dup3\n        /* \"@openzeppelin/contracts/access/AccessControl.sol\":2673:2720  interfaceId == type(IAccessControl).interfaceId */\n      not(0xffffffffffffffffffffffffffffffffffffffffffffffffffffffff)\n      and\n      eq\n        /* \"@openzeppelin/contracts/access/AccessControl.sol\":2673:2760  interfaceId == type(IAccessControl).interfaceId || super.supportsInterface(interfaceId) */\n      dup1\n      tag_107\n      jumpi\n      pop\n        /* \"@openzeppelin/contracts/access/AccessControl.sol\":2724:2760  super.supportsInterface(interfaceId) */\n      tag_108\n        /* \"@openzeppelin/contracts/access/AccessControl.sol\":2748:2759  interfaceId */\n      dup3\n        /* \"@openzeppelin/contracts/access/AccessControl.sol\":2724:2747  super.supportsInterface */\n      tag_109\n        /* \"@openzeppelin/contracts/access/AccessControl.sol\":2724:2760  super.supportsInterface(interfaceId) */\n      jump\t// in\n    tag_108:\n        /* \"@openzeppelin/contracts/access/AccessControl.sol\":2673:2760  interfaceId == type(IAccessControl).interfaceId || super.supportsInterface(interfaceId) */\n    tag_107:\n        /* \"@openzeppelin/contracts/access/AccessControl.sol\":2666:2760  return interfaceId == type(IAccessControl).interfaceId || super.supportsInterface(interfaceId) */\n      swap1\n      pop\n        /* \"@openzeppelin/contracts/access/AccessControl.sol\":2565:2767  function supportsInterface(bytes4 interfaceId) public view virtual override returns (bool) {... */\n      swap2\n      swap1\n      pop\n      jump\t// out\n        /* \"@openzeppelin/contracts/token/ERC20/ERC20.sol\":2074:2163  function name() public view virtual returns (string memory) {... */\n    tag_33:\n        /* \"@openzeppelin/contracts/token/ERC20/ERC20.sol\":2119:2132  string memory */\n      0x60\n        /* \"@openzeppelin/contracts/token/ERC20/ERC20.sol\":2151:2156  _name */\n      0x03\n        /* \"@openzeppelin/contracts/token/ERC20/ERC20.sol\":2144:2156  return _name */\n      dup1\n      sload\n      tag_111\n      swap1\n      tag_112\n      jump\t// in\n    tag_111:\n      dup1\n      0x1f\n      add\n      0x20\n      dup1\n      swap2\n      div\n      mul\n      0x20\n      add\n      mload(0x40)\n      swap1\n      dup2\n      add\n      0x40\n      mstore\n      dup1\n      swap3\n      swap2\n      swap1\n      dup2\n      dup2\n      mstore\n      0x20\n      add\n      dup3\n      dup1\n      sload\n      tag_113\n      swap1\n      tag_112\n      jump\t// in\n    tag_113:\n      dup1\n      iszero\n      tag_114\n      jumpi\n      dup1\n      0x1f\n      lt\n      tag_115\n      jumpi\n      0x0100\n      dup1\n      dup4\n      sload\n      div\n      mul\n      dup4\n      mstore\n      swap2\n      0x20\n      add\n      swap2\n      jump(tag_114)\n    tag_115:\n      dup3\n      add\n      swap2\n      swap1\n      0x00\n      mstore\n      keccak256(0x00, 0x20)\n      swap1\n    tag_116:\n      dup2\n      sload\n      dup2\n      mstore\n      swap1\n      0x01\n      add\n      swap1\n      0x20\n      add\n      dup1\n      dup4\n      gt\n      tag_116\n      jumpi\n      dup3\n      swap1\n      sub\n      0x1f\n      and\n      dup3\n      add\n      swap2\n    tag_114:\n      pop\n      pop\n      pop\n      pop\n      pop\n      swap1\n      pop\n        /* \"@openzeppelin/contracts/token/ERC20/ERC20.sol\":2074:2163  function name() public view virtual returns (string memory) {... */\n      swap1\n      jump\t// out\n        /* \"@openzeppelin/contracts/token/ERC20/ERC20.sol\":4293:4479  function approve(address spender, uint256 value) public virtual returns (bool) {... */\n    tag_39:\n        /* \"@openzeppelin/contracts/token/ERC20/ERC20.sol\":4366:4370  bool */\n      0x00\n        /* \"@openzeppelin/contracts/token/ERC20/ERC20.sol\":4382:4395  address owner */\n      dup1\n        /* \"@openzeppelin/contracts/token/ERC20/ERC20.sol\":4398:4410  _msgSender() */\n      tag_118\n        /* \"@openzeppelin/contracts/token/ERC20/ERC20.sol\":4398:4408  _msgSender */\n      tag_119\n        /* \"@openzeppelin/contracts/token/ERC20/ERC20.sol\":4398:4410  _msgSender() */\n      jump\t// in\n    tag_118:\n        /* \"@openzeppelin/contracts/token/ERC20/ERC20.sol\":4382:4410  address owner = _msgSender() */\n      swap1\n      pop\n        /* \"@openzeppelin/contracts/token/ERC20/ERC20.sol\":4420:4451  _approve(owner, spender, value) */\n      tag_120\n        /* \"@openzeppelin/contracts/token/ERC20/ERC20.sol\":4429:4434  owner */\n      dup2\n        /* \"@openzeppelin/contracts/token/ERC20/ERC20.sol\":4436:4443  spender */\n      dup6\n        /* \"@openzeppelin/contracts/token/ERC20/ERC20.sol\":4445:4450  value */\n      dup6\n        /* \"@openzeppelin/contracts/token/ERC20/ERC20.sol\":4420:4428  _approve */\n      tag_121\n        /* \"@openzeppelin/contracts/token/ERC20/ERC20.sol\":4420:4451  _approve(owner, spender, value) */\n      jump\t// in\n    tag_120:\n        /* \"@openzeppelin/contracts/token/ERC20/ERC20.sol\":4468:4472  true */\n      0x01\n        /* \"@openzeppelin/contracts/token/ERC20/ERC20.sol\":4461:4472  return true */\n      swap2\n      pop\n      pop\n        /* \"@openzeppelin/contracts/token/ERC20/ERC20.sol\":4293:4479  function approve(address spender, uint256 value) public virtual returns (bool) {... */\n      swap3\n      swap2\n      pop\n      pop\n      jump\t// out\n        /* \"@openzeppelin/contracts/token/ERC20/ERC20.sol\":3144:3241  function totalSupply() public view virtual returns (uint256) {... */\n    tag_42:\n        /* \"@openzeppelin/contracts/token/ERC20/ERC20.sol\":3196:3203  uint256 */\n      0x00\n        /* \"@openzeppelin/contracts/token/ERC20/ERC20.sol\":3222:3234  _totalSupply */\n      sload(0x02)\n        /* \"@openzeppelin/contracts/token/ERC20/ERC20.sol\":3215:3234  return _totalSupply */\n      swap1\n      pop\n        /* \"@openzeppelin/contracts/token/ERC20/ERC20.sol\":3144:3241  function totalSupply() public view virtual returns (uint256) {... */\n      swap1\n      jump\t// out\n        /* \"@openzeppelin/contracts/token/ERC20/ERC20.sol\":5039:5283  function transferFrom(address from, address to, uint256 value) public virtual returns (bool) {... */\n    tag_48:\n        /* \"@openzeppelin/contracts/token/ERC20/ERC20.sol\":5126:5130  bool */\n      0x00\n        /* \"@openzeppelin/contracts/token/ERC20/ERC20.sol\":5142:5157  address spender */\n      dup1\n        /* \"@openzeppelin/contracts/token/ERC20/ERC20.sol\":5160:5172  _msgSender() */\n      tag_124\n        /* \"@openzeppelin/contracts/token/ERC20/ERC20.sol\":5160:5170  _msgSender */\n      tag_119\n        /* \"@openzeppelin/contracts/token/ERC20/ERC20.sol\":5160:5172  _msgSender() */\n      jump\t// in\n    tag_124:\n        /* \"@openzeppelin/contracts/token/ERC20/ERC20.sol\":5142:5172  address spender = _msgSender() */\n      swap1\n      pop\n        /* \"@openzeppelin/contracts/token/ERC20/ERC20.sol\":5182:5219  _spendAllowance(from, spender, value) */\n      tag_125\n        /* \"@openzeppelin/contracts/token/ERC20/ERC20.sol\":5198:5202  from */\n      dup6\n        /* \"@openzeppelin/contracts/token/ERC20/ERC20.sol\":5204:5211  spender */\n      dup3\n        /* \"@openzeppelin/contracts/token/ERC20/ERC20.sol\":5213:5218  value */\n      dup6\n        /* \"@openzeppelin/contracts/token/ERC20/ERC20.sol\":5182:5197  _spendAllowance */\n      tag_126\n        /* \"@openzeppelin/contracts/token/ERC20/ERC20.sol\":5182:5219  _spendAllowance(from, spender, value) */\n      jump\t// in\n    tag_125:\n        /* \"@openzeppelin/contracts/token/ERC20/ERC20.sol\":5229:5255  _transfer(from, to, value) */\n      tag_127\n        /* \"@openzeppelin/contracts/token/ERC20/ERC20.sol\":5239:5243  from */\n      dup6\n        /* \"@openzeppelin/contracts/token/ERC20/ERC20.sol\":5245:5247  to */\n      dup6\n        /* \"@openzeppelin/contracts/token/ERC20/ERC20.sol\":5249:5254  value */\n      dup6\n        /* \"@openzeppelin/contracts/token/ERC20/ERC20.sol\":5229:5238  _transfer */\n      tag_128\n        /* \"@openzeppelin/contracts/token/ERC20/ERC20.sol\":5229:5255  _transfer(from, to, value) */\n      jump\t// in\n    tag_127:\n        /* \"@openzeppelin/contracts/token/ERC20/ERC20.sol\":5272:5276  true */\n      0x01\n        /* \"@openzeppelin/contracts/token/ERC20/ERC20.sol\":5265:5276  return true */\n      swap2\n      pop\n      pop\n        /* \"@openzeppelin/contracts/token/ERC20/ERC20.sol\":5039:5283  function transferFrom(address from, address to, uint256 value) public virtual returns (bool) {... */\n      swap4\n      swap3\n      pop\n      pop\n      pop\n      jump\t// out\n        /* \"@openzeppelin/contracts/access/AccessControl.sol\":3810:3930  function getRoleAdmin(bytes32 role) public view virtual returns (bytes32) {... */\n    tag_53:\n        /* \"@openzeppelin/contracts/access/AccessControl.sol\":3875:3882  bytes32 */\n      0x00\n        /* \"@openzeppelin/contracts/access/AccessControl.sol\":3901:3907  _roles */\n      0x05\n        /* \"@openzeppelin/contracts/access/AccessControl.sol\":3901:3913  _roles[role] */\n      0x00\n        /* \"@openzeppelin/contracts/access/AccessControl.sol\":3908:3912  role */\n      dup4\n        /* \"@openzeppelin/contracts/access/AccessControl.sol\":3901:3913  _roles[role] */\n      dup2\n      mstore\n      0x20\n      add\n      swap1\n      dup2\n      mstore\n      0x20\n      add\n      0x00\n      keccak256\n        /* \"@openzeppelin/contracts/access/AccessControl.sol\":3901:3923  _roles[role].adminRole */\n      0x01\n      add\n      sload\n        /* \"@openzeppelin/contracts/access/AccessControl.sol\":3894:3923  return _roles[role].adminRole */\n      swap1\n      pop\n        /* \"@openzeppelin/contracts/access/AccessControl.sol\":3810:3930  function getRoleAdmin(bytes32 role) public view virtual returns (bytes32) {... */\n      swap2\n      swap1\n      pop\n      jump\t// out\n        /* \"@openzeppelin/contracts/access/AccessControl.sol\":4226:4362  function grantRole(bytes32 role, address account) public virtual onlyRole(getRoleAdmin(role)) {... */\n    tag_59:\n        /* \"@openzeppelin/contracts/access/AccessControl.sol\":4300:4318  getRoleAdmin(role) */\n      tag_130\n        /* \"@openzeppelin/contracts/access/AccessControl.sol\":4313:4317  role */\n      dup3\n        /* \"@openzeppelin/contracts/access/AccessControl.sol\":4300:4312  getRoleAdmin */\n      tag_53\n        /* \"@openzeppelin/contracts/access/AccessControl.sol\":4300:4318  getRoleAdmin(role) */\n      jump\t// in\n    tag_130:\n        /* \"@openzeppelin/contracts/access/AccessControl.sol\":2464:2480  _checkRole(role) */\n      tag_132\n        /* \"@openzeppelin/contracts/access/AccessControl.sol\":2475:2479  role */\n      dup2\n        /* \"@openzeppelin/contracts/access/AccessControl.sol\":2464:2474  _checkRole */\n      tag_133\n        /* \"@openzeppelin/contracts/access/AccessControl.sol\":2464:2480  _checkRole(role) */\n      jump\t// in\n    tag_132:\n        /* \"@openzeppelin/contracts/access/AccessControl.sol\":4330:4355  _grantRole(role, account) */\n      tag_135\n        /* \"@openzeppelin/contracts/access/AccessControl.sol\":4341:4345  role */\n      dup4\n        /* \"@openzeppelin/contracts/access/AccessControl.sol\":4347:4354  account */\n      dup4\n        /* \"@openzeppelin/contracts/access/AccessControl.sol\":4330:4340  _grantRole */\n      tag_136\n        /* \"@openzeppelin/contracts/access/AccessControl.sol\":4330:4355  _grantRole(role, account) */\n      jump\t// in\n    tag_135:\n      pop\n        /* \"@openzeppelin/contracts/access/AccessControl.sol\":4226:4362  function grantRole(bytes32 role, address account) public virtual onlyRole(getRoleAdmin(role)) {... */\n      pop\n      pop\n      pop\n      jump\t// out\n        /* \"@openzeppelin/contracts/token/ERC20/ERC20.sol\":3002:3084  function decimals() public view virtual returns (uint8) {... */\n    tag_61:\n        /* \"@openzeppelin/contracts/token/ERC20/ERC20.sol\":3051:3056  uint8 */\n      0x00\n        /* \"@openzeppelin/contracts/token/ERC20/ERC20.sol\":3075:3077  18 */\n      0x12\n        /* \"@openzeppelin/contracts/token/ERC20/ERC20.sol\":3068:3077  return 18 */\n      swap1\n      pop\n        /* \"@openzeppelin/contracts/token/ERC20/ERC20.sol\":3002:3084  function decimals() public view virtual returns (uint8) {... */\n      swap1\n      jump\t// out\n        /* \"@openzeppelin/contracts/access/AccessControl.sol\":5328:5573  function renounceRole(bytes32 role, address callerConfirmation) public virtual {... */\n    tag_66:\n        /* \"@openzeppelin/contracts/access/AccessControl.sol\":5443:5455  _msgSender() */\n      tag_139\n        /* \"@openzeppelin/contracts/access/AccessControl.sol\":5443:5453  _msgSender */\n      tag_119\n        /* \"@openzeppelin/contracts/access/AccessControl.sol\":5443:5455  _msgSender() */\n      jump\t// in\n    tag_139:\n        /* \"@openzeppelin/contracts/access/AccessControl.sol\":5421:5455  callerConfirmation != _msgSender() */\n      0xffffffffffffffffffffffffffffffffffffffff\n      and\n        /* \"@openzeppelin/contracts/access/AccessControl.sol\":5421:5439  callerConfirmation */\n      dup2\n        /* \"@openzeppelin/contracts/access/AccessControl.sol\":5421:5455  callerConfirmation != _msgSender() */\n      0xffffffffffffffffffffffffffffffffffffffff\n      and\n      eq\n        /* \"@openzeppelin/contracts/access/AccessControl.sol\":5417:5519  if (callerConfirmation != _msgSender()) {... */\n      tag_140\n      jumpi\n        /* \"@openzeppelin/contracts/access/AccessControl.sol\":5478:5508  AccessControlBadConfirmation() */\n      mload(0x40)\n      0x6697b23200000000000000000000000000000000000000000000000000000000\n      dup2\n      mstore\n      0x04\n      add\n      mload(0x40)\n      dup1\n      swap2\n      sub\n      swap1\n      revert\n        /* \"@openzeppelin/contracts/access/AccessControl.sol\":5417:5519  if (callerConfirmation != _msgSender()) {... */\n    tag_140:\n        /* \"@openzeppelin/contracts/access/AccessControl.sol\":5529:5566  _revokeRole(role, callerConfirmation) */\n      tag_141\n        /* \"@openzeppelin/contracts/access/AccessControl.sol\":5541:5545  role */\n      dup3\n        /* \"@openzeppelin/contracts/access/AccessControl.sol\":5547:5565  callerConfirmation */\n      dup3\n        /* \"@openzeppelin/contracts/access/AccessControl.sol\":5529:5540  _revokeRole */\n      tag_142\n        /* \"@openzeppelin/contracts/access/AccessControl.sol\":5529:5566  _revokeRole(role, callerConfirmation) */\n      jump\t// in\n    tag_141:\n      pop\n        /* \"@openzeppelin/contracts/access/AccessControl.sol\":5328:5573  function renounceRole(bytes32 role, address callerConfirmation) public virtual {... */\n      pop\n      pop\n      jump\t// out\n        /* \"contracts/AssetToken.sol\":985:1303  function mint(address to, uint256 amount) public {... */\n    tag_69:\n        /* \"contracts/AssetToken.sol\":1052:1084  hasRole(MINTER_ROLE, msg.sender) */\n      tag_144\n        /* \"contracts/AssetToken.sol\":262:286  keccak256(\"MINTER_ROLE\") */\n      0x9f2df0fed2c77648de5860a4cc508cd0818c85b8b8a1ab4ceeef8d981c8956a6\n        /* \"contracts/AssetToken.sol\":1073:1083  msg.sender */\n      caller\n        /* \"contracts/AssetToken.sol\":1052:1059  hasRole */\n      tag_77\n        /* \"contracts/AssetToken.sol\":1052:1084  hasRole(MINTER_ROLE, msg.sender) */\n      jump\t// in\n    tag_144:\n        /* \"contracts/AssetToken.sol\":1044:1111  require(hasRole(MINTER_ROLE, msg.sender), \"Caller is not a minter\") */\n      tag_145\n      jumpi\n      mload(0x40)\n      0x08c379a000000000000000000000000000000000000000000000000000000000\n      dup2\n      mstore\n      0x04\n      add\n      tag_146\n      swap1\n      tag_147\n      jump\t// in\n    tag_146:\n      mload(0x40)\n      dup1\n      swap2\n      sub\n      swap1\n      revert\n    tag_145:\n        /* \"contracts/AssetToken.sol\":1153:1162  maxSupply */\n      immutable(\"0xe0b0c81624316a76f02b81bdbe091fea3534e869290099ccc5bfa3c55b4ea400\")\n        /* \"contracts/AssetToken.sol\":1143:1149  amount */\n      dup2\n        /* \"contracts/AssetToken.sol\":1129:1140  totalMinted */\n      sload(0x06)\n        /* \"contracts/AssetToken.sol\":1129:1149  totalMinted + amount */\n      tag_148\n      swap2\n      swap1\n      tag_149\n      jump\t// in\n    tag_148:\n        /* \"contracts/AssetToken.sol\":1129:1162  totalMinted + amount <= maxSupply */\n      gt\n      iszero\n        /* \"contracts/AssetToken.sol\":1121:1203  require(totalMinted + amount <= maxSupply, \"Cannot mint more than the max supply\") */\n      tag_150\n      jumpi\n      mload(0x40)\n      0x08c379a000000000000000000000000000000000000000000000000000000000\n      dup2\n      mstore\n      0x04\n      add\n      tag_151\n      swap1\n      tag_152\n      jump\t// in\n    tag_151:\n      mload(0x40)\n      dup1\n      swap2\n      sub\n      swap1\n      revert\n    tag_150:\n        /* \"contracts/AssetToken.sol\":1213:1230  _mint(to, amount) */\n      tag_153\n        /* \"contracts/AssetToken.sol\":1219:1221  to */\n      dup3\n        /* \"contracts/AssetToken.sol\":1223:1229  amount */\n      dup3\n        /* \"contracts/AssetToken.sol\":1213:1218  _mint */\n      tag_154\n        /* \"contracts/AssetToken.sol\":1213:1230  _mint(to, amount) */\n      jump\t// in\n    tag_153:\n        /* \"contracts/AssetToken.sol\":1255:1261  amount */\n      dup1\n        /* \"contracts/AssetToken.sol\":1240:1251  totalMinted */\n      0x06\n      0x00\n        /* \"contracts/AssetToken.sol\":1240:1261  totalMinted += amount */\n      dup3\n      dup3\n      sload\n      tag_155\n      swap2\n      swap1\n      tag_149\n      jump\t// in\n    tag_155:\n      swap3\n      pop\n      pop\n      dup2\n      swap1\n      sstore\n      pop\n        /* \"contracts/AssetToken.sol\":985:1303  function mint(address to, uint256 amount) public {... */\n      pop\n      pop\n      jump\t// out\n        /* \"@openzeppelin/contracts/token/ERC20/ERC20.sol\":3299:3415  function balanceOf(address account) public view virtual returns (uint256) {... */\n    tag_73:\n        /* \"@openzeppelin/contracts/token/ERC20/ERC20.sol\":3364:3371  uint256 */\n      0x00\n        /* \"@openzeppelin/contracts/token/ERC20/ERC20.sol\":3390:3399  _balances */\n      dup1\n        /* \"@openzeppelin/contracts/token/ERC20/ERC20.sol\":3390:3408  _balances[account] */\n      0x00\n        /* \"@openzeppelin/contracts/token/ERC20/ERC20.sol\":3400:3407  account */\n      dup4\n        /* \"@openzeppelin/contracts/token/ERC20/ERC20.sol\":3390:3408  _balances[account] */\n      0xffffffffffffffffffffffffffffffffffffffff\n      and\n      0xffffffffffffffffffffffffffffffffffffffff\n      and\n      dup2\n      mstore\n      0x20\n      add\n      swap1\n      dup2\n      mstore\n      0x20\n      add\n      0x00\n      keccak256\n      sload\n        /* \"@openzeppelin/contracts/token/ERC20/ERC20.sol\":3383:3408  return _balances[account] */\n      swap1\n      pop\n        /* \"@openzeppelin/contracts/token/ERC20/ERC20.sol\":3299:3415  function balanceOf(address account) public view virtual returns (uint256) {... */\n      swap2\n      swap1\n      pop\n      jump\t// out\n        /* \"@openzeppelin/contracts/access/AccessControl.sol\":2854:2990  function hasRole(bytes32 role, address account) public view virtual returns (bool) {... */\n    tag_77:\n        /* \"@openzeppelin/contracts/access/AccessControl.sol\":2931:2935  bool */\n      0x00\n        /* \"@openzeppelin/contracts/access/AccessControl.sol\":2954:2960  _roles */\n      0x05\n        /* \"@openzeppelin/contracts/access/AccessControl.sol\":2954:2966  _roles[role] */\n      0x00\n        /* \"@openzeppelin/contracts/access/AccessControl.sol\":2961:2965  role */\n      dup5\n        /* \"@openzeppelin/contracts/access/AccessControl.sol\":2954:2966  _roles[role] */\n      dup2\n      mstore\n      0x20\n      add\n      swap1\n      dup2\n      mstore\n      0x20\n      add\n      0x00\n      keccak256\n        /* \"@openzeppelin/contracts/access/AccessControl.sol\":2954:2974  _roles[role].hasRole */\n      0x00\n      add\n        /* \"@openzeppelin/contracts/access/AccessControl.sol\":2954:2983  _roles[role].hasRole[account] */\n      0x00\n        /* \"@openzeppelin/contracts/access/AccessControl.sol\":2975:2982  account */\n      dup4\n        /* \"@openzeppelin/contracts/access/AccessControl.sol\":2954:2983  _roles[role].hasRole[account] */\n      0xffffffffffffffffffffffffffffffffffffffff\n      and\n      0xffffffffffffffffffffffffffffffffffffffff\n      and\n      dup2\n      mstore\n      0x20\n      add\n      swap1\n      dup2\n      mstore\n      0x20\n      add\n      0x00\n      keccak256\n      0x00\n      swap1\n      sload\n      swap1\n      0x0100\n      exp\n      swap1\n      div\n      0xff\n      and\n        /* \"@openzeppelin/contracts/access/AccessControl.sol\":2947:2983  return _roles[role].hasRole[account] */\n      swap1\n      pop\n        /* \"@openzeppelin/contracts/access/AccessControl.sol\":2854:2990  function hasRole(bytes32 role, address account) public view virtual returns (bool) {... */\n      swap3\n      swap2\n      pop\n      pop\n      jump\t// out\n        /* \"@openzeppelin/contracts/token/ERC20/ERC20.sol\":2276:2369  function symbol() public view virtual returns (string memory) {... */\n    tag_80:\n        /* \"@openzeppelin/contracts/token/ERC20/ERC20.sol\":2323:2336  string memory */\n      0x60\n        /* \"@openzeppelin/contracts/token/ERC20/ERC20.sol\":2355:2362  _symbol */\n      0x04\n        /* \"@openzeppelin/contracts/token/ERC20/ERC20.sol\":2348:2362  return _symbol */\n      dup1\n      sload\n      tag_159\n      swap1\n      tag_112\n      jump\t// in\n    tag_159:\n      dup1\n      0x1f\n      add\n      0x20\n      dup1\n      swap2\n      div\n      mul\n      0x20\n      add\n      mload(0x40)\n      swap1\n      dup2\n      add\n      0x40\n      mstore\n      dup1\n      swap3\n      swap2\n      swap1\n      dup2\n      dup2\n      mstore\n      0x20\n      add\n      dup3\n      dup1\n      sload\n      tag_160\n      swap1\n      tag_112\n      jump\t// in\n    tag_160:\n      dup1\n      iszero\n      tag_161\n      jumpi\n      dup1\n      0x1f\n      lt\n      tag_162\n      jumpi\n      0x0100\n      dup1\n      dup4\n      sload\n      div\n      mul\n      dup4\n      mstore\n      swap2\n      0x20\n      add\n      swap2\n      jump(tag_161)\n    tag_162:\n      dup3\n      add\n      swap2\n      swap1\n      0x00\n      mstore\n      keccak256(0x00, 0x20)\n      swap1\n    tag_163:\n      dup2\n      sload\n      dup2\n      mstore\n      swap1\n      0x01\n      add\n      swap1\n      0x20\n      add\n      dup1\n      dup4\n      gt\n      tag_163\n      jumpi\n      dup3\n      swap1\n      sub\n      0x1f\n      and\n      dup3\n      add\n      swap2\n    tag_161:\n      pop\n      pop\n      pop\n      pop\n      pop\n      swap1\n      pop\n        /* \"@openzeppelin/contracts/token/ERC20/ERC20.sol\":2276:2369  function symbol() public view virtual returns (string memory) {... */\n      swap1\n      jump\t// out\n        /* \"@openzeppelin/contracts/access/AccessControl.sol\":2187:2236  bytes32 public constant DEFAULT_ADMIN_ROLE = 0x00 */\n    tag_83:\n        /* \"@openzeppelin/contracts/access/AccessControl.sol\":2232:2236  0x00 */\n      0x00\n        /* \"@openzeppelin/contracts/access/AccessControl.sol\":2187:2236  bytes32 public constant DEFAULT_ADMIN_ROLE = 0x00 */\n      dup1\n      shl\n      dup2\n      jump\t// out\n        /* \"contracts/AssetToken.sol\":332:358  uint256 public totalMinted */\n    tag_86:\n      sload(0x06)\n      dup2\n      jump\t// out\n        /* \"@openzeppelin/contracts/token/ERC20/ERC20.sol\":3610:3788  function transfer(address to, uint256 value) public virtual returns (bool) {... */\n    tag_90:\n        /* \"@openzeppelin/contracts/token/ERC20/ERC20.sol\":3679:3683  bool */\n      0x00\n        /* \"@openzeppelin/contracts/token/ERC20/ERC20.sol\":3695:3708  address owner */\n      dup1\n        /* \"@openzeppelin/contracts/token/ERC20/ERC20.sol\":3711:3723  _msgSender() */\n      tag_165\n        /* \"@openzeppelin/contracts/token/ERC20/ERC20.sol\":3711:3721  _msgSender */\n      tag_119\n        /* \"@openzeppelin/contracts/token/ERC20/ERC20.sol\":3711:3723  _msgSender() */\n      jump\t// in\n    tag_165:\n        /* \"@openzeppelin/contracts/token/ERC20/ERC20.sol\":3695:3723  address owner = _msgSender() */\n      swap1\n      pop\n        /* \"@openzeppelin/contracts/token/ERC20/ERC20.sol\":3733:3760  _transfer(owner, to, value) */\n      tag_166\n        /* \"@openzeppelin/contracts/token/ERC20/ERC20.sol\":3743:3748  owner */\n      dup2\n        /* \"@openzeppelin/contracts/token/ERC20/ERC20.sol\":3750:3752  to */\n      dup6\n        /* \"@openzeppelin/contracts/token/ERC20/ERC20.sol\":3754:3759  value */\n      dup6\n        /* \"@openzeppelin/contracts/token/ERC20/ERC20.sol\":3733:3742  _transfer */\n      tag_128\n        /* \"@openzeppelin/contracts/token/ERC20/ERC20.sol\":3733:3760  _transfer(owner, to, value) */\n      jump\t// in\n    tag_166:\n        /* \"@openzeppelin/contracts/token/ERC20/ERC20.sol\":3777:3781  true */\n      0x01\n        /* \"@openzeppelin/contracts/token/ERC20/ERC20.sol\":3770:3781  return true */\n      swap2\n      pop\n      pop\n        /* \"@openzeppelin/contracts/token/ERC20/ERC20.sol\":3610:3788  function transfer(address to, uint256 value) public virtual returns (bool) {... */\n      swap3\n      swap2\n      pop\n      pop\n      jump\t// out\n        /* \"contracts/AssetToken.sol\":224:286  bytes32 public constant MINTER_ROLE = keccak256(\"MINTER_ROLE\") */\n    tag_93:\n        /* \"contracts/AssetToken.sol\":262:286  keccak256(\"MINTER_ROLE\") */\n      0x9f2df0fed2c77648de5860a4cc508cd0818c85b8b8a1ab4ceeef8d981c8956a6\n        /* \"contracts/AssetToken.sol\":224:286  bytes32 public constant MINTER_ROLE = keccak256(\"MINTER_ROLE\") */\n      dup2\n      jump\t// out\n        /* \"@openzeppelin/contracts/access/AccessControl.sol\":4642:4780  function revokeRole(bytes32 role, address account) public virtual onlyRole(getRoleAdmin(role)) {... */\n    tag_97:\n        /* \"@openzeppelin/contracts/access/AccessControl.sol\":4717:4735  getRoleAdmin(role) */\n      tag_167\n        /* \"@openzeppelin/contracts/access/AccessControl.sol\":4730:4734  role */\n      dup3\n        /* \"@openzeppelin/contracts/access/AccessControl.sol\":4717:4729  getRoleAdmin */\n      tag_53\n        /* \"@openzeppelin/contracts/access/AccessControl.sol\":4717:4735  getRoleAdmin(role) */\n      jump\t// in\n    tag_167:\n        /* \"@openzeppelin/contracts/access/AccessControl.sol\":2464:2480  _checkRole(role) */\n      tag_169\n        /* \"@openzeppelin/contracts/access/AccessControl.sol\":2475:2479  role */\n      dup2\n        /* \"@openzeppelin/contracts/access/AccessControl.sol\":2464:2474  _checkRole */\n      tag_133\n        /* \"@openzeppelin/contracts/access/AccessControl.sol\":2464:2480  _checkRole(role) */\n      jump\t// in\n    tag_169:\n        /* \"@openzeppelin/contracts/access/AccessControl.sol\":4747:4773  _revokeRole(role, account) */\n      tag_171\n        /* \"@openzeppelin/contracts/access/AccessControl.sol\":4759:4763  role */\n      dup4\n        /* \"@openzeppelin/contracts/access/AccessControl.sol\":4765:4772  account */\n      dup4\n        /* \"@openzeppelin/contracts/access/AccessControl.sol\":4747:4758  _revokeRole */\n      tag_142\n        /* \"@openzeppelin/contracts/access/AccessControl.sol\":4747:4773  _revokeRole(role, account) */\n      jump\t// in\n    tag_171:\n      pop\n        /* \"@openzeppelin/contracts/access/AccessControl.sol\":4642:4780  function revokeRole(bytes32 role, address account) public virtual onlyRole(getRoleAdmin(role)) {... */\n      pop\n      pop\n      pop\n      jump\t// out\n        /* \"contracts/AssetToken.sol\":292:326  uint256 public immutable maxSupply */\n    tag_99:\n      immutable(\"0xe0b0c81624316a76f02b81bdbe091fea3534e869290099ccc5bfa3c55b4ea400\")\n      dup2\n      jump\t// out\n        /* \"@openzeppelin/contracts/token/ERC20/ERC20.sol\":3846:3986  function allowance(address owner, address spender) public view virtual returns (uint256) {... */\n    tag_104:\n        /* \"@openzeppelin/contracts/token/ERC20/ERC20.sol\":3926:3933  uint256 */\n      0x00\n        /* \"@openzeppelin/contracts/token/ERC20/ERC20.sol\":3952:3963  _allowances */\n      0x01\n        /* \"@openzeppelin/contracts/token/ERC20/ERC20.sol\":3952:3970  _allowances[owner] */\n      0x00\n        /* \"@openzeppelin/contracts/token/ERC20/ERC20.sol\":3964:3969  owner */\n      dup5\n        /* \"@openzeppelin/contracts/token/ERC20/ERC20.sol\":3952:3970  _allowances[owner] */\n      0xffffffffffffffffffffffffffffffffffffffff\n      and\n      0xffffffffffffffffffffffffffffffffffffffff\n      and\n      dup2\n      mstore\n      0x20\n      add\n      swap1\n      dup2\n      mstore\n      0x20\n      add\n      0x00\n      keccak256\n        /* \"@openzeppelin/contracts/token/ERC20/ERC20.sol\":3952:3979  _allowances[owner][spender] */\n      0x00\n        /* \"@openzeppelin/contracts/token/ERC20/ERC20.sol\":3971:3978  spender */\n      dup4\n        /* \"@openzeppelin/contracts/token/ERC20/ERC20.sol\":3952:3979  _allowances[owner][spender] */\n      0xffffffffffffffffffffffffffffffffffffffff\n      and\n      0xffffffffffffffffffffffffffffffffffffffff\n      and\n      dup2\n      mstore\n      0x20\n      add\n      swap1\n      dup2\n      mstore\n      0x20\n      add\n      0x00\n      keccak256\n      sload\n        /* \"@openzeppelin/contracts/token/ERC20/ERC20.sol\":3945:3979  return _allowances[owner][spender] */\n      swap1\n      pop\n        /* \"@openzeppelin/contracts/token/ERC20/ERC20.sol\":3846:3986  function allowance(address owner, address spender) public view virtual returns (uint256) {... */\n      swap3\n      swap2\n      pop\n      pop\n      jump\t// out\n        /* \"@openzeppelin/contracts/utils/introspection/ERC165.sol\":762:908  function supportsInterface(bytes4 interfaceId) public view virtual returns (bool) {... */\n    tag_109:\n        /* \"@openzeppelin/contracts/utils/introspection/ERC165.sol\":838:842  bool */\n      0x00\n        /* \"@openzeppelin/contracts/utils/introspection/ERC165.sol\":876:901  type(IERC165).interfaceId */\n      0x01ffc9a700000000000000000000000000000000000000000000000000000000\n        /* \"@openzeppelin/contracts/utils/introspection/ERC165.sol\":861:901  interfaceId == type(IERC165).interfaceId */\n      not(0xffffffffffffffffffffffffffffffffffffffffffffffffffffffff)\n      and\n        /* \"@openzeppelin/contracts/utils/introspection/ERC165.sol\":861:872  interfaceId */\n      dup3\n        /* \"@openzeppelin/contracts/utils/introspection/ERC165.sol\":861:901  interfaceId == type(IERC165).interfaceId */\n      not(0xffffffffffffffffffffffffffffffffffffffffffffffffffffffff)\n      and\n      eq\n        /* \"@openzeppelin/contracts/utils/introspection/ERC165.sol\":854:901  return interfaceId == type(IERC165).interfaceId */\n      swap1\n      pop\n        /* \"@openzeppelin/contracts/utils/introspection/ERC165.sol\":762:908  function supportsInterface(bytes4 interfaceId) public view virtual returns (bool) {... */\n      swap2\n      swap1\n      pop\n      jump\t// out\n        /* \"@openzeppelin/contracts/utils/Context.sol\":656:752  function _msgSender() internal view virtual returns (address) {... */\n    tag_119:\n        /* \"@openzeppelin/contracts/utils/Context.sol\":709:716  address */\n      0x00\n        /* \"@openzeppelin/contracts/utils/Context.sol\":735:745  msg.sender */\n      caller\n        /* \"@openzeppelin/contracts/utils/Context.sol\":728:745  return msg.sender */\n      swap1\n      pop\n        /* \"@openzeppelin/contracts/utils/Context.sol\":656:752  function _msgSender() internal view virtual returns (address) {... */\n      swap1\n      jump\t// out\n        /* \"@openzeppelin/contracts/token/ERC20/ERC20.sol\":8989:9117  function _approve(address owner, address spender, uint256 value) internal {... */\n    tag_121:\n        /* \"@openzeppelin/contracts/token/ERC20/ERC20.sol\":9073:9110  _approve(owner, spender, value, true) */\n      tag_176\n        /* \"@openzeppelin/contracts/token/ERC20/ERC20.sol\":9082:9087  owner */\n      dup4\n        /* \"@openzeppelin/contracts/token/ERC20/ERC20.sol\":9089:9096  spender */\n      dup4\n        /* \"@openzeppelin/contracts/token/ERC20/ERC20.sol\":9098:9103  value */\n      dup4\n        /* \"@openzeppelin/contracts/token/ERC20/ERC20.sol\":9105:9109  true */\n      0x01\n        /* \"@openzeppelin/contracts/token/ERC20/ERC20.sol\":9073:9081  _approve */\n      tag_177\n        /* \"@openzeppelin/contracts/token/ERC20/ERC20.sol\":9073:9110  _approve(owner, spender, value, true) */\n      jump\t// in\n    tag_176:\n        /* \"@openzeppelin/contracts/token/ERC20/ERC20.sol\":8989:9117  function _approve(address owner, address spender, uint256 value) internal {... */\n      pop\n      pop\n      pop\n      jump\t// out\n        /* \"@openzeppelin/contracts/token/ERC20/ERC20.sol\":10663:11140  function _spendAllowance(address owner, address spender, uint256 value) internal virtual {... */\n    tag_126:\n        /* \"@openzeppelin/contracts/token/ERC20/ERC20.sol\":10762:10786  uint256 currentAllowance */\n      0x00\n        /* \"@openzeppelin/contracts/token/ERC20/ERC20.sol\":10789:10814  allowance(owner, spender) */\n      tag_179\n        /* \"@openzeppelin/contracts/token/ERC20/ERC20.sol\":10799:10804  owner */\n      dup5\n        /* \"@openzeppelin/contracts/token/ERC20/ERC20.sol\":10806:10813  spender */\n      dup5\n        /* \"@openzeppelin/contracts/token/ERC20/ERC20.sol\":10789:10798  allowance */\n      tag_104\n        /* \"@openzeppelin/contracts/token/ERC20/ERC20.sol\":10789:10814  allowance(owner, spender) */\n      jump\t// in\n    tag_179:\n        /* \"@openzeppelin/contracts/token/ERC20/ERC20.sol\":10762:10814  uint256 currentAllowance = allowance(owner, spender) */\n      swap1\n      pop\n        /* \"@openzeppelin/contracts/token/ERC20/ERC20.sol\":10848:10865  type(uint256).max */\n      0xffffffffffffffffffffffffffffffffffffffffffffffffffffffffffffffff\n        /* \"@openzeppelin/contracts/token/ERC20/ERC20.sol\":10828:10844  currentAllowance */\n      dup2\n        /* \"@openzeppelin/contracts/token/ERC20/ERC20.sol\":10828:10865  currentAllowance != type(uint256).max */\n      eq\n        /* \"@openzeppelin/contracts/token/ERC20/ERC20.sol\":10824:11134  if (currentAllowance != type(uint256).max) {... */\n      tag_180\n      jumpi\n        /* \"@openzeppelin/contracts/token/ERC20/ERC20.sol\":10904:10909  value */\n      dup2\n        /* \"@openzeppelin/contracts/token/ERC20/ERC20.sol\":10885:10901  currentAllowance */\n      dup2\n        /* \"@openzeppelin/contracts/token/ERC20/ERC20.sol\":10885:10909  currentAllowance < value */\n      lt\n        /* \"@openzeppelin/contracts/token/ERC20/ERC20.sol\":10881:11011  if (currentAllowance < value) {... */\n      iszero\n      tag_181\n      jumpi\n        /* \"@openzeppelin/contracts/token/ERC20/ERC20.sol\":10963:10970  spender */\n      dup3\n        /* \"@openzeppelin/contracts/token/ERC20/ERC20.sol\":10972:10988  currentAllowance */\n      dup2\n        /* \"@openzeppelin/contracts/token/ERC20/ERC20.sol\":10990:10995  value */\n      dup4\n        /* \"@openzeppelin/contracts/token/ERC20/ERC20.sol\":10936:10996  ERC20InsufficientAllowance(spender, currentAllowance, value) */\n      mload(0x40)\n      0xfb8f41b200000000000000000000000000000000000000000000000000000000\n      dup2\n      mstore\n      0x04\n      add\n      tag_182\n      swap4\n      swap3\n      swap2\n      swap1\n      tag_183\n      jump\t// in\n    tag_182:\n      mload(0x40)\n      dup1\n      swap2\n      sub\n      swap1\n      revert\n        /* \"@openzeppelin/contracts/token/ERC20/ERC20.sol\":10881:11011  if (currentAllowance < value) {... */\n    tag_181:\n        /* \"@openzeppelin/contracts/token/ERC20/ERC20.sol\":11052:11109  _approve(owner, spender, currentAllowance - value, false) */\n      tag_184\n        /* \"@openzeppelin/contracts/token/ERC20/ERC20.sol\":11061:11066  owner */\n      dup5\n        /* \"@openzeppelin/contracts/token/ERC20/ERC20.sol\":11068:11075  spender */\n      dup5\n        /* \"@openzeppelin/contracts/token/ERC20/ERC20.sol\":11096:11101  value */\n      dup5\n        /* \"@openzeppelin/contracts/token/ERC20/ERC20.sol\":11077:11093  currentAllowance */\n      dup5\n        /* \"@openzeppelin/contracts/token/ERC20/ERC20.sol\":11077:11101  currentAllowance - value */\n      sub\n        /* \"@openzeppelin/contracts/token/ERC20/ERC20.sol\":11103:11108  false */\n      0x00\n        /* \"@openzeppelin/contracts/token/ERC20/ERC20.sol\":11052:11060  _approve */\n      tag_177\n        /* \"@openzeppelin/contracts/token/ERC20/ERC20.sol\":11052:11109  _approve(owner, spender, currentAllowance - value, false) */\n      jump\t// in\n    tag_184:\n        /* \"@openzeppelin/contracts/token/ERC20/ERC20.sol\":10824:11134  if (currentAllowance != type(uint256).max) {... */\n    tag_180:\n        /* \"@openzeppelin/contracts/token/ERC20/ERC20.sol\":10752:11140  {... */\n      pop\n        /* \"@openzeppelin/contracts/token/ERC20/ERC20.sol\":10663:11140  function _spendAllowance(address owner, address spender, uint256 value) internal virtual {... */\n      pop\n      pop\n      pop\n      jump\t// out\n        /* \"@openzeppelin/contracts/token/ERC20/ERC20.sol\":5656:5956  function _transfer(address from, address to, uint256 value) internal {... */\n    tag_128:\n        /* \"@openzeppelin/contracts/token/ERC20/ERC20.sol\":5755:5756  0 */\n      0x00\n        /* \"@openzeppelin/contracts/token/ERC20/ERC20.sol\":5739:5757  from == address(0) */\n      0xffffffffffffffffffffffffffffffffffffffff\n      and\n        /* \"@openzeppelin/contracts/token/ERC20/ERC20.sol\":5739:5743  from */\n      dup4\n        /* \"@openzeppelin/contracts/token/ERC20/ERC20.sol\":5739:5757  from == address(0) */\n      0xffffffffffffffffffffffffffffffffffffffff\n      and\n      sub\n        /* \"@openzeppelin/contracts/token/ERC20/ERC20.sol\":5735:5821  if (from == address(0)) {... */\n      tag_186\n      jumpi\n        /* \"@openzeppelin/contracts/token/ERC20/ERC20.sol\":5807:5808  0 */\n      0x00\n        /* \"@openzeppelin/contracts/token/ERC20/ERC20.sol\":5780:5810  ERC20InvalidSender(address(0)) */\n      mload(0x40)\n      0x96c6fd1e00000000000000000000000000000000000000000000000000000000\n      dup2\n      mstore\n      0x04\n      add\n      tag_187\n      swap2\n      swap1\n      tag_188\n      jump\t// in\n    tag_187:\n      mload(0x40)\n      dup1\n      swap2\n      sub\n      swap1\n      revert\n        /* \"@openzeppelin/contracts/token/ERC20/ERC20.sol\":5735:5821  if (from == address(0)) {... */\n    tag_186:\n        /* \"@openzeppelin/contracts/token/ERC20/ERC20.sol\":5848:5849  0 */\n      0x00\n        /* \"@openzeppelin/contracts/token/ERC20/ERC20.sol\":5834:5850  to == address(0) */\n      0xffffffffffffffffffffffffffffffffffffffff\n      and\n        /* \"@openzeppelin/contracts/token/ERC20/ERC20.sol\":5834:5836  to */\n      dup3\n        /* \"@openzeppelin/contracts/token/ERC20/ERC20.sol\":5834:5850  to == address(0) */\n      0xffffffffffffffffffffffffffffffffffffffff\n      and\n      sub\n        /* \"@openzeppelin/contracts/token/ERC20/ERC20.sol\":5830:5916  if (to == address(0)) {... */\n      tag_189\n      jumpi\n        /* \"@openzeppelin/contracts/token/ERC20/ERC20.sol\":5902:5903  0 */\n      0x00\n        /* \"@openzeppelin/contracts/token/ERC20/ERC20.sol\":5873:5905  ERC20InvalidReceiver(address(0)) */\n      mload(0x40)\n      0xec442f0500000000000000000000000000000000000000000000000000000000\n      dup2\n      mstore\n      0x04\n      add\n      tag_190\n      swap2\n      swap1\n      tag_188\n      jump\t// in\n    tag_190:\n      mload(0x40)\n      dup1\n      swap2\n      sub\n      swap1\n      revert\n        /* \"@openzeppelin/contracts/token/ERC20/ERC20.sol\":5830:5916  if (to == address(0)) {... */\n    tag_189:\n        /* \"@openzeppelin/contracts/token/ERC20/ERC20.sol\":5925:5949  _update(from, to, value) */\n      tag_191\n        /* \"@openzeppelin/contracts/token/ERC20/ERC20.sol\":5933:5937  from */\n      dup4\n        /* \"@openzeppelin/contracts/token/ERC20/ERC20.sol\":5939:5941  to */\n      dup4\n        /* \"@openzeppelin/contracts/token/ERC20/ERC20.sol\":5943:5948  value */\n      dup4\n        /* \"@openzeppelin/contracts/token/ERC20/ERC20.sol\":5925:5932  _update */\n      tag_192\n        /* \"@openzeppelin/contracts/token/ERC20/ERC20.sol\":5925:5949  _update(from, to, value) */\n      jump\t// in\n    tag_191:\n        /* \"@openzeppelin/contracts/token/ERC20/ERC20.sol\":5656:5956  function _transfer(address from, address to, uint256 value) internal {... */\n      pop\n      pop\n      pop\n      jump\t// out\n        /* \"@openzeppelin/contracts/access/AccessControl.sol\":3199:3302  function _checkRole(bytes32 role) internal view virtual {... */\n    tag_133:\n        /* \"@openzeppelin/contracts/access/AccessControl.sol\":3265:3295  _checkRole(role, _msgSender()) */\n      tag_194\n        /* \"@openzeppelin/contracts/access/AccessControl.sol\":3276:3280  role */\n      dup2\n        /* \"@openzeppelin/contracts/access/AccessControl.sol\":3282:3294  _msgSender() */\n      tag_195\n        /* \"@openzeppelin/contracts/access/AccessControl.sol\":3282:3292  _msgSender */\n      tag_119\n        /* \"@openzeppelin/contracts/access/AccessControl.sol\":3282:3294  _msgSender() */\n      jump\t// in\n    tag_195:\n        /* \"@openzeppelin/contracts/access/AccessControl.sol\":3265:3275  _checkRole */\n      tag_196\n        /* \"@openzeppelin/contracts/access/AccessControl.sol\":3265:3295  _checkRole(role, _msgSender()) */\n      jump\t// in\n    tag_194:\n        /* \"@openzeppelin/contracts/access/AccessControl.sol\":3199:3302  function _checkRole(bytes32 role) internal view virtual {... */\n      pop\n      jump\t// out\n        /* \"@openzeppelin/contracts/access/AccessControl.sol\":6179:6495  function _grantRole(bytes32 role, address account) internal virtual returns (bool) {... */\n    tag_136:\n        /* \"@openzeppelin/contracts/access/AccessControl.sol\":6256:6260  bool */\n      0x00\n        /* \"@openzeppelin/contracts/access/AccessControl.sol\":6277:6299  hasRole(role, account) */\n      tag_198\n        /* \"@openzeppelin/contracts/access/AccessControl.sol\":6285:6289  role */\n      dup4\n        /* \"@openzeppelin/contracts/access/AccessControl.sol\":6291:6298  account */\n      dup4\n        /* \"@openzeppelin/contracts/access/AccessControl.sol\":6277:6284  hasRole */\n      tag_77\n        /* \"@openzeppelin/contracts/access/AccessControl.sol\":6277:6299  hasRole(role, account) */\n      jump\t// in\n    tag_198:\n        /* \"@openzeppelin/contracts/access/AccessControl.sol\":6272:6489  if (!hasRole(role, account)) {... */\n      tag_199\n      jumpi\n        /* \"@openzeppelin/contracts/access/AccessControl.sol\":6347:6351  true */\n      0x01\n        /* \"@openzeppelin/contracts/access/AccessControl.sol\":6315:6321  _roles */\n      0x05\n        /* \"@openzeppelin/contracts/access/AccessControl.sol\":6315:6327  _roles[role] */\n      0x00\n        /* \"@openzeppelin/contracts/access/AccessControl.sol\":6322:6326  role */\n      dup6\n        /* \"@openzeppelin/contracts/access/AccessControl.sol\":6315:6327  _roles[role] */\n      dup2\n      mstore\n      0x20\n      add\n      swap1\n      dup2\n      mstore\n      0x20\n      add\n      0x00\n      keccak256\n        /* \"@openzeppelin/contracts/access/AccessControl.sol\":6315:6335  _roles[role].hasRole */\n      0x00\n      add\n        /* \"@openzeppelin/contracts/access/AccessControl.sol\":6315:6344  _roles[role].hasRole[account] */\n      0x00\n        /* \"@openzeppelin/contracts/access/AccessControl.sol\":6336:6343  account */\n      dup5\n        /* \"@openzeppelin/contracts/access/AccessControl.sol\":6315:6344  _roles[role].hasRole[account] */\n      0xffffffffffffffffffffffffffffffffffffffff\n      and\n      0xffffffffffffffffffffffffffffffffffffffff\n      and\n      dup2\n      mstore\n      0x20\n      add\n      swap1\n      dup2\n      mstore\n      0x20\n      add\n      0x00\n      keccak256\n      0x00\n        /* \"@openzeppelin/contracts/access/AccessControl.sol\":6315:6351  _roles[role].hasRole[account] = true */\n      0x0100\n      exp\n      dup2\n      sload\n      dup2\n      0xff\n      mul\n      not\n      and\n      swap1\n      dup4\n      iszero\n      iszero\n      mul\n      or\n      swap1\n      sstore\n      pop\n        /* \"@openzeppelin/contracts/access/AccessControl.sol\":6397:6409  _msgSender() */\n      tag_200\n        /* \"@openzeppelin/contracts/access/AccessControl.sol\":6397:6407  _msgSender */\n      tag_119\n        /* \"@openzeppelin/contracts/access/AccessControl.sol\":6397:6409  _msgSender() */\n      jump\t// in\n    tag_200:\n        /* \"@openzeppelin/contracts/access/AccessControl.sol\":6370:6410  RoleGranted(role, account, _msgSender()) */\n      0xffffffffffffffffffffffffffffffffffffffff\n      and\n        /* \"@openzeppelin/contracts/access/AccessControl.sol\":6388:6395  account */\n      dup3\n        /* \"@openzeppelin/contracts/access/AccessControl.sol\":6370:6410  RoleGranted(role, account, _msgSender()) */\n      0xffffffffffffffffffffffffffffffffffffffff\n      and\n        /* \"@openzeppelin/contracts/access/AccessControl.sol\":6382:6386  role */\n      dup5\n        /* \"@openzeppelin/contracts/access/AccessControl.sol\":6370:6410  RoleGranted(role, account, _msgSender()) */\n      0x2f8788117e7eff1d82e926ec794901d17c78024a50270940304540a733656f0d\n      mload(0x40)\n      mload(0x40)\n      dup1\n      swap2\n      sub\n      swap1\n      log4\n        /* \"@openzeppelin/contracts/access/AccessControl.sol\":6431:6435  true */\n      0x01\n        /* \"@openzeppelin/contracts/access/AccessControl.sol\":6424:6435  return true */\n      swap1\n      pop\n      jump(tag_197)\n        /* \"@openzeppelin/contracts/access/AccessControl.sol\":6272:6489  if (!hasRole(role, account)) {... */\n    tag_199:\n        /* \"@openzeppelin/contracts/access/AccessControl.sol\":6473:6478  false */\n      0x00\n        /* \"@openzeppelin/contracts/access/AccessControl.sol\":6466:6478  return false */\n      swap1\n      pop\n        /* \"@openzeppelin/contracts/access/AccessControl.sol\":6179:6495  function _grantRole(bytes32 role, address account) internal virtual returns (bool) {... */\n    tag_197:\n      swap3\n      swap2\n      pop\n      pop\n      jump\t// out\n        /* \"@openzeppelin/contracts/access/AccessControl.sol\":6730:7047  function _revokeRole(bytes32 role, address account) internal virtual returns (bool) {... */\n    tag_142:\n        /* \"@openzeppelin/contracts/access/AccessControl.sol\":6808:6812  bool */\n      0x00\n        /* \"@openzeppelin/contracts/access/AccessControl.sol\":6828:6850  hasRole(role, account) */\n      tag_203\n        /* \"@openzeppelin/contracts/access/AccessControl.sol\":6836:6840  role */\n      dup4\n        /* \"@openzeppelin/contracts/access/AccessControl.sol\":6842:6849  account */\n      dup4\n        /* \"@openzeppelin/contracts/access/AccessControl.sol\":6828:6835  hasRole */\n      tag_77\n        /* \"@openzeppelin/contracts/access/AccessControl.sol\":6828:6850  hasRole(role, account) */\n      jump\t// in\n    tag_203:\n        /* \"@openzeppelin/contracts/access/AccessControl.sol\":6824:7041  if (hasRole(role, account)) {... */\n      iszero\n      tag_204\n      jumpi\n        /* \"@openzeppelin/contracts/access/AccessControl.sol\":6898:6903  false */\n      0x00\n        /* \"@openzeppelin/contracts/access/AccessControl.sol\":6866:6872  _roles */\n      0x05\n        /* \"@openzeppelin/contracts/access/AccessControl.sol\":6866:6878  _roles[role] */\n      0x00\n        /* \"@openzeppelin/contracts/access/AccessControl.sol\":6873:6877  role */\n      dup6\n        /* \"@openzeppelin/contracts/access/AccessControl.sol\":6866:6878  _roles[role] */\n      dup2\n      mstore\n      0x20\n      add\n      swap1\n      dup2\n      mstore\n      0x20\n      add\n      0x00\n      keccak256\n        /* \"@openzeppelin/contracts/access/AccessControl.sol\":6866:6886  _roles[role].hasRole */\n      0x00\n      add\n        /* \"@openzeppelin/contracts/access/AccessControl.sol\":6866:6895  _roles[role].hasRole[account] */\n      0x00\n        /* \"@openzeppelin/contracts/access/AccessControl.sol\":6887:6894  account */\n      dup5\n        /* \"@openzeppelin/contracts/access/AccessControl.sol\":6866:6895  _roles[role].hasRole[account] */\n      0xffffffffffffffffffffffffffffffffffffffff\n      and\n      0xffffffffffffffffffffffffffffffffffffffff\n      and\n      dup2\n      mstore\n      0x20\n      add\n      swap1\n      dup2\n      mstore\n      0x20\n      add\n      0x00\n      keccak256\n      0x00\n        /* \"@openzeppelin/contracts/access/AccessControl.sol\":6866:6903  _roles[role].hasRole[account] = false */\n      0x0100\n      exp\n      dup2\n      sload\n      dup2\n      0xff\n      mul\n      not\n      and\n      swap1\n      dup4\n      iszero\n      iszero\n      mul\n      or\n      swap1\n      sstore\n      pop\n        /* \"@openzeppelin/contracts/access/AccessControl.sol\":6949:6961  _msgSender() */\n      tag_205\n        /* \"@openzeppelin/contracts/access/AccessControl.sol\":6949:6959  _msgSender */\n      tag_119\n        /* \"@openzeppelin/contracts/access/AccessControl.sol\":6949:6961  _msgSender() */\n      jump\t// in\n    tag_205:\n        /* \"@openzeppelin/contracts/access/AccessControl.sol\":6922:6962  RoleRevoked(role, account, _msgSender()) */\n      0xffffffffffffffffffffffffffffffffffffffff\n      and\n        /* \"@openzeppelin/contracts/access/AccessControl.sol\":6940:6947  account */\n      dup3\n        /* \"@openzeppelin/contracts/access/AccessControl.sol\":6922:6962  RoleRevoked(role, account, _msgSender()) */\n      0xffffffffffffffffffffffffffffffffffffffff\n      and\n        /* \"@openzeppelin/contracts/access/AccessControl.sol\":6934:6938  role */\n      dup5\n        /* \"@openzeppelin/contracts/access/AccessControl.sol\":6922:6962  RoleRevoked(role, account, _msgSender()) */\n      0xf6391f5c32d9c69d2a47ea670b442974b53935d1edc7fd64eb21e047a839171b\n      mload(0x40)\n      mload(0x40)\n      dup1\n      swap2\n      sub\n      swap1\n      log4\n        /* \"@openzeppelin/contracts/access/AccessControl.sol\":6983:6987  true */\n      0x01\n        /* \"@openzeppelin/contracts/access/AccessControl.sol\":6976:6987  return true */\n      swap1\n      pop\n      jump(tag_202)\n        /* \"@openzeppelin/contracts/access/AccessControl.sol\":6824:7041  if (hasRole(role, account)) {... */\n    tag_204:\n        /* \"@openzeppelin/contracts/access/AccessControl.sol\":7025:7030  false */\n      0x00\n        /* \"@openzeppelin/contracts/access/AccessControl.sol\":7018:7030  return false */\n      swap1\n      pop\n        /* \"@openzeppelin/contracts/access/AccessControl.sol\":6730:7047  function _revokeRole(bytes32 role, address account) internal virtual returns (bool) {... */\n    tag_202:\n      swap3\n      swap2\n      pop\n      pop\n      jump\t// out\n        /* \"@openzeppelin/contracts/token/ERC20/ERC20.sol\":7721:7929  function _mint(address account, uint256 value) internal {... */\n    tag_154:\n        /* \"@openzeppelin/contracts/token/ERC20/ERC20.sol\":7810:7811  0 */\n      0x00\n        /* \"@openzeppelin/contracts/token/ERC20/ERC20.sol\":7791:7812  account == address(0) */\n      0xffffffffffffffffffffffffffffffffffffffff\n      and\n        /* \"@openzeppelin/contracts/token/ERC20/ERC20.sol\":7791:7798  account */\n      dup3\n        /* \"@openzeppelin/contracts/token/ERC20/ERC20.sol\":7791:7812  account == address(0) */\n      0xffffffffffffffffffffffffffffffffffffffff\n      and\n      sub\n        /* \"@openzeppelin/contracts/token/ERC20/ERC20.sol\":7787:7878  if (account == address(0)) {... */\n      tag_208\n      jumpi\n        /* \"@openzeppelin/contracts/token/ERC20/ERC20.sol\":7864:7865  0 */\n      0x00\n        /* \"@openzeppelin/contracts/token/ERC20/ERC20.sol\":7835:7867  ERC20InvalidReceiver(address(0)) */\n      mload(0x40)\n      0xec442f0500000000000000000000000000000000000000000000000000000000\n      dup2\n      mstore\n      0x04\n      add\n      tag_209\n      swap2\n      swap1\n      tag_188\n      jump\t// in\n    tag_209:\n      mload(0x40)\n      dup1\n      swap2\n      sub\n      swap1\n      revert\n        /* \"@openzeppelin/contracts/token/ERC20/ERC20.sol\":7787:7878  if (account == address(0)) {... */\n    tag_208:\n        /* \"@openzeppelin/contracts/token/ERC20/ERC20.sol\":7887:7922  _update(address(0), account, value) */\n      tag_210\n        /* \"@openzeppelin/contracts/token/ERC20/ERC20.sol\":7903:7904  0 */\n      0x00\n        /* \"@openzeppelin/contracts/token/ERC20/ERC20.sol\":7907:7914  account */\n      dup4\n        /* \"@openzeppelin/contracts/token/ERC20/ERC20.sol\":7916:7921  value */\n      dup4\n        /* \"@openzeppelin/contracts/token/ERC20/ERC20.sol\":7887:7894  _update */\n      tag_192\n        /* \"@openzeppelin/contracts/token/ERC20/ERC20.sol\":7887:7922  _update(address(0), account, value) */\n      jump\t// in\n    tag_210:\n        /* \"@openzeppelin/contracts/token/ERC20/ERC20.sol\":7721:7929  function _mint(address account, uint256 value) internal {... */\n      pop\n      pop\n      jump\t// out\n        /* \"@openzeppelin/contracts/token/ERC20/ERC20.sol\":9949:10381  function _approve(address owner, address spender, uint256 value, bool emitEvent) internal virtual {... */\n    tag_177:\n        /* \"@openzeppelin/contracts/token/ERC20/ERC20.sol\":10078:10079  0 */\n      0x00\n        /* \"@openzeppelin/contracts/token/ERC20/ERC20.sol\":10061:10080  owner == address(0) */\n      0xffffffffffffffffffffffffffffffffffffffff\n      and\n        /* \"@openzeppelin/contracts/token/ERC20/ERC20.sol\":10061:10066  owner */\n      dup5\n        /* \"@openzeppelin/contracts/token/ERC20/ERC20.sol\":10061:10080  owner == address(0) */\n      0xffffffffffffffffffffffffffffffffffffffff\n      and\n      sub\n        /* \"@openzeppelin/contracts/token/ERC20/ERC20.sol\":10057:10146  if (owner == address(0)) {... */\n      tag_212\n      jumpi\n        /* \"@openzeppelin/contracts/token/ERC20/ERC20.sol\":10132:10133  0 */\n      0x00\n        /* \"@openzeppelin/contracts/token/ERC20/ERC20.sol\":10103:10135  ERC20InvalidApprover(address(0)) */\n      mload(0x40)\n      0xe602df0500000000000000000000000000000000000000000000000000000000\n      dup2\n      mstore\n      0x04\n      add\n      tag_213\n      swap2\n      swap1\n      tag_188\n      jump\t// in\n    tag_213:\n      mload(0x40)\n      dup1\n      swap2\n      sub\n      swap1\n      revert\n        /* \"@openzeppelin/contracts/token/ERC20/ERC20.sol\":10057:10146  if (owner == address(0)) {... */\n    tag_212:\n        /* \"@openzeppelin/contracts/token/ERC20/ERC20.sol\":10178:10179  0 */\n      0x00\n        /* \"@openzeppelin/contracts/token/ERC20/ERC20.sol\":10159:10180  spender == address(0) */\n      0xffffffffffffffffffffffffffffffffffffffff\n      and\n        /* \"@openzeppelin/contracts/token/ERC20/ERC20.sol\":10159:10166  spender */\n      dup4\n        /* \"@openzeppelin/contracts/token/ERC20/ERC20.sol\":10159:10180  spender == address(0) */\n      0xffffffffffffffffffffffffffffffffffffffff\n      and\n      sub\n        /* \"@openzeppelin/contracts/token/ERC20/ERC20.sol\":10155:10245  if (spender == address(0)) {... */\n      tag_214\n      jumpi\n        /* \"@openzeppelin/contracts/token/ERC20/ERC20.sol\":10231:10232  0 */\n      0x00\n        /* \"@openzeppelin/contracts/token/ERC20/ERC20.sol\":10203:10234  ERC20InvalidSpender(address(0)) */\n      mload(0x40)\n      0x94280d6200000000000000000000000000000000000000000000000000000000\n      dup2\n      mstore\n      0x04\n      add\n      tag_215\n      swap2\n      swap1\n      tag_188\n      jump\t// in\n    tag_215:\n      mload(0x40)\n      dup1\n      swap2\n      sub\n      swap1\n      revert\n        /* \"@openzeppelin/contracts/token/ERC20/ERC20.sol\":10155:10245  if (spender == address(0)) {... */\n    tag_214:\n        /* \"@openzeppelin/contracts/token/ERC20/ERC20.sol\":10284:10289  value */\n      dup2\n        /* \"@openzeppelin/contracts/token/ERC20/ERC20.sol\":10254:10265  _allowances */\n      0x01\n        /* \"@openzeppelin/contracts/token/ERC20/ERC20.sol\":10254:10272  _allowances[owner] */\n      0x00\n        /* \"@openzeppelin/contracts/token/ERC20/ERC20.sol\":10266:10271  owner */\n      dup7\n        /* \"@openzeppelin/contracts/token/ERC20/ERC20.sol\":10254:10272  _allowances[owner] */\n      0xffffffffffffffffffffffffffffffffffffffff\n      and\n      0xffffffffffffffffffffffffffffffffffffffff\n      and\n      dup2\n      mstore\n      0x20\n      add\n      swap1\n      dup2\n      mstore\n      0x20\n      add\n      0x00\n      keccak256\n        /* \"@openzeppelin/contracts/token/ERC20/ERC20.sol\":10254:10281  _allowances[owner][spender] */\n      0x00\n        /* \"@openzeppelin/contracts/token/ERC20/ERC20.sol\":10273:10280  spender */\n      dup6\n        /* \"@openzeppelin/contracts/token/ERC20/ERC20.sol\":10254:10281  _allowances[owner][spender] */\n      0xffffffffffffffffffffffffffffffffffffffff\n      and\n      0xffffffffffffffffffffffffffffffffffffffff\n      and\n      dup2\n      mstore\n      0x20\n      add\n      swap1\n      dup2\n      mstore\n      0x20\n      add\n      0x00\n      keccak256\n        /* \"@openzeppelin/contracts/token/ERC20/ERC20.sol\":10254:10289  _allowances[owner][spender] = value */\n      dup2\n      swap1\n      sstore\n      pop\n        /* \"@openzeppelin/contracts/token/ERC20/ERC20.sol\":10303:10312  emitEvent */\n      dup1\n        /* \"@openzeppelin/contracts/token/ERC20/ERC20.sol\":10299:10375  if (emitEvent) {... */\n      iszero\n      tag_216\n      jumpi\n        /* \"@openzeppelin/contracts/token/ERC20/ERC20.sol\":10349:10356  spender */\n      dup3\n        /* \"@openzeppelin/contracts/token/ERC20/ERC20.sol\":10333:10364  Approval(owner, spender, value) */\n      0xffffffffffffffffffffffffffffffffffffffff\n      and\n        /* \"@openzeppelin/contracts/token/ERC20/ERC20.sol\":10342:10347  owner */\n      dup5\n        /* \"@openzeppelin/contracts/token/ERC20/ERC20.sol\":10333:10364  Approval(owner, spender, value) */\n      0xffffffffffffffffffffffffffffffffffffffff\n      and\n      0x8c5be1e5ebec7d5bd14f71427d1e84f3dd0314c0f7b2291e5b200ac8c7c3b925\n        /* \"@openzeppelin/contracts/token/ERC20/ERC20.sol\":10358:10363  value */\n      dup5\n        /* \"@openzeppelin/contracts/token/ERC20/ERC20.sol\":10333:10364  Approval(owner, spender, value) */\n      mload(0x40)\n      tag_217\n      swap2\n      swap1\n      tag_44\n      jump\t// in\n    tag_217:\n      mload(0x40)\n      dup1\n      swap2\n      sub\n      swap1\n      log3\n        /* \"@openzeppelin/contracts/token/ERC20/ERC20.sol\":10299:10375  if (emitEvent) {... */\n    tag_216:\n        /* \"@openzeppelin/contracts/token/ERC20/ERC20.sol\":9949:10381  function _approve(address owner, address spender, uint256 value, bool emitEvent) internal virtual {... */\n      pop\n      pop\n      pop\n      pop\n      jump\t// out\n        /* \"@openzeppelin/contracts/token/ERC20/ERC20.sol\":6271:7378  function _update(address from, address to, uint256 value) internal virtual {... */\n    tag_192:\n        /* \"@openzeppelin/contracts/token/ERC20/ERC20.sol\":6376:6377  0 */\n      0x00\n        /* \"@openzeppelin/contracts/token/ERC20/ERC20.sol\":6360:6378  from == address(0) */\n      0xffffffffffffffffffffffffffffffffffffffff\n      and\n        /* \"@openzeppelin/contracts/token/ERC20/ERC20.sol\":6360:6364  from */\n      dup4\n        /* \"@openzeppelin/contracts/token/ERC20/ERC20.sol\":6360:6378  from == address(0) */\n      0xffffffffffffffffffffffffffffffffffffffff\n      and\n      sub\n        /* \"@openzeppelin/contracts/token/ERC20/ERC20.sol\":6356:6896  if (from == address(0)) {... */\n      tag_219\n      jumpi\n        /* \"@openzeppelin/contracts/token/ERC20/ERC20.sol\":6512:6517  value */\n      dup1\n        /* \"@openzeppelin/contracts/token/ERC20/ERC20.sol\":6496:6508  _totalSupply */\n      0x02\n      0x00\n        /* \"@openzeppelin/contracts/token/ERC20/ERC20.sol\":6496:6517  _totalSupply += value */\n      dup3\n      dup3\n      sload\n      tag_220\n      swap2\n      swap1\n      tag_149\n      jump\t// in\n    tag_220:\n      swap3\n      pop\n      pop\n      dup2\n      swap1\n      sstore\n      pop\n        /* \"@openzeppelin/contracts/token/ERC20/ERC20.sol\":6356:6896  if (from == address(0)) {... */\n      jump(tag_221)\n    tag_219:\n        /* \"@openzeppelin/contracts/token/ERC20/ERC20.sol\":6548:6567  uint256 fromBalance */\n      0x00\n        /* \"@openzeppelin/contracts/token/ERC20/ERC20.sol\":6570:6579  _balances */\n      dup1\n        /* \"@openzeppelin/contracts/token/ERC20/ERC20.sol\":6570:6585  _balances[from] */\n      0x00\n        /* \"@openzeppelin/contracts/token/ERC20/ERC20.sol\":6580:6584  from */\n      dup6\n        /* \"@openzeppelin/contracts/token/ERC20/ERC20.sol\":6570:6585  _balances[from] */\n      0xffffffffffffffffffffffffffffffffffffffff\n      and\n      0xffffffffffffffffffffffffffffffffffffffff\n      and\n      dup2\n      mstore\n      0x20\n      add\n      swap1\n      dup2\n      mstore\n      0x20\n      add\n      0x00\n      keccak256\n      sload\n        /* \"@openzeppelin/contracts/token/ERC20/ERC20.sol\":6548:6585  uint256 fromBalance = _balances[from] */\n      swap1\n      pop\n        /* \"@openzeppelin/contracts/token/ERC20/ERC20.sol\":6617:6622  value */\n      dup2\n        /* \"@openzeppelin/contracts/token/ERC20/ERC20.sol\":6603:6614  fromBalance */\n      dup2\n        /* \"@openzeppelin/contracts/token/ERC20/ERC20.sol\":6603:6622  fromBalance < value */\n      lt\n        /* \"@openzeppelin/contracts/token/ERC20/ERC20.sol\":6599:6714  if (fromBalance < value) {... */\n      iszero\n      tag_222\n      jumpi\n        /* \"@openzeppelin/contracts/token/ERC20/ERC20.sol\":6674:6678  from */\n      dup4\n        /* \"@openzeppelin/contracts/token/ERC20/ERC20.sol\":6680:6691  fromBalance */\n      dup2\n        /* \"@openzeppelin/contracts/token/ERC20/ERC20.sol\":6693:6698  value */\n      dup4\n        /* \"@openzeppelin/contracts/token/ERC20/ERC20.sol\":6649:6699  ERC20InsufficientBalance(from, fromBalance, value) */\n      mload(0x40)\n      0xe450d38c00000000000000000000000000000000000000000000000000000000\n      dup2\n      mstore\n      0x04\n      add\n      tag_223\n      swap4\n      swap3\n      swap2\n      swap1\n      tag_183\n      jump\t// in\n    tag_223:\n      mload(0x40)\n      dup1\n      swap2\n      sub\n      swap1\n      revert\n        /* \"@openzeppelin/contracts/token/ERC20/ERC20.sol\":6599:6714  if (fromBalance < value) {... */\n    tag_222:\n        /* \"@openzeppelin/contracts/token/ERC20/ERC20.sol\":6866:6871  value */\n      dup2\n        /* \"@openzeppelin/contracts/token/ERC20/ERC20.sol\":6852:6863  fromBalance */\n      dup2\n        /* \"@openzeppelin/contracts/token/ERC20/ERC20.sol\":6852:6871  fromBalance - value */\n      sub\n        /* \"@openzeppelin/contracts/token/ERC20/ERC20.sol\":6834:6843  _balances */\n      0x00\n        /* \"@openzeppelin/contracts/token/ERC20/ERC20.sol\":6834:6849  _balances[from] */\n      dup1\n        /* \"@openzeppelin/contracts/token/ERC20/ERC20.sol\":6844:6848  from */\n      dup7\n        /* \"@openzeppelin/contracts/token/ERC20/ERC20.sol\":6834:6849  _balances[from] */\n      0xffffffffffffffffffffffffffffffffffffffff\n      and\n      0xffffffffffffffffffffffffffffffffffffffff\n      and\n      dup2\n      mstore\n      0x20\n      add\n      swap1\n      dup2\n      mstore\n      0x20\n      add\n      0x00\n      keccak256\n        /* \"@openzeppelin/contracts/token/ERC20/ERC20.sol\":6834:6871  _balances[from] = fromBalance - value */\n      dup2\n      swap1\n      sstore\n      pop\n        /* \"@openzeppelin/contracts/token/ERC20/ERC20.sol\":6534:6896  {... */\n      pop\n        /* \"@openzeppelin/contracts/token/ERC20/ERC20.sol\":6356:6896  if (from == address(0)) {... */\n    tag_221:\n        /* \"@openzeppelin/contracts/token/ERC20/ERC20.sol\":6924:6925  0 */\n      0x00\n        /* \"@openzeppelin/contracts/token/ERC20/ERC20.sol\":6910:6926  to == address(0) */\n      0xffffffffffffffffffffffffffffffffffffffff\n      and\n        /* \"@openzeppelin/contracts/token/ERC20/ERC20.sol\":6910:6912  to */\n      dup3\n        /* \"@openzeppelin/contracts/token/ERC20/ERC20.sol\":6910:6926  to == address(0) */\n      0xffffffffffffffffffffffffffffffffffffffff\n      and\n      sub\n        /* \"@openzeppelin/contracts/token/ERC20/ERC20.sol\":6906:7331  if (to == address(0)) {... */\n      tag_224\n      jumpi\n        /* \"@openzeppelin/contracts/token/ERC20/ERC20.sol\":7089:7094  value */\n      dup1\n        /* \"@openzeppelin/contracts/token/ERC20/ERC20.sol\":7073:7085  _totalSupply */\n      0x02\n      0x00\n        /* \"@openzeppelin/contracts/token/ERC20/ERC20.sol\":7073:7094  _totalSupply -= value */\n      dup3\n      dup3\n      sload\n      sub\n      swap3\n      pop\n      pop\n      dup2\n      swap1\n      sstore\n      pop\n        /* \"@openzeppelin/contracts/token/ERC20/ERC20.sol\":6906:7331  if (to == address(0)) {... */\n      jump(tag_225)\n    tag_224:\n        /* \"@openzeppelin/contracts/token/ERC20/ERC20.sol\":7301:7306  value */\n      dup1\n        /* \"@openzeppelin/contracts/token/ERC20/ERC20.sol\":7284:7293  _balances */\n      0x00\n        /* \"@openzeppelin/contracts/token/ERC20/ERC20.sol\":7284:7297  _balances[to] */\n      dup1\n        /* \"@openzeppelin/contracts/token/ERC20/ERC20.sol\":7294:7296  to */\n      dup5\n        /* \"@openzeppelin/contracts/token/ERC20/ERC20.sol\":7284:7297  _balances[to] */\n      0xffffffffffffffffffffffffffffffffffffffff\n      and\n      0xffffffffffffffffffffffffffffffffffffffff\n      and\n      dup2\n      mstore\n      0x20\n      add\n      swap1\n      dup2\n      mstore\n      0x20\n      add\n      0x00\n      keccak256\n      0x00\n        /* \"@openzeppelin/contracts/token/ERC20/ERC20.sol\":7284:7306  _balances[to] += value */\n      dup3\n      dup3\n      sload\n      add\n      swap3\n      pop\n      pop\n      dup2\n      swap1\n      sstore\n      pop\n        /* \"@openzeppelin/contracts/token/ERC20/ERC20.sol\":6906:7331  if (to == address(0)) {... */\n    tag_225:\n        /* \"@openzeppelin/contracts/token/ERC20/ERC20.sol\":7361:7363  to */\n      dup2\n        /* \"@openzeppelin/contracts/token/ERC20/ERC20.sol\":7346:7371  Transfer(from, to, value) */\n      0xffffffffffffffffffffffffffffffffffffffff\n      and\n        /* \"@openzeppelin/contracts/token/ERC20/ERC20.sol\":7355:7359  from */\n      dup4\n        /* \"@openzeppelin/contracts/token/ERC20/ERC20.sol\":7346:7371  Transfer(from, to, value) */\n      0xffffffffffffffffffffffffffffffffffffffff\n      and\n      0xddf252ad1be2c89b69c2b068fc378daa952ba7f163c4a11628f55a4df523b3ef\n        /* \"@openzeppelin/contracts/token/ERC20/ERC20.sol\":7365:7370  value */\n      dup4\n        /* \"@openzeppelin/contracts/token/ERC20/ERC20.sol\":7346:7371  Transfer(from, to, value) */\n      mload(0x40)\n      tag_226\n      swap2\n      swap1\n      tag_44\n      jump\t// in\n    tag_226:\n      mload(0x40)\n      dup1\n      swap2\n      sub\n      swap1\n      log3\n        /* \"@openzeppelin/contracts/token/ERC20/ERC20.sol\":6271:7378  function _update(address from, address to, uint256 value) internal virtual {... */\n      pop\n      pop\n      pop\n      jump\t// out\n        /* \"@openzeppelin/contracts/access/AccessControl.sol\":3432:3629  function _checkRole(bytes32 role, address account) internal view virtual {... */\n    tag_196:\n        /* \"@openzeppelin/contracts/access/AccessControl.sol\":3520:3542  hasRole(role, account) */\n      tag_228\n        /* \"@openzeppelin/contracts/access/AccessControl.sol\":3528:3532  role */\n      dup3\n        /* \"@openzeppelin/contracts/access/AccessControl.sol\":3534:3541  account */\n      dup3\n        /* \"@openzeppelin/contracts/access/AccessControl.sol\":3520:3527  hasRole */\n      tag_77\n        /* \"@openzeppelin/contracts/access/AccessControl.sol\":3520:3542  hasRole(role, account) */\n      jump\t// in\n    tag_228:\n        /* \"@openzeppelin/contracts/access/AccessControl.sol\":3515:3623  if (!hasRole(role, account)) {... */\n      tag_229\n      jumpi\n        /* \"@openzeppelin/contracts/access/AccessControl.sol\":3598:3605  account */\n      dup1\n        /* \"@openzeppelin/contracts/access/AccessControl.sol\":3607:3611  role */\n      dup3\n        /* \"@openzeppelin/contracts/access/AccessControl.sol\":3565:3612  AccessControlUnauthorizedAccount(account, role) */\n      mload(0x40)\n      0xe2517d3f00000000000000000000000000000000000000000000000000000000\n      dup2\n      mstore\n      0x04\n      add\n      tag_230\n      swap3\n      swap2\n      swap1\n      tag_231\n      jump\t// in\n    tag_230:\n      mload(0x40)\n      dup1\n      swap2\n      sub\n      swap1\n      revert\n        /* \"@openzeppelin/contracts/access/AccessControl.sol\":3515:3623  if (!hasRole(role, account)) {... */\n    tag_229:\n        /* \"@openzeppelin/contracts/access/AccessControl.sol\":3432:3629  function _checkRole(bytes32 role, address account) internal view virtual {... */\n      pop\n      pop\n      jump\t// out\n        /* \"#utility.yul\":88:205   */\n    tag_233:\n        /* \"#utility.yul\":197:198   */\n      0x00\n        /* \"#utility.yul\":194:195   */\n      dup1\n        /* \"#utility.yul\":187:199   */\n      revert\n        /* \"#utility.yul\":334:483   */\n    tag_235:\n        /* \"#utility.yul\":370:377   */\n      0x00\n        /* \"#utility.yul\":410:476   */\n      0xffffffff00000000000000000000000000000000000000000000000000000000\n        /* \"#utility.yul\":403:408   */\n      dup3\n        /* \"#utility.yul\":399:477   */\n      and\n        /* \"#utility.yul\":388:477   */\n      swap1\n      pop\n        /* \"#utility.yul\":334:483   */\n      swap2\n      swap1\n      pop\n      jump\t// out\n        /* \"#utility.yul\":489:609   */\n    tag_236:\n        /* \"#utility.yul\":561:584   */\n      tag_272\n        /* \"#utility.yul\":578:583   */\n      dup2\n        /* \"#utility.yul\":561:584   */\n      tag_235\n      jump\t// in\n    tag_272:\n        /* \"#utility.yul\":554:559   */\n      dup2\n        /* \"#utility.yul\":551:585   */\n      eq\n        /* \"#utility.yul\":541:603   */\n      tag_273\n      jumpi\n        /* \"#utility.yul\":599:600   */\n      0x00\n        /* \"#utility.yul\":596:597   */\n      dup1\n        /* \"#utility.yul\":589:601   */\n      revert\n        /* \"#utility.yul\":541:603   */\n    tag_273:\n        /* \"#utility.yul\":489:609   */\n      pop\n      jump\t// out\n        /* \"#utility.yul\":615:752   */\n    tag_237:\n        /* \"#utility.yul\":660:665   */\n      0x00\n        /* \"#utility.yul\":698:704   */\n      dup2\n        /* \"#utility.yul\":685:705   */\n      calldataload\n        /* \"#utility.yul\":676:705   */\n      swap1\n      pop\n        /* \"#utility.yul\":714:746   */\n      tag_275\n        /* \"#utility.yul\":740:745   */\n      dup2\n        /* \"#utility.yul\":714:746   */\n      tag_236\n      jump\t// in\n    tag_275:\n        /* \"#utility.yul\":615:752   */\n      swap3\n      swap2\n      pop\n      pop\n      jump\t// out\n        /* \"#utility.yul\":758:1085   */\n    tag_28:\n        /* \"#utility.yul\":816:822   */\n      0x00\n        /* \"#utility.yul\":865:867   */\n      0x20\n        /* \"#utility.yul\":853:862   */\n      dup3\n        /* \"#utility.yul\":844:851   */\n      dup5\n        /* \"#utility.yul\":840:863   */\n      sub\n        /* \"#utility.yul\":836:868   */\n      slt\n        /* \"#utility.yul\":833:952   */\n      iszero\n      tag_277\n      jumpi\n        /* \"#utility.yul\":871:950   */\n      tag_278\n      tag_233\n      jump\t// in\n    tag_278:\n        /* \"#utility.yul\":833:952   */\n    tag_277:\n        /* \"#utility.yul\":991:992   */\n      0x00\n        /* \"#utility.yul\":1016:1068   */\n      tag_279\n        /* \"#utility.yul\":1060:1067   */\n      dup5\n        /* \"#utility.yul\":1051:1057   */\n      dup3\n        /* \"#utility.yul\":1040:1049   */\n      dup6\n        /* \"#utility.yul\":1036:1058   */\n      add\n        /* \"#utility.yul\":1016:1068   */\n      tag_237\n      jump\t// in\n    tag_279:\n        /* \"#utility.yul\":1006:1068   */\n      swap2\n      pop\n        /* \"#utility.yul\":962:1078   */\n      pop\n        /* \"#utility.yul\":758:1085   */\n      swap3\n      swap2\n      pop\n      pop\n      jump\t// out\n        /* \"#utility.yul\":1091:1181   */\n    tag_238:\n        /* \"#utility.yul\":1125:1132   */\n      0x00\n        /* \"#utility.yul\":1168:1173   */\n      dup2\n        /* \"#utility.yul\":1161:1174   */\n      iszero\n        /* \"#utility.yul\":1154:1175   */\n      iszero\n        /* \"#utility.yul\":1143:1175   */\n      swap1\n      pop\n        /* \"#utility.yul\":1091:1181   */\n      swap2\n      swap1\n      pop\n      jump\t// out\n        /* \"#utility.yul\":1187:1296   */\n    tag_239:\n        /* \"#utility.yul\":1268:1289   */\n      tag_282\n        /* \"#utility.yul\":1283:1288   */\n      dup2\n        /* \"#utility.yul\":1268:1289   */\n      tag_238\n      jump\t// in\n    tag_282:\n        /* \"#utility.yul\":1263:1266   */\n      dup3\n        /* \"#utility.yul\":1256:1290   */\n      mstore\n        /* \"#utility.yul\":1187:1296   */\n      pop\n      pop\n      jump\t// out\n        /* \"#utility.yul\":1302:1512   */\n    tag_31:\n        /* \"#utility.yul\":1389:1393   */\n      0x00\n        /* \"#utility.yul\":1427:1429   */\n      0x20\n        /* \"#utility.yul\":1416:1425   */\n      dup3\n        /* \"#utility.yul\":1412:1430   */\n      add\n        /* \"#utility.yul\":1404:1430   */\n      swap1\n      pop\n        /* \"#utility.yul\":1440:1505   */\n      tag_284\n        /* \"#utility.yul\":1502:1503   */\n      0x00\n        /* \"#utility.yul\":1491:1500   */\n      dup4\n        /* \"#utility.yul\":1487:1504   */\n      add\n        /* \"#utility.yul\":1478:1484   */\n      dup5\n        /* \"#utility.yul\":1440:1505   */\n      tag_239\n      jump\t// in\n    tag_284:\n        /* \"#utility.yul\":1302:1512   */\n      swap3\n      swap2\n      pop\n      pop\n      jump\t// out\n        /* \"#utility.yul\":1518:1617   */\n    tag_240:\n        /* \"#utility.yul\":1570:1576   */\n      0x00\n        /* \"#utility.yul\":1604:1609   */\n      dup2\n        /* \"#utility.yul\":1598:1610   */\n      mload\n        /* \"#utility.yul\":1588:1610   */\n      swap1\n      pop\n        /* \"#utility.yul\":1518:1617   */\n      swap2\n      swap1\n      pop\n      jump\t// out\n        /* \"#utility.yul\":1623:1792   */\n    tag_241:\n        /* \"#utility.yul\":1707:1718   */\n      0x00\n        /* \"#utility.yul\":1741:1747   */\n      dup3\n        /* \"#utility.yul\":1736:1739   */\n      dup3\n        /* \"#utility.yul\":1729:1748   */\n      mstore\n        /* \"#utility.yul\":1781:1785   */\n      0x20\n        /* \"#utility.yul\":1776:1779   */\n      dup3\n        /* \"#utility.yul\":1772:1786   */\n      add\n        /* \"#utility.yul\":1757:1786   */\n      swap1\n      pop\n        /* \"#utility.yul\":1623:1792   */\n      swap3\n      swap2\n      pop\n      pop\n      jump\t// out\n        /* \"#utility.yul\":1798:2044   */\n    tag_242:\n        /* \"#utility.yul\":1879:1880   */\n      0x00\n        /* \"#utility.yul\":1889:2002   */\n    tag_288:\n        /* \"#utility.yul\":1903:1909   */\n      dup4\n        /* \"#utility.yul\":1900:1901   */\n      dup2\n        /* \"#utility.yul\":1897:1910   */\n      lt\n        /* \"#utility.yul\":1889:2002   */\n      iszero\n      tag_290\n      jumpi\n        /* \"#utility.yul\":1988:1989   */\n      dup1\n        /* \"#utility.yul\":1983:1986   */\n      dup3\n        /* \"#utility.yul\":1979:1990   */\n      add\n        /* \"#utility.yul\":1973:1991   */\n      mload\n        /* \"#utility.yul\":1969:1970   */\n      dup2\n        /* \"#utility.yul\":1964:1967   */\n      dup5\n        /* \"#utility.yul\":1960:1971   */\n      add\n        /* \"#utility.yul\":1953:1992   */\n      mstore\n        /* \"#utility.yul\":1925:1927   */\n      0x20\n        /* \"#utility.yul\":1922:1923   */\n      dup2\n        /* \"#utility.yul\":1918:1928   */\n      add\n        /* \"#utility.yul\":1913:1928   */\n      swap1\n      pop\n        /* \"#utility.yul\":1889:2002   */\n      jump(tag_288)\n    tag_290:\n        /* \"#utility.yul\":2036:2037   */\n      0x00\n        /* \"#utility.yul\":2027:2033   */\n      dup5\n        /* \"#utility.yul\":2022:2025   */\n      dup5\n        /* \"#utility.yul\":2018:2034   */\n      add\n        /* \"#utility.yul\":2011:2038   */\n      mstore\n        /* \"#utility.yul\":1860:2044   */\n      pop\n        /* \"#utility.yul\":1798:2044   */\n      pop\n      pop\n      pop\n      jump\t// out\n        /* \"#utility.yul\":2050:2152   */\n    tag_243:\n        /* \"#utility.yul\":2091:2097   */\n      0x00\n        /* \"#utility.yul\":2142:2144   */\n      0x1f\n        /* \"#utility.yul\":2138:2145   */\n      not\n        /* \"#utility.yul\":2133:2135   */\n      0x1f\n        /* \"#utility.yul\":2126:2131   */\n      dup4\n        /* \"#utility.yul\":2122:2136   */\n      add\n        /* \"#utility.yul\":2118:2146   */\n      and\n        /* \"#utility.yul\":2108:2146   */\n      swap1\n      pop\n        /* \"#utility.yul\":2050:2152   */\n      swap2\n      swap1\n      pop\n      jump\t// out\n        /* \"#utility.yul\":2158:2535   */\n    tag_244:\n        /* \"#utility.yul\":2246:2249   */\n      0x00\n        /* \"#utility.yul\":2274:2313   */\n      tag_293\n        /* \"#utility.yul\":2307:2312   */\n      dup3\n        /* \"#utility.yul\":2274:2313   */\n      tag_240\n      jump\t// in\n    tag_293:\n        /* \"#utility.yul\":2329:2400   */\n      tag_294\n        /* \"#utility.yul\":2393:2399   */\n      dup2\n        /* \"#utility.yul\":2388:2391   */\n      dup6\n        /* \"#utility.yul\":2329:2400   */\n      tag_241\n      jump\t// in\n    tag_294:\n        /* \"#utility.yul\":2322:2400   */\n      swap4\n      pop\n        /* \"#utility.yul\":2409:2474   */\n      tag_295\n        /* \"#utility.yul\":2467:2473   */\n      dup2\n        /* \"#utility.yul\":2462:2465   */\n      dup6\n        /* \"#utility.yul\":2455:2459   */\n      0x20\n        /* \"#utility.yul\":2448:2453   */\n      dup7\n        /* \"#utility.yul\":2444:2460   */\n      add\n        /* \"#utility.yul\":2409:2474   */\n      tag_242\n      jump\t// in\n    tag_295:\n        /* \"#utility.yul\":2499:2528   */\n      tag_296\n        /* \"#utility.yul\":2521:2527   */\n      dup2\n        /* \"#utility.yul\":2499:2528   */\n      tag_243\n      jump\t// in\n    tag_296:\n        /* \"#utility.yul\":2494:2497   */\n      dup5\n        /* \"#utility.yul\":2490:2529   */\n      add\n        /* \"#utility.yul\":2483:2529   */\n      swap2\n      pop\n        /* \"#utility.yul\":2250:2535   */\n      pop\n        /* \"#utility.yul\":2158:2535   */\n      swap3\n      swap2\n      pop\n      pop\n      jump\t// out\n        /* \"#utility.yul\":2541:2854   */\n    tag_35:\n        /* \"#utility.yul\":2654:2658   */\n      0x00\n        /* \"#utility.yul\":2692:2694   */\n      0x20\n        /* \"#utility.yul\":2681:2690   */\n      dup3\n        /* \"#utility.yul\":2677:2695   */\n      add\n        /* \"#utility.yul\":2669:2695   */\n      swap1\n      pop\n        /* \"#utility.yul\":2741:2750   */\n      dup2\n        /* \"#utility.yul\":2735:2739   */\n      dup2\n        /* \"#utility.yul\":2731:2751   */\n      sub\n        /* \"#utility.yul\":2727:2728   */\n      0x00\n        /* \"#utility.yul\":2716:2725   */\n      dup4\n        /* \"#utility.yul\":2712:2729   */\n      add\n        /* \"#utility.yul\":2705:2752   */\n      mstore\n        /* \"#utility.yul\":2769:2847   */\n      tag_298\n        /* \"#utility.yul\":2842:2846   */\n      dup2\n        /* \"#utility.yul\":2833:2839   */\n      dup5\n        /* \"#utility.yul\":2769:2847   */\n      tag_244\n      jump\t// in\n    tag_298:\n        /* \"#utility.yul\":2761:2847   */\n      swap1\n      pop\n        /* \"#utility.yul\":2541:2854   */\n      swap3\n      swap2\n      pop\n      pop\n      jump\t// out\n        /* \"#utility.yul\":2860:2986   */\n    tag_245:\n        /* \"#utility.yul\":2897:2904   */\n      0x00\n        /* \"#utility.yul\":2937:2979   */\n      0xffffffffffffffffffffffffffffffffffffffff\n        /* \"#utility.yul\":2930:2935   */\n      dup3\n        /* \"#utility.yul\":2926:2980   */\n      and\n        /* \"#utility.yul\":2915:2980   */\n      swap1\n      pop\n        /* \"#utility.yul\":2860:2986   */\n      swap2\n      swap1\n      pop\n      jump\t// out\n        /* \"#utility.yul\":2992:3088   */\n    tag_246:\n        /* \"#utility.yul\":3029:3036   */\n      0x00\n        /* \"#utility.yul\":3058:3082   */\n      tag_301\n        /* \"#utility.yul\":3076:3081   */\n      dup3\n        /* \"#utility.yul\":3058:3082   */\n      tag_245\n      jump\t// in\n    tag_301:\n        /* \"#utility.yul\":3047:3082   */\n      swap1\n      pop\n        /* \"#utility.yul\":2992:3088   */\n      swap2\n      swap1\n      pop\n      jump\t// out\n        /* \"#utility.yul\":3094:3216   */\n    tag_247:\n        /* \"#utility.yul\":3167:3191   */\n      tag_303\n        /* \"#utility.yul\":3185:3190   */\n      dup2\n        /* \"#utility.yul\":3167:3191   */\n      tag_246\n      jump\t// in\n    tag_303:\n        /* \"#utility.yul\":3160:3165   */\n      dup2\n        /* \"#utility.yul\":3157:3192   */\n      eq\n        /* \"#utility.yul\":3147:3210   */\n      tag_304\n      jumpi\n        /* \"#utility.yul\":3206:3207   */\n      0x00\n        /* \"#utility.yul\":3203:3204   */\n      dup1\n        /* \"#utility.yul\":3196:3208   */\n      revert\n        /* \"#utility.yul\":3147:3210   */\n    tag_304:\n        /* \"#utility.yul\":3094:3216   */\n      pop\n      jump\t// out\n        /* \"#utility.yul\":3222:3361   */\n    tag_248:\n        /* \"#utility.yul\":3268:3273   */\n      0x00\n        /* \"#utility.yul\":3306:3312   */\n      dup2\n        /* \"#utility.yul\":3293:3313   */\n      calldataload\n        /* \"#utility.yul\":3284:3313   */\n      swap1\n      pop\n        /* \"#utility.yul\":3322:3355   */\n      tag_306\n        /* \"#utility.yul\":3349:3354   */\n      dup2\n        /* \"#utility.yul\":3322:3355   */\n      tag_247\n      jump\t// in\n    tag_306:\n        /* \"#utility.yul\":3222:3361   */\n      swap3\n      swap2\n      pop\n      pop\n      jump\t// out\n        /* \"#utility.yul\":3367:3444   */\n    tag_249:\n        /* \"#utility.yul\":3404:3411   */\n      0x00\n        /* \"#utility.yul\":3433:3438   */\n      dup2\n        /* \"#utility.yul\":3422:3438   */\n      swap1\n      pop\n        /* \"#utility.yul\":3367:3444   */\n      swap2\n      swap1\n      pop\n      jump\t// out\n        /* \"#utility.yul\":3450:3572   */\n    tag_250:\n        /* \"#utility.yul\":3523:3547   */\n      tag_309\n        /* \"#utility.yul\":3541:3546   */\n      dup2\n        /* \"#utility.yul\":3523:3547   */\n      tag_249\n      jump\t// in\n    tag_309:\n        /* \"#utility.yul\":3516:3521   */\n      dup2\n        /* \"#utility.yul\":3513:3548   */\n      eq\n        /* \"#utility.yul\":3503:3566   */\n      tag_310\n      jumpi\n        /* \"#utility.yul\":3562:3563   */\n      0x00\n        /* \"#utility.yul\":3559:3560   */\n      dup1\n        /* \"#utility.yul\":3552:3564   */\n      revert\n        /* \"#utility.yul\":3503:3566   */\n    tag_310:\n        /* \"#utility.yul\":3450:3572   */\n      pop\n      jump\t// out\n        /* \"#utility.yul\":3578:3717   */\n    tag_251:\n        /* \"#utility.yul\":3624:3629   */\n      0x00\n        /* \"#utility.yul\":3662:3668   */\n      dup2\n        /* \"#utility.yul\":3649:3669   */\n      calldataload\n        /* \"#utility.yul\":3640:3669   */\n      swap1\n      pop\n        /* \"#utility.yul\":3678:3711   */\n      tag_312\n        /* \"#utility.yul\":3705:3710   */\n      dup2\n        /* \"#utility.yul\":3678:3711   */\n      tag_250\n      jump\t// in\n    tag_312:\n        /* \"#utility.yul\":3578:3717   */\n      swap3\n      swap2\n      pop\n      pop\n      jump\t// out\n        /* \"#utility.yul\":3723:4197   */\n    tag_38:\n        /* \"#utility.yul\":3791:3797   */\n      0x00\n        /* \"#utility.yul\":3799:3805   */\n      dup1\n        /* \"#utility.yul\":3848:3850   */\n      0x40\n        /* \"#utility.yul\":3836:3845   */\n      dup4\n        /* \"#utility.yul\":3827:3834   */\n      dup6\n        /* \"#utility.yul\":3823:3846   */\n      sub\n        /* \"#utility.yul\":3819:3851   */\n      slt\n        /* \"#utility.yul\":3816:3935   */\n      iszero\n      tag_314\n      jumpi\n        /* \"#utility.yul\":3854:3933   */\n      tag_315\n      tag_233\n      jump\t// in\n    tag_315:\n        /* \"#utility.yul\":3816:3935   */\n    tag_314:\n        /* \"#utility.yul\":3974:3975   */\n      0x00\n        /* \"#utility.yul\":3999:4052   */\n      tag_316\n        /* \"#utility.yul\":4044:4051   */\n      dup6\n        /* \"#utility.yul\":4035:4041   */\n      dup3\n        /* \"#utility.yul\":4024:4033   */\n      dup7\n        /* \"#utility.yul\":4020:4042   */\n      add\n        /* \"#utility.yul\":3999:4052   */\n      tag_248\n      jump\t// in\n    tag_316:\n        /* \"#utility.yul\":3989:4052   */\n      swap3\n      pop\n        /* \"#utility.yul\":3945:4062   */\n      pop\n        /* \"#utility.yul\":4101:4103   */\n      0x20\n        /* \"#utility.yul\":4127:4180   */\n      tag_317\n        /* \"#utility.yul\":4172:4179   */\n      dup6\n        /* \"#utility.yul\":4163:4169   */\n      dup3\n        /* \"#utility.yul\":4152:4161   */\n      dup7\n        /* \"#utility.yul\":4148:4170   */\n      add\n        /* \"#utility.yul\":4127:4180   */\n      tag_251\n      jump\t// in\n    tag_317:\n        /* \"#utility.yul\":4117:4180   */\n      swap2\n      pop\n        /* \"#utility.yul\":4072:4190   */\n      pop\n        /* \"#utility.yul\":3723:4197   */\n      swap3\n      pop\n      swap3\n      swap1\n      pop\n      jump\t// out\n        /* \"#utility.yul\":4203:4321   */\n    tag_252:\n        /* \"#utility.yul\":4290:4314   */\n      tag_319\n        /* \"#utility.yul\":4308:4313   */\n      dup2\n        /* \"#utility.yul\":4290:4314   */\n      tag_249\n      jump\t// in\n    tag_319:\n        /* \"#utility.yul\":4285:4288   */\n      dup3\n        /* \"#utility.yul\":4278:4315   */\n      mstore\n        /* \"#utility.yul\":4203:4321   */\n      pop\n      pop\n      jump\t// out\n        /* \"#utility.yul\":4327:4549   */\n    tag_44:\n        /* \"#utility.yul\":4420:4424   */\n      0x00\n        /* \"#utility.yul\":4458:4460   */\n      0x20\n        /* \"#utility.yul\":4447:4456   */\n      dup3\n        /* \"#utility.yul\":4443:4461   */\n      add\n        /* \"#utility.yul\":4435:4461   */\n      swap1\n      pop\n        /* \"#utility.yul\":4471:4542   */\n      tag_321\n        /* \"#utility.yul\":4539:4540   */\n      0x00\n        /* \"#utility.yul\":4528:4537   */\n      dup4\n        /* \"#utility.yul\":4524:4541   */\n      add\n        /* \"#utility.yul\":4515:4521   */\n      dup5\n        /* \"#utility.yul\":4471:4542   */\n      tag_252\n      jump\t// in\n    tag_321:\n        /* \"#utility.yul\":4327:4549   */\n      swap3\n      swap2\n      pop\n      pop\n      jump\t// out\n        /* \"#utility.yul\":4555:5174   */\n    tag_47:\n        /* \"#utility.yul\":4632:4638   */\n      0x00\n        /* \"#utility.yul\":4640:4646   */\n      dup1\n        /* \"#utility.yul\":4648:4654   */\n      0x00\n        /* \"#utility.yul\":4697:4699   */\n      0x60\n        /* \"#utility.yul\":4685:4694   */\n      dup5\n        /* \"#utility.yul\":4676:4683   */\n      dup7\n        /* \"#utility.yul\":4672:4695   */\n      sub\n        /* \"#utility.yul\":4668:4700   */\n      slt\n        /* \"#utility.yul\":4665:4784   */\n      iszero\n      tag_323\n      jumpi\n        /* \"#utility.yul\":4703:4782   */\n      tag_324\n      tag_233\n      jump\t// in\n    tag_324:\n        /* \"#utility.yul\":4665:4784   */\n    tag_323:\n        /* \"#utility.yul\":4823:4824   */\n      0x00\n        /* \"#utility.yul\":4848:4901   */\n      tag_325\n        /* \"#utility.yul\":4893:4900   */\n      dup7\n        /* \"#utility.yul\":4884:4890   */\n      dup3\n        /* \"#utility.yul\":4873:4882   */\n      dup8\n        /* \"#utility.yul\":4869:4891   */\n      add\n        /* \"#utility.yul\":4848:4901   */\n      tag_248\n      jump\t// in\n    tag_325:\n        /* \"#utility.yul\":4838:4901   */\n      swap4\n      pop\n        /* \"#utility.yul\":4794:4911   */\n      pop\n        /* \"#utility.yul\":4950:4952   */\n      0x20\n        /* \"#utility.yul\":4976:5029   */\n      tag_326\n        /* \"#utility.yul\":5021:5028   */\n      dup7\n        /* \"#utility.yul\":5012:5018   */\n      dup3\n        /* \"#utility.yul\":5001:5010   */\n      dup8\n        /* \"#utility.yul\":4997:5019   */\n      add\n        /* \"#utility.yul\":4976:5029   */\n      tag_248\n      jump\t// in\n    tag_326:\n        /* \"#utility.yul\":4966:5029   */\n      swap3\n      pop\n        /* \"#utility.yul\":4921:5039   */\n      pop\n        /* \"#utility.yul\":5078:5080   */\n      0x40\n        /* \"#utility.yul\":5104:5157   */\n      tag_327\n        /* \"#utility.yul\":5149:5156   */\n      dup7\n        /* \"#utility.yul\":5140:5146   */\n      dup3\n        /* \"#utility.yul\":5129:5138   */\n      dup8\n        /* \"#utility.yul\":5125:5147   */\n      add\n        /* \"#utility.yul\":5104:5157   */\n      tag_251\n      jump\t// in\n    tag_327:\n        /* \"#utility.yul\":5094:5157   */\n      swap2\n      pop\n        /* \"#utility.yul\":5049:5167   */\n      pop\n        /* \"#utility.yul\":4555:5174   */\n      swap3\n      pop\n      swap3\n      pop\n      swap3\n      jump\t// out\n        /* \"#utility.yul\":5180:5257   */\n    tag_253:\n        /* \"#utility.yul\":5217:5224   */\n      0x00\n        /* \"#utility.yul\":5246:5251   */\n      dup2\n        /* \"#utility.yul\":5235:5251   */\n      swap1\n      pop\n        /* \"#utility.yul\":5180:5257   */\n      swap2\n      swap1\n      pop\n      jump\t// out\n        /* \"#utility.yul\":5263:5385   */\n    tag_254:\n        /* \"#utility.yul\":5336:5360   */\n      tag_330\n        /* \"#utility.yul\":5354:5359   */\n      dup2\n        /* \"#utility.yul\":5336:5360   */\n      tag_253\n      jump\t// in\n    tag_330:\n        /* \"#utility.yul\":5329:5334   */\n      dup2\n        /* \"#utility.yul\":5326:5361   */\n      eq\n        /* \"#utility.yul\":5316:5379   */\n      tag_331\n      jumpi\n        /* \"#utility.yul\":5375:5376   */\n      0x00\n        /* \"#utility.yul\":5372:5373   */\n      dup1\n        /* \"#utility.yul\":5365:5377   */\n      revert\n        /* \"#utility.yul\":5316:5379   */\n    tag_331:\n        /* \"#utility.yul\":5263:5385   */\n      pop\n      jump\t// out\n        /* \"#utility.yul\":5391:5530   */\n    tag_255:\n        /* \"#utility.yul\":5437:5442   */\n      0x00\n        /* \"#utility.yul\":5475:5481   */\n      dup2\n        /* \"#utility.yul\":5462:5482   */\n      calldataload\n        /* \"#utility.yul\":5453:5482   */\n      swap1\n      pop\n        /* \"#utility.yul\":5491:5524   */\n      tag_333\n        /* \"#utility.yul\":5518:5523   */\n      dup2\n        /* \"#utility.yul\":5491:5524   */\n      tag_254\n      jump\t// in\n    tag_333:\n        /* \"#utility.yul\":5391:5530   */\n      swap3\n      swap2\n      pop\n      pop\n      jump\t// out\n        /* \"#utility.yul\":5536:5865   */\n    tag_52:\n        /* \"#utility.yul\":5595:5601   */\n      0x00\n        /* \"#utility.yul\":5644:5646   */\n      0x20\n        /* \"#utility.yul\":5632:5641   */\n      dup3\n        /* \"#utility.yul\":5623:5630   */\n      dup5\n        /* \"#utility.yul\":5619:5642   */\n      sub\n        /* \"#utility.yul\":5615:5647   */\n      slt\n        /* \"#utility.yul\":5612:5731   */\n      iszero\n      tag_335\n      jumpi\n        /* \"#utility.yul\":5650:5729   */\n      tag_336\n      tag_233\n      jump\t// in\n    tag_336:\n        /* \"#utility.yul\":5612:5731   */\n    tag_335:\n        /* \"#utility.yul\":5770:5771   */\n      0x00\n        /* \"#utility.yul\":5795:5848   */\n      tag_337\n        /* \"#utility.yul\":5840:5847   */\n      dup5\n        /* \"#utility.yul\":5831:5837   */\n      dup3\n        /* \"#utility.yul\":5820:5829   */\n      dup6\n        /* \"#utility.yul\":5816:5838   */\n      add\n        /* \"#utility.yul\":5795:5848   */\n      tag_255\n      jump\t// in\n    tag_337:\n        /* \"#utility.yul\":5785:5848   */\n      swap2\n      pop\n        /* \"#utility.yul\":5741:5858   */\n      pop\n        /* \"#utility.yul\":5536:5865   */\n      swap3\n      swap2\n      pop\n      pop\n      jump\t// out\n        /* \"#utility.yul\":5871:5989   */\n    tag_256:\n        /* \"#utility.yul\":5958:5982   */\n      tag_339\n        /* \"#utility.yul\":5976:5981   */\n      dup2\n        /* \"#utility.yul\":5958:5982   */\n      tag_253\n      jump\t// in\n    tag_339:\n        /* \"#utility.yul\":5953:5956   */\n      dup3\n        /* \"#utility.yul\":5946:5983   */\n      mstore\n        /* \"#utility.yul\":5871:5989   */\n      pop\n      pop\n      jump\t// out\n        /* \"#utility.yul\":5995:6217   */\n    tag_55:\n        /* \"#utility.yul\":6088:6092   */\n      0x00\n        /* \"#utility.yul\":6126:6128   */\n      0x20\n        /* \"#utility.yul\":6115:6124   */\n      dup3\n        /* \"#utility.yul\":6111:6129   */\n      add\n        /* \"#utility.yul\":6103:6129   */\n      swap1\n      pop\n        /* \"#utility.yul\":6139:6210   */\n      tag_341\n        /* \"#utility.yul\":6207:6208   */\n      0x00\n        /* \"#utility.yul\":6196:6205   */\n      dup4\n        /* \"#utility.yul\":6192:6209   */\n      add\n        /* \"#utility.yul\":6183:6189   */\n      dup5\n        /* \"#utility.yul\":6139:6210   */\n      tag_256\n      jump\t// in\n    tag_341:\n        /* \"#utility.yul\":5995:6217   */\n      swap3\n      swap2\n      pop\n      pop\n      jump\t// out\n        /* \"#utility.yul\":6223:6697   */\n    tag_58:\n        /* \"#utility.yul\":6291:6297   */\n      0x00\n        /* \"#utility.yul\":6299:6305   */\n      dup1\n        /* \"#utility.yul\":6348:6350   */\n      0x40\n        /* \"#utility.yul\":6336:6345   */\n      dup4\n        /* \"#utility.yul\":6327:6334   */\n      dup6\n        /* \"#utility.yul\":6323:6346   */\n      sub\n        /* \"#utility.yul\":6319:6351   */\n      slt\n        /* \"#utility.yul\":6316:6435   */\n      iszero\n      tag_343\n      jumpi\n        /* \"#utility.yul\":6354:6433   */\n      tag_344\n      tag_233\n      jump\t// in\n    tag_344:\n        /* \"#utility.yul\":6316:6435   */\n    tag_343:\n        /* \"#utility.yul\":6474:6475   */\n      0x00\n        /* \"#utility.yul\":6499:6552   */\n      tag_345\n        /* \"#utility.yul\":6544:6551   */\n      dup6\n        /* \"#utility.yul\":6535:6541   */\n      dup3\n        /* \"#utility.yul\":6524:6533   */\n      dup7\n        /* \"#utility.yul\":6520:6542   */\n      add\n        /* \"#utility.yul\":6499:6552   */\n      tag_255\n      jump\t// in\n    tag_345:\n        /* \"#utility.yul\":6489:6552   */\n      swap3\n      pop\n        /* \"#utility.yul\":6445:6562   */\n      pop\n        /* \"#utility.yul\":6601:6603   */\n      0x20\n        /* \"#utility.yul\":6627:6680   */\n      tag_346\n        /* \"#utility.yul\":6672:6679   */\n      dup6\n        /* \"#utility.yul\":6663:6669   */\n      dup3\n        /* \"#utility.yul\":6652:6661   */\n      dup7\n        /* \"#utility.yul\":6648:6670   */\n      add\n        /* \"#utility.yul\":6627:6680   */\n      tag_248\n      jump\t// in\n    tag_346:\n        /* \"#utility.yul\":6617:6680   */\n      swap2\n      pop\n        /* \"#utility.yul\":6572:6690   */\n      pop\n        /* \"#utility.yul\":6223:6697   */\n      swap3\n      pop\n      swap3\n      swap1\n      pop\n      jump\t// out\n        /* \"#utility.yul\":6703:6789   */\n    tag_257:\n        /* \"#utility.yul\":6738:6745   */\n      0x00\n        /* \"#utility.yul\":6778:6782   */\n      0xff\n        /* \"#utility.yul\":6771:6776   */\n      dup3\n        /* \"#utility.yul\":6767:6783   */\n      and\n        /* \"#utility.yul\":6756:6783   */\n      swap1\n      pop\n        /* \"#utility.yul\":6703:6789   */\n      swap2\n      swap1\n      pop\n      jump\t// out\n        /* \"#utility.yul\":6795:6907   */\n    tag_258:\n        /* \"#utility.yul\":6878:6900   */\n      tag_349\n        /* \"#utility.yul\":6894:6899   */\n      dup2\n        /* \"#utility.yul\":6878:6900   */\n      tag_257\n      jump\t// in\n    tag_349:\n        /* \"#utility.yul\":6873:6876   */\n      dup3\n        /* \"#utility.yul\":6866:6901   */\n      mstore\n        /* \"#utility.yul\":6795:6907   */\n      pop\n      pop\n      jump\t// out\n        /* \"#utility.yul\":6913:7127   */\n    tag_63:\n        /* \"#utility.yul\":7002:7006   */\n      0x00\n        /* \"#utility.yul\":7040:7042   */\n      0x20\n        /* \"#utility.yul\":7029:7038   */\n      dup3\n        /* \"#utility.yul\":7025:7043   */\n      add\n        /* \"#utility.yul\":7017:7043   */\n      swap1\n      pop\n        /* \"#utility.yul\":7053:7120   */\n      tag_351\n        /* \"#utility.yul\":7117:7118   */\n      0x00\n        /* \"#utility.yul\":7106:7115   */\n      dup4\n        /* \"#utility.yul\":7102:7119   */\n      add\n        /* \"#utility.yul\":7093:7099   */\n      dup5\n        /* \"#utility.yul\":7053:7120   */\n      tag_258\n      jump\t// in\n    tag_351:\n        /* \"#utility.yul\":6913:7127   */\n      swap3\n      swap2\n      pop\n      pop\n      jump\t// out\n        /* \"#utility.yul\":7133:7462   */\n    tag_72:\n        /* \"#utility.yul\":7192:7198   */\n      0x00\n        /* \"#utility.yul\":7241:7243   */\n      0x20\n        /* \"#utility.yul\":7229:7238   */\n      dup3\n        /* \"#utility.yul\":7220:7227   */\n      dup5\n        /* \"#utility.yul\":7216:7239   */\n      sub\n        /* \"#utility.yul\":7212:7244   */\n      slt\n        /* \"#utility.yul\":7209:7328   */\n      iszero\n      tag_353\n      jumpi\n        /* \"#utility.yul\":7247:7326   */\n      tag_354\n      tag_233\n      jump\t// in\n    tag_354:\n        /* \"#utility.yul\":7209:7328   */\n    tag_353:\n        /* \"#utility.yul\":7367:7368   */\n      0x00\n        /* \"#utility.yul\":7392:7445   */\n      tag_355\n        /* \"#utility.yul\":7437:7444   */\n      dup5\n        /* \"#utility.yul\":7428:7434   */\n      dup3\n        /* \"#utility.yul\":7417:7426   */\n      dup6\n        /* \"#utility.yul\":7413:7435   */\n      add\n        /* \"#utility.yul\":7392:7445   */\n      tag_248\n      jump\t// in\n    tag_355:\n        /* \"#utility.yul\":7382:7445   */\n      swap2\n      pop\n        /* \"#utility.yul\":7338:7455   */\n      pop\n        /* \"#utility.yul\":7133:7462   */\n      swap3\n      swap2\n      pop\n      pop\n      jump\t// out\n        /* \"#utility.yul\":7468:7942   */\n    tag_103:\n        /* \"#utility.yul\":7536:7542   */\n      0x00\n        /* \"#utility.yul\":7544:7550   */\n      dup1\n        /* \"#utility.yul\":7593:7595   */\n      0x40\n        /* \"#utility.yul\":7581:7590   */\n      dup4\n        /* \"#utility.yul\":7572:7579   */\n      dup6\n        /* \"#utility.yul\":7568:7591   */\n      sub\n        /* \"#utility.yul\":7564:7596   */\n      slt\n        /* \"#utility.yul\":7561:7680   */\n      iszero\n      tag_357\n      jumpi\n        /* \"#utility.yul\":7599:7678   */\n      tag_358\n      tag_233\n      jump\t// in\n    tag_358:\n        /* \"#utility.yul\":7561:7680   */\n    tag_357:\n        /* \"#utility.yul\":7719:7720   */\n      0x00\n        /* \"#utility.yul\":7744:7797   */\n      tag_359\n        /* \"#utility.yul\":7789:7796   */\n      dup6\n        /* \"#utility.yul\":7780:7786   */\n      dup3\n        /* \"#utility.yul\":7769:7778   */\n      dup7\n        /* \"#utility.yul\":7765:7787   */\n      add\n        /* \"#utility.yul\":7744:7797   */\n      tag_248\n      jump\t// in\n    tag_359:\n        /* \"#utility.yul\":7734:7797   */\n      swap3\n      pop\n        /* \"#utility.yul\":7690:7807   */\n      pop\n        /* \"#utility.yul\":7846:7848   */\n      0x20\n        /* \"#utility.yul\":7872:7925   */\n      tag_360\n        /* \"#utility.yul\":7917:7924   */\n      dup6\n        /* \"#utility.yul\":7908:7914   */\n      dup3\n        /* \"#utility.yul\":7897:7906   */\n      dup7\n        /* \"#utility.yul\":7893:7915   */\n      add\n        /* \"#utility.yul\":7872:7925   */\n      tag_248\n      jump\t// in\n    tag_360:\n        /* \"#utility.yul\":7862:7925   */\n      swap2\n      pop\n        /* \"#utility.yul\":7817:7935   */\n      pop\n        /* \"#utility.yul\":7468:7942   */\n      swap3\n      pop\n      swap3\n      swap1\n      pop\n      jump\t// out\n        /* \"#utility.yul\":7948:8128   */\n    tag_259:\n        /* \"#utility.yul\":7996:8073   */\n      0x4e487b7100000000000000000000000000000000000000000000000000000000\n        /* \"#utility.yul\":7993:7994   */\n      0x00\n        /* \"#utility.yul\":7986:8074   */\n      mstore\n        /* \"#utility.yul\":8093:8097   */\n      0x22\n        /* \"#utility.yul\":8090:8091   */\n      0x04\n        /* \"#utility.yul\":8083:8098   */\n      mstore\n        /* \"#utility.yul\":8117:8121   */\n      0x24\n        /* \"#utility.yul\":8114:8115   */\n      0x00\n        /* \"#utility.yul\":8107:8122   */\n      revert\n        /* \"#utility.yul\":8134:8454   */\n    tag_112:\n        /* \"#utility.yul\":8178:8184   */\n      0x00\n        /* \"#utility.yul\":8215:8216   */\n      0x02\n        /* \"#utility.yul\":8209:8213   */\n      dup3\n        /* \"#utility.yul\":8205:8217   */\n      div\n        /* \"#utility.yul\":8195:8217   */\n      swap1\n      pop\n        /* \"#utility.yul\":8262:8263   */\n      0x01\n        /* \"#utility.yul\":8256:8260   */\n      dup3\n        /* \"#utility.yul\":8252:8264   */\n      and\n        /* \"#utility.yul\":8283:8301   */\n      dup1\n        /* \"#utility.yul\":8273:8354   */\n      tag_363\n      jumpi\n        /* \"#utility.yul\":8339:8343   */\n      0x7f\n        /* \"#utility.yul\":8331:8337   */\n      dup3\n        /* \"#utility.yul\":8327:8344   */\n      and\n        /* \"#utility.yul\":8317:8344   */\n      swap2\n      pop\n        /* \"#utility.yul\":8273:8354   */\n    tag_363:\n        /* \"#utility.yul\":8401:8403   */\n      0x20\n        /* \"#utility.yul\":8393:8399   */\n      dup3\n        /* \"#utility.yul\":8390:8404   */\n      lt\n        /* \"#utility.yul\":8370:8388   */\n      dup2\n        /* \"#utility.yul\":8367:8405   */\n      sub\n        /* \"#utility.yul\":8364:8448   */\n      tag_364\n      jumpi\n        /* \"#utility.yul\":8420:8438   */\n      tag_365\n      tag_259\n      jump\t// in\n    tag_365:\n        /* \"#utility.yul\":8364:8448   */\n    tag_364:\n        /* \"#utility.yul\":8185:8454   */\n      pop\n        /* \"#utility.yul\":8134:8454   */\n      swap2\n      swap1\n      pop\n      jump\t// out\n        /* \"#utility.yul\":8460:8632   */\n    tag_260:\n        /* \"#utility.yul\":8600:8624   */\n      0x43616c6c6572206973206e6f742061206d696e74657200000000000000000000\n        /* \"#utility.yul\":8596:8597   */\n      0x00\n        /* \"#utility.yul\":8588:8594   */\n      dup3\n        /* \"#utility.yul\":8584:8598   */\n      add\n        /* \"#utility.yul\":8577:8625   */\n      mstore\n        /* \"#utility.yul\":8460:8632   */\n      pop\n      jump\t// out\n        /* \"#utility.yul\":8638:9004   */\n    tag_261:\n        /* \"#utility.yul\":8780:8783   */\n      0x00\n        /* \"#utility.yul\":8801:8868   */\n      tag_368\n        /* \"#utility.yul\":8865:8867   */\n      0x16\n        /* \"#utility.yul\":8860:8863   */\n      dup4\n        /* \"#utility.yul\":8801:8868   */\n      tag_241\n      jump\t// in\n    tag_368:\n        /* \"#utility.yul\":8794:8868   */\n      swap2\n      pop\n        /* \"#utility.yul\":8877:8970   */\n      tag_369\n        /* \"#utility.yul\":8966:8969   */\n      dup3\n        /* \"#utility.yul\":8877:8970   */\n      tag_260\n      jump\t// in\n    tag_369:\n        /* \"#utility.yul\":8995:8997   */\n      0x20\n        /* \"#utility.yul\":8990:8993   */\n      dup3\n        /* \"#utility.yul\":8986:8998   */\n      add\n        /* \"#utility.yul\":8979:8998   */\n      swap1\n      pop\n        /* \"#utility.yul\":8638:9004   */\n      swap2\n      swap1\n      pop\n      jump\t// out\n        /* \"#utility.yul\":9010:9429   */\n    tag_147:\n        /* \"#utility.yul\":9176:9180   */\n      0x00\n        /* \"#utility.yul\":9214:9216   */\n      0x20\n        /* \"#utility.yul\":9203:9212   */\n      dup3\n        /* \"#utility.yul\":9199:9217   */\n      add\n        /* \"#utility.yul\":9191:9217   */\n      swap1\n      pop\n        /* \"#utility.yul\":9263:9272   */\n      dup2\n        /* \"#utility.yul\":9257:9261   */\n      dup2\n        /* \"#utility.yul\":9253:9273   */\n      sub\n        /* \"#utility.yul\":9249:9250   */\n      0x00\n        /* \"#utility.yul\":9238:9247   */\n      dup4\n        /* \"#utility.yul\":9234:9251   */\n      add\n        /* \"#utility.yul\":9227:9274   */\n      mstore\n        /* \"#utility.yul\":9291:9422   */\n      tag_371\n        /* \"#utility.yul\":9417:9421   */\n      dup2\n        /* \"#utility.yul\":9291:9422   */\n      tag_261\n      jump\t// in\n    tag_371:\n        /* \"#utility.yul\":9283:9422   */\n      swap1\n      pop\n        /* \"#utility.yul\":9010:9429   */\n      swap2\n      swap1\n      pop\n      jump\t// out\n        /* \"#utility.yul\":9435:9615   */\n    tag_262:\n        /* \"#utility.yul\":9483:9560   */\n      0x4e487b7100000000000000000000000000000000000000000000000000000000\n        /* \"#utility.yul\":9480:9481   */\n      0x00\n        /* \"#utility.yul\":9473:9561   */\n      mstore\n        /* \"#utility.yul\":9580:9584   */\n      0x11\n        /* \"#utility.yul\":9577:9578   */\n      0x04\n        /* \"#utility.yul\":9570:9585   */\n      mstore\n        /* \"#utility.yul\":9604:9608   */\n      0x24\n        /* \"#utility.yul\":9601:9602   */\n      0x00\n        /* \"#utility.yul\":9594:9609   */\n      revert\n        /* \"#utility.yul\":9621:9812   */\n    tag_149:\n        /* \"#utility.yul\":9661:9664   */\n      0x00\n        /* \"#utility.yul\":9680:9700   */\n      tag_374\n        /* \"#utility.yul\":9698:9699   */\n      dup3\n        /* \"#utility.yul\":9680:9700   */\n      tag_249\n      jump\t// in\n    tag_374:\n        /* \"#utility.yul\":9675:9700   */\n      swap2\n      pop\n        /* \"#utility.yul\":9714:9734   */\n      tag_375\n        /* \"#utility.yul\":9732:9733   */\n      dup4\n        /* \"#utility.yul\":9714:9734   */\n      tag_249\n      jump\t// in\n    tag_375:\n        /* \"#utility.yul\":9709:9734   */\n      swap3\n      pop\n        /* \"#utility.yul\":9757:9758   */\n      dup3\n        /* \"#utility.yul\":9754:9755   */\n      dup3\n        /* \"#utility.yul\":9750:9759   */\n      add\n        /* \"#utility.yul\":9743:9759   */\n      swap1\n      pop\n        /* \"#utility.yul\":9778:9781   */\n      dup1\n        /* \"#utility.yul\":9775:9776   */\n      dup3\n        /* \"#utility.yul\":9772:9782   */\n      gt\n        /* \"#utility.yul\":9769:9805   */\n      iszero\n      tag_376\n      jumpi\n        /* \"#utility.yul\":9785:9803   */\n      tag_377\n      tag_262\n      jump\t// in\n    tag_377:\n        /* \"#utility.yul\":9769:9805   */\n    tag_376:\n        /* \"#utility.yul\":9621:9812   */\n      swap3\n      swap2\n      pop\n      pop\n      jump\t// out\n        /* \"#utility.yul\":9818:10041   */\n    tag_263:\n        /* \"#utility.yul\":9958:9992   */\n      0x43616e6e6f74206d696e74206d6f7265207468616e20746865206d6178207375\n        /* \"#utility.yul\":9954:9955   */\n      0x00\n        /* \"#utility.yul\":9946:9952   */\n      dup3\n        /* \"#utility.yul\":9942:9956   */\n      add\n        /* \"#utility.yul\":9935:9993   */\n      mstore\n        /* \"#utility.yul\":10027:10033   */\n      0x70706c7900000000000000000000000000000000000000000000000000000000\n        /* \"#utility.yul\":10022:10024   */\n      0x20\n        /* \"#utility.yul\":10014:10020   */\n      dup3\n        /* \"#utility.yul\":10010:10025   */\n      add\n        /* \"#utility.yul\":10003:10034   */\n      mstore\n        /* \"#utility.yul\":9818:10041   */\n      pop\n      jump\t// out\n        /* \"#utility.yul\":10047:10413   */\n    tag_264:\n        /* \"#utility.yul\":10189:10192   */\n      0x00\n        /* \"#utility.yul\":10210:10277   */\n      tag_380\n        /* \"#utility.yul\":10274:10276   */\n      0x24\n        /* \"#utility.yul\":10269:10272   */\n      dup4\n        /* \"#utility.yul\":10210:10277   */\n      tag_241\n      jump\t// in\n    tag_380:\n        /* \"#utility.yul\":10203:10277   */\n      swap2\n      pop\n        /* \"#utility.yul\":10286:10379   */\n      tag_381\n        /* \"#utility.yul\":10375:10378   */\n      dup3\n        /* \"#utility.yul\":10286:10379   */\n      tag_263\n      jump\t// in\n    tag_381:\n        /* \"#utility.yul\":10404:10406   */\n      0x40\n        /* \"#utility.yul\":10399:10402   */\n      dup3\n        /* \"#utility.yul\":10395:10407   */\n      add\n        /* \"#utility.yul\":10388:10407   */\n      swap1\n      pop\n        /* \"#utility.yul\":10047:10413   */\n      swap2\n      swap1\n      pop\n      jump\t// out\n        /* \"#utility.yul\":10419:10838   */\n    tag_152:\n        /* \"#utility.yul\":10585:10589   */\n      0x00\n        /* \"#utility.yul\":10623:10625   */\n      0x20\n        /* \"#utility.yul\":10612:10621   */\n      dup3\n        /* \"#utility.yul\":10608:10626   */\n      add\n        /* \"#utility.yul\":10600:10626   */\n      swap1\n      pop\n        /* \"#utility.yul\":10672:10681   */\n      dup2\n        /* \"#utility.yul\":10666:10670   */\n      dup2\n        /* \"#utility.yul\":10662:10682   */\n      sub\n        /* \"#utility.yul\":10658:10659   */\n      0x00\n        /* \"#utility.yul\":10647:10656   */\n      dup4\n        /* \"#utility.yul\":10643:10660   */\n      add\n        /* \"#utility.yul\":10636:10683   */\n      mstore\n        /* \"#utility.yul\":10700:10831   */\n      tag_383\n        /* \"#utility.yul\":10826:10830   */\n      dup2\n        /* \"#utility.yul\":10700:10831   */\n      tag_264\n      jump\t// in\n    tag_383:\n        /* \"#utility.yul\":10692:10831   */\n      swap1\n      pop\n        /* \"#utility.yul\":10419:10838   */\n      swap2\n      swap1\n      pop\n      jump\t// out\n        /* \"#utility.yul\":10844:10962   */\n    tag_265:\n        /* \"#utility.yul\":10931:10955   */\n      tag_385\n        /* \"#utility.yul\":10949:10954   */\n      dup2\n        /* \"#utility.yul\":10931:10955   */\n      tag_246\n      jump\t// in\n    tag_385:\n        /* \"#utility.yul\":10926:10929   */\n      dup3\n        /* \"#utility.yul\":10919:10956   */\n      mstore\n        /* \"#utility.yul\":10844:10962   */\n      pop\n      pop\n      jump\t// out\n        /* \"#utility.yul\":10968:11410   */\n    tag_183:\n        /* \"#utility.yul\":11117:11121   */\n      0x00\n        /* \"#utility.yul\":11155:11157   */\n      0x60\n        /* \"#utility.yul\":11144:11153   */\n      dup3\n        /* \"#utility.yul\":11140:11158   */\n      add\n        /* \"#utility.yul\":11132:11158   */\n      swap1\n      pop\n        /* \"#utility.yul\":11168:11239   */\n      tag_387\n        /* \"#utility.yul\":11236:11237   */\n      0x00\n        /* \"#utility.yul\":11225:11234   */\n      dup4\n        /* \"#utility.yul\":11221:11238   */\n      add\n        /* \"#utility.yul\":11212:11218   */\n      dup7\n        /* \"#utility.yul\":11168:11239   */\n      tag_265\n      jump\t// in\n    tag_387:\n        /* \"#utility.yul\":11249:11321   */\n      tag_388\n        /* \"#utility.yul\":11317:11319   */\n      0x20\n        /* \"#utility.yul\":11306:11315   */\n      dup4\n        /* \"#utility.yul\":11302:11320   */\n      add\n        /* \"#utility.yul\":11293:11299   */\n      dup6\n        /* \"#utility.yul\":11249:11321   */\n      tag_252\n      jump\t// in\n    tag_388:\n        /* \"#utility.yul\":11331:11403   */\n      tag_389\n        /* \"#utility.yul\":11399:11401   */\n      0x40\n        /* \"#utility.yul\":11388:11397   */\n      dup4\n        /* \"#utility.yul\":11384:11402   */\n      add\n        /* \"#utility.yul\":11375:11381   */\n      dup5\n        /* \"#utility.yul\":11331:11403   */\n      tag_252\n      jump\t// in\n    tag_389:\n        /* \"#utility.yul\":10968:11410   */\n      swap5\n      swap4\n      pop\n      pop\n      pop\n      pop\n      jump\t// out\n        /* \"#utility.yul\":11416:11638   */\n    tag_188:\n        /* \"#utility.yul\":11509:11513   */\n      0x00\n        /* \"#utility.yul\":11547:11549   */\n      0x20\n        /* \"#utility.yul\":11536:11545   */\n      dup3\n        /* \"#utility.yul\":11532:11550   */\n      add\n        /* \"#utility.yul\":11524:11550   */\n      swap1\n      pop\n        /* \"#utility.yul\":11560:11631   */\n      tag_391\n        /* \"#utility.yul\":11628:11629   */\n      0x00\n        /* \"#utility.yul\":11617:11626   */\n      dup4\n        /* \"#utility.yul\":11613:11630   */\n      add\n        /* \"#utility.yul\":11604:11610   */\n      dup5\n        /* \"#utility.yul\":11560:11631   */\n      tag_265\n      jump\t// in\n    tag_391:\n        /* \"#utility.yul\":11416:11638   */\n      swap3\n      swap2\n      pop\n      pop\n      jump\t// out\n        /* \"#utility.yul\":11644:11976   */\n    tag_231:\n        /* \"#utility.yul\":11765:11769   */\n      0x00\n        /* \"#utility.yul\":11803:11805   */\n      0x40\n        /* \"#utility.yul\":11792:11801   */\n      dup3\n        /* \"#utility.yul\":11788:11806   */\n      add\n        /* \"#utility.yul\":11780:11806   */\n      swap1\n      pop\n        /* \"#utility.yul\":11816:11887   */\n      tag_393\n        /* \"#utility.yul\":11884:11885   */\n      0x00\n        /* \"#utility.yul\":11873:11882   */\n      dup4\n        /* \"#utility.yul\":11869:11886   */\n      add\n        /* \"#utility.yul\":11860:11866   */\n      dup6\n        /* \"#utility.yul\":11816:11887   */\n      tag_265\n      jump\t// in\n    tag_393:\n        /* \"#utility.yul\":11897:11969   */\n      tag_394\n        /* \"#utility.yul\":11965:11967   */\n      0x20\n        /* \"#utility.yul\":11954:11963   */\n      dup4\n        /* \"#utility.yul\":11950:11968   */\n      add\n        /* \"#utility.yul\":11941:11947   */\n      dup5\n        /* \"#utility.yul\":11897:11969   */\n      tag_256\n      jump\t// in\n    tag_394:\n        /* \"#utility.yul\":11644:11976   */\n      swap4\n      swap3\n      pop\n      pop\n      pop\n      jump\t// out\n\n    auxdata: 0xa26469706673582212204457f3f2816c5429f50c20c9b36e4388f8fdf807dbae1010f8ac100d2a9f674764736f6c63430008140033\n}\n",
				"bytecode": {
					"linkReferences": {},
					"object": "60a060405234801562000010575f80fd5b506040516200226e3803806200226e833981810160405281019062000036919062000528565b8383816003908162000049919062000803565b5080600490816200005b919062000803565b505050670de0b6b3a76400008262000074919062000914565b608081815250506200008f5f801b82620000cc60201b60201c565b50620000c27f9f2df0fed2c77648de5860a4cc508cd0818c85b8b8a1ab4ceeef8d981c8956a682620001c860201b60201c565b50505050620009b4565b5f620000df83836200020260201b60201c565b620001be57600160055f8581526020019081526020015f205f015f8473ffffffffffffffffffffffffffffffffffffffff1673ffffffffffffffffffffffffffffffffffffffff1681526020019081526020015f205f6101000a81548160ff0219169083151502179055506200015a6200026660201b60201c565b73ffffffffffffffffffffffffffffffffffffffff168273ffffffffffffffffffffffffffffffffffffffff16847f2f8788117e7eff1d82e926ec794901d17c78024a50270940304540a733656f0d60405160405180910390a460019050620001c2565b5f90505b92915050565b620001d9826200026d60201b60201c565b620001ea816200028a60201b60201c565b620001fc8383620000cc60201b60201c565b50505050565b5f60055f8481526020019081526020015f205f015f8373ffffffffffffffffffffffffffffffffffffffff1673ffffffffffffffffffffffffffffffffffffffff1681526020019081526020015f205f9054906101000a900460ff16905092915050565b5f33905090565b5f60055f8381526020019081526020015f20600101549050919050565b620002ab816200029f6200026660201b60201c565b620002ae60201b60201c565b50565b620002c082826200020260201b60201c565b620003065780826040517fe2517d3f000000000000000000000000000000000000000000000000000000008152600401620002fd92919062000989565b60405180910390fd5b5050565b5f604051905090565b5f80fd5b5f80fd5b5f80fd5b5f80fd5b5f601f19601f8301169050919050565b7f4e487b71000000000000000000000000000000000000000000000000000000005f52604160045260245ffd5b6200036b8262000323565b810181811067ffffffffffffffff821117156200038d576200038c62000333565b5b80604052505050565b5f620003a16200030a565b9050620003af828262000360565b919050565b5f67ffffffffffffffff821115620003d157620003d062000333565b5b620003dc8262000323565b9050602081019050919050565b5f5b8381101562000408578082015181840152602081019050620003eb565b5f8484015250505050565b5f620004296200042384620003b4565b62000396565b9050828152602081018484840111156200044857620004476200031f565b5b62000455848285620003e9565b509392505050565b5f82601f8301126200047457620004736200031b565b5b81516200048684826020860162000413565b91505092915050565b5f819050919050565b620004a3816200048f565b8114620004ae575f80fd5b50565b5f81519050620004c18162000498565b92915050565b5f73ffffffffffffffffffffffffffffffffffffffff82169050919050565b5f620004f282620004c7565b9050919050565b6200050481620004e6565b81146200050f575f80fd5b50565b5f815190506200052281620004f9565b92915050565b5f805f806080858703121562000543576200054262000313565b5b5f85015167ffffffffffffffff81111562000563576200056262000317565b5b62000571878288016200045d565b945050602085015167ffffffffffffffff81111562000595576200059462000317565b5b620005a3878288016200045d565b9350506040620005b687828801620004b1565b9250506060620005c98782880162000512565b91505092959194509250565b5f81519050919050565b7f4e487b71000000000000000000000000000000000000000000000000000000005f52602260045260245ffd5b5f60028204905060018216806200062457607f821691505b6020821081036200063a5762000639620005df565b5b50919050565b5f819050815f5260205f209050919050565b5f6020601f8301049050919050565b5f82821b905092915050565b5f600883026200069e7fffffffffffffffffffffffffffffffffffffffffffffffffffffffffffffffff8262000661565b620006aa868362000661565b95508019841693508086168417925050509392505050565b5f819050919050565b5f620006eb620006e5620006df846200048f565b620006c2565b6200048f565b9050919050565b5f819050919050565b6200070683620006cb565b6200071e6200071582620006f2565b8484546200066d565b825550505050565b5f90565b6200073462000726565b62000741818484620006fb565b505050565b5b8181101562000768576200075c5f826200072a565b60018101905062000747565b5050565b601f821115620007b757620007818162000640565b6200078c8462000652565b810160208510156200079c578190505b620007b4620007ab8562000652565b83018262000746565b50505b505050565b5f82821c905092915050565b5f620007d95f1984600802620007bc565b1980831691505092915050565b5f620007f38383620007c8565b9150826002028217905092915050565b6200080e82620005d5565b67ffffffffffffffff8111156200082a576200082962000333565b5b6200083682546200060c565b620008438282856200076c565b5f60209050601f83116001811462000879575f841562000864578287015190505b620008708582620007e6565b865550620008df565b601f198416620008898662000640565b5f5b82811015620008b2578489015182556001820191506020850194506020810190506200088b565b86831015620008d25784890151620008ce601f891682620007c8565b8355505b6001600288020188555050505b505050505050565b7f4e487b71000000000000000000000000000000000000000000000000000000005f52601160045260245ffd5b5f62000920826200048f565b91506200092d836200048f565b92508282026200093d816200048f565b91508282048414831517620009575762000956620008e7565b5b5092915050565b6200096981620004e6565b82525050565b5f819050919050565b62000983816200096f565b82525050565b5f6040820190506200099e5f8301856200095e565b620009ad602083018462000978565b9392505050565b60805161189a620009d45f395f818161069d01526108e0015261189a5ff3fe608060405234801561000f575f80fd5b506004361061012a575f3560e01c806370a08231116100ab578063a9059cbb1161006f578063a9059cbb14610356578063d539139314610386578063d547741f146103a4578063d5abeb01146103c0578063dd62ed3e146103de5761012a565b806370a082311461029c57806391d14854146102cc57806395d89b41146102fc578063a217fddf1461031a578063a2309ff8146103385761012a565b8063248a9ca3116100f2578063248a9ca3146101fa5780632f2ff15d1461022a578063313ce5671461024657806336568abe1461026457806340c10f19146102805761012a565b806301ffc9a71461012e57806306fdde031461015e578063095ea7b31461017c57806318160ddd146101ac57806323b872dd146101ca575b5f80fd5b61014860048036038101906101439190611281565b61040e565b60405161015591906112c6565b60405180910390f35b610166610487565b6040516101739190611369565b60405180910390f35b61019660048036038101906101919190611416565b610517565b6040516101a391906112c6565b60405180910390f35b6101b4610539565b6040516101c19190611463565b60405180910390f35b6101e460048036038101906101df919061147c565b610542565b6040516101f191906112c6565b60405180910390f35b610214600480360381019061020f91906114ff565b610570565b6040516102219190611539565b60405180910390f35b610244600480360381019061023f9190611552565b61058d565b005b61024e6105af565b60405161025b91906115ab565b60405180910390f35b61027e60048036038101906102799190611552565b6105b7565b005b61029a60048036038101906102959190611416565b610632565b005b6102b660048036038101906102b191906115c4565b610731565b6040516102c39190611463565b60405180910390f35b6102e660048036038101906102e19190611552565b610776565b6040516102f391906112c6565b60405180910390f35b6103046107da565b6040516103119190611369565b60405180910390f35b61032261086a565b60405161032f9190611539565b60405180910390f35b610340610870565b60405161034d9190611463565b60405180910390f35b610370600480360381019061036b9190611416565b610876565b60405161037d91906112c6565b60405180910390f35b61038e610898565b60405161039b9190611539565b60405180910390f35b6103be60048036038101906103b99190611552565b6108bc565b005b6103c86108de565b6040516103d59190611463565b60405180910390f35b6103f860048036038101906103f391906115ef565b610902565b6040516104059190611463565b60405180910390f35b5f7f7965db0b000000000000000000000000000000000000000000000000000000007bffffffffffffffffffffffffffffffffffffffffffffffffffffffff1916827bffffffffffffffffffffffffffffffffffffffffffffffffffffffff19161480610480575061047f82610984565b5b9050919050565b6060600380546104969061165a565b80601f01602080910402602001604051908101604052809291908181526020018280546104c29061165a565b801561050d5780601f106104e45761010080835404028352916020019161050d565b820191905f5260205f20905b8154815290600101906020018083116104f057829003601f168201915b5050505050905090565b5f806105216109ed565b905061052e8185856109f4565b600191505092915050565b5f600254905090565b5f8061054c6109ed565b9050610559858285610a06565b610564858585610a98565b60019150509392505050565b5f60055f8381526020019081526020015f20600101549050919050565b61059682610570565b61059f81610b88565b6105a98383610b9c565b50505050565b5f6012905090565b6105bf6109ed565b73ffffffffffffffffffffffffffffffffffffffff168173ffffffffffffffffffffffffffffffffffffffff1614610623576040517f6697b23200000000000000000000000000000000000000000000000000000000815260040160405180910390fd5b61062d8282610c86565b505050565b61065c7f9f2df0fed2c77648de5860a4cc508cd0818c85b8b8a1ab4ceeef8d981c8956a633610776565b61069b576040517f08c379a0000000000000000000000000000000000000000000000000000000008152600401610692906116d4565b60405180910390fd5b7f0000000000000000000000000000000000000000000000000000000000000000816006546106ca919061171f565b111561070b576040517f08c379a0000000000000000000000000000000000000000000000000000000008152600401610702906117c2565b60405180910390fd5b6107158282610d70565b8060065f828254610726919061171f565b925050819055505050565b5f805f8373ffffffffffffffffffffffffffffffffffffffff1673ffffffffffffffffffffffffffffffffffffffff1681526020019081526020015f20549050919050565b5f60055f8481526020019081526020015f205f015f8373ffffffffffffffffffffffffffffffffffffffff1673ffffffffffffffffffffffffffffffffffffffff1681526020019081526020015f205f9054906101000a900460ff16905092915050565b6060600480546107e99061165a565b80601f01602080910402602001604051908101604052809291908181526020018280546108159061165a565b80156108605780601f1061083757610100808354040283529160200191610860565b820191905f5260205f20905b81548152906001019060200180831161084357829003601f168201915b5050505050905090565b5f801b81565b60065481565b5f806108806109ed565b905061088d818585610a98565b600191505092915050565b7f9f2df0fed2c77648de5860a4cc508cd0818c85b8b8a1ab4ceeef8d981c8956a681565b6108c582610570565b6108ce81610b88565b6108d88383610c86565b50505050565b7f000000000000000000000000000000000000000000000000000000000000000081565b5f60015f8473ffffffffffffffffffffffffffffffffffffffff1673ffffffffffffffffffffffffffffffffffffffff1681526020019081526020015f205f8373ffffffffffffffffffffffffffffffffffffffff1673ffffffffffffffffffffffffffffffffffffffff1681526020019081526020015f2054905092915050565b5f7f01ffc9a7000000000000000000000000000000000000000000000000000000007bffffffffffffffffffffffffffffffffffffffffffffffffffffffff1916827bffffffffffffffffffffffffffffffffffffffffffffffffffffffff1916149050919050565b5f33905090565b610a018383836001610def565b505050565b5f610a118484610902565b90507fffffffffffffffffffffffffffffffffffffffffffffffffffffffffffffffff8114610a925781811015610a83578281836040517ffb8f41b2000000000000000000000000000000000000000000000000000000008152600401610a7a939291906117ef565b60405180910390fd5b610a9184848484035f610def565b5b50505050565b5f73ffffffffffffffffffffffffffffffffffffffff168373ffffffffffffffffffffffffffffffffffffffff1603610b08575f6040517f96c6fd1e000000000000000000000000000000000000000000000000000000008152600401610aff9190611824565b60405180910390fd5b5f73ffffffffffffffffffffffffffffffffffffffff168273ffffffffffffffffffffffffffffffffffffffff1603610b78575f6040517fec442f05000000000000000000000000000000000000000000000000000000008152600401610b6f9190611824565b60405180910390fd5b610b83838383610fbe565b505050565b610b9981610b946109ed565b6111d7565b50565b5f610ba78383610776565b610c7c57600160055f8581526020019081526020015f205f015f8473ffffffffffffffffffffffffffffffffffffffff1673ffffffffffffffffffffffffffffffffffffffff1681526020019081526020015f205f6101000a81548160ff021916908315150217905550610c196109ed565b73ffffffffffffffffffffffffffffffffffffffff168273ffffffffffffffffffffffffffffffffffffffff16847f2f8788117e7eff1d82e926ec794901d17c78024a50270940304540a733656f0d60405160405180910390a460019050610c80565b5f90505b92915050565b5f610c918383610776565b15610d66575f60055f8581526020019081526020015f205f015f8473ffffffffffffffffffffffffffffffffffffffff1673ffffffffffffffffffffffffffffffffffffffff1681526020019081526020015f205f6101000a81548160ff021916908315150217905550610d036109ed565b73ffffffffffffffffffffffffffffffffffffffff168273ffffffffffffffffffffffffffffffffffffffff16847ff6391f5c32d9c69d2a47ea670b442974b53935d1edc7fd64eb21e047a839171b60405160405180910390a460019050610d6a565b5f90505b92915050565b5f73ffffffffffffffffffffffffffffffffffffffff168273ffffffffffffffffffffffffffffffffffffffff1603610de0575f6040517fec442f05000000000000000000000000000000000000000000000000000000008152600401610dd79190611824565b60405180910390fd5b610deb5f8383610fbe565b5050565b5f73ffffffffffffffffffffffffffffffffffffffff168473ffffffffffffffffffffffffffffffffffffffff1603610e5f575f6040517fe602df05000000000000000000000000000000000000000000000000000000008152600401610e569190611824565b60405180910390fd5b5f73ffffffffffffffffffffffffffffffffffffffff168373ffffffffffffffffffffffffffffffffffffffff1603610ecf575f6040517f94280d62000000000000000000000000000000000000000000000000000000008152600401610ec69190611824565b60405180910390fd5b8160015f8673ffffffffffffffffffffffffffffffffffffffff1673ffffffffffffffffffffffffffffffffffffffff1681526020019081526020015f205f8573ffffffffffffffffffffffffffffffffffffffff1673ffffffffffffffffffffffffffffffffffffffff1681526020019081526020015f20819055508015610fb8578273ffffffffffffffffffffffffffffffffffffffff168473ffffffffffffffffffffffffffffffffffffffff167f8c5be1e5ebec7d5bd14f71427d1e84f3dd0314c0f7b2291e5b200ac8c7c3b92584604051610faf9190611463565b60405180910390a35b50505050565b5f73ffffffffffffffffffffffffffffffffffffffff168373ffffffffffffffffffffffffffffffffffffffff160361100e578060025f828254611002919061171f565b925050819055506110dc565b5f805f8573ffffffffffffffffffffffffffffffffffffffff1673ffffffffffffffffffffffffffffffffffffffff1681526020019081526020015f2054905081811015611097578381836040517fe450d38c00000000000000000000000000000000000000000000000000000000815260040161108e939291906117ef565b60405180910390fd5b8181035f808673ffffffffffffffffffffffffffffffffffffffff1673ffffffffffffffffffffffffffffffffffffffff1681526020019081526020015f2081905550505b5f73ffffffffffffffffffffffffffffffffffffffff168273ffffffffffffffffffffffffffffffffffffffff1603611123578060025f828254039250508190555061116d565b805f808473ffffffffffffffffffffffffffffffffffffffff1673ffffffffffffffffffffffffffffffffffffffff1681526020019081526020015f205f82825401925050819055505b8173ffffffffffffffffffffffffffffffffffffffff168373ffffffffffffffffffffffffffffffffffffffff167fddf252ad1be2c89b69c2b068fc378daa952ba7f163c4a11628f55a4df523b3ef836040516111ca9190611463565b60405180910390a3505050565b6111e18282610776565b6112245780826040517fe2517d3f00000000000000000000000000000000000000000000000000000000815260040161121b92919061183d565b60405180910390fd5b5050565b5f80fd5b5f7fffffffff0000000000000000000000000000000000000000000000000000000082169050919050565b6112608161122c565b811461126a575f80fd5b50565b5f8135905061127b81611257565b92915050565b5f6020828403121561129657611295611228565b5b5f6112a38482850161126d565b91505092915050565b5f8115159050919050565b6112c0816112ac565b82525050565b5f6020820190506112d95f8301846112b7565b92915050565b5f81519050919050565b5f82825260208201905092915050565b5f5b838110156113165780820151818401526020810190506112fb565b5f8484015250505050565b5f601f19601f8301169050919050565b5f61133b826112df565b61134581856112e9565b93506113558185602086016112f9565b61135e81611321565b840191505092915050565b5f6020820190508181035f8301526113818184611331565b905092915050565b5f73ffffffffffffffffffffffffffffffffffffffff82169050919050565b5f6113b282611389565b9050919050565b6113c2816113a8565b81146113cc575f80fd5b50565b5f813590506113dd816113b9565b92915050565b5f819050919050565b6113f5816113e3565b81146113ff575f80fd5b50565b5f81359050611410816113ec565b92915050565b5f806040838503121561142c5761142b611228565b5b5f611439858286016113cf565b925050602061144a85828601611402565b9150509250929050565b61145d816113e3565b82525050565b5f6020820190506114765f830184611454565b92915050565b5f805f6060848603121561149357611492611228565b5b5f6114a0868287016113cf565b93505060206114b1868287016113cf565b92505060406114c286828701611402565b9150509250925092565b5f819050919050565b6114de816114cc565b81146114e8575f80fd5b50565b5f813590506114f9816114d5565b92915050565b5f6020828403121561151457611513611228565b5b5f611521848285016114eb565b91505092915050565b611533816114cc565b82525050565b5f60208201905061154c5f83018461152a565b92915050565b5f806040838503121561156857611567611228565b5b5f611575858286016114eb565b9250506020611586858286016113cf565b9150509250929050565b5f60ff82169050919050565b6115a581611590565b82525050565b5f6020820190506115be5f83018461159c565b92915050565b5f602082840312156115d9576115d8611228565b5b5f6115e6848285016113cf565b91505092915050565b5f806040838503121561160557611604611228565b5b5f611612858286016113cf565b9250506020611623858286016113cf565b9150509250929050565b7f4e487b71000000000000000000000000000000000000000000000000000000005f52602260045260245ffd5b5f600282049050600182168061167157607f821691505b6020821081036116845761168361162d565b5b50919050565b7f43616c6c6572206973206e6f742061206d696e746572000000000000000000005f82015250565b5f6116be6016836112e9565b91506116c98261168a565b602082019050919050565b5f6020820190508181035f8301526116eb816116b2565b9050919050565b7f4e487b71000000000000000000000000000000000000000000000000000000005f52601160045260245ffd5b5f611729826113e3565b9150611734836113e3565b925082820190508082111561174c5761174b6116f2565b5b92915050565b7f43616e6e6f74206d696e74206d6f7265207468616e20746865206d61782073755f8201527f70706c7900000000000000000000000000000000000000000000000000000000602082015250565b5f6117ac6024836112e9565b91506117b782611752565b604082019050919050565b5f6020820190508181035f8301526117d9816117a0565b9050919050565b6117e9816113a8565b82525050565b5f6060820190506118025f8301866117e0565b61180f6020830185611454565b61181c6040830184611454565b949350505050565b5f6020820190506118375f8301846117e0565b92915050565b5f6040820190506118505f8301856117e0565b61185d602083018461152a565b939250505056fea26469706673582212204457f3f2816c5429f50c20c9b36e4388f8fdf807dbae1010f8ac100d2a9f674764736f6c63430008140033",
					"opcodes": "PUSH1 0xA0 PUSH1 0x40 MSTORE CALLVALUE DUP1 ISZERO PUSH3 0x10 JUMPI PUSH0 DUP1 REVERT JUMPDEST POP PUSH1 0x40 MLOAD PUSH3 0x226E CODESIZE SUB DUP1 PUSH3 0x226E DUP4 CODECOPY DUP2 DUP2 ADD PUSH1 0x40 MSTORE DUP2 ADD SWAP1 PUSH3 0x36 SWAP2 SWAP1 PUSH3 0x528 JUMP JUMPDEST DUP4 DUP4 DUP2 PUSH1 0x3 SWAP1 DUP2 PUSH3 0x49 SWAP2 SWAP1 PUSH3 0x803 JUMP JUMPDEST POP DUP1 PUSH1 0x4 SWAP1 DUP2 PUSH3 0x5B SWAP2 SWAP1 PUSH3 0x803 JUMP JUMPDEST POP POP POP PUSH8 0xDE0B6B3A7640000 DUP3 PUSH3 0x74 SWAP2 SWAP1 PUSH3 0x914 JUMP JUMPDEST PUSH1 0x80 DUP2 DUP2 MSTORE POP POP PUSH3 0x8F PUSH0 DUP1 SHL DUP3 PUSH3 0xCC PUSH1 0x20 SHL PUSH1 0x20 SHR JUMP JUMPDEST POP PUSH3 0xC2 PUSH32 0x9F2DF0FED2C77648DE5860A4CC508CD0818C85B8B8A1AB4CEEEF8D981C8956A6 DUP3 PUSH3 0x1C8 PUSH1 0x20 SHL PUSH1 0x20 SHR JUMP JUMPDEST POP POP POP POP PUSH3 0x9B4 JUMP JUMPDEST PUSH0 PUSH3 0xDF DUP4 DUP4 PUSH3 0x202 PUSH1 0x20 SHL PUSH1 0x20 SHR JUMP JUMPDEST PUSH3 0x1BE JUMPI PUSH1 0x1 PUSH1 0x5 PUSH0 DUP6 DUP2 MSTORE PUSH1 0x20 ADD SWAP1 DUP2 MSTORE PUSH1 0x20 ADD PUSH0 KECCAK256 PUSH0 ADD PUSH0 DUP5 PUSH20 0xFFFFFFFFFFFFFFFFFFFFFFFFFFFFFFFFFFFFFFFF AND PUSH20 0xFFFFFFFFFFFFFFFFFFFFFFFFFFFFFFFFFFFFFFFF AND DUP2 MSTORE PUSH1 0x20 ADD SWAP1 DUP2 MSTORE PUSH1 0x20 ADD PUSH0 KECCAK256 PUSH0 PUSH2 0x100 EXP DUP2 SLOAD DUP2 PUSH1 0xFF MUL NOT AND SWAP1 DUP4 ISZERO ISZERO MUL OR SWAP1 SSTORE POP PUSH3 0x15A PUSH3 0x266 PUSH1 0x20 SHL PUSH1 0x20 SHR JUMP JUMPDEST PUSH20 0xFFFFFFFFFFFFFFFFFFFFFFFFFFFFFFFFFFFFFFFF AND DUP3 PUSH20 0xFFFFFFFFFFFFFFFFFFFFFFFFFFFFFFFFFFFFFFFF AND DUP5 PUSH32 0x2F8788117E7EFF1D82E926EC794901D17C78024A50270940304540A733656F0D PUSH1 0x40 MLOAD PUSH1 0x40 MLOAD DUP1 SWAP2 SUB SWAP1 LOG4 PUSH1 0x1 SWAP1 POP PUSH3 0x1C2 JUMP JUMPDEST PUSH0 SWAP1 POP JUMPDEST SWAP3 SWAP2 POP POP JUMP JUMPDEST PUSH3 0x1D9 DUP3 PUSH3 0x26D PUSH1 0x20 SHL PUSH1 0x20 SHR JUMP JUMPDEST PUSH3 0x1EA DUP2 PUSH3 0x28A PUSH1 0x20 SHL PUSH1 0x20 SHR JUMP JUMPDEST PUSH3 0x1FC DUP4 DUP4 PUSH3 0xCC PUSH1 0x20 SHL PUSH1 0x20 SHR JUMP JUMPDEST POP POP POP POP JUMP JUMPDEST PUSH0 PUSH1 0x5 PUSH0 DUP5 DUP2 MSTORE PUSH1 0x20 ADD SWAP1 DUP2 MSTORE PUSH1 0x20 ADD PUSH0 KECCAK256 PUSH0 ADD PUSH0 DUP4 PUSH20 0xFFFFFFFFFFFFFFFFFFFFFFFFFFFFFFFFFFFFFFFF AND PUSH20 0xFFFFFFFFFFFFFFFFFFFFFFFFFFFFFFFFFFFFFFFF AND DUP2 MSTORE PUSH1 0x20 ADD SWAP1 DUP2 MSTORE PUSH1 0x20 ADD PUSH0 KECCAK256 PUSH0 SWAP1 SLOAD SWAP1 PUSH2 0x100 EXP SWAP1 DIV PUSH1 0xFF AND SWAP1 POP SWAP3 SWAP2 POP POP JUMP JUMPDEST PUSH0 CALLER SWAP1 POP SWAP1 JUMP JUMPDEST PUSH0 PUSH1 0x5 PUSH0 DUP4 DUP2 MSTORE PUSH1 0x20 ADD SWAP1 DUP2 MSTORE PUSH1 0x20 ADD PUSH0 KECCAK256 PUSH1 0x1 ADD SLOAD SWAP1 POP SWAP2 SWAP1 POP JUMP JUMPDEST PUSH3 0x2AB DUP2 PUSH3 0x29F PUSH3 0x266 PUSH1 0x20 SHL PUSH1 0x20 SHR JUMP JUMPDEST PUSH3 0x2AE PUSH1 0x20 SHL PUSH1 0x20 SHR JUMP JUMPDEST POP JUMP JUMPDEST PUSH3 0x2C0 DUP3 DUP3 PUSH3 0x202 PUSH1 0x20 SHL PUSH1 0x20 SHR JUMP JUMPDEST PUSH3 0x306 JUMPI DUP1 DUP3 PUSH1 0x40 MLOAD PUSH32 0xE2517D3F00000000000000000000000000000000000000000000000000000000 DUP2 MSTORE PUSH1 0x4 ADD PUSH3 0x2FD SWAP3 SWAP2 SWAP1 PUSH3 0x989 JUMP JUMPDEST PUSH1 0x40 MLOAD DUP1 SWAP2 SUB SWAP1 REVERT JUMPDEST POP POP JUMP JUMPDEST PUSH0 PUSH1 0x40 MLOAD SWAP1 POP SWAP1 JUMP JUMPDEST PUSH0 DUP1 REVERT JUMPDEST PUSH0 DUP1 REVERT JUMPDEST PUSH0 DUP1 REVERT JUMPDEST PUSH0 DUP1 REVERT JUMPDEST PUSH0 PUSH1 0x1F NOT PUSH1 0x1F DUP4 ADD AND SWAP1 POP SWAP2 SWAP1 POP JUMP JUMPDEST PUSH32 0x4E487B7100000000000000000000000000000000000000000000000000000000 PUSH0 MSTORE PUSH1 0x41 PUSH1 0x4 MSTORE PUSH1 0x24 PUSH0 REVERT JUMPDEST PUSH3 0x36B DUP3 PUSH3 0x323 JUMP JUMPDEST DUP2 ADD DUP2 DUP2 LT PUSH8 0xFFFFFFFFFFFFFFFF DUP3 GT OR ISZERO PUSH3 0x38D JUMPI PUSH3 0x38C PUSH3 0x333 JUMP JUMPDEST JUMPDEST DUP1 PUSH1 0x40 MSTORE POP POP POP JUMP JUMPDEST PUSH0 PUSH3 0x3A1 PUSH3 0x30A JUMP JUMPDEST SWAP1 POP PUSH3 0x3AF DUP3 DUP3 PUSH3 0x360 JUMP JUMPDEST SWAP2 SWAP1 POP JUMP JUMPDEST PUSH0 PUSH8 0xFFFFFFFFFFFFFFFF DUP3 GT ISZERO PUSH3 0x3D1 JUMPI PUSH3 0x3D0 PUSH3 0x333 JUMP JUMPDEST JUMPDEST PUSH3 0x3DC DUP3 PUSH3 0x323 JUMP JUMPDEST SWAP1 POP PUSH1 0x20 DUP2 ADD SWAP1 POP SWAP2 SWAP1 POP JUMP JUMPDEST PUSH0 JUMPDEST DUP4 DUP2 LT ISZERO PUSH3 0x408 JUMPI DUP1 DUP3 ADD MLOAD DUP2 DUP5 ADD MSTORE PUSH1 0x20 DUP2 ADD SWAP1 POP PUSH3 0x3EB JUMP JUMPDEST PUSH0 DUP5 DUP5 ADD MSTORE POP POP POP POP JUMP JUMPDEST PUSH0 PUSH3 0x429 PUSH3 0x423 DUP5 PUSH3 0x3B4 JUMP JUMPDEST PUSH3 0x396 JUMP JUMPDEST SWAP1 POP DUP3 DUP2 MSTORE PUSH1 0x20 DUP2 ADD DUP5 DUP5 DUP5 ADD GT ISZERO PUSH3 0x448 JUMPI PUSH3 0x447 PUSH3 0x31F JUMP JUMPDEST JUMPDEST PUSH3 0x455 DUP5 DUP3 DUP6 PUSH3 0x3E9 JUMP JUMPDEST POP SWAP4 SWAP3 POP POP POP JUMP JUMPDEST PUSH0 DUP3 PUSH1 0x1F DUP4 ADD SLT PUSH3 0x474 JUMPI PUSH3 0x473 PUSH3 0x31B JUMP JUMPDEST JUMPDEST DUP2 MLOAD PUSH3 0x486 DUP5 DUP3 PUSH1 0x20 DUP7 ADD PUSH3 0x413 JUMP JUMPDEST SWAP2 POP POP SWAP3 SWAP2 POP POP JUMP JUMPDEST PUSH0 DUP2 SWAP1 POP SWAP2 SWAP1 POP JUMP JUMPDEST PUSH3 0x4A3 DUP2 PUSH3 0x48F JUMP JUMPDEST DUP2 EQ PUSH3 0x4AE JUMPI PUSH0 DUP1 REVERT JUMPDEST POP JUMP JUMPDEST PUSH0 DUP2 MLOAD SWAP1 POP PUSH3 0x4C1 DUP2 PUSH3 0x498 JUMP JUMPDEST SWAP3 SWAP2 POP POP JUMP JUMPDEST PUSH0 PUSH20 0xFFFFFFFFFFFFFFFFFFFFFFFFFFFFFFFFFFFFFFFF DUP3 AND SWAP1 POP SWAP2 SWAP1 POP JUMP JUMPDEST PUSH0 PUSH3 0x4F2 DUP3 PUSH3 0x4C7 JUMP JUMPDEST SWAP1 POP SWAP2 SWAP1 POP JUMP JUMPDEST PUSH3 0x504 DUP2 PUSH3 0x4E6 JUMP JUMPDEST DUP2 EQ PUSH3 0x50F JUMPI PUSH0 DUP1 REVERT JUMPDEST POP JUMP JUMPDEST PUSH0 DUP2 MLOAD SWAP1 POP PUSH3 0x522 DUP2 PUSH3 0x4F9 JUMP JUMPDEST SWAP3 SWAP2 POP POP JUMP JUMPDEST PUSH0 DUP1 PUSH0 DUP1 PUSH1 0x80 DUP6 DUP8 SUB SLT ISZERO PUSH3 0x543 JUMPI PUSH3 0x542 PUSH3 0x313 JUMP JUMPDEST JUMPDEST PUSH0 DUP6 ADD MLOAD PUSH8 0xFFFFFFFFFFFFFFFF DUP2 GT ISZERO PUSH3 0x563 JUMPI PUSH3 0x562 PUSH3 0x317 JUMP JUMPDEST JUMPDEST PUSH3 0x571 DUP8 DUP3 DUP9 ADD PUSH3 0x45D JUMP JUMPDEST SWAP5 POP POP PUSH1 0x20 DUP6 ADD MLOAD PUSH8 0xFFFFFFFFFFFFFFFF DUP2 GT ISZERO PUSH3 0x595 JUMPI PUSH3 0x594 PUSH3 0x317 JUMP JUMPDEST JUMPDEST PUSH3 0x5A3 DUP8 DUP3 DUP9 ADD PUSH3 0x45D JUMP JUMPDEST SWAP4 POP POP PUSH1 0x40 PUSH3 0x5B6 DUP8 DUP3 DUP9 ADD PUSH3 0x4B1 JUMP JUMPDEST SWAP3 POP POP PUSH1 0x60 PUSH3 0x5C9 DUP8 DUP3 DUP9 ADD PUSH3 0x512 JUMP JUMPDEST SWAP2 POP POP SWAP3 SWAP6 SWAP2 SWAP5 POP SWAP3 POP JUMP JUMPDEST PUSH0 DUP2 MLOAD SWAP1 POP SWAP2 SWAP1 POP JUMP JUMPDEST PUSH32 0x4E487B7100000000000000000000000000000000000000000000000000000000 PUSH0 MSTORE PUSH1 0x22 PUSH1 0x4 MSTORE PUSH1 0x24 PUSH0 REVERT JUMPDEST PUSH0 PUSH1 0x2 DUP3 DIV SWAP1 POP PUSH1 0x1 DUP3 AND DUP1 PUSH3 0x624 JUMPI PUSH1 0x7F DUP3 AND SWAP2 POP JUMPDEST PUSH1 0x20 DUP3 LT DUP2 SUB PUSH3 0x63A JUMPI PUSH3 0x639 PUSH3 0x5DF JUMP JUMPDEST JUMPDEST POP SWAP2 SWAP1 POP JUMP JUMPDEST PUSH0 DUP2 SWAP1 POP DUP2 PUSH0 MSTORE PUSH1 0x20 PUSH0 KECCAK256 SWAP1 POP SWAP2 SWAP1 POP JUMP JUMPDEST PUSH0 PUSH1 0x20 PUSH1 0x1F DUP4 ADD DIV SWAP1 POP SWAP2 SWAP1 POP JUMP JUMPDEST PUSH0 DUP3 DUP3 SHL SWAP1 POP SWAP3 SWAP2 POP POP JUMP JUMPDEST PUSH0 PUSH1 0x8 DUP4 MUL PUSH3 0x69E PUSH32 0xFFFFFFFFFFFFFFFFFFFFFFFFFFFFFFFFFFFFFFFFFFFFFFFFFFFFFFFFFFFFFFFF DUP3 PUSH3 0x661 JUMP JUMPDEST PUSH3 0x6AA DUP7 DUP4 PUSH3 0x661 JUMP JUMPDEST SWAP6 POP DUP1 NOT DUP5 AND SWAP4 POP DUP1 DUP7 AND DUP5 OR SWAP3 POP POP POP SWAP4 SWAP3 POP POP POP JUMP JUMPDEST PUSH0 DUP2 SWAP1 POP SWAP2 SWAP1 POP JUMP JUMPDEST PUSH0 PUSH3 0x6EB PUSH3 0x6E5 PUSH3 0x6DF DUP5 PUSH3 0x48F JUMP JUMPDEST PUSH3 0x6C2 JUMP JUMPDEST PUSH3 0x48F JUMP JUMPDEST SWAP1 POP SWAP2 SWAP1 POP JUMP JUMPDEST PUSH0 DUP2 SWAP1 POP SWAP2 SWAP1 POP JUMP JUMPDEST PUSH3 0x706 DUP4 PUSH3 0x6CB JUMP JUMPDEST PUSH3 0x71E PUSH3 0x715 DUP3 PUSH3 0x6F2 JUMP JUMPDEST DUP5 DUP5 SLOAD PUSH3 0x66D JUMP JUMPDEST DUP3 SSTORE POP POP POP POP JUMP JUMPDEST PUSH0 SWAP1 JUMP JUMPDEST PUSH3 0x734 PUSH3 0x726 JUMP JUMPDEST PUSH3 0x741 DUP2 DUP5 DUP5 PUSH3 0x6FB JUMP JUMPDEST POP POP POP JUMP JUMPDEST JUMPDEST DUP2 DUP2 LT ISZERO PUSH3 0x768 JUMPI PUSH3 0x75C PUSH0 DUP3 PUSH3 0x72A JUMP JUMPDEST PUSH1 0x1 DUP2 ADD SWAP1 POP PUSH3 0x747 JUMP JUMPDEST POP POP JUMP JUMPDEST PUSH1 0x1F DUP3 GT ISZERO PUSH3 0x7B7 JUMPI PUSH3 0x781 DUP2 PUSH3 0x640 JUMP JUMPDEST PUSH3 0x78C DUP5 PUSH3 0x652 JUMP JUMPDEST DUP2 ADD PUSH1 0x20 DUP6 LT ISZERO PUSH3 0x79C JUMPI DUP2 SWAP1 POP JUMPDEST PUSH3 0x7B4 PUSH3 0x7AB DUP6 PUSH3 0x652 JUMP JUMPDEST DUP4 ADD DUP3 PUSH3 0x746 JUMP JUMPDEST POP POP JUMPDEST POP POP POP JUMP JUMPDEST PUSH0 DUP3 DUP3 SHR SWAP1 POP SWAP3 SWAP2 POP POP JUMP JUMPDEST PUSH0 PUSH3 0x7D9 PUSH0 NOT DUP5 PUSH1 0x8 MUL PUSH3 0x7BC JUMP JUMPDEST NOT DUP1 DUP4 AND SWAP2 POP POP SWAP3 SWAP2 POP POP JUMP JUMPDEST PUSH0 PUSH3 0x7F3 DUP4 DUP4 PUSH3 0x7C8 JUMP JUMPDEST SWAP2 POP DUP3 PUSH1 0x2 MUL DUP3 OR SWAP1 POP SWAP3 SWAP2 POP POP JUMP JUMPDEST PUSH3 0x80E DUP3 PUSH3 0x5D5 JUMP JUMPDEST PUSH8 0xFFFFFFFFFFFFFFFF DUP2 GT ISZERO PUSH3 0x82A JUMPI PUSH3 0x829 PUSH3 0x333 JUMP JUMPDEST JUMPDEST PUSH3 0x836 DUP3 SLOAD PUSH3 0x60C JUMP JUMPDEST PUSH3 0x843 DUP3 DUP3 DUP6 PUSH3 0x76C JUMP JUMPDEST PUSH0 PUSH1 0x20 SWAP1 POP PUSH1 0x1F DUP4 GT PUSH1 0x1 DUP2 EQ PUSH3 0x879 JUMPI PUSH0 DUP5 ISZERO PUSH3 0x864 JUMPI DUP3 DUP8 ADD MLOAD SWAP1 POP JUMPDEST PUSH3 0x870 DUP6 DUP3 PUSH3 0x7E6 JUMP JUMPDEST DUP7 SSTORE POP PUSH3 0x8DF JUMP JUMPDEST PUSH1 0x1F NOT DUP5 AND PUSH3 0x889 DUP7 PUSH3 0x640 JUMP JUMPDEST PUSH0 JUMPDEST DUP3 DUP2 LT ISZERO PUSH3 0x8B2 JUMPI DUP5 DUP10 ADD MLOAD DUP3 SSTORE PUSH1 0x1 DUP3 ADD SWAP2 POP PUSH1 0x20 DUP6 ADD SWAP5 POP PUSH1 0x20 DUP2 ADD SWAP1 POP PUSH3 0x88B JUMP JUMPDEST DUP7 DUP4 LT ISZERO PUSH3 0x8D2 JUMPI DUP5 DUP10 ADD MLOAD PUSH3 0x8CE PUSH1 0x1F DUP10 AND DUP3 PUSH3 0x7C8 JUMP JUMPDEST DUP4 SSTORE POP JUMPDEST PUSH1 0x1 PUSH1 0x2 DUP9 MUL ADD DUP9 SSTORE POP POP POP JUMPDEST POP POP POP POP POP POP JUMP JUMPDEST PUSH32 0x4E487B7100000000000000000000000000000000000000000000000000000000 PUSH0 MSTORE PUSH1 0x11 PUSH1 0x4 MSTORE PUSH1 0x24 PUSH0 REVERT JUMPDEST PUSH0 PUSH3 0x920 DUP3 PUSH3 0x48F JUMP JUMPDEST SWAP2 POP PUSH3 0x92D DUP4 PUSH3 0x48F JUMP JUMPDEST SWAP3 POP DUP3 DUP3 MUL PUSH3 0x93D DUP2 PUSH3 0x48F JUMP JUMPDEST SWAP2 POP DUP3 DUP3 DIV DUP5 EQ DUP4 ISZERO OR PUSH3 0x957 JUMPI PUSH3 0x956 PUSH3 0x8E7 JUMP JUMPDEST JUMPDEST POP SWAP3 SWAP2 POP POP JUMP JUMPDEST PUSH3 0x969 DUP2 PUSH3 0x4E6 JUMP JUMPDEST DUP3 MSTORE POP POP JUMP JUMPDEST PUSH0 DUP2 SWAP1 POP SWAP2 SWAP1 POP JUMP JUMPDEST PUSH3 0x983 DUP2 PUSH3 0x96F JUMP JUMPDEST DUP3 MSTORE POP POP JUMP JUMPDEST PUSH0 PUSH1 0x40 DUP3 ADD SWAP1 POP PUSH3 0x99E PUSH0 DUP4 ADD DUP6 PUSH3 0x95E JUMP JUMPDEST PUSH3 0x9AD PUSH1 0x20 DUP4 ADD DUP5 PUSH3 0x978 JUMP JUMPDEST SWAP4 SWAP3 POP POP POP JUMP JUMPDEST PUSH1 0x80 MLOAD PUSH2 0x189A PUSH3 0x9D4 PUSH0 CODECOPY PUSH0 DUP2 DUP2 PUSH2 0x69D ADD MSTORE PUSH2 0x8E0 ADD MSTORE PUSH2 0x189A PUSH0 RETURN INVALID PUSH1 0x80 PUSH1 0x40 MSTORE CALLVALUE DUP1 ISZERO PUSH2 0xF JUMPI PUSH0 DUP1 REVERT JUMPDEST POP PUSH1 0x4 CALLDATASIZE LT PUSH2 0x12A JUMPI PUSH0 CALLDATALOAD PUSH1 0xE0 SHR DUP1 PUSH4 0x70A08231 GT PUSH2 0xAB JUMPI DUP1 PUSH4 0xA9059CBB GT PUSH2 0x6F JUMPI DUP1 PUSH4 0xA9059CBB EQ PUSH2 0x356 JUMPI DUP1 PUSH4 0xD5391393 EQ PUSH2 0x386 JUMPI DUP1 PUSH4 0xD547741F EQ PUSH2 0x3A4 JUMPI DUP1 PUSH4 0xD5ABEB01 EQ PUSH2 0x3C0 JUMPI DUP1 PUSH4 0xDD62ED3E EQ PUSH2 0x3DE JUMPI PUSH2 0x12A JUMP JUMPDEST DUP1 PUSH4 0x70A08231 EQ PUSH2 0x29C JUMPI DUP1 PUSH4 0x91D14854 EQ PUSH2 0x2CC JUMPI DUP1 PUSH4 0x95D89B41 EQ PUSH2 0x2FC JUMPI DUP1 PUSH4 0xA217FDDF EQ PUSH2 0x31A JUMPI DUP1 PUSH4 0xA2309FF8 EQ PUSH2 0x338 JUMPI PUSH2 0x12A JUMP JUMPDEST DUP1 PUSH4 0x248A9CA3 GT PUSH2 0xF2 JUMPI DUP1 PUSH4 0x248A9CA3 EQ PUSH2 0x1FA JUMPI DUP1 PUSH4 0x2F2FF15D EQ PUSH2 0x22A JUMPI DUP1 PUSH4 0x313CE567 EQ PUSH2 0x246 JUMPI DUP1 PUSH4 0x36568ABE EQ PUSH2 0x264 JUMPI DUP1 PUSH4 0x40C10F19 EQ PUSH2 0x280 JUMPI PUSH2 0x12A JUMP JUMPDEST DUP1 PUSH4 0x1FFC9A7 EQ PUSH2 0x12E JUMPI DUP1 PUSH4 0x6FDDE03 EQ PUSH2 0x15E JUMPI DUP1 PUSH4 0x95EA7B3 EQ PUSH2 0x17C JUMPI DUP1 PUSH4 0x18160DDD EQ PUSH2 0x1AC JUMPI DUP1 PUSH4 0x23B872DD EQ PUSH2 0x1CA JUMPI JUMPDEST PUSH0 DUP1 REVERT JUMPDEST PUSH2 0x148 PUSH1 0x4 DUP1 CALLDATASIZE SUB DUP2 ADD SWAP1 PUSH2 0x143 SWAP2 SWAP1 PUSH2 0x1281 JUMP JUMPDEST PUSH2 0x40E JUMP JUMPDEST PUSH1 0x40 MLOAD PUSH2 0x155 SWAP2 SWAP1 PUSH2 0x12C6 JUMP JUMPDEST PUSH1 0x40 MLOAD DUP1 SWAP2 SUB SWAP1 RETURN JUMPDEST PUSH2 0x166 PUSH2 0x487 JUMP JUMPDEST PUSH1 0x40 MLOAD PUSH2 0x173 SWAP2 SWAP1 PUSH2 0x1369 JUMP JUMPDEST PUSH1 0x40 MLOAD DUP1 SWAP2 SUB SWAP1 RETURN JUMPDEST PUSH2 0x196 PUSH1 0x4 DUP1 CALLDATASIZE SUB DUP2 ADD SWAP1 PUSH2 0x191 SWAP2 SWAP1 PUSH2 0x1416 JUMP JUMPDEST PUSH2 0x517 JUMP JUMPDEST PUSH1 0x40 MLOAD PUSH2 0x1A3 SWAP2 SWAP1 PUSH2 0x12C6 JUMP JUMPDEST PUSH1 0x40 MLOAD DUP1 SWAP2 SUB SWAP1 RETURN JUMPDEST PUSH2 0x1B4 PUSH2 0x539 JUMP JUMPDEST PUSH1 0x40 MLOAD PUSH2 0x1C1 SWAP2 SWAP1 PUSH2 0x1463 JUMP JUMPDEST PUSH1 0x40 MLOAD DUP1 SWAP2 SUB SWAP1 RETURN JUMPDEST PUSH2 0x1E4 PUSH1 0x4 DUP1 CALLDATASIZE SUB DUP2 ADD SWAP1 PUSH2 0x1DF SWAP2 SWAP1 PUSH2 0x147C JUMP JUMPDEST PUSH2 0x542 JUMP JUMPDEST PUSH1 0x40 MLOAD PUSH2 0x1F1 SWAP2 SWAP1 PUSH2 0x12C6 JUMP JUMPDEST PUSH1 0x40 MLOAD DUP1 SWAP2 SUB SWAP1 RETURN JUMPDEST PUSH2 0x214 PUSH1 0x4 DUP1 CALLDATASIZE SUB DUP2 ADD SWAP1 PUSH2 0x20F SWAP2 SWAP1 PUSH2 0x14FF JUMP JUMPDEST PUSH2 0x570 JUMP JUMPDEST PUSH1 0x40 MLOAD PUSH2 0x221 SWAP2 SWAP1 PUSH2 0x1539 JUMP JUMPDEST PUSH1 0x40 MLOAD DUP1 SWAP2 SUB SWAP1 RETURN JUMPDEST PUSH2 0x244 PUSH1 0x4 DUP1 CALLDATASIZE SUB DUP2 ADD SWAP1 PUSH2 0x23F SWAP2 SWAP1 PUSH2 0x1552 JUMP JUMPDEST PUSH2 0x58D JUMP JUMPDEST STOP JUMPDEST PUSH2 0x24E PUSH2 0x5AF JUMP JUMPDEST PUSH1 0x40 MLOAD PUSH2 0x25B SWAP2 SWAP1 PUSH2 0x15AB JUMP JUMPDEST PUSH1 0x40 MLOAD DUP1 SWAP2 SUB SWAP1 RETURN JUMPDEST PUSH2 0x27E PUSH1 0x4 DUP1 CALLDATASIZE SUB DUP2 ADD SWAP1 PUSH2 0x279 SWAP2 SWAP1 PUSH2 0x1552 JUMP JUMPDEST PUSH2 0x5B7 JUMP JUMPDEST STOP JUMPDEST PUSH2 0x29A PUSH1 0x4 DUP1 CALLDATASIZE SUB DUP2 ADD SWAP1 PUSH2 0x295 SWAP2 SWAP1 PUSH2 0x1416 JUMP JUMPDEST PUSH2 0x632 JUMP JUMPDEST STOP JUMPDEST PUSH2 0x2B6 PUSH1 0x4 DUP1 CALLDATASIZE SUB DUP2 ADD SWAP1 PUSH2 0x2B1 SWAP2 SWAP1 PUSH2 0x15C4 JUMP JUMPDEST PUSH2 0x731 JUMP JUMPDEST PUSH1 0x40 MLOAD PUSH2 0x2C3 SWAP2 SWAP1 PUSH2 0x1463 JUMP JUMPDEST PUSH1 0x40 MLOAD DUP1 SWAP2 SUB SWAP1 RETURN JUMPDEST PUSH2 0x2E6 PUSH1 0x4 DUP1 CALLDATASIZE SUB DUP2 ADD SWAP1 PUSH2 0x2E1 SWAP2 SWAP1 PUSH2 0x1552 JUMP JUMPDEST PUSH2 0x776 JUMP JUMPDEST PUSH1 0x40 MLOAD PUSH2 0x2F3 SWAP2 SWAP1 PUSH2 0x12C6 JUMP JUMPDEST PUSH1 0x40 MLOAD DUP1 SWAP2 SUB SWAP1 RETURN JUMPDEST PUSH2 0x304 PUSH2 0x7DA JUMP JUMPDEST PUSH1 0x40 MLOAD PUSH2 0x311 SWAP2 SWAP1 PUSH2 0x1369 JUMP JUMPDEST PUSH1 0x40 MLOAD DUP1 SWAP2 SUB SWAP1 RETURN JUMPDEST PUSH2 0x322 PUSH2 0x86A JUMP JUMPDEST PUSH1 0x40 MLOAD PUSH2 0x32F SWAP2 SWAP1 PUSH2 0x1539 JUMP JUMPDEST PUSH1 0x40 MLOAD DUP1 SWAP2 SUB SWAP1 RETURN JUMPDEST PUSH2 0x340 PUSH2 0x870 JUMP JUMPDEST PUSH1 0x40 MLOAD PUSH2 0x34D SWAP2 SWAP1 PUSH2 0x1463 JUMP JUMPDEST PUSH1 0x40 MLOAD DUP1 SWAP2 SUB SWAP1 RETURN JUMPDEST PUSH2 0x370 PUSH1 0x4 DUP1 CALLDATASIZE SUB DUP2 ADD SWAP1 PUSH2 0x36B SWAP2 SWAP1 PUSH2 0x1416 JUMP JUMPDEST PUSH2 0x876 JUMP JUMPDEST PUSH1 0x40 MLOAD PUSH2 0x37D SWAP2 SWAP1 PUSH2 0x12C6 JUMP JUMPDEST PUSH1 0x40 MLOAD DUP1 SWAP2 SUB SWAP1 RETURN JUMPDEST PUSH2 0x38E PUSH2 0x898 JUMP JUMPDEST PUSH1 0x40 MLOAD PUSH2 0x39B SWAP2 SWAP1 PUSH2 0x1539 JUMP JUMPDEST PUSH1 0x40 MLOAD DUP1 SWAP2 SUB SWAP1 RETURN JUMPDEST PUSH2 0x3BE PUSH1 0x4 DUP1 CALLDATASIZE SUB DUP2 ADD SWAP1 PUSH2 0x3B9 SWAP2 SWAP1 PUSH2 0x1552 JUMP JUMPDEST PUSH2 0x8BC JUMP JUMPDEST STOP JUMPDEST PUSH2 0x3C8 PUSH2 0x8DE JUMP JUMPDEST PUSH1 0x40 MLOAD PUSH2 0x3D5 SWAP2 SWAP1 PUSH2 0x1463 JUMP JUMPDEST PUSH1 0x40 MLOAD DUP1 SWAP2 SUB SWAP1 RETURN JUMPDEST PUSH2 0x3F8 PUSH1 0x4 DUP1 CALLDATASIZE SUB DUP2 ADD SWAP1 PUSH2 0x3F3 SWAP2 SWAP1 PUSH2 0x15EF JUMP JUMPDEST PUSH2 0x902 JUMP JUMPDEST PUSH1 0x40 MLOAD PUSH2 0x405 SWAP2 SWAP1 PUSH2 0x1463 JUMP JUMPDEST PUSH1 0x40 MLOAD DUP1 SWAP2 SUB SWAP1 RETURN JUMPDEST PUSH0 PUSH32 0x7965DB0B00000000000000000000000000000000000000000000000000000000 PUSH28 0xFFFFFFFFFFFFFFFFFFFFFFFFFFFFFFFFFFFFFFFFFFFFFFFFFFFFFFFF NOT AND DUP3 PUSH28 0xFFFFFFFFFFFFFFFFFFFFFFFFFFFFFFFFFFFFFFFFFFFFFFFFFFFFFFFF NOT AND EQ DUP1 PUSH2 0x480 JUMPI POP PUSH2 0x47F DUP3 PUSH2 0x984 JUMP JUMPDEST JUMPDEST SWAP1 POP SWAP2 SWAP1 POP JUMP JUMPDEST PUSH1 0x60 PUSH1 0x3 DUP1 SLOAD PUSH2 0x496 SWAP1 PUSH2 0x165A JUMP JUMPDEST DUP1 PUSH1 0x1F ADD PUSH1 0x20 DUP1 SWAP2 DIV MUL PUSH1 0x20 ADD PUSH1 0x40 MLOAD SWAP1 DUP2 ADD PUSH1 0x40 MSTORE DUP1 SWAP3 SWAP2 SWAP1 DUP2 DUP2 MSTORE PUSH1 0x20 ADD DUP3 DUP1 SLOAD PUSH2 0x4C2 SWAP1 PUSH2 0x165A JUMP JUMPDEST DUP1 ISZERO PUSH2 0x50D JUMPI DUP1 PUSH1 0x1F LT PUSH2 0x4E4 JUMPI PUSH2 0x100 DUP1 DUP4 SLOAD DIV MUL DUP4 MSTORE SWAP2 PUSH1 0x20 ADD SWAP2 PUSH2 0x50D JUMP JUMPDEST DUP3 ADD SWAP2 SWAP1 PUSH0 MSTORE PUSH1 0x20 PUSH0 KECCAK256 SWAP1 JUMPDEST DUP2 SLOAD DUP2 MSTORE SWAP1 PUSH1 0x1 ADD SWAP1 PUSH1 0x20 ADD DUP1 DUP4 GT PUSH2 0x4F0 JUMPI DUP3 SWAP1 SUB PUSH1 0x1F AND DUP3 ADD SWAP2 JUMPDEST POP POP POP POP POP SWAP1 POP SWAP1 JUMP JUMPDEST PUSH0 DUP1 PUSH2 0x521 PUSH2 0x9ED JUMP JUMPDEST SWAP1 POP PUSH2 0x52E DUP2 DUP6 DUP6 PUSH2 0x9F4 JUMP JUMPDEST PUSH1 0x1 SWAP2 POP POP SWAP3 SWAP2 POP POP JUMP JUMPDEST PUSH0 PUSH1 0x2 SLOAD SWAP1 POP SWAP1 JUMP JUMPDEST PUSH0 DUP1 PUSH2 0x54C PUSH2 0x9ED JUMP JUMPDEST SWAP1 POP PUSH2 0x559 DUP6 DUP3 DUP6 PUSH2 0xA06 JUMP JUMPDEST PUSH2 0x564 DUP6 DUP6 DUP6 PUSH2 0xA98 JUMP JUMPDEST PUSH1 0x1 SWAP2 POP POP SWAP4 SWAP3 POP POP POP JUMP JUMPDEST PUSH0 PUSH1 0x5 PUSH0 DUP4 DUP2 MSTORE PUSH1 0x20 ADD SWAP1 DUP2 MSTORE PUSH1 0x20 ADD PUSH0 KECCAK256 PUSH1 0x1 ADD SLOAD SWAP1 POP SWAP2 SWAP1 POP JUMP JUMPDEST PUSH2 0x596 DUP3 PUSH2 0x570 JUMP JUMPDEST PUSH2 0x59F DUP2 PUSH2 0xB88 JUMP JUMPDEST PUSH2 0x5A9 DUP4 DUP4 PUSH2 0xB9C JUMP JUMPDEST POP POP POP POP JUMP JUMPDEST PUSH0 PUSH1 0x12 SWAP1 POP SWAP1 JUMP JUMPDEST PUSH2 0x5BF PUSH2 0x9ED JUMP JUMPDEST PUSH20 0xFFFFFFFFFFFFFFFFFFFFFFFFFFFFFFFFFFFFFFFF AND DUP2 PUSH20 0xFFFFFFFFFFFFFFFFFFFFFFFFFFFFFFFFFFFFFFFF AND EQ PUSH2 0x623 JUMPI PUSH1 0x40 MLOAD PUSH32 0x6697B23200000000000000000000000000000000000000000000000000000000 DUP2 MSTORE PUSH1 0x4 ADD PUSH1 0x40 MLOAD DUP1 SWAP2 SUB SWAP1 REVERT JUMPDEST PUSH2 0x62D DUP3 DUP3 PUSH2 0xC86 JUMP JUMPDEST POP POP POP JUMP JUMPDEST PUSH2 0x65C PUSH32 0x9F2DF0FED2C77648DE5860A4CC508CD0818C85B8B8A1AB4CEEEF8D981C8956A6 CALLER PUSH2 0x776 JUMP JUMPDEST PUSH2 0x69B JUMPI PUSH1 0x40 MLOAD PUSH32 0x8C379A000000000000000000000000000000000000000000000000000000000 DUP2 MSTORE PUSH1 0x4 ADD PUSH2 0x692 SWAP1 PUSH2 0x16D4 JUMP JUMPDEST PUSH1 0x40 MLOAD DUP1 SWAP2 SUB SWAP1 REVERT JUMPDEST PUSH32 0x0 DUP2 PUSH1 0x6 SLOAD PUSH2 0x6CA SWAP2 SWAP1 PUSH2 0x171F JUMP JUMPDEST GT ISZERO PUSH2 0x70B JUMPI PUSH1 0x40 MLOAD PUSH32 0x8C379A000000000000000000000000000000000000000000000000000000000 DUP2 MSTORE PUSH1 0x4 ADD PUSH2 0x702 SWAP1 PUSH2 0x17C2 JUMP JUMPDEST PUSH1 0x40 MLOAD DUP1 SWAP2 SUB SWAP1 REVERT JUMPDEST PUSH2 0x715 DUP3 DUP3 PUSH2 0xD70 JUMP JUMPDEST DUP1 PUSH1 0x6 PUSH0 DUP3 DUP3 SLOAD PUSH2 0x726 SWAP2 SWAP1 PUSH2 0x171F JUMP JUMPDEST SWAP3 POP POP DUP2 SWAP1 SSTORE POP POP POP JUMP JUMPDEST PUSH0 DUP1 PUSH0 DUP4 PUSH20 0xFFFFFFFFFFFFFFFFFFFFFFFFFFFFFFFFFFFFFFFF AND PUSH20 0xFFFFFFFFFFFFFFFFFFFFFFFFFFFFFFFFFFFFFFFF AND DUP2 MSTORE PUSH1 0x20 ADD SWAP1 DUP2 MSTORE PUSH1 0x20 ADD PUSH0 KECCAK256 SLOAD SWAP1 POP SWAP2 SWAP1 POP JUMP JUMPDEST PUSH0 PUSH1 0x5 PUSH0 DUP5 DUP2 MSTORE PUSH1 0x20 ADD SWAP1 DUP2 MSTORE PUSH1 0x20 ADD PUSH0 KECCAK256 PUSH0 ADD PUSH0 DUP4 PUSH20 0xFFFFFFFFFFFFFFFFFFFFFFFFFFFFFFFFFFFFFFFF AND PUSH20 0xFFFFFFFFFFFFFFFFFFFFFFFFFFFFFFFFFFFFFFFF AND DUP2 MSTORE PUSH1 0x20 ADD SWAP1 DUP2 MSTORE PUSH1 0x20 ADD PUSH0 KECCAK256 PUSH0 SWAP1 SLOAD SWAP1 PUSH2 0x100 EXP SWAP1 DIV PUSH1 0xFF AND SWAP1 POP SWAP3 SWAP2 POP POP JUMP JUMPDEST PUSH1 0x60 PUSH1 0x4 DUP1 SLOAD PUSH2 0x7E9 SWAP1 PUSH2 0x165A JUMP JUMPDEST DUP1 PUSH1 0x1F ADD PUSH1 0x20 DUP1 SWAP2 DIV MUL PUSH1 0x20 ADD PUSH1 0x40 MLOAD SWAP1 DUP2 ADD PUSH1 0x40 MSTORE DUP1 SWAP3 SWAP2 SWAP1 DUP2 DUP2 MSTORE PUSH1 0x20 ADD DUP3 DUP1 SLOAD PUSH2 0x815 SWAP1 PUSH2 0x165A JUMP JUMPDEST DUP1 ISZERO PUSH2 0x860 JUMPI DUP1 PUSH1 0x1F LT PUSH2 0x837 JUMPI PUSH2 0x100 DUP1 DUP4 SLOAD DIV MUL DUP4 MSTORE SWAP2 PUSH1 0x20 ADD SWAP2 PUSH2 0x860 JUMP JUMPDEST DUP3 ADD SWAP2 SWAP1 PUSH0 MSTORE PUSH1 0x20 PUSH0 KECCAK256 SWAP1 JUMPDEST DUP2 SLOAD DUP2 MSTORE SWAP1 PUSH1 0x1 ADD SWAP1 PUSH1 0x20 ADD DUP1 DUP4 GT PUSH2 0x843 JUMPI DUP3 SWAP1 SUB PUSH1 0x1F AND DUP3 ADD SWAP2 JUMPDEST POP POP POP POP POP SWAP1 POP SWAP1 JUMP JUMPDEST PUSH0 DUP1 SHL DUP2 JUMP JUMPDEST PUSH1 0x6 SLOAD DUP2 JUMP JUMPDEST PUSH0 DUP1 PUSH2 0x880 PUSH2 0x9ED JUMP JUMPDEST SWAP1 POP PUSH2 0x88D DUP2 DUP6 DUP6 PUSH2 0xA98 JUMP JUMPDEST PUSH1 0x1 SWAP2 POP POP SWAP3 SWAP2 POP POP JUMP JUMPDEST PUSH32 0x9F2DF0FED2C77648DE5860A4CC508CD0818C85B8B8A1AB4CEEEF8D981C8956A6 DUP2 JUMP JUMPDEST PUSH2 0x8C5 DUP3 PUSH2 0x570 JUMP JUMPDEST PUSH2 0x8CE DUP2 PUSH2 0xB88 JUMP JUMPDEST PUSH2 0x8D8 DUP4 DUP4 PUSH2 0xC86 JUMP JUMPDEST POP POP POP POP JUMP JUMPDEST PUSH32 0x0 DUP2 JUMP JUMPDEST PUSH0 PUSH1 0x1 PUSH0 DUP5 PUSH20 0xFFFFFFFFFFFFFFFFFFFFFFFFFFFFFFFFFFFFFFFF AND PUSH20 0xFFFFFFFFFFFFFFFFFFFFFFFFFFFFFFFFFFFFFFFF AND DUP2 MSTORE PUSH1 0x20 ADD SWAP1 DUP2 MSTORE PUSH1 0x20 ADD PUSH0 KECCAK256 PUSH0 DUP4 PUSH20 0xFFFFFFFFFFFFFFFFFFFFFFFFFFFFFFFFFFFFFFFF AND PUSH20 0xFFFFFFFFFFFFFFFFFFFFFFFFFFFFFFFFFFFFFFFF AND DUP2 MSTORE PUSH1 0x20 ADD SWAP1 DUP2 MSTORE PUSH1 0x20 ADD PUSH0 KECCAK256 SLOAD SWAP1 POP SWAP3 SWAP2 POP POP JUMP JUMPDEST PUSH0 PUSH32 0x1FFC9A700000000000000000000000000000000000000000000000000000000 PUSH28 0xFFFFFFFFFFFFFFFFFFFFFFFFFFFFFFFFFFFFFFFFFFFFFFFFFFFFFFFF NOT AND DUP3 PUSH28 0xFFFFFFFFFFFFFFFFFFFFFFFFFFFFFFFFFFFFFFFFFFFFFFFFFFFFFFFF NOT AND EQ SWAP1 POP SWAP2 SWAP1 POP JUMP JUMPDEST PUSH0 CALLER SWAP1 POP SWAP1 JUMP JUMPDEST PUSH2 0xA01 DUP4 DUP4 DUP4 PUSH1 0x1 PUSH2 0xDEF JUMP JUMPDEST POP POP POP JUMP JUMPDEST PUSH0 PUSH2 0xA11 DUP5 DUP5 PUSH2 0x902 JUMP JUMPDEST SWAP1 POP PUSH32 0xFFFFFFFFFFFFFFFFFFFFFFFFFFFFFFFFFFFFFFFFFFFFFFFFFFFFFFFFFFFFFFFF DUP2 EQ PUSH2 0xA92 JUMPI DUP2 DUP2 LT ISZERO PUSH2 0xA83 JUMPI DUP3 DUP2 DUP4 PUSH1 0x40 MLOAD PUSH32 0xFB8F41B200000000000000000000000000000000000000000000000000000000 DUP2 MSTORE PUSH1 0x4 ADD PUSH2 0xA7A SWAP4 SWAP3 SWAP2 SWAP1 PUSH2 0x17EF JUMP JUMPDEST PUSH1 0x40 MLOAD DUP1 SWAP2 SUB SWAP1 REVERT JUMPDEST PUSH2 0xA91 DUP5 DUP5 DUP5 DUP5 SUB PUSH0 PUSH2 0xDEF JUMP JUMPDEST JUMPDEST POP POP POP POP JUMP JUMPDEST PUSH0 PUSH20 0xFFFFFFFFFFFFFFFFFFFFFFFFFFFFFFFFFFFFFFFF AND DUP4 PUSH20 0xFFFFFFFFFFFFFFFFFFFFFFFFFFFFFFFFFFFFFFFF AND SUB PUSH2 0xB08 JUMPI PUSH0 PUSH1 0x40 MLOAD PUSH32 0x96C6FD1E00000000000000000000000000000000000000000000000000000000 DUP2 MSTORE PUSH1 0x4 ADD PUSH2 0xAFF SWAP2 SWAP1 PUSH2 0x1824 JUMP JUMPDEST PUSH1 0x40 MLOAD DUP1 SWAP2 SUB SWAP1 REVERT JUMPDEST PUSH0 PUSH20 0xFFFFFFFFFFFFFFFFFFFFFFFFFFFFFFFFFFFFFFFF AND DUP3 PUSH20 0xFFFFFFFFFFFFFFFFFFFFFFFFFFFFFFFFFFFFFFFF AND SUB PUSH2 0xB78 JUMPI PUSH0 PUSH1 0x40 MLOAD PUSH32 0xEC442F0500000000000000000000000000000000000000000000000000000000 DUP2 MSTORE PUSH1 0x4 ADD PUSH2 0xB6F SWAP2 SWAP1 PUSH2 0x1824 JUMP JUMPDEST PUSH1 0x40 MLOAD DUP1 SWAP2 SUB SWAP1 REVERT JUMPDEST PUSH2 0xB83 DUP4 DUP4 DUP4 PUSH2 0xFBE JUMP JUMPDEST POP POP POP JUMP JUMPDEST PUSH2 0xB99 DUP2 PUSH2 0xB94 PUSH2 0x9ED JUMP JUMPDEST PUSH2 0x11D7 JUMP JUMPDEST POP JUMP JUMPDEST PUSH0 PUSH2 0xBA7 DUP4 DUP4 PUSH2 0x776 JUMP JUMPDEST PUSH2 0xC7C JUMPI PUSH1 0x1 PUSH1 0x5 PUSH0 DUP6 DUP2 MSTORE PUSH1 0x20 ADD SWAP1 DUP2 MSTORE PUSH1 0x20 ADD PUSH0 KECCAK256 PUSH0 ADD PUSH0 DUP5 PUSH20 0xFFFFFFFFFFFFFFFFFFFFFFFFFFFFFFFFFFFFFFFF AND PUSH20 0xFFFFFFFFFFFFFFFFFFFFFFFFFFFFFFFFFFFFFFFF AND DUP2 MSTORE PUSH1 0x20 ADD SWAP1 DUP2 MSTORE PUSH1 0x20 ADD PUSH0 KECCAK256 PUSH0 PUSH2 0x100 EXP DUP2 SLOAD DUP2 PUSH1 0xFF MUL NOT AND SWAP1 DUP4 ISZERO ISZERO MUL OR SWAP1 SSTORE POP PUSH2 0xC19 PUSH2 0x9ED JUMP JUMPDEST PUSH20 0xFFFFFFFFFFFFFFFFFFFFFFFFFFFFFFFFFFFFFFFF AND DUP3 PUSH20 0xFFFFFFFFFFFFFFFFFFFFFFFFFFFFFFFFFFFFFFFF AND DUP5 PUSH32 0x2F8788117E7EFF1D82E926EC794901D17C78024A50270940304540A733656F0D PUSH1 0x40 MLOAD PUSH1 0x40 MLOAD DUP1 SWAP2 SUB SWAP1 LOG4 PUSH1 0x1 SWAP1 POP PUSH2 0xC80 JUMP JUMPDEST PUSH0 SWAP1 POP JUMPDEST SWAP3 SWAP2 POP POP JUMP JUMPDEST PUSH0 PUSH2 0xC91 DUP4 DUP4 PUSH2 0x776 JUMP JUMPDEST ISZERO PUSH2 0xD66 JUMPI PUSH0 PUSH1 0x5 PUSH0 DUP6 DUP2 MSTORE PUSH1 0x20 ADD SWAP1 DUP2 MSTORE PUSH1 0x20 ADD PUSH0 KECCAK256 PUSH0 ADD PUSH0 DUP5 PUSH20 0xFFFFFFFFFFFFFFFFFFFFFFFFFFFFFFFFFFFFFFFF AND PUSH20 0xFFFFFFFFFFFFFFFFFFFFFFFFFFFFFFFFFFFFFFFF AND DUP2 MSTORE PUSH1 0x20 ADD SWAP1 DUP2 MSTORE PUSH1 0x20 ADD PUSH0 KECCAK256 PUSH0 PUSH2 0x100 EXP DUP2 SLOAD DUP2 PUSH1 0xFF MUL NOT AND SWAP1 DUP4 ISZERO ISZERO MUL OR SWAP1 SSTORE POP PUSH2 0xD03 PUSH2 0x9ED JUMP JUMPDEST PUSH20 0xFFFFFFFFFFFFFFFFFFFFFFFFFFFFFFFFFFFFFFFF AND DUP3 PUSH20 0xFFFFFFFFFFFFFFFFFFFFFFFFFFFFFFFFFFFFFFFF AND DUP5 PUSH32 0xF6391F5C32D9C69D2A47EA670B442974B53935D1EDC7FD64EB21E047A839171B PUSH1 0x40 MLOAD PUSH1 0x40 MLOAD DUP1 SWAP2 SUB SWAP1 LOG4 PUSH1 0x1 SWAP1 POP PUSH2 0xD6A JUMP JUMPDEST PUSH0 SWAP1 POP JUMPDEST SWAP3 SWAP2 POP POP JUMP JUMPDEST PUSH0 PUSH20 0xFFFFFFFFFFFFFFFFFFFFFFFFFFFFFFFFFFFFFFFF AND DUP3 PUSH20 0xFFFFFFFFFFFFFFFFFFFFFFFFFFFFFFFFFFFFFFFF AND SUB PUSH2 0xDE0 JUMPI PUSH0 PUSH1 0x40 MLOAD PUSH32 0xEC442F0500000000000000000000000000000000000000000000000000000000 DUP2 MSTORE PUSH1 0x4 ADD PUSH2 0xDD7 SWAP2 SWAP1 PUSH2 0x1824 JUMP JUMPDEST PUSH1 0x40 MLOAD DUP1 SWAP2 SUB SWAP1 REVERT JUMPDEST PUSH2 0xDEB PUSH0 DUP4 DUP4 PUSH2 0xFBE JUMP JUMPDEST POP POP JUMP JUMPDEST PUSH0 PUSH20 0xFFFFFFFFFFFFFFFFFFFFFFFFFFFFFFFFFFFFFFFF AND DUP5 PUSH20 0xFFFFFFFFFFFFFFFFFFFFFFFFFFFFFFFFFFFFFFFF AND SUB PUSH2 0xE5F JUMPI PUSH0 PUSH1 0x40 MLOAD PUSH32 0xE602DF0500000000000000000000000000000000000000000000000000000000 DUP2 MSTORE PUSH1 0x4 ADD PUSH2 0xE56 SWAP2 SWAP1 PUSH2 0x1824 JUMP JUMPDEST PUSH1 0x40 MLOAD DUP1 SWAP2 SUB SWAP1 REVERT JUMPDEST PUSH0 PUSH20 0xFFFFFFFFFFFFFFFFFFFFFFFFFFFFFFFFFFFFFFFF AND DUP4 PUSH20 0xFFFFFFFFFFFFFFFFFFFFFFFFFFFFFFFFFFFFFFFF AND SUB PUSH2 0xECF JUMPI PUSH0 PUSH1 0x40 MLOAD PUSH32 0x94280D6200000000000000000000000000000000000000000000000000000000 DUP2 MSTORE PUSH1 0x4 ADD PUSH2 0xEC6 SWAP2 SWAP1 PUSH2 0x1824 JUMP JUMPDEST PUSH1 0x40 MLOAD DUP1 SWAP2 SUB SWAP1 REVERT JUMPDEST DUP2 PUSH1 0x1 PUSH0 DUP7 PUSH20 0xFFFFFFFFFFFFFFFFFFFFFFFFFFFFFFFFFFFFFFFF AND PUSH20 0xFFFFFFFFFFFFFFFFFFFFFFFFFFFFFFFFFFFFFFFF AND DUP2 MSTORE PUSH1 0x20 ADD SWAP1 DUP2 MSTORE PUSH1 0x20 ADD PUSH0 KECCAK256 PUSH0 DUP6 PUSH20 0xFFFFFFFFFFFFFFFFFFFFFFFFFFFFFFFFFFFFFFFF AND PUSH20 0xFFFFFFFFFFFFFFFFFFFFFFFFFFFFFFFFFFFFFFFF AND DUP2 MSTORE PUSH1 0x20 ADD SWAP1 DUP2 MSTORE PUSH1 0x20 ADD PUSH0 KECCAK256 DUP2 SWAP1 SSTORE POP DUP1 ISZERO PUSH2 0xFB8 JUMPI DUP3 PUSH20 0xFFFFFFFFFFFFFFFFFFFFFFFFFFFFFFFFFFFFFFFF AND DUP5 PUSH20 0xFFFFFFFFFFFFFFFFFFFFFFFFFFFFFFFFFFFFFFFF AND PUSH32 0x8C5BE1E5EBEC7D5BD14F71427D1E84F3DD0314C0F7B2291E5B200AC8C7C3B925 DUP5 PUSH1 0x40 MLOAD PUSH2 0xFAF SWAP2 SWAP1 PUSH2 0x1463 JUMP JUMPDEST PUSH1 0x40 MLOAD DUP1 SWAP2 SUB SWAP1 LOG3 JUMPDEST POP POP POP POP JUMP JUMPDEST PUSH0 PUSH20 0xFFFFFFFFFFFFFFFFFFFFFFFFFFFFFFFFFFFFFFFF AND DUP4 PUSH20 0xFFFFFFFFFFFFFFFFFFFFFFFFFFFFFFFFFFFFFFFF AND SUB PUSH2 0x100E JUMPI DUP1 PUSH1 0x2 PUSH0 DUP3 DUP3 SLOAD PUSH2 0x1002 SWAP2 SWAP1 PUSH2 0x171F JUMP JUMPDEST SWAP3 POP POP DUP2 SWAP1 SSTORE POP PUSH2 0x10DC JUMP JUMPDEST PUSH0 DUP1 PUSH0 DUP6 PUSH20 0xFFFFFFFFFFFFFFFFFFFFFFFFFFFFFFFFFFFFFFFF AND PUSH20 0xFFFFFFFFFFFFFFFFFFFFFFFFFFFFFFFFFFFFFFFF AND DUP2 MSTORE PUSH1 0x20 ADD SWAP1 DUP2 MSTORE PUSH1 0x20 ADD PUSH0 KECCAK256 SLOAD SWAP1 POP DUP2 DUP2 LT ISZERO PUSH2 0x1097 JUMPI DUP4 DUP2 DUP4 PUSH1 0x40 MLOAD PUSH32 0xE450D38C00000000000000000000000000000000000000000000000000000000 DUP2 MSTORE PUSH1 0x4 ADD PUSH2 0x108E SWAP4 SWAP3 SWAP2 SWAP1 PUSH2 0x17EF JUMP JUMPDEST PUSH1 0x40 MLOAD DUP1 SWAP2 SUB SWAP1 REVERT JUMPDEST DUP2 DUP2 SUB PUSH0 DUP1 DUP7 PUSH20 0xFFFFFFFFFFFFFFFFFFFFFFFFFFFFFFFFFFFFFFFF AND PUSH20 0xFFFFFFFFFFFFFFFFFFFFFFFFFFFFFFFFFFFFFFFF AND DUP2 MSTORE PUSH1 0x20 ADD SWAP1 DUP2 MSTORE PUSH1 0x20 ADD PUSH0 KECCAK256 DUP2 SWAP1 SSTORE POP POP JUMPDEST PUSH0 PUSH20 0xFFFFFFFFFFFFFFFFFFFFFFFFFFFFFFFFFFFFFFFF AND DUP3 PUSH20 0xFFFFFFFFFFFFFFFFFFFFFFFFFFFFFFFFFFFFFFFF AND SUB PUSH2 0x1123 JUMPI DUP1 PUSH1 0x2 PUSH0 DUP3 DUP3 SLOAD SUB SWAP3 POP POP DUP2 SWAP1 SSTORE POP PUSH2 0x116D JUMP JUMPDEST DUP1 PUSH0 DUP1 DUP5 PUSH20 0xFFFFFFFFFFFFFFFFFFFFFFFFFFFFFFFFFFFFFFFF AND PUSH20 0xFFFFFFFFFFFFFFFFFFFFFFFFFFFFFFFFFFFFFFFF AND DUP2 MSTORE PUSH1 0x20 ADD SWAP1 DUP2 MSTORE PUSH1 0x20 ADD PUSH0 KECCAK256 PUSH0 DUP3 DUP3 SLOAD ADD SWAP3 POP POP DUP2 SWAP1 SSTORE POP JUMPDEST DUP2 PUSH20 0xFFFFFFFFFFFFFFFFFFFFFFFFFFFFFFFFFFFFFFFF AND DUP4 PUSH20 0xFFFFFFFFFFFFFFFFFFFFFFFFFFFFFFFFFFFFFFFF AND PUSH32 0xDDF252AD1BE2C89B69C2B068FC378DAA952BA7F163C4A11628F55A4DF523B3EF DUP4 PUSH1 0x40 MLOAD PUSH2 0x11CA SWAP2 SWAP1 PUSH2 0x1463 JUMP JUMPDEST PUSH1 0x40 MLOAD DUP1 SWAP2 SUB SWAP1 LOG3 POP POP POP JUMP JUMPDEST PUSH2 0x11E1 DUP3 DUP3 PUSH2 0x776 JUMP JUMPDEST PUSH2 0x1224 JUMPI DUP1 DUP3 PUSH1 0x40 MLOAD PUSH32 0xE2517D3F00000000000000000000000000000000000000000000000000000000 DUP2 MSTORE PUSH1 0x4 ADD PUSH2 0x121B SWAP3 SWAP2 SWAP1 PUSH2 0x183D JUMP JUMPDEST PUSH1 0x40 MLOAD DUP1 SWAP2 SUB SWAP1 REVERT JUMPDEST POP POP JUMP JUMPDEST PUSH0 DUP1 REVERT JUMPDEST PUSH0 PUSH32 0xFFFFFFFF00000000000000000000000000000000000000000000000000000000 DUP3 AND SWAP1 POP SWAP2 SWAP1 POP JUMP JUMPDEST PUSH2 0x1260 DUP2 PUSH2 0x122C JUMP JUMPDEST DUP2 EQ PUSH2 0x126A JUMPI PUSH0 DUP1 REVERT JUMPDEST POP JUMP JUMPDEST PUSH0 DUP2 CALLDATALOAD SWAP1 POP PUSH2 0x127B DUP2 PUSH2 0x1257 JUMP JUMPDEST SWAP3 SWAP2 POP POP JUMP JUMPDEST PUSH0 PUSH1 0x20 DUP3 DUP5 SUB SLT ISZERO PUSH2 0x1296 JUMPI PUSH2 0x1295 PUSH2 0x1228 JUMP JUMPDEST JUMPDEST PUSH0 PUSH2 0x12A3 DUP5 DUP3 DUP6 ADD PUSH2 0x126D JUMP JUMPDEST SWAP2 POP POP SWAP3 SWAP2 POP POP JUMP JUMPDEST PUSH0 DUP2 ISZERO ISZERO SWAP1 POP SWAP2 SWAP1 POP JUMP JUMPDEST PUSH2 0x12C0 DUP2 PUSH2 0x12AC JUMP JUMPDEST DUP3 MSTORE POP POP JUMP JUMPDEST PUSH0 PUSH1 0x20 DUP3 ADD SWAP1 POP PUSH2 0x12D9 PUSH0 DUP4 ADD DUP5 PUSH2 0x12B7 JUMP JUMPDEST SWAP3 SWAP2 POP POP JUMP JUMPDEST PUSH0 DUP2 MLOAD SWAP1 POP SWAP2 SWAP1 POP JUMP JUMPDEST PUSH0 DUP3 DUP3 MSTORE PUSH1 0x20 DUP3 ADD SWAP1 POP SWAP3 SWAP2 POP POP JUMP JUMPDEST PUSH0 JUMPDEST DUP4 DUP2 LT ISZERO PUSH2 0x1316 JUMPI DUP1 DUP3 ADD MLOAD DUP2 DUP5 ADD MSTORE PUSH1 0x20 DUP2 ADD SWAP1 POP PUSH2 0x12FB JUMP JUMPDEST PUSH0 DUP5 DUP5 ADD MSTORE POP POP POP POP JUMP JUMPDEST PUSH0 PUSH1 0x1F NOT PUSH1 0x1F DUP4 ADD AND SWAP1 POP SWAP2 SWAP1 POP JUMP JUMPDEST PUSH0 PUSH2 0x133B DUP3 PUSH2 0x12DF JUMP JUMPDEST PUSH2 0x1345 DUP2 DUP6 PUSH2 0x12E9 JUMP JUMPDEST SWAP4 POP PUSH2 0x1355 DUP2 DUP6 PUSH1 0x20 DUP7 ADD PUSH2 0x12F9 JUMP JUMPDEST PUSH2 0x135E DUP2 PUSH2 0x1321 JUMP JUMPDEST DUP5 ADD SWAP2 POP POP SWAP3 SWAP2 POP POP JUMP JUMPDEST PUSH0 PUSH1 0x20 DUP3 ADD SWAP1 POP DUP2 DUP2 SUB PUSH0 DUP4 ADD MSTORE PUSH2 0x1381 DUP2 DUP5 PUSH2 0x1331 JUMP JUMPDEST SWAP1 POP SWAP3 SWAP2 POP POP JUMP JUMPDEST PUSH0 PUSH20 0xFFFFFFFFFFFFFFFFFFFFFFFFFFFFFFFFFFFFFFFF DUP3 AND SWAP1 POP SWAP2 SWAP1 POP JUMP JUMPDEST PUSH0 PUSH2 0x13B2 DUP3 PUSH2 0x1389 JUMP JUMPDEST SWAP1 POP SWAP2 SWAP1 POP JUMP JUMPDEST PUSH2 0x13C2 DUP2 PUSH2 0x13A8 JUMP JUMPDEST DUP2 EQ PUSH2 0x13CC JUMPI PUSH0 DUP1 REVERT JUMPDEST POP JUMP JUMPDEST PUSH0 DUP2 CALLDATALOAD SWAP1 POP PUSH2 0x13DD DUP2 PUSH2 0x13B9 JUMP JUMPDEST SWAP3 SWAP2 POP POP JUMP JUMPDEST PUSH0 DUP2 SWAP1 POP SWAP2 SWAP1 POP JUMP JUMPDEST PUSH2 0x13F5 DUP2 PUSH2 0x13E3 JUMP JUMPDEST DUP2 EQ PUSH2 0x13FF JUMPI PUSH0 DUP1 REVERT JUMPDEST POP JUMP JUMPDEST PUSH0 DUP2 CALLDATALOAD SWAP1 POP PUSH2 0x1410 DUP2 PUSH2 0x13EC JUMP JUMPDEST SWAP3 SWAP2 POP POP JUMP JUMPDEST PUSH0 DUP1 PUSH1 0x40 DUP4 DUP6 SUB SLT ISZERO PUSH2 0x142C JUMPI PUSH2 0x142B PUSH2 0x1228 JUMP JUMPDEST JUMPDEST PUSH0 PUSH2 0x1439 DUP6 DUP3 DUP7 ADD PUSH2 0x13CF JUMP JUMPDEST SWAP3 POP POP PUSH1 0x20 PUSH2 0x144A DUP6 DUP3 DUP7 ADD PUSH2 0x1402 JUMP JUMPDEST SWAP2 POP POP SWAP3 POP SWAP3 SWAP1 POP JUMP JUMPDEST PUSH2 0x145D DUP2 PUSH2 0x13E3 JUMP JUMPDEST DUP3 MSTORE POP POP JUMP JUMPDEST PUSH0 PUSH1 0x20 DUP3 ADD SWAP1 POP PUSH2 0x1476 PUSH0 DUP4 ADD DUP5 PUSH2 0x1454 JUMP JUMPDEST SWAP3 SWAP2 POP POP JUMP JUMPDEST PUSH0 DUP1 PUSH0 PUSH1 0x60 DUP5 DUP7 SUB SLT ISZERO PUSH2 0x1493 JUMPI PUSH2 0x1492 PUSH2 0x1228 JUMP JUMPDEST JUMPDEST PUSH0 PUSH2 0x14A0 DUP7 DUP3 DUP8 ADD PUSH2 0x13CF JUMP JUMPDEST SWAP4 POP POP PUSH1 0x20 PUSH2 0x14B1 DUP7 DUP3 DUP8 ADD PUSH2 0x13CF JUMP JUMPDEST SWAP3 POP POP PUSH1 0x40 PUSH2 0x14C2 DUP7 DUP3 DUP8 ADD PUSH2 0x1402 JUMP JUMPDEST SWAP2 POP POP SWAP3 POP SWAP3 POP SWAP3 JUMP JUMPDEST PUSH0 DUP2 SWAP1 POP SWAP2 SWAP1 POP JUMP JUMPDEST PUSH2 0x14DE DUP2 PUSH2 0x14CC JUMP JUMPDEST DUP2 EQ PUSH2 0x14E8 JUMPI PUSH0 DUP1 REVERT JUMPDEST POP JUMP JUMPDEST PUSH0 DUP2 CALLDATALOAD SWAP1 POP PUSH2 0x14F9 DUP2 PUSH2 0x14D5 JUMP JUMPDEST SWAP3 SWAP2 POP POP JUMP JUMPDEST PUSH0 PUSH1 0x20 DUP3 DUP5 SUB SLT ISZERO PUSH2 0x1514 JUMPI PUSH2 0x1513 PUSH2 0x1228 JUMP JUMPDEST JUMPDEST PUSH0 PUSH2 0x1521 DUP5 DUP3 DUP6 ADD PUSH2 0x14EB JUMP JUMPDEST SWAP2 POP POP SWAP3 SWAP2 POP POP JUMP JUMPDEST PUSH2 0x1533 DUP2 PUSH2 0x14CC JUMP JUMPDEST DUP3 MSTORE POP POP JUMP JUMPDEST PUSH0 PUSH1 0x20 DUP3 ADD SWAP1 POP PUSH2 0x154C PUSH0 DUP4 ADD DUP5 PUSH2 0x152A JUMP JUMPDEST SWAP3 SWAP2 POP POP JUMP JUMPDEST PUSH0 DUP1 PUSH1 0x40 DUP4 DUP6 SUB SLT ISZERO PUSH2 0x1568 JUMPI PUSH2 0x1567 PUSH2 0x1228 JUMP JUMPDEST JUMPDEST PUSH0 PUSH2 0x1575 DUP6 DUP3 DUP7 ADD PUSH2 0x14EB JUMP JUMPDEST SWAP3 POP POP PUSH1 0x20 PUSH2 0x1586 DUP6 DUP3 DUP7 ADD PUSH2 0x13CF JUMP JUMPDEST SWAP2 POP POP SWAP3 POP SWAP3 SWAP1 POP JUMP JUMPDEST PUSH0 PUSH1 0xFF DUP3 AND SWAP1 POP SWAP2 SWAP1 POP JUMP JUMPDEST PUSH2 0x15A5 DUP2 PUSH2 0x1590 JUMP JUMPDEST DUP3 MSTORE POP POP JUMP JUMPDEST PUSH0 PUSH1 0x20 DUP3 ADD SWAP1 POP PUSH2 0x15BE PUSH0 DUP4 ADD DUP5 PUSH2 0x159C JUMP JUMPDEST SWAP3 SWAP2 POP POP JUMP JUMPDEST PUSH0 PUSH1 0x20 DUP3 DUP5 SUB SLT ISZERO PUSH2 0x15D9 JUMPI PUSH2 0x15D8 PUSH2 0x1228 JUMP JUMPDEST JUMPDEST PUSH0 PUSH2 0x15E6 DUP5 DUP3 DUP6 ADD PUSH2 0x13CF JUMP JUMPDEST SWAP2 POP POP SWAP3 SWAP2 POP POP JUMP JUMPDEST PUSH0 DUP1 PUSH1 0x40 DUP4 DUP6 SUB SLT ISZERO PUSH2 0x1605 JUMPI PUSH2 0x1604 PUSH2 0x1228 JUMP JUMPDEST JUMPDEST PUSH0 PUSH2 0x1612 DUP6 DUP3 DUP7 ADD PUSH2 0x13CF JUMP JUMPDEST SWAP3 POP POP PUSH1 0x20 PUSH2 0x1623 DUP6 DUP3 DUP7 ADD PUSH2 0x13CF JUMP JUMPDEST SWAP2 POP POP SWAP3 POP SWAP3 SWAP1 POP JUMP JUMPDEST PUSH32 0x4E487B7100000000000000000000000000000000000000000000000000000000 PUSH0 MSTORE PUSH1 0x22 PUSH1 0x4 MSTORE PUSH1 0x24 PUSH0 REVERT JUMPDEST PUSH0 PUSH1 0x2 DUP3 DIV SWAP1 POP PUSH1 0x1 DUP3 AND DUP1 PUSH2 0x1671 JUMPI PUSH1 0x7F DUP3 AND SWAP2 POP JUMPDEST PUSH1 0x20 DUP3 LT DUP2 SUB PUSH2 0x1684 JUMPI PUSH2 0x1683 PUSH2 0x162D JUMP JUMPDEST JUMPDEST POP SWAP2 SWAP1 POP JUMP JUMPDEST PUSH32 0x43616C6C6572206973206E6F742061206D696E74657200000000000000000000 PUSH0 DUP3 ADD MSTORE POP JUMP JUMPDEST PUSH0 PUSH2 0x16BE PUSH1 0x16 DUP4 PUSH2 0x12E9 JUMP JUMPDEST SWAP2 POP PUSH2 0x16C9 DUP3 PUSH2 0x168A JUMP JUMPDEST PUSH1 0x20 DUP3 ADD SWAP1 POP SWAP2 SWAP1 POP JUMP JUMPDEST PUSH0 PUSH1 0x20 DUP3 ADD SWAP1 POP DUP2 DUP2 SUB PUSH0 DUP4 ADD MSTORE PUSH2 0x16EB DUP2 PUSH2 0x16B2 JUMP JUMPDEST SWAP1 POP SWAP2 SWAP1 POP JUMP JUMPDEST PUSH32 0x4E487B7100000000000000000000000000000000000000000000000000000000 PUSH0 MSTORE PUSH1 0x11 PUSH1 0x4 MSTORE PUSH1 0x24 PUSH0 REVERT JUMPDEST PUSH0 PUSH2 0x1729 DUP3 PUSH2 0x13E3 JUMP JUMPDEST SWAP2 POP PUSH2 0x1734 DUP4 PUSH2 0x13E3 JUMP JUMPDEST SWAP3 POP DUP3 DUP3 ADD SWAP1 POP DUP1 DUP3 GT ISZERO PUSH2 0x174C JUMPI PUSH2 0x174B PUSH2 0x16F2 JUMP JUMPDEST JUMPDEST SWAP3 SWAP2 POP POP JUMP JUMPDEST PUSH32 0x43616E6E6F74206D696E74206D6F7265207468616E20746865206D6178207375 PUSH0 DUP3 ADD MSTORE PUSH32 0x70706C7900000000000000000000000000000000000000000000000000000000 PUSH1 0x20 DUP3 ADD MSTORE POP JUMP JUMPDEST PUSH0 PUSH2 0x17AC PUSH1 0x24 DUP4 PUSH2 0x12E9 JUMP JUMPDEST SWAP2 POP PUSH2 0x17B7 DUP3 PUSH2 0x1752 JUMP JUMPDEST PUSH1 0x40 DUP3 ADD SWAP1 POP SWAP2 SWAP1 POP JUMP JUMPDEST PUSH0 PUSH1 0x20 DUP3 ADD SWAP1 POP DUP2 DUP2 SUB PUSH0 DUP4 ADD MSTORE PUSH2 0x17D9 DUP2 PUSH2 0x17A0 JUMP JUMPDEST SWAP1 POP SWAP2 SWAP1 POP JUMP JUMPDEST PUSH2 0x17E9 DUP2 PUSH2 0x13A8 JUMP JUMPDEST DUP3 MSTORE POP POP JUMP JUMPDEST PUSH0 PUSH1 0x60 DUP3 ADD SWAP1 POP PUSH2 0x1802 PUSH0 DUP4 ADD DUP7 PUSH2 0x17E0 JUMP JUMPDEST PUSH2 0x180F PUSH1 0x20 DUP4 ADD DUP6 PUSH2 0x1454 JUMP JUMPDEST PUSH2 0x181C PUSH1 0x40 DUP4 ADD DUP5 PUSH2 0x1454 JUMP JUMPDEST SWAP5 SWAP4 POP POP POP POP JUMP JUMPDEST PUSH0 PUSH1 0x20 DUP3 ADD SWAP1 POP PUSH2 0x1837 PUSH0 DUP4 ADD DUP5 PUSH2 0x17E0 JUMP JUMPDEST SWAP3 SWAP2 POP POP JUMP JUMPDEST PUSH0 PUSH1 0x40 DUP3 ADD SWAP1 POP PUSH2 0x1850 PUSH0 DUP4 ADD DUP6 PUSH2 0x17E0 JUMP JUMPDEST PUSH2 0x185D PUSH1 0x20 DUP4 ADD DUP5 PUSH2 0x152A JUMP JUMPDEST SWAP4 SWAP3 POP POP POP JUMP INVALID LOG2 PUSH5 0x6970667358 0x22 SLT KECCAK256 PREVRANDAO JUMPI RETURN CALLCODE DUP2 PUSH13 0x5429F50C20C9B36E4388F8FDF8 SMOD 0xDB 0xAE LT LT 0xF8 0xAC LT 0xD 0x2A SWAP16 PUSH8 0x4764736F6C634300 ADDMOD EQ STOP CALLER "
				},
				"gasEstimates": {
					"creation": {
						"codeDepositCost": "1259600",
						"executionCost": "infinite",
						"totalCost": "infinite"
					},
					"external": {
						"DEFAULT_ADMIN_ROLE()": "419",
						"MINTER_ROLE()": "369",
						"allowance(address,address)": "infinite",
						"approve(address,uint256)": "infinite",
						"balanceOf(address)": "2852",
						"decimals()": "405",
						"getRoleAdmin(bytes32)": "infinite",
						"grantRole(bytes32,address)": "infinite",
						"hasRole(bytes32,address)": "3167",
						"maxSupply()": "infinite",
						"mint(address,uint256)": "infinite",
						"name()": "infinite",
						"renounceRole(bytes32,address)": "infinite",
						"revokeRole(bytes32,address)": "infinite",
						"supportsInterface(bytes4)": "741",
						"symbol()": "infinite",
						"totalMinted()": "2536",
						"totalSupply()": "2522",
						"transfer(address,uint256)": "infinite",
						"transferFrom(address,address,uint256)": "infinite"
					}
				},
				"methodIdentifiers": {
					"DEFAULT_ADMIN_ROLE()": "a217fddf",
					"MINTER_ROLE()": "d5391393",
					"allowance(address,address)": "dd62ed3e",
					"approve(address,uint256)": "095ea7b3",
					"balanceOf(address)": "70a08231",
					"decimals()": "313ce567",
					"getRoleAdmin(bytes32)": "248a9ca3",
					"grantRole(bytes32,address)": "2f2ff15d",
					"hasRole(bytes32,address)": "91d14854",
					"maxSupply()": "d5abeb01",
					"mint(address,uint256)": "40c10f19",
					"name()": "06fdde03",
					"renounceRole(bytes32,address)": "36568abe",
					"revokeRole(bytes32,address)": "d547741f",
					"supportsInterface(bytes4)": "01ffc9a7",
					"symbol()": "95d89b41",
					"totalMinted()": "a2309ff8",
					"totalSupply()": "18160ddd",
					"transfer(address,uint256)": "a9059cbb",
					"transferFrom(address,address,uint256)": "23b872dd"
				}
			},
			"storageLayout": {
				"storage": [
					{
						"astId": 538,
						"contract": "contracts/AssetToken.sol:AssetToken",
						"label": "_balances",
						"offset": 0,
						"slot": "0",
						"type": "t_mapping(t_address,t_uint256)"
					},
					{
						"astId": 544,
						"contract": "contracts/AssetToken.sol:AssetToken",
						"label": "_allowances",
						"offset": 0,
						"slot": "1",
						"type": "t_mapping(t_address,t_mapping(t_address,t_uint256))"
					},
					{
						"astId": 546,
						"contract": "contracts/AssetToken.sol:AssetToken",
						"label": "_totalSupply",
						"offset": 0,
						"slot": "2",
						"type": "t_uint256"
					},
					{
						"astId": 548,
						"contract": "contracts/AssetToken.sol:AssetToken",
						"label": "_name",
						"offset": 0,
						"slot": "3",
						"type": "t_string_storage"
					},
					{
						"astId": 550,
						"contract": "contracts/AssetToken.sol:AssetToken",
						"label": "_symbol",
						"offset": 0,
						"slot": "4",
						"type": "t_string_storage"
					},
					{
						"astId": 26,
						"contract": "contracts/AssetToken.sol:AssetToken",
						"label": "_roles",
						"offset": 0,
						"slot": "5",
						"type": "t_mapping(t_bytes32,t_struct(RoleData)21_storage)"
					},
					{
						"astId": 1217,
						"contract": "contracts/AssetToken.sol:AssetToken",
						"label": "totalMinted",
						"offset": 0,
						"slot": "6",
						"type": "t_uint256"
					}
				],
				"types": {
					"t_address": {
						"encoding": "inplace",
						"label": "address",
						"numberOfBytes": "20"
					},
					"t_bool": {
						"encoding": "inplace",
						"label": "bool",
						"numberOfBytes": "1"
					},
					"t_bytes32": {
						"encoding": "inplace",
						"label": "bytes32",
						"numberOfBytes": "32"
					},
					"t_mapping(t_address,t_bool)": {
						"encoding": "mapping",
						"key": "t_address",
						"label": "mapping(address => bool)",
						"numberOfBytes": "32",
						"value": "t_bool"
					},
					"t_mapping(t_address,t_mapping(t_address,t_uint256))": {
						"encoding": "mapping",
						"key": "t_address",
						"label": "mapping(address => mapping(address => uint256))",
						"numberOfBytes": "32",
						"value": "t_mapping(t_address,t_uint256)"
					},
					"t_mapping(t_address,t_uint256)": {
						"encoding": "mapping",
						"key": "t_address",
						"label": "mapping(address => uint256)",
						"numberOfBytes": "32",
						"value": "t_uint256"
					},
					"t_mapping(t_bytes32,t_struct(RoleData)21_storage)": {
						"encoding": "mapping",
						"key": "t_bytes32",
						"label": "mapping(bytes32 => struct AccessControl.RoleData)",
						"numberOfBytes": "32",
						"value": "t_struct(RoleData)21_storage"
					},
					"t_string_storage": {
						"encoding": "bytes",
						"label": "string",
						"numberOfBytes": "32"
					},
					"t_struct(RoleData)21_storage": {
						"encoding": "inplace",
						"label": "struct AccessControl.RoleData",
						"members": [
							{
								"astId": 18,
								"contract": "contracts/AssetToken.sol:AssetToken",
								"label": "hasRole",
								"offset": 0,
								"slot": "0",
								"type": "t_mapping(t_address,t_bool)"
							},
							{
								"astId": 20,
								"contract": "contracts/AssetToken.sol:AssetToken",
								"label": "adminRole",
								"offset": 0,
								"slot": "1",
								"type": "t_bytes32"
							}
						],
						"numberOfBytes": "64"
					},
					"t_uint256": {
						"encoding": "inplace",
						"label": "uint256",
						"numberOfBytes": "32"
					}
				}
			},
			"userdoc": {
				"kind": "user",
				"methods": {},
				"version": 1
			}
		}
	}
}